{
  "_format": "hh3-artifact-1",
  "contractName": "PayloadIGP111",
  "sourceName": "contracts/payloads/IGP111/PayloadIGP111.sol",
  "abi": [
    {
      "inputs": [
        {
          "internalType": "uint256",
          "name": "errorId_",
          "type": "uint256"
        }
      ],
      "name": "FluidLiquidityCalcsError",
      "type": "error"
    },
    {
      "inputs": [],
      "name": "ADDRESS_THIS",
      "outputs": [
        {
          "internalType": "address",
          "name": "",
          "type": "address"
        }
      ],
      "stateMutability": "view",
      "type": "function"
    },
    {
      "inputs": [],
      "name": "BTC_USD_PRICE",
      "outputs": [
        {
          "internalType": "uint256",
          "name": "",
          "type": "uint256"
        }
      ],
      "stateMutability": "view",
      "type": "function"
    },
    {
      "inputs": [],
      "name": "DEX_FACTORY",
      "outputs": [
        {
          "internalType": "contract IFluidDexFactory",
          "name": "",
          "type": "address"
        }
      ],
      "stateMutability": "view",
      "type": "function"
    },
    {
      "inputs": [],
      "name": "DSA_CONNECTORS_V2",
      "outputs": [
        {
          "internalType": "contract IDSAConnectorsV2",
          "name": "",
          "type": "address"
        }
      ],
      "stateMutability": "view",
      "type": "function"
    },
    {
      "inputs": [],
      "name": "ETH_USD_PRICE",
      "outputs": [
        {
          "internalType": "uint256",
          "name": "",
          "type": "uint256"
        }
      ],
      "stateMutability": "view",
      "type": "function"
    },
    {
      "inputs": [],
      "name": "FLUID_RESERVE",
      "outputs": [
        {
          "internalType": "contract IFluidReserveContract",
          "name": "",
          "type": "address"
        }
      ],
      "stateMutability": "view",
      "type": "function"
    },
    {
      "inputs": [],
      "name": "FLUID_USD_PRICE",
      "outputs": [
        {
          "internalType": "uint256",
          "name": "",
          "type": "uint256"
        }
      ],
      "stateMutability": "view",
      "type": "function"
    },
    {
      "inputs": [],
      "name": "GOVERNOR",
      "outputs": [
        {
          "internalType": "contract IGovernorBravo",
          "name": "",
          "type": "address"
        }
      ],
      "stateMutability": "view",
      "type": "function"
    },
    {
      "inputs": [],
      "name": "IETHV2",
      "outputs": [
        {
          "internalType": "contract ILite",
          "name": "",
          "type": "address"
        }
      ],
      "stateMutability": "view",
      "type": "function"
    },
    {
      "inputs": [],
      "name": "JRUSDE_USD_PRICE",
      "outputs": [
        {
          "internalType": "uint256",
          "name": "",
          "type": "uint256"
        }
      ],
      "stateMutability": "view",
      "type": "function"
    },
    {
      "inputs": [],
      "name": "LENDING_FACTORY",
      "outputs": [
        {
          "internalType": "contract IFluidLendingFactory",
          "name": "",
          "type": "address"
        }
      ],
      "stateMutability": "view",
      "type": "function"
    },
    {
      "inputs": [],
      "name": "LIQUIDITY",
      "outputs": [
        {
          "internalType": "contract IFluidLiquidityAdmin",
          "name": "",
          "type": "address"
        }
      ],
      "stateMutability": "view",
      "type": "function"
    },
    {
      "inputs": [],
      "name": "PAXG_USD_PRICE",
      "outputs": [
        {
          "internalType": "uint256",
          "name": "",
          "type": "uint256"
        }
      ],
      "stateMutability": "view",
      "type": "function"
    },
    {
      "inputs": [],
      "name": "PROPOSAL_ID",
      "outputs": [
        {
          "internalType": "uint256",
          "name": "",
          "type": "uint256"
        }
      ],
      "stateMutability": "view",
      "type": "function"
    },
    {
      "inputs": [],
      "name": "PROPOSER",
      "outputs": [
        {
          "internalType": "address",
          "name": "",
          "type": "address"
        }
      ],
      "stateMutability": "view",
      "type": "function"
    },
    {
      "inputs": [],
      "name": "PROPOSER_AVO_MULTISIG",
      "outputs": [
        {
          "internalType": "address",
          "name": "",
          "type": "address"
        }
      ],
      "stateMutability": "view",
      "type": "function"
    },
    {
      "inputs": [],
      "name": "PROPOSER_AVO_MULTISIG_2",
      "outputs": [
        {
          "internalType": "address",
          "name": "",
          "type": "address"
        }
      ],
      "stateMutability": "view",
      "type": "function"
    },
    {
      "inputs": [],
      "name": "PROPOSER_AVO_MULTISIG_3",
      "outputs": [
        {
          "internalType": "address",
          "name": "",
          "type": "address"
        }
      ],
      "stateMutability": "view",
      "type": "function"
    },
    {
      "inputs": [],
      "name": "PROPOSER_AVO_MULTISIG_4",
      "outputs": [
        {
          "internalType": "address",
          "name": "",
          "type": "address"
        }
      ],
      "stateMutability": "view",
      "type": "function"
    },
    {
      "inputs": [],
      "name": "PROPOSER_AVO_MULTISIG_5",
      "outputs": [
        {
          "internalType": "address",
          "name": "",
          "type": "address"
        }
      ],
      "stateMutability": "view",
      "type": "function"
    },
    {
      "inputs": [],
      "name": "RESERVE_CONTRACT_PROXY",
      "outputs": [
        {
          "internalType": "address",
          "name": "",
          "type": "address"
        }
      ],
      "stateMutability": "view",
      "type": "function"
    },
    {
      "inputs": [],
      "name": "RLP_USD_PRICE",
      "outputs": [
        {
          "internalType": "uint256",
          "name": "",
          "type": "uint256"
        }
      ],
      "stateMutability": "view",
      "type": "function"
    },
    {
      "inputs": [],
      "name": "SMART_LENDING_FACTORY",
      "outputs": [
        {
          "internalType": "contract IFluidSmartLendingFactory",
          "name": "",
          "type": "address"
        }
      ],
      "stateMutability": "view",
      "type": "function"
    },
    {
      "inputs": [],
      "name": "SRUSDE_USD_PRICE",
      "outputs": [
        {
          "internalType": "uint256",
          "name": "",
          "type": "uint256"
        }
      ],
      "stateMutability": "view",
      "type": "function"
    },
    {
      "inputs": [],
      "name": "STABLE_USD_PRICE",
      "outputs": [
        {
          "internalType": "uint256",
          "name": "",
          "type": "uint256"
        }
      ],
      "stateMutability": "view",
      "type": "function"
    },
    {
      "inputs": [],
      "name": "TEAM_MULTISIG",
      "outputs": [
        {
          "internalType": "address",
          "name": "",
          "type": "address"
        }
      ],
      "stateMutability": "view",
      "type": "function"
    },
    {
      "inputs": [],
      "name": "TEAM_MULTISIG_2",
      "outputs": [
        {
          "internalType": "address",
          "name": "",
          "type": "address"
        }
      ],
      "stateMutability": "view",
      "type": "function"
    },
    {
      "inputs": [],
      "name": "TIMELOCK",
      "outputs": [
        {
          "internalType": "contract ITimelock",
          "name": "",
          "type": "address"
        }
      ],
      "stateMutability": "view",
      "type": "function"
    },
    {
      "inputs": [],
      "name": "TREASURY",
      "outputs": [
        {
          "internalType": "contract IDSAV2",
          "name": "",
          "type": "address"
        }
      ],
      "stateMutability": "view",
      "type": "function"
    },
    {
      "inputs": [],
      "name": "VAULT_FACTORY",
      "outputs": [
        {
          "internalType": "contract IFluidVaultFactory",
          "name": "",
          "type": "address"
        }
      ],
      "stateMutability": "view",
      "type": "function"
    },
    {
      "inputs": [],
      "name": "XAUT_USD_PRICE",
      "outputs": [
        {
          "internalType": "uint256",
          "name": "",
          "type": "uint256"
        }
      ],
      "stateMutability": "view",
      "type": "function"
    },
    {
      "inputs": [
        {
          "internalType": "uint256",
          "name": "action_",
          "type": "uint256"
        }
      ],
      "name": "actionStatus",
      "outputs": [
        {
          "internalType": "bool",
          "name": "",
          "type": "bool"
        }
      ],
      "stateMutability": "view",
      "type": "function"
    },
    {
      "inputs": [],
      "name": "execute",
      "outputs": [],
      "stateMutability": "nonpayable",
      "type": "function"
    },
    {
      "inputs": [],
      "name": "ezETH_USD_PRICE",
      "outputs": [
        {
          "internalType": "uint256",
          "name": "",
          "type": "uint256"
        }
      ],
      "stateMutability": "view",
      "type": "function"
    },
    {
      "inputs": [
        {
          "internalType": "uint256",
          "name": "dexId_",
          "type": "uint256"
        }
      ],
      "name": "getDexAddress",
      "outputs": [
        {
          "internalType": "address",
          "name": "",
          "type": "address"
        }
      ],
      "stateMutability": "view",
      "type": "function"
    },
    {
      "inputs": [
        {
          "internalType": "address",
          "name": "token",
          "type": "address"
        }
      ],
      "name": "getFTokenAddress",
      "outputs": [
        {
          "internalType": "address",
          "name": "",
          "type": "address"
        }
      ],
      "stateMutability": "view",
      "type": "function"
    },
    {
      "inputs": [],
      "name": "getProposalCreationTime",
      "outputs": [
        {
          "internalType": "uint40",
          "name": "",
          "type": "uint40"
        }
      ],
      "stateMutability": "view",
      "type": "function"
    },
    {
      "inputs": [
        {
          "internalType": "address",
          "name": "token",
          "type": "address"
        },
        {
          "internalType": "uint256",
          "name": "amount",
          "type": "uint256"
        },
        {
          "internalType": "uint256",
          "name": "amountInUSD",
          "type": "uint256"
        },
        {
          "internalType": "bool",
          "name": "isSupply",
          "type": "bool"
        }
      ],
      "name": "getRawAmount",
      "outputs": [
        {
          "internalType": "uint256",
          "name": "",
          "type": "uint256"
        }
      ],
      "stateMutability": "view",
      "type": "function"
    },
    {
      "inputs": [
        {
          "internalType": "uint256",
          "name": "dexId_",
          "type": "uint256"
        }
      ],
      "name": "getSmartLendingAddress",
      "outputs": [
        {
          "internalType": "address",
          "name": "",
          "type": "address"
        }
      ],
      "stateMutability": "view",
      "type": "function"
    },
    {
      "inputs": [
        {
          "internalType": "uint256",
          "name": "vaultId_",
          "type": "uint256"
        }
      ],
      "name": "getVaultAddress",
      "outputs": [
        {
          "internalType": "address",
          "name": "",
          "type": "address"
        }
      ],
      "stateMutability": "view",
      "type": "function"
    },
    {
      "inputs": [],
      "name": "isProposalExecutable",
      "outputs": [
        {
          "internalType": "bool",
          "name": "",
          "type": "bool"
        }
      ],
      "stateMutability": "view",
      "type": "function"
    },
    {
      "inputs": [],
      "name": "mETH_USD_PRICE",
      "outputs": [
        {
          "internalType": "uint256",
          "name": "",
          "type": "uint256"
        }
      ],
      "stateMutability": "view",
      "type": "function"
    },
    {
      "inputs": [
        {
          "internalType": "string",
          "name": "description",
          "type": "string"
        }
      ],
      "name": "propose",
      "outputs": [],
      "stateMutability": "nonpayable",
      "type": "function"
    },
    {
      "inputs": [],
      "name": "rsETH_USD_PRICE",
      "outputs": [
        {
          "internalType": "uint256",
          "name": "",
          "type": "uint256"
        }
      ],
      "stateMutability": "view",
      "type": "function"
    },
    {
      "inputs": [],
      "name": "sUSDe_USD_PRICE",
      "outputs": [
        {
          "internalType": "uint256",
          "name": "",
          "type": "uint256"
        }
      ],
      "stateMutability": "view",
      "type": "function"
    },
    {
      "inputs": [],
      "name": "sUSDs_USD_PRICE",
      "outputs": [
        {
          "internalType": "uint256",
          "name": "",
          "type": "uint256"
        }
      ],
      "stateMutability": "view",
      "type": "function"
    },
    {
      "inputs": [
        {
          "internalType": "uint256[]",
          "name": "actionsToSkip_",
          "type": "uint256[]"
        }
      ],
      "name": "setActionsToSkip",
      "outputs": [],
      "stateMutability": "nonpayable",
      "type": "function"
    },
    {
      "inputs": [
        {
          "internalType": "uint40",
          "name": "proposalCreationTime_",
          "type": "uint40"
        }
      ],
      "name": "setProposalCreationTime",
      "outputs": [],
      "stateMutability": "nonpayable",
      "type": "function"
    },
    {
      "inputs": [],
      "name": "syrupUSDC_USD_PRICE",
      "outputs": [
        {
          "internalType": "uint256",
          "name": "",
          "type": "uint256"
        }
      ],
      "stateMutability": "view",
      "type": "function"
    },
    {
      "inputs": [],
      "name": "syrupUSDT_USD_PRICE",
      "outputs": [
        {
          "internalType": "uint256",
          "name": "",
          "type": "uint256"
        }
      ],
      "stateMutability": "view",
      "type": "function"
    },
    {
      "inputs": [
        {
          "internalType": "bool",
          "name": "isExecutable_",
          "type": "bool"
        }
      ],
      "name": "toggleExecutable",
      "outputs": [],
      "stateMutability": "nonpayable",
      "type": "function"
    },
    {
      "inputs": [],
      "name": "verifyProposal",
      "outputs": [],
      "stateMutability": "view",
      "type": "function"
    },
    {
      "inputs": [],
      "name": "weETH_USD_PRICE",
      "outputs": [
        {
          "internalType": "uint256",
          "name": "",
          "type": "uint256"
        }
      ],
      "stateMutability": "view",
      "type": "function"
    },
    {
      "inputs": [],
      "name": "weETHs_USD_PRICE",
      "outputs": [
        {
          "internalType": "uint256",
          "name": "",
          "type": "uint256"
        }
      ],
      "stateMutability": "view",
      "type": "function"
    },
    {
      "inputs": [],
      "name": "wstETH_USD_PRICE",
      "outputs": [
        {
          "internalType": "uint256",
          "name": "",
          "type": "uint256"
        }
      ],
      "stateMutability": "view",
      "type": "function"
    },
    {
      "inputs": [],
      "name": "wstUSR_USD_PRICE",
      "outputs": [
        {
          "internalType": "uint256",
          "name": "",
          "type": "uint256"
        }
      ],
      "stateMutability": "view",
      "type": "function"
    }
  ],
  "bytecode": "0x60a060405234801561000f575f80fd5b50306080526080516145d861005d5f395f81816106b30152818161140b01528181611585015281816118940152818161197701528181611f220152818161313e015261339a01526145d85ff3fe608060405234801561000f575f80fd5b5060043610610366575f3560e01c80637aadef8b116101c9578063aa98df39116100fe578063cc025f7c1161009e578063f6370aa911610079578063f6370aa914610703578063f88ed60c1461070d578063fb0ae91814610728578063fcee0c981461073b575f80fd5b8063cc025f7c146106ae578063e6bd26a2146106d5578063f53eddcc146106e8575f80fd5b8063b753428b116100d9578063b753428b14610390578063b788f3a11461066c578063bffa7f0f14610680578063c60dc2651461069b575f80fd5b8063aa98df3914610651578063ae68032b14610664578063b6966495146104cf575f80fd5b80639781a8ca116101695780639ef94737116101445780639ef94737146105f4578063a5caf0f61461060c578063a64f56931461062e578063a905583614610649575f80fd5b80639781a8ca146105bc57806397b87b4a146105c65780639d3d2a78146105e1575f80fd5b8063841d2699116101a4578063841d26991461056957806395861bd71461057c57806396bac9311461059757806396db7d5c146105b2575f80fd5b80637aadef8b1461052b5780637e2f35fa1461054657806383f5d77a14610561575f80fd5b806328787d001161029f578063623007321161023f57806366760d7d1161021a57806366760d7d146103bd5780636dc0ae22146104fd5780637000778e1461048f578063798d5ba314610518575f80fd5b806362300732146104eb57806364e9d567146104f55780636521e19f14610398575f80fd5b806348bbb5571161027a57806348bbb55714610499578063588c77e6146104b457806358f2552e146104cf57806361461954146104e3575f80fd5b806328787d00146103905780632d2c5565146104745780633484818b1461048f575f80fd5b806311ae7a141161030a578063194c0e18116102e5578063194c0e181461042c5780631bbc51a71461043657806325ad7f4d1461043e5780632861c7d114610459575f80fd5b806311ae7a14146103f257806312e366aa146103fa5780631392d4ee1461040d575f80fd5b80630b396e66116103455780630b396e66146103985780630bc9136e146103a25780630e6a204c146103aa578063103f2907146103bf575f80fd5b8062623d7d1461036a5780630251eb1114610386578063040e7a8014610390575b5f80fd5b6103736101a481565b6040519081526020015b60405180910390f35b6103736203f7a081565b610373606481565b61037362040b2881565b610373606f81565b6103bd6103b8366004613db9565b610756565b005b6103da73324c5dc1fc42c7a4d43d92df1eba58a54d13bf2d81565b6040516001600160a01b03909116815260200161037d565b610373607581565b6103da610408366004613ddb565b6107cc565b5f5465010000000000900460ff165b604051901515815260200161037d565b6103736204a76881565b610373606e81565b6103da739efde135ca4832abf0408c44c6f5f370eb0f35e881565b6103da7352aa899454998be5b000ad077a46bbe360f4e49781565b6103da7328849d2b63fa8d361e5fc15cb8abb13019884d0981565b6103736204f1a081565b6103da73e7eb63a8b6392481a9fdebb108cfd580dc8664d381565b6103da735c43aac965ff230ac1cf63e924d0153291d78bad81565b6103da5f8051602061458383398151915281565b6103bd610847565b6103736203d09081565b610373606981565b6103da730204cd037b2ec03605cfdfe482d8e257c765fa1b81565b6103bd610526366004613df2565b610871565b6103da732386dc45added673317ef068992f19421b481f4c81565b6103da73059a94a72951c0ae1cc1ce3bf0db52421bbe821081565b610373607681565b6103da610577366004613ddb565b610923565b6103da73a0d3707c569ff8c87fa923d3823ec5d81c98be7881565b6103da7354b91a0d94cb471f37f949c60f7fa7935b551d0381565b61037362041ac881565b610373629d2a6081565b6103da7391716c4eda1fb55e84bf8b4c7085f84285c1908581565b6103736105ef366004613e75565b61095d565b5f5460405164ffffffffff909116815260200161037d565b61041c61061a366004613ddb565b5f9081526001602052604090205460ff1690565b6103da7397b0b3a8bdefe8cb9563a3c610019ad10db8ad1181565b610373607181565b6103bd61065f366004613ed0565b611148565b610373606b81565b6103da5f8051602061456383398151915281565b6103da73a45f7bd6a5ff45d31aace6bcd3d426d9328cea0181565b6103da6106a9366004613f7b565b6115ee565b6103da7f000000000000000000000000000000000000000000000000000000000000000081565b6103da6106e3366004613ddb565b6116dc565b6103da73e57227c7d5900165344b190fc7aa580bceb53b9b81565b61037362041eb081565b6103da733daff61fe5cfb1f1b4ea7fba8173a58532ef184181565b6103bd610736366004613f96565b611716565b6103da731e2e1aed876f67fe4fd54090fd7b8f57ce23421981565b335f80516020614563833981519152146107ab5760405162461bcd60e51b81526020600482015260116024820152706e6f742d7465616d2d6d756c746973696760781b60448201526064015b60405180910390fd5b5f8054911515650100000000000265ff000000000019909216919091179055565b604051630971b35560e11b8152600481018290525f907391716c4eda1fb55e84bf8b4c7085f84285c19085906312e366aa906024015b602060405180830381865afa15801561081d573d5f803e3d5ffd5b505050506040513d601f19601f820116820180604052508101906108419190613fba565b92915050565b61084f61183c565b61085761195e565b61085f611f09565b610867613125565b61086f613382565b565b335f80516020614563833981519152146108c15760405162461bcd60e51b81526020600482015260116024820152706e6f742d7465616d2d6d756c746973696760781b60448201526064016107a2565b5f5b8181101561091e576001805f8585858181106108e1576108e1613fd5565b9050602002013581526020019081526020015f205f6101000a81548160ff021916908315150217905550808061091690613ffd565b9150506108c3565b505050565b60405163841d269960e01b8152600481018290525f9073e57227c7d5900165344b190fc7aa580bceb53b9b9063841d269990602401610802565b5f808411801561096c57505f83115b156109b95760405162461bcd60e51b815260206004820181905260248201527f626f74682075736420616e6420616d6f756e7420617265206e6f74207a65726f60448201526064016107a2565b604080516001600160a01b03871660208083019190915260058284015282518083038401815260608301938490528051910120632d71cdb960e21b90925260648101919091525f907352aa899454998be5b000ad077a46bbe360f4e4979063b5c736e490608401602060405180830381865afa158015610a3b573d5f803e3d5ffd5b505050506040513d601f19601f82011682018060405250810190610a5f9190614015565b90505f80610a6c836135ff565b90925090505f601273eeeeeeeeeeeeeeeeeeeeeeeeeeeeeeeeeeeeeeed196001600160a01b038b1601610aa757506203d090905060126110c9565b737f39c581f595b53c5cb19bd0b3f8da6c935e2c9f196001600160a01b038b1601610ada57506204a768905060126110c9565b73cd5fe23c85820f7b72d0926fc9b05b43e359b7ed196001600160a01b038b1601610b0d575062041eb0905060126110c9565b73a1290d69c65a6fe4df752f95823fae25cb99e5a6196001600160a01b038b1601610b40575062040b28905060126110c9565b73917cee801a67f933f2e6b33fc0cd1ed2d5909d87196001600160a01b038b1601610b7357506203f7a0905060126110c9565b73d5f7838f5c461feff7fe49ea5ebaf7728bb0adf9196001600160a01b038b1601610ba6575062041ac8905060126110c9565b73bf5495efe5db9ce00f80364c8b423567e58d210f196001600160a01b038b1601610bd9575062040b28905060126110c9565b6001600160a01b038a1673cbb7c0000ab88b473b1f5afd9ef808440eed33bf1480610c2057506001600160a01b038a16732260fac5e5542a773aa44fbcfedf7c193bc2c599145b80610c4757506001600160a01b038a1673657e8c867d8b37dcc18fa4caead9c45eb088c642145b80610c6e57506001600160a01b038a16738236a87084f8b84306f72007f36f2618a5634494145b15610c815750629d2a60905060086110c9565b7318084fba666a33d37592fa2633fd49a74dd93a87196001600160a01b038b1601610cb45750629d2a60905060126110c9565b6001600160a01b038a1673a0b86991c6218b36c1d19d4a2e9eb0ce3606eb481480610cfb57506001600160a01b038a1673dac17f958d2ee523a2206206994597c13d831ec7145b15610d0c57506064905060066110c9565b739d39a5de30e57443bff2a8307a4256c8797a3496196001600160a01b038b1601610d3d57506075905060126110c9565b73a3931d71877c0e7a3148cb7eb4463524fec27fbc196001600160a01b038b1601610d6e57506069905060126110c9565b73356b8d89c1e1239cbbb9de4815c39a1474d5ba7c196001600160a01b038b1601610d9f5750606e905060066110c9565b7380ac24aa929eaf5013f6436cda2a7ba190f5cc0a196001600160a01b038b1601610dd057506071905060066110c9565b73c58d044404d8b14e953c115e67823784dea53d8e196001600160a01b038b1601610e0157506064905060126110c9565b733d7d6fdf07ee548b939a80edbc9b2256d0cdc002196001600160a01b038b1601610e3257506064905060126110c9565b6001600160a01b038a167340d16fc0246ad3160ccc09b8d0d3a2cd28ae6c2f1480610e7957506001600160a01b038a16734c9edd5852cd905f086c759e8383e09bff1e68b3145b80610ea057506001600160a01b038a167315700b564ca08d9439c58ca5053166e8317aa138145b80610ec757506001600160a01b038a167366a1e37c9b0eaddca17d3662d6c05f4decf3e110145b80610eee57506001600160a01b038a167373a15fed60bf67631dc6cd7bc5b6e8da8190acf5145b80610f1557506001600160a01b038a1673085780639cc2cacd35e474e71f4d000e2405d8f6145b80610f3c57506001600160a01b038a1673b01dd87b29d187f3e3a4bf6cdaebfb97f3d9ab98145b80610f6357506001600160a01b038a167348f9e38f3070ad8945dfeae3fa70987722e3d89c145b80610f8a57506001600160a01b038a1673c139190f447e929f090edeb554d95abb8b18ac1c145b15610f9b57506064905060126110c9565b736f40d4a6237c257fff2db00fa0510deeecd303ea196001600160a01b038b1601610fcd57506101a4905060126110c9565b731202f5c7b4b9e47a1a484e8b270be34dbbc75054196001600160a01b038b1601610ffe5750606b905060126110c9565b734956b52ae2ff65d74ca2d61207523288e4528f95196001600160a01b038b160161102f57506076905060126110c9565b7368749665ff8d2d112fa859aa293f07a622782f37196001600160a01b038b160161106257506204f1a0905060066110c9565b7345804880de22913dafe09f4980848ece6ecbaf77196001600160a01b038b160161109557506204f1a0905060126110c9565b60405162461bcd60e51b81526020600482015260096024820152681b9bdd0b599bdd5b9960ba1b60448201526064016107a2565b5f876110d557836110d7565b845b9050891561110657806110ef8b64e8d4a5100061402c565b6110f99190614057565b9650505050505050611140565b6064611112828561402c565b61111c9190614057565b61112783600a614156565b6111368b64e8d4a5100061402c565b6110ef919061402c565b949350505050565b3373a45f7bd6a5ff45d31aace6bcd3d426d9328cea0114806111765750335f80516020614563833981519152145b8061119457503073059a94a72951c0ae1cc1ce3bf0db52421bbe8210145b806111b2575030739efde135ca4832abf0408c44c6f5f370eb0f35e8145b806111d0575030735c43aac965ff230ac1cf63e924d0153291d78bad145b806111ee575030733daff61fe5cfb1f1b4ea7fba8173a58532ef1841145b8061120c57503073e7eb63a8b6392481a9fdebb108cfd580dc8664d3145b6112515760405162461bcd60e51b81526020600482015260166024820152751b5cd9cb9cd95b99195c8b5b9bdd0b585b1b1bddd95960521b60448201526064016107a2565b6040805160018082528183019092525f9082602080830190803683370190505090505f8267ffffffffffffffff81111561128d5761128d613ebc565b6040519080825280602002602001820160405280156112b6578160200160208202803683370190505b5090505f8367ffffffffffffffff8111156112d3576112d3613ebc565b60405190808252806020026020018201604052801561130657816020015b60608152602001906001900390816112f15790505b5090505f8467ffffffffffffffff81111561132357611323613ebc565b60405190808252806020026020018201604052801561135657816020015b60608152602001906001900390816113415790505b509050732386dc45added673317ef068992f19421b481f4c845f8151811061138057611380613fd5565b60200260200101906001600160a01b031690816001600160a01b0316815250505f835f815181106113b3576113b3613fd5565b60200260200101818152505060405180606001604052806024815260200161453f60249139825f815181106113ea576113ea613fd5565b602090810291909101810191909152604080515f81529182018152611432917f00000000000000000000000000000000000000000000000000000000000000009181016141ae565b604051602081830303815290604052815f8151811061145357611453613fd5565b6020908102919091010152604051636d4ab48d60e11b81525f90730204cd037b2ec03605cfdfe482d8e257c765fa1b9063da95691a9061149f9088908890889088908e906004016142b1565b6020604051808303815f875af11580156114bb573d5f803e3d5ffd5b505050506040513d601f19601f820116820180604052508101906114df9190614015565b9050606f81146115285760405162461bcd60e51b815260206004820152601460248201527350524f504f53414c5f49535f4e4f545f53414d4560601b60448201526064016107a2565b3373a45f7bd6a5ff45d31aace6bcd3d426d9328cea0114806115565750335f80516020614563833981519152145b156115695761156442611716565b6115e5565b604051631f615d2360e31b815264ffffffffff421660048201527f00000000000000000000000000000000000000000000000000000000000000006001600160a01b03169063fb0ae918906024015f604051808303815f87803b1580156115ce575f80fd5b505af11580156115e0573d5f803e3d5ffd5b505050505b50505050505050565b5f73c02aaa39b223fe8d0a0e5c4f27ead9083c756cc1196001600160a01b0383160161167d576040805163bb4a64d360e01b81526001600160a01b03841660048201526024810191909152601060448201526f4e6174697665556e6465726c79696e6760801b60648201527354b91a0d94cb471f37f949c60f7fa7935b551d039063bb4a64d390608401610802565b6040805163bb4a64d360e01b81526001600160a01b038416600482015260248101919091526006604482015265332a37b5b2b760d11b60648201527354b91a0d94cb471f37f949c60f7fa7935b551d039063bb4a64d390608401610802565b60405163735e935160e11b8152600481018290525f9073324c5dc1fc42c7a4d43d92df1eba58a54d13bf2d9063e6bd26a290602401610802565b3373a45f7bd6a5ff45d31aace6bcd3d426d9328cea0114806117445750335f80516020614563833981519152145b8061176257503373059a94a72951c0ae1cc1ce3bf0db52421bbe8210145b80611780575033739efde135ca4832abf0408c44c6f5f370eb0f35e8145b8061179e575033735c43aac965ff230ac1cf63e924d0153291d78bad145b806117bc575033733daff61fe5cfb1f1b4ea7fba8173a58532ef1841145b806117da57503373e7eb63a8b6392481a9fdebb108cfd580dc8664d3145b61181f5760405162461bcd60e51b81526020600482015260166024820152751b5cd9cb9cd95b99195c8b5b9bdd0b585b1b1bddd95960521b60448201526064016107a2565b5f805464ffffffffff191664ffffffffff92909216919091179055565b30732386dc45added673317ef068992f19421b481f4c146118925760405162461bcd60e51b815260206004820152601060248201526f3737ba16bb30b634b216b1b0b63632b960811b60448201526064016107a2565b7f00000000000000000000000000000000000000000000000000000000000000006001600160a01b0316631392d4ee6040518163ffffffff1660e01b8152600401602060405180830381865afa1580156118ee573d5f803e3d5ffd5b505050506040513d601f19601f82011682018060405250810190611912919061431d565b61086f5760405162461bcd60e51b815260206004820152601760248201527f70726f706f73616c2d6e6f742d65786563757461626c6500000000000000000060448201526064016107a2565b6040516352e5787b60e11b8152600160048201819052907f00000000000000000000000000000000000000000000000000000000000000006001600160a01b03169063a5caf0f690602401602060405180830381865afa1580156119c4573d5f803e3d5ffd5b505050506040513d601f19601f820116820180604052508101906119e8919061431d565b611f06575f6119f760286107cc565b60408051610100810182526001600160a01b038316815273356b8d89c1e1239cbbb9de4815c39a1474d5ba7d602082015273dac17f958d2ee523a2206206994597c13d831ec791810191909152600160608201525f608082018190526298968060a083015260c0820181905260e0820152909150611a74816137f4565b604051630f18fc2760e31b81527391716c4eda1fb55e84bf8b4c7085f84285c19085906378c7e13890611abc9085905f80516020614563833981519152905f90600401614338565b5f604051808303815f87803b158015611ad3575f80fd5b505af1158015611ae5573d5f803e3d5ffd5b5050505050505f611af660956116dc565b90505f6040518060e00160405280836001600160a01b0316815260200160016003811115611b2657611b2661435c565b81525f6020820181905273dac17f958d2ee523a2206206994597c13d831ec7604083015260608201526298968060808201526301312d0060a0909101529050611b6e81613957565b604051637faa1d2160e01b815273324c5dc1fc42c7a4d43d92df1eba58a54d13bf2d90637faa1d2190611bb69085905f80516020614563833981519152905f90600401614338565b5f604051808303815f87803b158015611bcd575f80fd5b505af1158015611bdf573d5f803e3d5ffd5b5050505050505f611bf060966116dc565b90505f6040518060e00160405280836001600160a01b031681526020015f6003811115611c1f57611c1f61435c565b815273356b8d89c1e1239cbbb9de4815c39a1474d5ba7d602082015273a0b86991c6218b36c1d19d4a2e9eb0ce3606eb486040820152629896806060820181905260808201526301312d0060a0909101529050611c7b81613957565b604051637faa1d2160e01b815273324c5dc1fc42c7a4d43d92df1eba58a54d13bf2d90637faa1d2190611cc39085905f80516020614563833981519152905f90600401614338565b5f604051808303815f87803b158015611cda575f80fd5b505af1158015611cec573d5f803e3d5ffd5b5050505050505f611cfd60976116dc565b90505f6040518060e00160405280836001600160a01b031681526020015f6003811115611d2c57611d2c61435c565b815273356b8d89c1e1239cbbb9de4815c39a1474d5ba7d602082015273dac17f958d2ee523a2206206994597c13d831ec76040820152629896806060820181905260808201526301312d0060a0909101529050611d8881613957565b604051637faa1d2160e01b815273324c5dc1fc42c7a4d43d92df1eba58a54d13bf2d90637faa1d2190611dd09085905f80516020614563833981519152905f90600401614338565b5f604051808303815f87803b158015611de7575f80fd5b505af1158015611df9573d5f803e3d5ffd5b5050505050505f611e0a60986116dc565b90505f6040518060e00160405280836001600160a01b031681526020015f6003811115611e3957611e3961435c565b815273356b8d89c1e1239cbbb9de4815c39a1474d5ba7d60208201527340d16fc0246ad3160ccc09b8d0d3a2cd28ae6c2f6040820152629896806060820181905260808201526301312d0060a0909101529050611e9581613957565b604051637faa1d2160e01b815273324c5dc1fc42c7a4d43d92df1eba58a54d13bf2d90637faa1d2190611edd9085905f80516020614563833981519152905f90600401614338565b5f604051808303815f87803b158015611ef4575f80fd5b505af11580156115e5573d5f803e3d5ffd5b50565b6040516352e5787b60e11b8152600260048201819052907f00000000000000000000000000000000000000000000000000000000000000006001600160a01b03169063a5caf0f690602401602060405180830381865afa158015611f6f573d5f803e3d5ffd5b505050506040513d601f19601f82011682018060405250810190611f93919061431d565b611f065760408051600e8082526101e082019092525f91602082016101c08036833701905050905073dac17f958d2ee523a2206206994597c13d831ec7815f81518110611fe257611fe2613fd5565b60200260200101906001600160a01b031690816001600160a01b031681525050737f39c581f595b53c5cb19bd0b3f8da6c935e2ca08160018151811061202a5761202a613fd5565b60200260200101906001600160a01b031690816001600160a01b03168152505073eeeeeeeeeeeeeeeeeeeeeeeeeeeeeeeeeeeeeeee8160028151811061207257612072613fd5565b60200260200101906001600160a01b031690816001600160a01b03168152505073a0b86991c6218b36c1d19d4a2e9eb0ce3606eb48816003815181106120ba576120ba613fd5565b60200260200101906001600160a01b031690816001600160a01b031681525050739d39a5de30e57443bff2a8307a4256c8797a34978160048151811061210257612102613fd5565b60200260200101906001600160a01b031690816001600160a01b03168152505073cbb7c0000ab88b473b1f5afd9ef808440eed33bf8160058151811061214a5761214a613fd5565b60200260200101906001600160a01b031690816001600160a01b031681525050732260fac5e5542a773aa44fbcfedf7c193bc2c5998160068151811061219257612192613fd5565b60200260200101906001600160a01b031690816001600160a01b0316815250507340d16fc0246ad3160ccc09b8d0d3a2cd28ae6c2f816007815181106121da576121da613fd5565b60200260200101906001600160a01b031690816001600160a01b031681525050734c9edd5852cd905f086c759e8383e09bff1e68b38160088151811061222257612222613fd5565b60200260200101906001600160a01b031690816001600160a01b031681525050731202f5c7b4b9e47a1a484e8b270be34dbbc750558160098151811061226a5761226a613fd5565b60200260200101906001600160a01b031690816001600160a01b03168152505073bf5495efe5db9ce00f80364c8b423567e58d211081600a815181106122b2576122b2613fd5565b60200260200101906001600160a01b031690816001600160a01b031681525050738236a87084f8b84306f72007f36f2618a563449481600b815181106122fa576122fa613fd5565b60200260200101906001600160a01b031690816001600160a01b03168152505073c139190f447e929f090edeb554d95abb8b18ac1c81600c8151811061234257612342613fd5565b60200260200101906001600160a01b031690816001600160a01b031681525050734956b52ae2ff65d74ca2d61207523288e4528f9681600d8151811061238a5761238a613fd5565b6001600160a01b039092166020928302919091019091015260405163564315fd60e11b81527352aa899454998be5b000ad077a46bbe360f4e4979063ac862bfa906123d9908490600401614370565b5f604051808303815f87803b1580156123f0575f80fd5b505af1158015612402573d5f803e3d5ffd5b505f9350600e9250612412915050565b60405190808252806020026020018201604052801561243b578160200160208202803683370190505b5060408051600e8082526101e082019092529192505f9190602082016101c08036833701905050905073dac17f958d2ee523a2206206994597c13d831ec7825f8151811061248b5761248b613fd5565b6001600160a01b0392909216602092830291909101909101526040516370a0823160e01b81525f805160206145838339815191526004820152600a9073dac17f958d2ee523a2206206994597c13d831ec7906370a0823190602401602060405180830381865afa158015612501573d5f803e3d5ffd5b505050506040513d601f19601f820116820180604052508101906125259190614015565b61252f9190614382565b815f8151811061254157612541613fd5565b602002602001018181525050737f39c581f595b53c5cb19bd0b3f8da6c935e2ca08260018151811061257557612575613fd5565b6001600160a01b0392909216602092830291909101909101526040516370a0823160e01b81525f80516020614583833981519152600482015267016345785d8a000090737f39c581f595b53c5cb19bd0b3f8da6c935e2ca0906370a0823190602401602060405180830381865afa1580156125f2573d5f803e3d5ffd5b505050506040513d601f19601f820116820180604052508101906126169190614015565b6126209190614382565b8160018151811061263357612633613fd5565b60200260200101818152505073eeeeeeeeeeeeeeeeeeeeeeeeeeeeeeeeeeeeeeee8260028151811061266757612667613fd5565b6001600160a01b039092166020928302919091019091015261269f67016345785d8a00005f8051602061458383398151915231614382565b816002815181106126b2576126b2613fd5565b60200260200101818152505073a0b86991c6218b36c1d19d4a2e9eb0ce3606eb48826003815181106126e6576126e6613fd5565b6001600160a01b0392909216602092830291909101909101526040516370a0823160e01b81525f805160206145838339815191526004820152600a9073a0b86991c6218b36c1d19d4a2e9eb0ce3606eb48906370a0823190602401602060405180830381865afa15801561275c573d5f803e3d5ffd5b505050506040513d601f19601f820116820180604052508101906127809190614015565b61278a9190614382565b8160038151811061279d5761279d613fd5565b602002602001018181525050739d39a5de30e57443bff2a8307a4256c8797a3497826004815181106127d1576127d1613fd5565b6001600160a01b0392909216602092830291909101909101526040516370a0823160e01b81525f80516020614583833981519152600482015267016345785d8a000090739d39a5de30e57443bff2a8307a4256c8797a3497906370a0823190602401602060405180830381865afa15801561284e573d5f803e3d5ffd5b505050506040513d601f19601f820116820180604052508101906128729190614015565b61287c9190614382565b8160048151811061288f5761288f613fd5565b60200260200101818152505073cbb7c0000ab88b473b1f5afd9ef808440eed33bf826005815181106128c3576128c3613fd5565b6001600160a01b0392909216602092830291909101909101526040516370a0823160e01b81525f805160206145838339815191526004820152600a9073cbb7c0000ab88b473b1f5afd9ef808440eed33bf906370a0823190602401602060405180830381865afa158015612939573d5f803e3d5ffd5b505050506040513d601f19601f8201168201806040525081019061295d9190614015565b6129679190614382565b8160058151811061297a5761297a613fd5565b602002602001018181525050732260fac5e5542a773aa44fbcfedf7c193bc2c599826006815181106129ae576129ae613fd5565b6001600160a01b0392909216602092830291909101909101526040516370a0823160e01b81525f805160206145838339815191526004820152600a90732260fac5e5542a773aa44fbcfedf7c193bc2c599906370a0823190602401602060405180830381865afa158015612a24573d5f803e3d5ffd5b505050506040513d601f19601f82011682018060405250810190612a489190614015565b612a529190614382565b81600681518110612a6557612a65613fd5565b6020026020010181815250507340d16fc0246ad3160ccc09b8d0d3a2cd28ae6c2f82600781518110612a9957612a99613fd5565b6001600160a01b0392909216602092830291909101909101526040516370a0823160e01b81525f805160206145838339815191526004820152600a907340d16fc0246ad3160ccc09b8d0d3a2cd28ae6c2f906370a0823190602401602060405180830381865afa158015612b0f573d5f803e3d5ffd5b505050506040513d601f19601f82011682018060405250810190612b339190614015565b612b3d9190614382565b81600781518110612b5057612b50613fd5565b602002602001018181525050734c9edd5852cd905f086c759e8383e09bff1e68b382600881518110612b8457612b84613fd5565b6001600160a01b0392909216602092830291909101909101526040516370a0823160e01b81525f805160206145838339815191526004820152600a90734c9edd5852cd905f086c759e8383e09bff1e68b3906370a0823190602401602060405180830381865afa158015612bfa573d5f803e3d5ffd5b505050506040513d601f19601f82011682018060405250810190612c1e9190614015565b612c289190614382565b81600881518110612c3b57612c3b613fd5565b602002602001018181525050731202f5c7b4b9e47a1a484e8b270be34dbbc7505582600981518110612c6f57612c6f613fd5565b6001600160a01b0392909216602092830291909101909101526040516370a0823160e01b81525f805160206145838339815191526004820152600a90731202f5c7b4b9e47a1a484e8b270be34dbbc75055906370a0823190602401602060405180830381865afa158015612ce5573d5f803e3d5ffd5b505050506040513d601f19601f82011682018060405250810190612d099190614015565b612d139190614382565b81600981518110612d2657612d26613fd5565b60200260200101818152505073bf5495efe5db9ce00f80364c8b423567e58d211082600a81518110612d5a57612d5a613fd5565b6001600160a01b0392909216602092830291909101909101526040516370a0823160e01b81525f80516020614583833981519152600482015267016345785d8a00009073bf5495efe5db9ce00f80364c8b423567e58d2110906370a0823190602401602060405180830381865afa158015612dd7573d5f803e3d5ffd5b505050506040513d601f19601f82011682018060405250810190612dfb9190614015565b612e059190614382565b81600a81518110612e1857612e18613fd5565b602002602001018181525050738236a87084f8b84306f72007f36f2618a563449482600b81518110612e4c57612e4c613fd5565b6001600160a01b0392909216602092830291909101909101526040516370a0823160e01b81525f805160206145838339815191526004820152600a90738236a87084f8b84306f72007f36f2618a5634494906370a0823190602401602060405180830381865afa158015612ec2573d5f803e3d5ffd5b505050506040513d601f19601f82011682018060405250810190612ee69190614015565b612ef09190614382565b81600b81518110612f0357612f03613fd5565b60200260200101818152505073c139190f447e929f090edeb554d95abb8b18ac1c82600c81518110612f3757612f37613fd5565b6001600160a01b0392909216602092830291909101909101526040516370a0823160e01b81525f805160206145838339815191526004820152600a9073c139190f447e929f090edeb554d95abb8b18ac1c906370a0823190602401602060405180830381865afa158015612fad573d5f803e3d5ffd5b505050506040513d601f19601f82011682018060405250810190612fd19190614015565b612fdb9190614382565b81600c81518110612fee57612fee613fd5565b602002602001018181525050734956b52ae2ff65d74ca2d61207523288e4528f9682600d8151811061302257613022613fd5565b6001600160a01b0392909216602092830291909101909101526040516370a0823160e01b81525f805160206145838339815191526004820152600a90734956b52ae2ff65d74ca2d61207523288e4528f96906370a0823190602401602060405180830381865afa158015613098573d5f803e3d5ffd5b505050506040513d601f19601f820116820180604052508101906130bc9190614015565b6130c69190614382565b81600d815181106130d9576130d9613fd5565b6020908102919091010152604051632609e0df60e11b81525f8051602061458383398151915290634c13c1be90611edd90859085905f8051602061456383398151915290600401614395565b6040516352e5787b60e11b8152600360048201819052907f00000000000000000000000000000000000000000000000000000000000000006001600160a01b03169063a5caf0f690602401602060405180830381865afa15801561318b573d5f803e3d5ffd5b505050506040513d601f19601f820116820180604052508101906131af919061431d565b611f06575f6131be60296107cc565b60408051610100810182526001600160a01b0383168152734c9edd5852cd905f086c759e8383e09bff1e68b3602082015273c58d044404d8b14e953c115e67823784dea53d8f91810191909152600160608201525f6080820181905261271060a083015260c0820181905260e082015290915061323a816137f4565b604051630f18fc2760e31b81527391716c4eda1fb55e84bf8b4c7085f84285c19085906378c7e138906132839085905f8051602061456383398151915290600190600401614338565b5f604051808303815f87803b15801561329a575f80fd5b505af11580156132ac573d5f803e3d5ffd5b5050505050505f6132bd602a6107cc565b60408051610100810182526001600160a01b0383168152733d7d6fdf07ee548b939a80edbc9b2256d0cdc0036020820152734c9edd5852cd905f086c759e8383e09bff1e68b391810191909152600160608201525f6080820181905261271060a083015260c0820181905260e0820152909150613339816137f4565b604051630f18fc2760e31b81527391716c4eda1fb55e84bf8b4c7085f84285c19085906378c7e13890611edd9085905f8051602061456383398151915290600190600401614338565b6040516352e5787b60e11b81526004808201819052907f00000000000000000000000000000000000000000000000000000000000000006001600160a01b03169063a5caf0f690602401602060405180830381865afa1580156133e7573d5f803e3d5ffd5b505050506040513d601f19601f8201168201806040525081019061340b919061431d565b611f06576040805160018082528183019092525f91816020015b60608152602001906001900390816134255750506040805160018082528183019092529192505f9190602082015b60608152602001906001900390816134535790505090505f60405180606001604052806031815260200161450e6031913990505f68047d14b14e8a58000090506040518060400160405280600781526020016642415349432d4160c81b815250845f815181106134c5576134c5613fd5565b602090810291909101015260405173ae7ab96520de3a18e5e111b5eaab095312d7fe846024820152604481018290525f8051602061456383398151915260648201525f6084820181905260a4820152829060c40160408051601f198184030181529082905291613534916143d2565b60405180910390206001600160e01b0319166020820180516001600160e01b038381831617835250505050835f8151811061357157613571613fd5565b6020908102919091010152506040516324c1324d60e21b81527328849d2b63fa8d361e5fc15cb8abb13019884d0990639304c934906135b8908690869030906004016143ed565b6020604051808303815f875af11580156135d4573d5f803e3d5ffd5b505050506040513d601f19601f820116820180604052508101906135f89190614015565b5050505050565b67ffffffffffffffff605b82901c811690609b83901c16811580613621575080155b1561364457604051636a86ba8960e11b81526201117160048201526024016107a2565b61ffff8316603a84901c6401ffffffff16428181039160ea87901c617fff1691148061366e575082155b806136795750806001145b1561368657505050915091565b64496cebb80084840283020484019350617fff60db87901c169250826001036136b157505050915091565b826001166001036137065760019290921c91826c7e37be2022c0914b2680000000816136df576136df614043565b049250612710601e87901c613fff166b033b2e3c9fd0803ce8000000850102049250613733565b60019290921c916305f5e100601e87901c613fff166127108501026b033b2e3c9fd0803ce8000000020492505b8060011660010361376a5760011c61271081016b033b2e3c9fd0803ce800000082028161376257613762614043565b0490506137a0565b60011c61271081016b033b2e3c9fd0803ce800000082028161378e5761378e614043565b046b033b2e3c9fd0803ce80000000390505b760a70c3c40a64e6c51999090b65f67d92400000000000008382026127100261ffff881691900402601087901c613fff16612710030292506801b5a660ea44b8000085840283020485019450505050915091565b80606001511561389d575f6040518060a00160405280835f01516001600160a01b0316815260200183602001516001600160a01b031681526020016113888152602001610e1081526020018360a00151815250905061385281613b1f565b6040805160a0808201835284516001600160a01b0390811683528584015116602083015261138892820192909252610e10606082015290830151608082015261389a81613b1f565b50505b806080015115611f06575f6040518060c00160405280835f01516001600160a01b0316815260200183602001516001600160a01b031681526020016113888152602001610e1081526020018360c0015181526020018360e00151815250905061390581613c62565b6040805160c0808201835284516001600160a01b0390811683528584015116602083015261138892820192909252610e10606082015290830151608082015260e083015160a082015261091e81613c62565b5f8160200151600381111561396e5761396e61435c565b036139bd576040805160a08101825282516001600160a01b03908116825283830151166020820152611388918101919091526154606060820152608080830151908201526139bb81613b1f565b505b5f816020015160038111156139d4576139d461435c565b03613a39575f6040518060c00160405280835f01516001600160a01b0316815260200183606001516001600160a01b03168152602001611388815260200161546081526020018360a0015181526020018360c001518152509050613a3781613c62565b505b600181602001516003811115613a5157613a5161435c565b03613ab6575f6040518060c00160405280835f01516001600160a01b0316815260200183606001516001600160a01b03168152602001610bb8815260200161546081526020018360a0015181526020018360c001518152509050613ab481613c62565b505b600281602001516003811115613ace57613ace61435c565b03611f06576040805160a08101825282516001600160a01b03908116825283830151166020820152610dac91810191909152615460606082015260808083015190820152613b1b81613b1f565b5050565b6040805160018082528183019092525f91816020015b6040805160c0810182525f8082526020808301829052928201819052606082018190526080820181905260a082015282525f19909201910181613b355790505090506040518060c00160405280835f01516001600160a01b0316815260200183602001516001600160a01b03168152602001600160ff1681526020018360400151815260200183606001518152602001613bda84602001515f8660800151600161095d565b815250815f81518110613bef57613bef613fd5565b60209081029190910101526040516301635db560e11b81527352aa899454998be5b000ad077a46bbe360f4e497906302c6bb6a90613c31908490600401614411565b5f604051808303815f87803b158015613c48575f80fd5b505af1158015613c5a573d5f803e3d5ffd5b505050505050565b6040805160018082528183019092525f91816020015b613cc66040518060e001604052805f6001600160a01b031681526020015f6001600160a01b031681526020015f60ff1681526020015f81526020015f81526020015f81526020015f81525090565b815260200190600190039081613c785790505090506040518060e00160405280835f01516001600160a01b0316815260200183602001516001600160a01b03168152602001600160ff1681526020018360400151815260200183606001518152602001613d3d84602001515f86608001515f61095d565b8152602001613d5684602001515f8660a001515f61095d565b815250815f81518110613d6b57613d6b613fd5565b602090810291909101015260405162dc47c360e11b81527352aa899454998be5b000ad077a46bbe360f4e497906301b88f8690613c3190849060040161448a565b8015158114611f06575f80fd5b5f60208284031215613dc9575f80fd5b8135613dd481613dac565b9392505050565b5f60208284031215613deb575f80fd5b5035919050565b5f8060208385031215613e03575f80fd5b823567ffffffffffffffff80821115613e1a575f80fd5b818501915085601f830112613e2d575f80fd5b813581811115613e3b575f80fd5b8660208260051b8501011115613e4f575f80fd5b60209290920196919550909350505050565b6001600160a01b0381168114611f06575f80fd5b5f805f8060808587031215613e88575f80fd5b8435613e9381613e61565b935060208501359250604085013591506060850135613eb181613dac565b939692955090935050565b634e487b7160e01b5f52604160045260245ffd5b5f60208284031215613ee0575f80fd5b813567ffffffffffffffff80821115613ef7575f80fd5b818401915084601f830112613f0a575f80fd5b813581811115613f1c57613f1c613ebc565b604051601f8201601f19908116603f01168101908382118183101715613f4457613f44613ebc565b81604052828152876020848701011115613f5c575f80fd5b826020860160208301375f928101602001929092525095945050505050565b5f60208284031215613f8b575f80fd5b8135613dd481613e61565b5f60208284031215613fa6575f80fd5b813564ffffffffff81168114613dd4575f80fd5b5f60208284031215613fca575f80fd5b8151613dd481613e61565b634e487b7160e01b5f52603260045260245ffd5b634e487b7160e01b5f52601160045260245ffd5b5f6001820161400e5761400e613fe9565b5060010190565b5f60208284031215614025575f80fd5b5051919050565b808202811582820484141761084157610841613fe9565b634e487b7160e01b5f52601260045260245ffd5b5f8261407157634e487b7160e01b5f52601260045260245ffd5b500490565b600181815b808511156140b057815f190482111561409657614096613fe9565b808516156140a357918102915b93841c939080029061407b565b509250929050565b5f826140c657506001610841565b816140d257505f610841565b81600181146140e857600281146140f25761410e565b6001915050610841565b60ff84111561410357614103613fe9565b50506001821b610841565b5060208310610133831016604e8410600b8410161715614131575081810a610841565b61413b8383614076565b805f190482111561414e5761414e613fe9565b029392505050565b5f613dd483836140b8565b5f5b8381101561417b578181015183820152602001614163565b50505f910152565b5f815180845261419a816020860160208601614161565b601f01601f19169290920160200192915050565b60018060a01b038316815260606020820152600960608201526865786563757465282960b81b608082015260a060408201525f61114060a0830184614183565b5f8151808452602080850194508084015f5b838110156142255781516001600160a01b031687529582019590820190600101614200565b509495945050505050565b5f8151808452602080850194508084015f5b8381101561422557815187529582019590820190600101614242565b5f81518084526020808501808196508360051b810191508286015f5b858110156142a4578284038952614292848351614183565b9885019893509084019060010161427a565b5091979650505050505050565b60a081525f6142c360a08301886141ee565b82810360208401526142d58188614230565b905082810360408401526142e9818761425e565b905082810360608401526142fd818661425e565b905082810360808401526143118185614183565b98975050505050505050565b5f6020828403121561432d575f80fd5b8151613dd481613dac565b6001600160a01b039384168152919092166020820152901515604082015260600190565b634e487b7160e01b5f52602160045260245ffd5b602081525f613dd460208301846141ee565b8181038181111561084157610841613fe9565b606081525f6143a760608301866141ee565b82810360208401526143b98186614230565b91505060018060a01b0383166040830152949350505050565b5f82516143e3818460208701614161565b9190910192915050565b606081525f6143ff606083018661425e565b82810360208401526143b9818661425e565b602080825282518282018190525f919060409081850190868401855b828110156142a457815180516001600160a01b0390811686528782015116878601528581015160ff1686860152606080820151908601526080808201519086015260a0908101519085015260c0909301929085019060010161442d565b602080825282518282018190525f919060409081850190868401855b828110156142a457815180516001600160a01b0390811686528782015116878601528581015160ff1686860152606080820151908601526080808201519086015260a0808201519086015260c0908101519085015260e090930192908501906001016144a656fe776974686472617728616464726573732c75696e743235362c616464726573732c75696e743235362c75696e7432353629657865637574655061796c6f616428616464726573732c737472696e672c6279746573290000000000000000000000004f6f977acdd1177dcd81ab83074855ecb9c2d49e000000000000000000000000264786ef916af64a1db19f513f24a3681734ce92a26469706673582212206649f41edfa1a7a54becd0ce8e3fa89312f3457851507d54095241ab8130c22f64736f6c63430008150033",
  "linkReferences": {},
  "deployedLinkReferences": {},
  "immutableReferences": {
    "1444": [
      {
        "length": 32,
        "start": 1715
      },
      {
        "length": 32,
        "start": 5131
      },
      {
        "length": 32,
        "start": 5509
      },
      {
        "length": 32,
        "start": 6292
      },
      {
        "length": 32,
        "start": 6519
      },
      {
        "length": 32,
        "start": 7970
      },
      {
        "length": 32,
        "start": 12606
      },
      {
        "length": 32,
        "start": 13210
      }
    ]
  },
  "inputSourceName": "project/contracts/payloads/IGP111/PayloadIGP111.sol",
  "buildInfoId": "solc-0_8_21-077ceea42b8c989e5049c2d02e0f6ba72bf069ab"
}