{
  "_format": "hh3-artifact-1",
  "contractName": "PayloadIGP112",
  "sourceName": "contracts/payloads/IGP112/PayloadIGP112.sol",
  "abi": [
    {
      "inputs": [
        {
          "internalType": "uint256",
          "name": "errorId_",
          "type": "uint256"
        }
      ],
      "name": "FluidLiquidityCalcsError",
      "type": "error"
    },
    {
      "inputs": [],
      "name": "ADDRESS_THIS",
      "outputs": [
        {
          "internalType": "address",
          "name": "",
          "type": "address"
        }
      ],
      "stateMutability": "view",
      "type": "function"
    },
    {
      "inputs": [],
      "name": "BTC_USD_PRICE",
      "outputs": [
        {
          "internalType": "uint256",
          "name": "",
          "type": "uint256"
        }
      ],
      "stateMutability": "view",
      "type": "function"
    },
    {
      "inputs": [],
      "name": "DEX_FACTORY",
      "outputs": [
        {
          "internalType": "contract IFluidDexFactory",
          "name": "",
          "type": "address"
        }
      ],
      "stateMutability": "view",
      "type": "function"
    },
    {
      "inputs": [],
      "name": "DSA_CONNECTORS_V2",
      "outputs": [
        {
          "internalType": "contract IDSAConnectorsV2",
          "name": "",
          "type": "address"
        }
      ],
      "stateMutability": "view",
      "type": "function"
    },
    {
      "inputs": [],
      "name": "ETH_USD_PRICE",
      "outputs": [
        {
          "internalType": "uint256",
          "name": "",
          "type": "uint256"
        }
      ],
      "stateMutability": "view",
      "type": "function"
    },
    {
      "inputs": [],
      "name": "FLUID_RESERVE",
      "outputs": [
        {
          "internalType": "contract IFluidReserveContract",
          "name": "",
          "type": "address"
        }
      ],
      "stateMutability": "view",
      "type": "function"
    },
    {
      "inputs": [],
      "name": "FLUID_USD_PRICE",
      "outputs": [
        {
          "internalType": "uint256",
          "name": "",
          "type": "uint256"
        }
      ],
      "stateMutability": "view",
      "type": "function"
    },
    {
      "inputs": [],
      "name": "GOVERNOR",
      "outputs": [
        {
          "internalType": "contract IGovernorBravo",
          "name": "",
          "type": "address"
        }
      ],
      "stateMutability": "view",
      "type": "function"
    },
    {
      "inputs": [],
      "name": "IETHV2",
      "outputs": [
        {
          "internalType": "contract ILite",
          "name": "",
          "type": "address"
        }
      ],
      "stateMutability": "view",
      "type": "function"
    },
    {
      "inputs": [],
      "name": "JRUSDE_USD_PRICE",
      "outputs": [
        {
          "internalType": "uint256",
          "name": "",
          "type": "uint256"
        }
      ],
      "stateMutability": "view",
      "type": "function"
    },
    {
      "inputs": [],
      "name": "LENDING_FACTORY",
      "outputs": [
        {
          "internalType": "contract IFluidLendingFactory",
          "name": "",
          "type": "address"
        }
      ],
      "stateMutability": "view",
      "type": "function"
    },
    {
      "inputs": [],
      "name": "LIQUIDITY",
      "outputs": [
        {
          "internalType": "contract IFluidLiquidityAdmin",
          "name": "",
          "type": "address"
        }
      ],
      "stateMutability": "view",
      "type": "function"
    },
    {
      "inputs": [],
      "name": "PAXG_USD_PRICE",
      "outputs": [
        {
          "internalType": "uint256",
          "name": "",
          "type": "uint256"
        }
      ],
      "stateMutability": "view",
      "type": "function"
    },
    {
      "inputs": [],
      "name": "PROPOSAL_ID",
      "outputs": [
        {
          "internalType": "uint256",
          "name": "",
          "type": "uint256"
        }
      ],
      "stateMutability": "view",
      "type": "function"
    },
    {
      "inputs": [],
      "name": "PROPOSER",
      "outputs": [
        {
          "internalType": "address",
          "name": "",
          "type": "address"
        }
      ],
      "stateMutability": "view",
      "type": "function"
    },
    {
      "inputs": [],
      "name": "PROPOSER_AVO_MULTISIG",
      "outputs": [
        {
          "internalType": "address",
          "name": "",
          "type": "address"
        }
      ],
      "stateMutability": "view",
      "type": "function"
    },
    {
      "inputs": [],
      "name": "PROPOSER_AVO_MULTISIG_2",
      "outputs": [
        {
          "internalType": "address",
          "name": "",
          "type": "address"
        }
      ],
      "stateMutability": "view",
      "type": "function"
    },
    {
      "inputs": [],
      "name": "PROPOSER_AVO_MULTISIG_3",
      "outputs": [
        {
          "internalType": "address",
          "name": "",
          "type": "address"
        }
      ],
      "stateMutability": "view",
      "type": "function"
    },
    {
      "inputs": [],
      "name": "PROPOSER_AVO_MULTISIG_4",
      "outputs": [
        {
          "internalType": "address",
          "name": "",
          "type": "address"
        }
      ],
      "stateMutability": "view",
      "type": "function"
    },
    {
      "inputs": [],
      "name": "PROPOSER_AVO_MULTISIG_5",
      "outputs": [
        {
          "internalType": "address",
          "name": "",
          "type": "address"
        }
      ],
      "stateMutability": "view",
      "type": "function"
    },
    {
      "inputs": [],
      "name": "RESERVE_CONTRACT_PROXY",
      "outputs": [
        {
          "internalType": "address",
          "name": "",
          "type": "address"
        }
      ],
      "stateMutability": "view",
      "type": "function"
    },
    {
      "inputs": [],
      "name": "RLP_USD_PRICE",
      "outputs": [
        {
          "internalType": "uint256",
          "name": "",
          "type": "uint256"
        }
      ],
      "stateMutability": "view",
      "type": "function"
    },
    {
      "inputs": [],
      "name": "SMART_LENDING_FACTORY",
      "outputs": [
        {
          "internalType": "contract IFluidSmartLendingFactory",
          "name": "",
          "type": "address"
        }
      ],
      "stateMutability": "view",
      "type": "function"
    },
    {
      "inputs": [],
      "name": "SRUSDE_USD_PRICE",
      "outputs": [
        {
          "internalType": "uint256",
          "name": "",
          "type": "uint256"
        }
      ],
      "stateMutability": "view",
      "type": "function"
    },
    {
      "inputs": [],
      "name": "STABLE_USD_PRICE",
      "outputs": [
        {
          "internalType": "uint256",
          "name": "",
          "type": "uint256"
        }
      ],
      "stateMutability": "view",
      "type": "function"
    },
    {
      "inputs": [],
      "name": "TEAM_MULTISIG",
      "outputs": [
        {
          "internalType": "address",
          "name": "",
          "type": "address"
        }
      ],
      "stateMutability": "view",
      "type": "function"
    },
    {
      "inputs": [],
      "name": "TEAM_MULTISIG_2",
      "outputs": [
        {
          "internalType": "address",
          "name": "",
          "type": "address"
        }
      ],
      "stateMutability": "view",
      "type": "function"
    },
    {
      "inputs": [],
      "name": "TIMELOCK",
      "outputs": [
        {
          "internalType": "contract ITimelock",
          "name": "",
          "type": "address"
        }
      ],
      "stateMutability": "view",
      "type": "function"
    },
    {
      "inputs": [],
      "name": "TREASURY",
      "outputs": [
        {
          "internalType": "contract IDSAV2",
          "name": "",
          "type": "address"
        }
      ],
      "stateMutability": "view",
      "type": "function"
    },
    {
      "inputs": [],
      "name": "VAULT_FACTORY",
      "outputs": [
        {
          "internalType": "contract IFluidVaultFactory",
          "name": "",
          "type": "address"
        }
      ],
      "stateMutability": "view",
      "type": "function"
    },
    {
      "inputs": [],
      "name": "XAUT_USD_PRICE",
      "outputs": [
        {
          "internalType": "uint256",
          "name": "",
          "type": "uint256"
        }
      ],
      "stateMutability": "view",
      "type": "function"
    },
    {
      "inputs": [
        {
          "internalType": "uint256",
          "name": "action_",
          "type": "uint256"
        }
      ],
      "name": "actionStatus",
      "outputs": [
        {
          "internalType": "bool",
          "name": "",
          "type": "bool"
        }
      ],
      "stateMutability": "view",
      "type": "function"
    },
    {
      "inputs": [],
      "name": "execute",
      "outputs": [],
      "stateMutability": "nonpayable",
      "type": "function"
    },
    {
      "inputs": [],
      "name": "ezETH_USD_PRICE",
      "outputs": [
        {
          "internalType": "uint256",
          "name": "",
          "type": "uint256"
        }
      ],
      "stateMutability": "view",
      "type": "function"
    },
    {
      "inputs": [
        {
          "internalType": "uint256",
          "name": "dexId_",
          "type": "uint256"
        }
      ],
      "name": "getDexAddress",
      "outputs": [
        {
          "internalType": "address",
          "name": "",
          "type": "address"
        }
      ],
      "stateMutability": "view",
      "type": "function"
    },
    {
      "inputs": [
        {
          "internalType": "address",
          "name": "token",
          "type": "address"
        }
      ],
      "name": "getFTokenAddress",
      "outputs": [
        {
          "internalType": "address",
          "name": "",
          "type": "address"
        }
      ],
      "stateMutability": "view",
      "type": "function"
    },
    {
      "inputs": [],
      "name": "getProposalCreationTime",
      "outputs": [
        {
          "internalType": "uint40",
          "name": "",
          "type": "uint40"
        }
      ],
      "stateMutability": "view",
      "type": "function"
    },
    {
      "inputs": [
        {
          "internalType": "address",
          "name": "token",
          "type": "address"
        },
        {
          "internalType": "uint256",
          "name": "amount",
          "type": "uint256"
        },
        {
          "internalType": "uint256",
          "name": "amountInUSD",
          "type": "uint256"
        },
        {
          "internalType": "bool",
          "name": "isSupply",
          "type": "bool"
        }
      ],
      "name": "getRawAmount",
      "outputs": [
        {
          "internalType": "uint256",
          "name": "",
          "type": "uint256"
        }
      ],
      "stateMutability": "view",
      "type": "function"
    },
    {
      "inputs": [
        {
          "internalType": "uint256",
          "name": "dexId_",
          "type": "uint256"
        }
      ],
      "name": "getSmartLendingAddress",
      "outputs": [
        {
          "internalType": "address",
          "name": "",
          "type": "address"
        }
      ],
      "stateMutability": "view",
      "type": "function"
    },
    {
      "inputs": [
        {
          "internalType": "uint256",
          "name": "vaultId_",
          "type": "uint256"
        }
      ],
      "name": "getVaultAddress",
      "outputs": [
        {
          "internalType": "address",
          "name": "",
          "type": "address"
        }
      ],
      "stateMutability": "view",
      "type": "function"
    },
    {
      "inputs": [],
      "name": "isProposalExecutable",
      "outputs": [
        {
          "internalType": "bool",
          "name": "",
          "type": "bool"
        }
      ],
      "stateMutability": "view",
      "type": "function"
    },
    {
      "inputs": [],
      "name": "mETH_USD_PRICE",
      "outputs": [
        {
          "internalType": "uint256",
          "name": "",
          "type": "uint256"
        }
      ],
      "stateMutability": "view",
      "type": "function"
    },
    {
      "inputs": [
        {
          "internalType": "string",
          "name": "description",
          "type": "string"
        }
      ],
      "name": "propose",
      "outputs": [],
      "stateMutability": "nonpayable",
      "type": "function"
    },
    {
      "inputs": [],
      "name": "rsETH_USD_PRICE",
      "outputs": [
        {
          "internalType": "uint256",
          "name": "",
          "type": "uint256"
        }
      ],
      "stateMutability": "view",
      "type": "function"
    },
    {
      "inputs": [],
      "name": "sUSDe_USD_PRICE",
      "outputs": [
        {
          "internalType": "uint256",
          "name": "",
          "type": "uint256"
        }
      ],
      "stateMutability": "view",
      "type": "function"
    },
    {
      "inputs": [],
      "name": "sUSDs_USD_PRICE",
      "outputs": [
        {
          "internalType": "uint256",
          "name": "",
          "type": "uint256"
        }
      ],
      "stateMutability": "view",
      "type": "function"
    },
    {
      "inputs": [
        {
          "internalType": "uint256[]",
          "name": "actionsToSkip_",
          "type": "uint256[]"
        }
      ],
      "name": "setActionsToSkip",
      "outputs": [],
      "stateMutability": "nonpayable",
      "type": "function"
    },
    {
      "inputs": [
        {
          "internalType": "uint40",
          "name": "proposalCreationTime_",
          "type": "uint40"
        }
      ],
      "name": "setProposalCreationTime",
      "outputs": [],
      "stateMutability": "nonpayable",
      "type": "function"
    },
    {
      "inputs": [],
      "name": "syrupUSDC_USD_PRICE",
      "outputs": [
        {
          "internalType": "uint256",
          "name": "",
          "type": "uint256"
        }
      ],
      "stateMutability": "view",
      "type": "function"
    },
    {
      "inputs": [],
      "name": "syrupUSDT_USD_PRICE",
      "outputs": [
        {
          "internalType": "uint256",
          "name": "",
          "type": "uint256"
        }
      ],
      "stateMutability": "view",
      "type": "function"
    },
    {
      "inputs": [
        {
          "internalType": "bool",
          "name": "isExecutable_",
          "type": "bool"
        }
      ],
      "name": "toggleExecutable",
      "outputs": [],
      "stateMutability": "nonpayable",
      "type": "function"
    },
    {
      "inputs": [],
      "name": "verifyProposal",
      "outputs": [],
      "stateMutability": "view",
      "type": "function"
    },
    {
      "inputs": [],
      "name": "weETH_USD_PRICE",
      "outputs": [
        {
          "internalType": "uint256",
          "name": "",
          "type": "uint256"
        }
      ],
      "stateMutability": "view",
      "type": "function"
    },
    {
      "inputs": [],
      "name": "weETHs_USD_PRICE",
      "outputs": [
        {
          "internalType": "uint256",
          "name": "",
          "type": "uint256"
        }
      ],
      "stateMutability": "view",
      "type": "function"
    },
    {
      "inputs": [],
      "name": "wstETH_USD_PRICE",
      "outputs": [
        {
          "internalType": "uint256",
          "name": "",
          "type": "uint256"
        }
      ],
      "stateMutability": "view",
      "type": "function"
    },
    {
      "inputs": [],
      "name": "wstUSR_USD_PRICE",
      "outputs": [
        {
          "internalType": "uint256",
          "name": "",
          "type": "uint256"
        }
      ],
      "stateMutability": "view",
      "type": "function"
    }
  ],
  "bytecode": "0x60a060405234801561000f575f80fd5b503060805260805161521c6100875f395f81816106c60152818161145c015281816115dd015281816118f3015281816119d60152818161244a0152818161285b0152818161295001528181612c4001528181612d3e01528181613067015281816134d2015281816135b20152613722015261521c5ff3fe608060405234801561000f575f80fd5b5060043610610366575f3560e01c80637aadef8b116101c9578063aa98df39116100fe578063cc025f7c1161009e578063f6370aa911610079578063f6370aa914610716578063f88ed60c14610720578063fb0ae9181461073b578063fcee0c981461074e575f80fd5b8063cc025f7c146106c1578063e6bd26a2146106e8578063f53eddcc146106fb575f80fd5b8063b753428b116100d9578063b753428b14610390578063b788f3a114610678578063bffa7f0f14610693578063c60dc265146106ae575f80fd5b8063aa98df3914610665578063ae68032b146103a2578063b6966495146104cf575f80fd5b80639781a8ca116101695780639ef94737116101445780639ef9473714610608578063a5caf0f614610620578063a64f569314610642578063a90558361461065d575f80fd5b80639781a8ca146105d057806397b87b4a146105da5780639d3d2a78146105f5575f80fd5b8063841d2699116101a4578063841d26991461057d57806395861bd71461059057806396bac931146105ab57806396db7d5c146105c6575f80fd5b80637aadef8b1461053f5780637e2f35fa1461055a57806383f5d77a14610575575f80fd5b806328787d001161029f578063623007321161023f57806366760d7d1161021a57806366760d7d146103bd5780636dc0ae22146105075780637000778e14610522578063798d5ba31461052c575f80fd5b806362300732146104eb57806364e9d567146104f55780636521e19f146104fd575f80fd5b806348bbb5571161027a57806348bbb55714610499578063588c77e6146104b457806358f2552e146104cf57806361461954146104e3575f80fd5b806328787d00146103905780632d2c5565146104745780633484818b1461048f575f80fd5b806311ae7a141161030a578063194c0e18116102e5578063194c0e181461042c5780631bbc51a71461043657806325ad7f4d1461043e5780632861c7d114610459575f80fd5b806311ae7a14146103f257806312e366aa146103fa5780631392d4ee1461040d575f80fd5b80630b396e66116103455780630b396e66146103985780630bc9136e146103a25780630e6a204c146103aa578063103f2907146103bf575f80fd5b8062623d7d1461036a5780630251eb1114610386578063040e7a8014610390575b5f80fd5b61037361014c81565b6040519081526020015b60405180910390f35b610373620474a081565b610373606481565b61037362048c1081565b610373607081565b6103bd6103b8366004614875565b610769565b005b6103da73324c5dc1fc42c7a4d43d92df1eba58a54d13bf2d81565b6040516001600160a01b03909116815260200161037d565b610373607881565b6103da610408366004614897565b6107e6565b5f5465010000000000900460ff165b604051901515815260200161037d565b61037362053fc081565b610373606e81565b6103da739efde135ca4832abf0408c44c6f5f370eb0f35e881565b6103da7352aa899454998be5b000ad077a46bbe360f4e49781565b6103da7328849d2b63fa8d361e5fc15cb8abb13019884d0981565b61037362062e0881565b6103da73e7eb63a8b6392481a9fdebb108cfd580dc8664d381565b6103da735c43aac965ff230ac1cf63e924d0153291d78bad81565b6103da5f805160206151c783398151915281565b6103bd610861565b61037362043df081565b610373606c81565b610373620493e081565b6103da730204cd037b2ec03605cfdfe482d8e257c765fa1b81565b61037362062a2081565b6103bd61053a3660046148ae565b6108bb565b6103da732386dc45added673317ef068992f19421b481f4c81565b6103da73059a94a72951c0ae1cc1ce3bf0db52421bbe821081565b610373607e81565b6103da61058b366004614897565b610974565b6103da73a0d3707c569ff8c87fa923d3823ec5d81c98be7881565b6103da7354b91a0d94cb471f37f949c60f7fa7935b551d0381565b6103736204a38081565b610373628339c081565b6103da7391716c4eda1fb55e84bf8b4c7085f84285c1908581565b610373610603366004614931565b6109ae565b5f5460405164ffffffffff909116815260200161037d565b61041c61062e366004614897565b5f9081526001602052604090205460ff1690565b6103da7397b0b3a8bdefe8cb9563a3c610019ad10db8ad1181565b610373607281565b6103bd6106733660046149b6565b611192565b6103da734f6f977acdd1177dcd81ab83074855ecb9c2d49e81565b6103da73a45f7bd6a5ff45d31aace6bcd3d426d9328cea0181565b6103da6106bc366004614a61565b611646565b6103da7f000000000000000000000000000000000000000000000000000000000000000081565b6103da6106f6366004614897565b611734565b6103da73e57227c7d5900165344b190fc7aa580bceb53b9b81565b6103736204a76881565b6103da733daff61fe5cfb1f1b4ea7fba8173a58532ef184181565b6103bd610749366004614a7c565b61176e565b6103da731e2e1aed876f67fe4fd54090fd7b8f57ce23421981565b33734f6f977acdd1177dcd81ab83074855ecb9c2d49e146107c55760405162461bcd60e51b81526020600482015260116024820152706e6f742d7465616d2d6d756c746973696760781b60448201526064015b60405180910390fd5b5f8054911515650100000000000265ff000000000019909216919091179055565b604051630971b35560e11b8152600481018290525f907391716c4eda1fb55e84bf8b4c7085f84285c19085906312e366aa906024015b602060405180830381865afa158015610837573d5f803e3d5ffd5b505050506040513d601f19601f8201168201806040525081019061085b9190614ab0565b92915050565b61086961189b565b6108716119bd565b610879612431565b610881612842565b610889612938565b610891612c27565b610899612d25565b6108a161304e565b6108a96134b9565b6108b1613599565b6108b9613709565b565b33734f6f977acdd1177dcd81ab83074855ecb9c2d49e146109125760405162461bcd60e51b81526020600482015260116024820152706e6f742d7465616d2d6d756c746973696760781b60448201526064016107bc565b5f5b8181101561096f576001805f85858581811061093257610932614acb565b9050602002013581526020019081526020015f205f6101000a81548160ff021916908315150217905550808061096790614af3565b915050610914565b505050565b60405163841d269960e01b8152600481018290525f9073e57227c7d5900165344b190fc7aa580bceb53b9b9063841d26999060240161081c565b5f80841180156109bd57505f83115b15610a0a5760405162461bcd60e51b815260206004820181905260248201527f626f74682075736420616e6420616d6f756e7420617265206e6f74207a65726f60448201526064016107bc565b604080516001600160a01b03871660208083019190915260058284015282518083038401815260608301938490528051910120632d71cdb960e21b90925260648101919091525f907352aa899454998be5b000ad077a46bbe360f4e4979063b5c736e490608401602060405180830381865afa158015610a8c573d5f803e3d5ffd5b505050506040513d601f19601f82011682018060405250810190610ab09190614b0b565b90505f80610abd836141de565b90925090505f601273eeeeeeeeeeeeeeeeeeeeeeeeeeeeeeeeeeeeeeed196001600160a01b038b1601610af8575062043df090506012611113565b737f39c581f595b53c5cb19bd0b3f8da6c935e2c9f196001600160a01b038b1601610b2b575062053fc090506012611113565b73cd5fe23c85820f7b72d0926fc9b05b43e359b7ed196001600160a01b038b1601610b5e57506204a76890506012611113565b73a1290d69c65a6fe4df752f95823fae25cb99e5a6196001600160a01b038b1601610b91575062048c1090506012611113565b73917cee801a67f933f2e6b33fc0cd1ed2d5909d87196001600160a01b038b1601610bc45750620474a090506012611113565b73d5f7838f5c461feff7fe49ea5ebaf7728bb0adf9196001600160a01b038b1601610bf757506204a38090506012611113565b73bf5495efe5db9ce00f80364c8b423567e58d210f196001600160a01b038b1601610c2a5750620493e090506012611113565b6001600160a01b038a1673cbb7c0000ab88b473b1f5afd9ef808440eed33bf1480610c7157506001600160a01b038a16732260fac5e5542a773aa44fbcfedf7c193bc2c599145b80610c9857506001600160a01b038a1673657e8c867d8b37dcc18fa4caead9c45eb088c642145b80610cbf57506001600160a01b038a16738236a87084f8b84306f72007f36f2618a5634494145b15610cd25750628339c090506008611113565b7318084fba666a33d37592fa2633fd49a74dd93a87196001600160a01b038b1601610d055750628339c090506012611113565b6001600160a01b038a1673a0b86991c6218b36c1d19d4a2e9eb0ce3606eb481480610d4557506001600160a01b038a165f80516020615183833981519152145b15610d565750606490506006611113565b739d39a5de30e57443bff2a8307a4256c8797a3496196001600160a01b038b1601610d875750607890506012611113565b73a3931d71877c0e7a3148cb7eb4463524fec27fbc196001600160a01b038b1601610db85750606c90506012611113565b73356b8d89c1e1239cbbb9de4815c39a1474d5ba7c196001600160a01b038b1601610de95750606e90506006611113565b7380ac24aa929eaf5013f6436cda2a7ba190f5cc0a196001600160a01b038b1601610e1a5750607290506006611113565b73c58d044404d8b14e953c115e67823784dea53d8e196001600160a01b038b1601610e4b5750606490506012611113565b733d7d6fdf07ee548b939a80edbc9b2256d0cdc002196001600160a01b038b1601610e7c5750606490506012611113565b6001600160a01b038a167340d16fc0246ad3160ccc09b8d0d3a2cd28ae6c2f1480610ec357506001600160a01b038a16734c9edd5852cd905f086c759e8383e09bff1e68b3145b80610eea57506001600160a01b038a167315700b564ca08d9439c58ca5053166e8317aa138145b80610f1157506001600160a01b038a167366a1e37c9b0eaddca17d3662d6c05f4decf3e110145b80610f3857506001600160a01b038a167373a15fed60bf67631dc6cd7bc5b6e8da8190acf5145b80610f5f57506001600160a01b038a1673085780639cc2cacd35e474e71f4d000e2405d8f6145b80610f8657506001600160a01b038a1673b01dd87b29d187f3e3a4bf6cdaebfb97f3d9ab98145b80610fad57506001600160a01b038a167348f9e38f3070ad8945dfeae3fa70987722e3d89c145b80610fd457506001600160a01b038a1673c139190f447e929f090edeb554d95abb8b18ac1c145b15610fe55750606490506012611113565b736f40d4a6237c257fff2db00fa0510deeecd303ea196001600160a01b038b1601611017575061014c90506012611113565b731202f5c7b4b9e47a1a484e8b270be34dbbc75054196001600160a01b038b16016110485750607090506012611113565b734956b52ae2ff65d74ca2d61207523288e4528f95196001600160a01b038b16016110795750607e90506012611113565b7368749665ff8d2d112fa859aa293f07a622782f37196001600160a01b038b16016110ac575062062a2090506006611113565b7345804880de22913dafe09f4980848ece6ecbaf77196001600160a01b038b16016110df575062062e0890506012611113565b60405162461bcd60e51b81526020600482015260096024820152681b9bdd0b599bdd5b9960ba1b60448201526064016107bc565b5f8761111f5783611121565b845b9050891561115057806111398b64e8d4a51000614b22565b6111439190614b4d565b965050505050505061118a565b606461115c8285614b22565b6111669190614b4d565b61117183600a614c4c565b6111808b64e8d4a51000614b22565b6111399190614b22565b949350505050565b3373a45f7bd6a5ff45d31aace6bcd3d426d9328cea0114806111c7575033734f6f977acdd1177dcd81ab83074855ecb9c2d49e145b806111e557503073059a94a72951c0ae1cc1ce3bf0db52421bbe8210145b80611203575030739efde135ca4832abf0408c44c6f5f370eb0f35e8145b80611221575030735c43aac965ff230ac1cf63e924d0153291d78bad145b8061123f575030733daff61fe5cfb1f1b4ea7fba8173a58532ef1841145b8061125d57503073e7eb63a8b6392481a9fdebb108cfd580dc8664d3145b6112a25760405162461bcd60e51b81526020600482015260166024820152751b5cd9cb9cd95b99195c8b5b9bdd0b585b1b1bddd95960521b60448201526064016107bc565b6040805160018082528183019092525f9082602080830190803683370190505090505f8267ffffffffffffffff8111156112de576112de614978565b604051908082528060200260200182016040528015611307578160200160208202803683370190505b5090505f8367ffffffffffffffff81111561132457611324614978565b60405190808252806020026020018201604052801561135757816020015b60608152602001906001900390816113425790505b5090505f8467ffffffffffffffff81111561137457611374614978565b6040519080825280602002602001820160405280156113a757816020015b60608152602001906001900390816113925790505b509050732386dc45added673317ef068992f19421b481f4c845f815181106113d1576113d1614acb565b60200260200101906001600160a01b031690816001600160a01b0316815250505f835f8151811061140457611404614acb565b6020026020010181815250506040518060600160405280602481526020016151a360249139825f8151811061143b5761143b614acb565b602090810291909101810191909152604080515f81529182018152611483917f0000000000000000000000000000000000000000000000000000000000000000918101614ca4565b604051602081830303815290604052815f815181106114a4576114a4614acb565b6020908102919091010152604051636d4ab48d60e11b81525f90730204cd037b2ec03605cfdfe482d8e257c765fa1b9063da95691a906114f09088908890889088908e90600401614da7565b6020604051808303815f875af115801561150c573d5f803e3d5ffd5b505050506040513d601f19601f820116820180604052508101906115309190614b0b565b9050607081146115795760405162461bcd60e51b815260206004820152601460248201527350524f504f53414c5f49535f4e4f545f53414d4560601b60448201526064016107bc565b3373a45f7bd6a5ff45d31aace6bcd3d426d9328cea0114806115ae575033734f6f977acdd1177dcd81ab83074855ecb9c2d49e145b156115c1576115bc4261176e565b61163d565b604051631f615d2360e31b815264ffffffffff421660048201527f00000000000000000000000000000000000000000000000000000000000000006001600160a01b03169063fb0ae918906024015f604051808303815f87803b158015611626575f80fd5b505af1158015611638573d5f803e3d5ffd5b505050505b50505050505050565b5f73c02aaa39b223fe8d0a0e5c4f27ead9083c756cc1196001600160a01b038316016116d5576040805163bb4a64d360e01b81526001600160a01b03841660048201526024810191909152601060448201526f4e6174697665556e6465726c79696e6760801b60648201527354b91a0d94cb471f37f949c60f7fa7935b551d039063bb4a64d39060840161081c565b6040805163bb4a64d360e01b81526001600160a01b038416600482015260248101919091526006604482015265332a37b5b2b760d11b60648201527354b91a0d94cb471f37f949c60f7fa7935b551d039063bb4a64d39060840161081c565b60405163735e935160e11b8152600481018290525f9073324c5dc1fc42c7a4d43d92df1eba58a54d13bf2d9063e6bd26a29060240161081c565b3373a45f7bd6a5ff45d31aace6bcd3d426d9328cea0114806117a3575033734f6f977acdd1177dcd81ab83074855ecb9c2d49e145b806117c157503373059a94a72951c0ae1cc1ce3bf0db52421bbe8210145b806117df575033739efde135ca4832abf0408c44c6f5f370eb0f35e8145b806117fd575033735c43aac965ff230ac1cf63e924d0153291d78bad145b8061181b575033733daff61fe5cfb1f1b4ea7fba8173a58532ef1841145b8061183957503373e7eb63a8b6392481a9fdebb108cfd580dc8664d3145b61187e5760405162461bcd60e51b81526020600482015260166024820152751b5cd9cb9cd95b99195c8b5b9bdd0b585b1b1bddd95960521b60448201526064016107bc565b5f805464ffffffffff191664ffffffffff92909216919091179055565b30732386dc45added673317ef068992f19421b481f4c146118f15760405162461bcd60e51b815260206004820152601060248201526f3737ba16bb30b634b216b1b0b63632b960811b60448201526064016107bc565b7f00000000000000000000000000000000000000000000000000000000000000006001600160a01b0316631392d4ee6040518163ffffffff1660e01b8152600401602060405180830381865afa15801561194d573d5f803e3d5ffd5b505050506040513d601f19601f820116820180604052508101906119719190614e13565b6108b95760405162461bcd60e51b815260206004820152601760248201527f70726f706f73616c2d6e6f742d65786563757461626c6500000000000000000060448201526064016107bc565b6040516352e5787b60e11b8152600160048201819052907f00000000000000000000000000000000000000000000000000000000000000006001600160a01b03169063a5caf0f690602401602060405180830381865afa158015611a23573d5f803e3d5ffd5b505050506040513d601f19601f82011682018060405250810190611a479190614e13565b61242e5760408051601180825261024082019092525f916020820161022080368337019050509050735c20b550819128074fd538edf79791733ccedd18815f81518110611a9657611a96614acb565b60200260200101906001600160a01b031690816001600160a01b031681525050739fb7b4477576fe5b32be4c1843afb1e55f251b3381600181518110611ade57611ade614acb565b60200260200101906001600160a01b031690816001600160a01b03168152505073e6b5d1cdc4935295c84772c4700932b4bfc9327481600281518110611b2657611b26614acb565b60200260200101906001600160a01b031690816001600160a01b031681525050736f72895cf6904489bcd862c941c3d02a3ee4f03e81600381518110611b6e57611b6e614acb565b60200260200101906001600160a01b031690816001600160a01b03168152505073eabbfca72f8a8bf14c4ac59e69ecb2eb69f0811c81600481518110611bb657611bb6614acb565b60200260200101906001600160a01b031690816001600160a01b03168152505073bec491fef7b4f666b270f9d5e5c3f443cbf2099181600581518110611bfe57611bfe614acb565b60200260200101906001600160a01b031690816001600160a01b0316815250507351197586f6a9e2571868b6ffaef308f3bdfed3ae81600681518110611c4657611c46614acb565b60200260200101906001600160a01b031690816001600160a01b031681525050731c2bb46f36561bc4f05a94bd50916496aa50107881600781518110611c8e57611c8e614acb565b60200260200101906001600160a01b031690816001600160a01b031681525050734045720a33193b4fe66c94dfbc8d37b0b4d9b46981600881518110611cd657611cd6614acb565b60200260200101906001600160a01b031690816001600160a01b03168152505073df16adaf80584b2723f3ba1eb7a601338ba18c4e81600981518110611d1e57611d1e614acb565b60200260200101906001600160a01b031690816001600160a01b031681525050730c8c77b7ff4c2af7f6cebbe67350a490e3dd6cb381600a81518110611d6657611d66614acb565b60200260200101906001600160a01b031690816001600160a01b03168152505073e16a6f5359abb1f61ce71e25dd0932e3e00b00eb81600b81518110611dae57611dae614acb565b60200260200101906001600160a01b031690816001600160a01b031681525050731982cc7b1570c2503282d0a0b41f69b3b28fdcc381600c81518110611df657611df6614acb565b60200260200101906001600160a01b031690816001600160a01b03168152505073b4f3bf2d96139563777c0231899ce06ee95cc94681600d81518110611e3e57611e3e614acb565b60200260200101906001600160a01b031690816001600160a01b03168152505073bc345229c1b52e4c30530c614bb487323ba38da581600e81518110611e8657611e86614acb565b60200260200101906001600160a01b031690816001600160a01b03168152505073f2c8f54447cbd591c396b0dd7ac15faf552d0fa481600f81518110611ece57611ece614acb565b60200260200101906001600160a01b031690816001600160a01b0316815250507392643e964ca4b2c165a95ca919b0a819aca6d5f181601081518110611f1657611f16614acb565b6001600160a01b039290921660209283029190910182015260408051601180825261024082019092525f929091908201610220803683370190505090505f80516020615183833981519152815f81518110611f7357611f73614acb565b60200260200101906001600160a01b031690816001600160a01b03168152505073a0b86991c6218b36c1d19d4a2e9eb0ce3606eb4881600181518110611fbb57611fbb614acb565b60200260200101906001600160a01b031690816001600160a01b0316815250505f8051602061518383398151915281600281518110611ffc57611ffc614acb565b60200260200101906001600160a01b031690816001600160a01b03168152505073a0b86991c6218b36c1d19d4a2e9eb0ce3606eb488160038151811061204457612044614acb565b60200260200101906001600160a01b031690816001600160a01b03168152505073a0b86991c6218b36c1d19d4a2e9eb0ce3606eb488160048151811061208c5761208c614acb565b60200260200101906001600160a01b031690816001600160a01b0316815250505f80516020615183833981519152816005815181106120cd576120cd614acb565b60200260200101906001600160a01b031690816001600160a01b03168152505073a0b86991c6218b36c1d19d4a2e9eb0ce3606eb488160068151811061211557612115614acb565b60200260200101906001600160a01b031690816001600160a01b0316815250505f805160206151838339815191528160078151811061215657612156614acb565b60200260200101906001600160a01b031690816001600160a01b03168152505073a0b86991c6218b36c1d19d4a2e9eb0ce3606eb488160088151811061219e5761219e614acb565b60200260200101906001600160a01b031690816001600160a01b0316815250505f80516020615183833981519152816009815181106121df576121df614acb565b60200260200101906001600160a01b031690816001600160a01b03168152505073a0b86991c6218b36c1d19d4a2e9eb0ce3606eb4881600a8151811061222757612227614acb565b60200260200101906001600160a01b031690816001600160a01b0316815250505f8051602061518383398151915281600b8151811061226857612268614acb565b60200260200101906001600160a01b031690816001600160a01b03168152505073a0b86991c6218b36c1d19d4a2e9eb0ce3606eb4881600c815181106122b0576122b0614acb565b60200260200101906001600160a01b031690816001600160a01b0316815250505f8051602061518383398151915281600d815181106122f1576122f1614acb565b60200260200101906001600160a01b031690816001600160a01b0316815250505f8051602061518383398151915281600e8151811061233257612332614acb565b60200260200101906001600160a01b031690816001600160a01b03168152505073a0b86991c6218b36c1d19d4a2e9eb0ce3606eb4881600f8151811061237a5761237a614acb565b60200260200101906001600160a01b031690816001600160a01b0316815250505f80516020615183833981519152816010815181106123bb576123bb614acb565b6001600160a01b039092166020928302919091019091015260405163702b517560e01b81525f805160206151c78339815191529063702b5175906124059085908590600401614e2e565b5f604051808303815f87803b15801561241c575f80fd5b505af115801561163d573d5f803e3d5ffd5b50565b6040516352e5787b60e11b8152600260048201819052907f00000000000000000000000000000000000000000000000000000000000000006001600160a01b03169063a5caf0f690602401602060405180830381865afa158015612497573d5f803e3d5ffd5b505050506040513d601f19601f820116820180604052508101906124bb9190614e13565b61242e5760408051600a80825261016082019092525f91816020015b604080518082019091525f80825260208201528152602001906001900390816124d7579050509050604051806040016040528060018152602001610fa0815250815f8151811061252957612529614acb565b60200260200101819052506040518060400160405280600281526020016117708152508160018151811061255f5761255f614acb565b60200260200101819052506040518060400160405280600381526020016113888152508160028151811061259557612595614acb565b6020026020010181905250604051806040016040528060048152602001610fa0815250816003815181106125cb576125cb614acb565b6020026020010181905250604051806040016040528060058152602001610fa08152508160048151811061260157612601614acb565b6020026020010181905250604051806040016040528060068152602001627a12008152508160058151811061263857612638614acb565b60200260200101819052506040518060400160405280600781526020016113888152508160068151811061266e5761266e614acb565b60200260200101819052506040518060400160405280600881526020016103e8815250816007815181106126a4576126a4614acb565b602002602001018190525060405180604001604052806009815260200162588040815250816008815181106126db576126db614acb565b60200260200101819052506040518060400160405280600a8152602001622ab9808152508160098151811061271257612712614acb565b60200260200101819052505f5b815181101561096f575f61274e83838151811061273e5761273e614acb565b60200260200101515f0151611734565b90505f816001600160a01b031663b7791bf26040518163ffffffff1660e01b81526004016101a060405180830381865afa15801561278e573d5f803e3d5ffd5b505050506040513d601f19601f820116820180604052508101906127b29190614e6b565b90505f6040518060a00160405280846001600160a01b0316815260200183608001516001600160a01b031681526020016109c4815260200161a8c0815260200186868151811061280457612804614acb565b602002602001015160200151815250905061281e816143d3565b61282c838360a001516144e5565b505050808061283a90614af3565b91505061271f565b6040516352e5787b60e11b8152600360048201819052907f00000000000000000000000000000000000000000000000000000000000000006001600160a01b03169063a5caf0f690602401602060405180830381865afa1580156128a8573d5f803e3d5ffd5b505050506040513d601f19601f820116820180604052508101906128cc9190614e13565b61242e575f6128db60136107e6565b604051632ce226fd60e21b8152600a60048201529091506001600160a01b0382169063b3889bf4906024015b5f604051808303815f87803b15801561291e575f80fd5b505af1158015612930573d5f803e3d5ffd5b505050505050565b6040516352e5787b60e11b81526004808201819052907f00000000000000000000000000000000000000000000000000000000000000006001600160a01b03169063a5caf0f690602401602060405180830381865afa15801561299d573d5f803e3d5ffd5b505050506040513d601f19601f820116820180604052508101906129c19190614e13565b61242e5760405163badfd3a760e01b815268049b9ca9a694340000600482018190529073a0d3707c569ff8c87fa923d3823ec5d81c98be789063badfd3a7906024015f604051808303815f87803b158015612a1a575f80fd5b505af1158015612a2c573d5f803e3d5ffd5b505f925060019150612a3b9050565b604051908082528060200260200182016040528015612a6e57816020015b6060815260200190600190039081612a595790505b506040805160018082528183019092529192505f9190816020015b6060815260200190600190039081612a895790505090505f6040518060600160405280603181526020016151526031913990506040518060400160405280600781526020016642415349432d4160c81b815250835f81518110612aee57612aee614acb565b602090810291909101015260405173ae7ab96520de3a18e5e111b5eaab095312d7fe84602482015260448101859052734f6f977acdd1177dcd81ab83074855ecb9c2d49e60648201525f6084820181905260a4820152819060c40160408051601f198184030181529082905291612b6491614f46565b60405180910390206001600160e01b0319166020820180516001600160e01b038381831617835250505050825f81518110612ba157612ba1614acb565b60209081029190910101526040516324c1324d60e21b81527328849d2b63fa8d361e5fc15cb8abb13019884d0990639304c93490612be790869086903090600401614f61565b6020604051808303815f875af1158015612c03573d5f803e3d5ffd5b505050506040513d601f19601f820116820180604052508101906129309190614b0b565b6040516352e5787b60e11b8152600560048201819052907f00000000000000000000000000000000000000000000000000000000000000006001600160a01b03169063a5caf0f690602401602060405180830381865afa158015612c8d573d5f803e3d5ffd5b505050506040513d601f19601f82011682018060405250810190612cb19190614e13565b61242e57604051637f51bb1f60e01b81525f805160206151c7833981519152600482015273a0d3707c569ff8c87fa923d3823ec5d81c98be7890637f51bb1f906024015b5f604051808303815f87803b158015612d0c575f80fd5b505af1158015612d1e573d5f803e3d5ffd5b5050505050565b6040516352e5787b60e11b8152600660048201819052907f00000000000000000000000000000000000000000000000000000000000000006001600160a01b03169063a5caf0f690602401602060405180830381865afa158015612d8b573d5f803e3d5ffd5b505050506040513d601f19601f82011682018060405250810190612daf9190614e13565b61242e5760408051600880825261012082019092525f91816020015b604080518082019091525f8082526020820152815260200190600190039081612dcb5790505090506040518060400160405280600c81526020016064815250815f81518110612e1c57612e1c614acb565b60200260200101819052506040518060400160405280600f815260200160fa81525081600181518110612e5157612e51614acb565b602002602001018190525060405180604001604052806014815260200161012c81525081600281518110612e8757612e87614acb565b602002602001018190525060405180604001604052806016815260200161012c81525081600381518110612ebd57612ebd614acb565b60200260200101819052506040518060400160405280601e815260200161012c81525081600481518110612ef357612ef3614acb565b602002602001018190525060405180604001604052806059815260200161012c81525081600581518110612f2957612f29614acb565b60200260200101819052506040518060400160405280606c815260200161019081525081600681518110612f5f57612f5f614acb565b602002602001018190525060405180604001604052806089815260200160fa81525081600781518110612f9457612f94614acb565b60200260200101819052505f5b815181101561096f575f612fc083838151811061273e5761273e614acb565b9050806001600160a01b03166357917a11848481518110612fe357612fe3614acb565b6020026020010151602001516040518263ffffffff1660e01b815260040161300d91815260200190565b5f604051808303815f87803b158015613024575f80fd5b505af1158015613036573d5f803e3d5ffd5b5050505050808061304690614af3565b915050612fa1565b6040516352e5787b60e11b8152600760048201819052907f00000000000000000000000000000000000000000000000000000000000000006001600160a01b03169063a5caf0f690602401602060405180830381865afa1580156130b4573d5f803e3d5ffd5b505050506040513d601f19601f820116820180604052508101906130d89190614e13565b61242e575f6130e760296107e6565b60408051610100810182526001600160a01b0383168152734c9edd5852cd905f086c759e8383e09bff1e68b3602082015273c58d044404d8b14e953c115e67823784dea53d8f91810191909152600160608201525f608082018190526253ec6060a083015260c0820181905260e0820152909150613164816145ba565b5f61316f602a6107e6565b60408051610100810182526001600160a01b0383168152733d7d6fdf07ee548b939a80edbc9b2256d0cdc0036020820152734c9edd5852cd905f086c759e8383e09bff1e68b391810191909152600160608201525f608082018190526253ec6060a083015260c0820181905260e08201529091506131ec816145ba565b604051632ce226fd60e21b81526a04f68ca6d8cd91c600000060048201819052906001600160a01b0386169063b3889bf4906024015f604051808303815f87803b158015613238575f80fd5b505af115801561324a573d5f803e3d5ffd5b5050604051632ce226fd60e21b8152600481018490526001600160a01b038616925063b3889bf491506024015f604051808303815f87803b15801561328d575f80fd5b505af115801561329f573d5f803e3d5ffd5b505050505f6132ae6029610974565b90506001600160a01b0381161561332157604051636cfd155360e01b81525f805160206151c783398151915260048201526001600160a01b03821690636cfd1553906024015f604051808303815f87803b15801561330a575f80fd5b505af115801561331c573d5f803e3d5ffd5b505050505b5f61332c602a610974565b90506001600160a01b0381161561339f57604051636cfd155360e01b81525f805160206151c783398151915260048201526001600160a01b03821690636cfd1553906024015f604051808303815f87803b158015613388575f80fd5b505af115801561339a573d5f803e3d5ffd5b505050505b604051630f18fc2760e31b81526001600160a01b0388166004820152734f6f977acdd1177dcd81ab83074855ecb9c2d49e60248201525f60448201527391716c4eda1fb55e84bf8b4c7085f84285c19085906378c7e138906064015f604051808303815f87803b158015613411575f80fd5b505af1158015613423573d5f803e3d5ffd5b5050604051630f18fc2760e31b81526001600160a01b0388166004820152734f6f977acdd1177dcd81ab83074855ecb9c2d49e60248201525f60448201527391716c4eda1fb55e84bf8b4c7085f84285c1908592506378c7e13891506064015f604051808303815f87803b158015613499575f80fd5b505af11580156134ab573d5f803e3d5ffd5b505050505050505050505050565b6040516352e5787b60e11b8152600860048201819052907f00000000000000000000000000000000000000000000000000000000000000006001600160a01b03169063a5caf0f690602401602060405180830381865afa15801561351f573d5f803e3d5ffd5b505050506040513d601f19601f820116820180604052508101906135439190614e13565b61242e57604080515f8152602081019182905263278f794360e11b9091525f805160206151c783398151915290634f1ef28690612cf59073fb3102759f2d57f547b9c519db49ce1ffde15db29060248101614f9e565b6040516352e5787b60e11b8152600960048201819052907f00000000000000000000000000000000000000000000000000000000000000006001600160a01b03169063a5caf0f690602401602060405180830381865afa1580156135ff573d5f803e3d5ffd5b505050506040513d601f19601f820116820180604052508101906136239190614e13565b61242e576123286123f060915b60988111613703575f61364282611734565b6040516369dadf0d60e11b8152600481018590529091506001600160a01b0382169063d3b5be1a906024015f604051808303815f87803b158015613684575f80fd5b505af1158015613696573d5f803e3d5ffd5b5050604051631427086960e21b8152600481018790526001600160a01b038416925063509c21a491506024015f604051808303815f87803b1580156136d9575f80fd5b505af11580156136eb573d5f803e3d5ffd5b505050505080806136fb90614af3565b915050613630565b50505050565b6040516352e5787b60e11b8152600a60048201819052907f00000000000000000000000000000000000000000000000000000000000000006001600160a01b03169063a5caf0f690602401602060405180830381865afa15801561376f573d5f803e3d5ffd5b505050506040513d601f19601f820116820180604052508101906137939190614e13565b61242e5760408051600880825261012082019092525f9160208201610100803683370190505090505f80516020615183833981519152815f815181106137db576137db614acb565b60200260200101906001600160a01b031690816001600160a01b031681525050737f39c581f595b53c5cb19bd0b3f8da6c935e2ca08160018151811061382357613823614acb565b60200260200101906001600160a01b031690816001600160a01b03168152505073eeeeeeeeeeeeeeeeeeeeeeeeeeeeeeeeeeeeeeee8160028151811061386b5761386b614acb565b60200260200101906001600160a01b031690816001600160a01b03168152505073a0b86991c6218b36c1d19d4a2e9eb0ce3606eb48816003815181106138b3576138b3614acb565b60200260200101906001600160a01b031690816001600160a01b031681525050739d39a5de30e57443bff2a8307a4256c8797a3497816004815181106138fb576138fb614acb565b60200260200101906001600160a01b031690816001600160a01b03168152505073cbb7c0000ab88b473b1f5afd9ef808440eed33bf8160058151811061394357613943614acb565b60200260200101906001600160a01b031690816001600160a01b031681525050732260fac5e5542a773aa44fbcfedf7c193bc2c5998160068151811061398b5761398b614acb565b60200260200101906001600160a01b031690816001600160a01b0316815250507340d16fc0246ad3160ccc09b8d0d3a2cd28ae6c2f816007815181106139d3576139d3614acb565b6001600160a01b039092166020928302919091019091015260405163564315fd60e11b81527352aa899454998be5b000ad077a46bbe360f4e4979063ac862bfa90613a22908490600401614fc1565b5f604051808303815f87803b158015613a39575f80fd5b505af1158015613a4b573d5f803e3d5ffd5b505f935060089250613a5b915050565b604051908082528060200260200182016040528015613a84578160200160208202803683370190505b5060408051600880825261012082019092529192505f919060208201610100803683370190505090505f80516020615183833981519152825f81518110613acd57613acd614acb565b6001600160a01b0392909216602092830291909101909101526040516370a0823160e01b81525f805160206151c78339815191526004820152600a905f80516020615183833981519152906370a0823190602401602060405180830381865afa158015613b3c573d5f803e3d5ffd5b505050506040513d601f19601f82011682018060405250810190613b609190614b0b565b613b6a9190614fd3565b815f81518110613b7c57613b7c614acb565b602002602001018181525050737f39c581f595b53c5cb19bd0b3f8da6c935e2ca082600181518110613bb057613bb0614acb565b6001600160a01b0392909216602092830291909101909101526040516370a0823160e01b81525f805160206151c7833981519152600482015267016345785d8a000090737f39c581f595b53c5cb19bd0b3f8da6c935e2ca0906370a0823190602401602060405180830381865afa158015613c2d573d5f803e3d5ffd5b505050506040513d601f19601f82011682018060405250810190613c519190614b0b565b613c5b9190614fd3565b81600181518110613c6e57613c6e614acb565b60200260200101818152505073eeeeeeeeeeeeeeeeeeeeeeeeeeeeeeeeeeeeeeee82600281518110613ca257613ca2614acb565b6001600160a01b0390921660209283029190910190910152613cda67016345785d8a00005f805160206151c783398151915231614fd3565b81600281518110613ced57613ced614acb565b60200260200101818152505073a0b86991c6218b36c1d19d4a2e9eb0ce3606eb4882600381518110613d2157613d21614acb565b6001600160a01b0392909216602092830291909101909101526040516370a0823160e01b81525f805160206151c78339815191526004820152600a9073a0b86991c6218b36c1d19d4a2e9eb0ce3606eb48906370a0823190602401602060405180830381865afa158015613d97573d5f803e3d5ffd5b505050506040513d601f19601f82011682018060405250810190613dbb9190614b0b565b613dc59190614fd3565b81600381518110613dd857613dd8614acb565b602002602001018181525050739d39a5de30e57443bff2a8307a4256c8797a349782600481518110613e0c57613e0c614acb565b6001600160a01b0392909216602092830291909101909101526040516370a0823160e01b81525f805160206151c7833981519152600482015267016345785d8a000090739d39a5de30e57443bff2a8307a4256c8797a3497906370a0823190602401602060405180830381865afa158015613e89573d5f803e3d5ffd5b505050506040513d601f19601f82011682018060405250810190613ead9190614b0b565b613eb79190614fd3565b81600481518110613eca57613eca614acb565b60200260200101818152505073cbb7c0000ab88b473b1f5afd9ef808440eed33bf82600581518110613efe57613efe614acb565b6001600160a01b0392909216602092830291909101909101526040516370a0823160e01b81525f805160206151c78339815191526004820152600a9073cbb7c0000ab88b473b1f5afd9ef808440eed33bf906370a0823190602401602060405180830381865afa158015613f74573d5f803e3d5ffd5b505050506040513d601f19601f82011682018060405250810190613f989190614b0b565b613fa29190614fd3565b81600581518110613fb557613fb5614acb565b602002602001018181525050732260fac5e5542a773aa44fbcfedf7c193bc2c59982600681518110613fe957613fe9614acb565b6001600160a01b0392909216602092830291909101909101526040516370a0823160e01b81525f805160206151c78339815191526004820152600a90732260fac5e5542a773aa44fbcfedf7c193bc2c599906370a0823190602401602060405180830381865afa15801561405f573d5f803e3d5ffd5b505050506040513d601f19601f820116820180604052508101906140839190614b0b565b61408d9190614fd3565b816006815181106140a0576140a0614acb565b6020026020010181815250507340d16fc0246ad3160ccc09b8d0d3a2cd28ae6c2f826007815181106140d4576140d4614acb565b6001600160a01b0392909216602092830291909101909101526040516370a0823160e01b81525f805160206151c78339815191526004820152600a907340d16fc0246ad3160ccc09b8d0d3a2cd28ae6c2f906370a0823190602401602060405180830381865afa15801561414a573d5f803e3d5ffd5b505050506040513d601f19601f8201168201806040525081019061416e9190614b0b565b6141789190614fd3565b8160078151811061418b5761418b614acb565b6020908102919091010152604051631f70f8f560e11b81525f805160206151c783398151915290633ee1f1ea906124059085908590734f6f977acdd1177dcd81ab83074855ecb9c2d49e90600401614fe6565b67ffffffffffffffff605b82901c811690609b83901c16811580614200575080155b1561422357604051636a86ba8960e11b81526201117160048201526024016107bc565b61ffff8316603a84901c6401ffffffff16428181039160ea87901c617fff1691148061424d575082155b806142585750806001145b1561426557505050915091565b64496cebb80084840283020484019350617fff60db87901c1692508260010361429057505050915091565b826001166001036142e55760019290921c91826c7e37be2022c0914b2680000000816142be576142be614b39565b049250612710601e87901c613fff166b033b2e3c9fd0803ce8000000850102049250614312565b60019290921c916305f5e100601e87901c613fff166127108501026b033b2e3c9fd0803ce8000000020492505b806001166001036143495760011c61271081016b033b2e3c9fd0803ce800000082028161434157614341614b39565b04905061437f565b60011c61271081016b033b2e3c9fd0803ce800000082028161436d5761436d614b39565b046b033b2e3c9fd0803ce80000000390505b760a70c3c40a64e6c51999090b65f67d92400000000000008382026127100261ffff881691900402601087901c613fff16612710030292506801b5a660ea44b8000085840283020485019450505050915091565b6040805160018082528183019092525f91816020015b6040805160c0810182525f8082526020808301829052928201819052606082018190526080820181905260a082015282525f199092019101816143e95790505090506040518060c00160405280835f01516001600160a01b0316815260200183602001516001600160a01b03168152602001600160ff168152602001836040015181526020018360600151815260200161448e84602001515f866080015160016109ae565b815250815f815181106144a3576144a3614acb565b60209081029190910101526040516301635db560e11b81527352aa899454998be5b000ad077a46bbe360f4e497906302c6bb6a90612907908490600401615055565b6040805160018082528183019092525f91816020015b61450361481d565b8152602001906001900390816144fb5790505090506040518060e00160405280846001600160a01b03168152602001836001600160a01b03168152602001600160ff1681526020016001815260200162ffffff8152602001600a81526020016014815250815f8151811061457957614579614acb565b602090810291909101015260405162dc47c360e11b81527352aa899454998be5b000ad077a46bbe360f4e497906301b88f86906124059084906004016150ce565b806060015115614663575f6040518060a00160405280835f01516001600160a01b0316815260200183602001516001600160a01b031681526020016113888152602001610e1081526020018360a001518152509050614618816143d3565b6040805160a0808201835284516001600160a01b0390811683528584015116602083015261138892820192909252610e106060820152908301516080820152614660816143d3565b50505b80608001511561242e575f6040518060c00160405280835f01516001600160a01b0316815260200183602001516001600160a01b031681526020016113888152602001610e1081526020018360c0015181526020018360e0015181525090506146cb81614719565b6040805160c0808201835284516001600160a01b0390811683528584015116602083015261138892820192909252610e10606082015290830151608082015260e083015160a082015261096f815b6040805160018082528183019092525f91816020015b61473761481d565b81526020019060019003908161472f5790505090506040518060e00160405280835f01516001600160a01b0316815260200183602001516001600160a01b03168152602001600160ff16815260200183604001518152602001836060015181526020016147ae84602001515f86608001515f6109ae565b81526020016147c784602001515f8660a001515f6109ae565b815250815f815181106147dc576147dc614acb565b602090810291909101015260405162dc47c360e11b81527352aa899454998be5b000ad077a46bbe360f4e497906301b88f86906129079084906004016150ce565b6040518060e001604052805f6001600160a01b031681526020015f6001600160a01b031681526020015f60ff1681526020015f81526020015f81526020015f81526020015f81525090565b801515811461242e575f80fd5b5f60208284031215614885575f80fd5b813561489081614868565b9392505050565b5f602082840312156148a7575f80fd5b5035919050565b5f80602083850312156148bf575f80fd5b823567ffffffffffffffff808211156148d6575f80fd5b818501915085601f8301126148e9575f80fd5b8135818111156148f7575f80fd5b8660208260051b850101111561490b575f80fd5b60209290920196919550909350505050565b6001600160a01b038116811461242e575f80fd5b5f805f8060808587031215614944575f80fd5b843561494f8161491d565b93506020850135925060408501359150606085013561496d81614868565b939692955090935050565b634e487b7160e01b5f52604160045260245ffd5b6040516101a0810167ffffffffffffffff811182821017156149b0576149b0614978565b60405290565b5f602082840312156149c6575f80fd5b813567ffffffffffffffff808211156149dd575f80fd5b818401915084601f8301126149f0575f80fd5b813581811115614a0257614a02614978565b604051601f8201601f19908116603f01168101908382118183101715614a2a57614a2a614978565b81604052828152876020848701011115614a42575f80fd5b826020860160208301375f928101602001929092525095945050505050565b5f60208284031215614a71575f80fd5b81356148908161491d565b5f60208284031215614a8c575f80fd5b813564ffffffffff81168114614890575f80fd5b8051614aab8161491d565b919050565b5f60208284031215614ac0575f80fd5b81516148908161491d565b634e487b7160e01b5f52603260045260245ffd5b634e487b7160e01b5f52601160045260245ffd5b5f60018201614b0457614b04614adf565b5060010190565b5f60208284031215614b1b575f80fd5b5051919050565b808202811582820484141761085b5761085b614adf565b634e487b7160e01b5f52601260045260245ffd5b5f82614b6757634e487b7160e01b5f52601260045260245ffd5b500490565b600181815b80851115614ba657815f1904821115614b8c57614b8c614adf565b80851615614b9957918102915b93841c9390800290614b71565b509250929050565b5f82614bbc5750600161085b565b81614bc857505f61085b565b8160018114614bde5760028114614be857614c04565b600191505061085b565b60ff841115614bf957614bf9614adf565b50506001821b61085b565b5060208310610133831016604e8410600b8410161715614c27575081810a61085b565b614c318383614b6c565b805f1904821115614c4457614c44614adf565b029392505050565b5f6148908383614bae565b5f5b83811015614c71578181015183820152602001614c59565b50505f910152565b5f8151808452614c90816020860160208601614c57565b601f01601f19169290920160200192915050565b60018060a01b038316815260606020820152600960608201526865786563757465282960b81b608082015260a060408201525f61118a60a0830184614c79565b5f8151808452602080850194508084015f5b83811015614d1b5781516001600160a01b031687529582019590820190600101614cf6565b509495945050505050565b5f8151808452602080850194508084015f5b83811015614d1b57815187529582019590820190600101614d38565b5f81518084526020808501808196508360051b810191508286015f5b85811015614d9a578284038952614d88848351614c79565b98850198935090840190600101614d70565b5091979650505050505050565b60a081525f614db960a0830188614ce4565b8281036020840152614dcb8188614d26565b90508281036040840152614ddf8187614d54565b90508281036060840152614df38186614d54565b90508281036080840152614e078185614c79565b98975050505050505050565b5f60208284031215614e23575f80fd5b815161489081614868565b604081525f614e406040830185614ce4565b8281036020840152614e528185614ce4565b95945050505050565b805160ff81168114614aab575f80fd5b5f6101a08284031215614e7c575f80fd5b614e8461498c565b614e8d83614aa0565b8152614e9b60208401614aa0565b6020820152614eac60408401614aa0565b6040820152614ebd60608401614aa0565b6060820152614ece60808401614aa0565b6080820152614edf60a08401614aa0565b60a0820152614ef060c08401614e5b565b60c0820152614f0160e08401614e5b565b60e08201526101008381015190820152610120808401519082015261014080840151908201526101608084015190820152610180928301519281019290925250919050565b5f8251614f57818460208701614c57565b9190910192915050565b606081525f614f736060830186614d54565b8281036020840152614f858186614d54565b91505060018060a01b0383166040830152949350505050565b6001600160a01b03831681526040602082018190525f9061118a90830184614c79565b602081525f6148906020830184614ce4565b8181038181111561085b5761085b614adf565b608081525f614ff86080830186614ce4565b828103602084015261500a8186614d26565b6001600160a01b039490941660408481019190915283850360609094019390935250506014825273726576656e756520666f72206275796261636b7360601b60208301520192915050565b602080825282518282018190525f919060409081850190868401855b82811015614d9a57815180516001600160a01b0390811686528782015116878601528581015160ff1686860152606080820151908601526080808201519086015260a0908101519085015260c09093019290850190600101615071565b602080825282518282018190525f919060409081850190868401855b82811015614d9a57815180516001600160a01b0390811686528782015116878601528581015160ff1686860152606080820151908601526080808201519086015260a0808201519086015260c0908101519085015260e090930192908501906001016150ea56fe776974686472617728616464726573732c75696e743235362c616464726573732c75696e743235362c75696e7432353629000000000000000000000000dac17f958d2ee523a2206206994597c13d831ec7657865637574655061796c6f616428616464726573732c737472696e672c627974657329000000000000000000000000264786ef916af64a1db19f513f24a3681734ce92a26469706673582212205f9ef9d4573eb8bf0d64c8cb2fdd3006c49185978d1e348701ea2e76b789da2d64736f6c63430008150033",
  "linkReferences": {},
  "deployedLinkReferences": {},
  "immutableReferences": {
    "1869": [
      {
        "length": 32,
        "start": 1734
      },
      {
        "length": 32,
        "start": 5212
      },
      {
        "length": 32,
        "start": 5597
      },
      {
        "length": 32,
        "start": 6387
      },
      {
        "length": 32,
        "start": 6614
      },
      {
        "length": 32,
        "start": 9290
      },
      {
        "length": 32,
        "start": 10331
      },
      {
        "length": 32,
        "start": 10576
      },
      {
        "length": 32,
        "start": 11328
      },
      {
        "length": 32,
        "start": 11582
      },
      {
        "length": 32,
        "start": 12391
      },
      {
        "length": 32,
        "start": 13522
      },
      {
        "length": 32,
        "start": 13746
      },
      {
        "length": 32,
        "start": 14114
      }
    ]
  },
  "inputSourceName": "project/contracts/payloads/IGP112/PayloadIGP112.sol",
  "buildInfoId": "solc-0_8_21-831369dcedc037132d582cbe68be94eb8ea9791d"
}