{
  "_format": "hh3-artifact-1",
  "contractName": "PayloadIGP122",
  "sourceName": "contracts/payloads/IGP122/PayloadIGP122.sol",
  "abi": [
    {
      "inputs": [
        {
          "internalType": "uint256",
          "name": "errorId_",
          "type": "uint256"
        }
      ],
      "name": "FluidLiquidityCalcsError",
      "type": "error"
    },
    {
      "inputs": [],
      "name": "ADDRESS_THIS",
      "outputs": [
        {
          "internalType": "address",
          "name": "",
          "type": "address"
        }
      ],
      "stateMutability": "view",
      "type": "function"
    },
    {
      "inputs": [],
      "name": "BTC_USD_PRICE",
      "outputs": [
        {
          "internalType": "uint256",
          "name": "",
          "type": "uint256"
        }
      ],
      "stateMutability": "view",
      "type": "function"
    },
    {
      "inputs": [],
      "name": "DEX_FACTORY",
      "outputs": [
        {
          "internalType": "contract IFluidDexFactory",
          "name": "",
          "type": "address"
        }
      ],
      "stateMutability": "view",
      "type": "function"
    },
    {
      "inputs": [],
      "name": "DSA_CONNECTORS_V2",
      "outputs": [
        {
          "internalType": "contract IDSAConnectorsV2",
          "name": "",
          "type": "address"
        }
      ],
      "stateMutability": "view",
      "type": "function"
    },
    {
      "inputs": [],
      "name": "ETH_USD_PRICE",
      "outputs": [
        {
          "internalType": "uint256",
          "name": "",
          "type": "uint256"
        }
      ],
      "stateMutability": "view",
      "type": "function"
    },
    {
      "inputs": [],
      "name": "FLUID_RESERVE",
      "outputs": [
        {
          "internalType": "contract IFluidReserveContract",
          "name": "",
          "type": "address"
        }
      ],
      "stateMutability": "view",
      "type": "function"
    },
    {
      "inputs": [],
      "name": "FLUID_USD_PRICE",
      "outputs": [
        {
          "internalType": "uint256",
          "name": "",
          "type": "uint256"
        }
      ],
      "stateMutability": "view",
      "type": "function"
    },
    {
      "inputs": [],
      "name": "GOVERNOR",
      "outputs": [
        {
          "internalType": "contract IGovernorBravo",
          "name": "",
          "type": "address"
        }
      ],
      "stateMutability": "view",
      "type": "function"
    },
    {
      "inputs": [],
      "name": "IETHV2",
      "outputs": [
        {
          "internalType": "contract ILite",
          "name": "",
          "type": "address"
        }
      ],
      "stateMutability": "view",
      "type": "function"
    },
    {
      "inputs": [],
      "name": "JRUSDE_USD_PRICE",
      "outputs": [
        {
          "internalType": "uint256",
          "name": "",
          "type": "uint256"
        }
      ],
      "stateMutability": "view",
      "type": "function"
    },
    {
      "inputs": [],
      "name": "LENDING_FACTORY",
      "outputs": [
        {
          "internalType": "contract IFluidLendingFactory",
          "name": "",
          "type": "address"
        }
      ],
      "stateMutability": "view",
      "type": "function"
    },
    {
      "inputs": [],
      "name": "LIQUIDITY",
      "outputs": [
        {
          "internalType": "contract IFluidLiquidityAdmin",
          "name": "",
          "type": "address"
        }
      ],
      "stateMutability": "view",
      "type": "function"
    },
    {
      "inputs": [],
      "name": "OSETH_USD_PRICE",
      "outputs": [
        {
          "internalType": "uint256",
          "name": "",
          "type": "uint256"
        }
      ],
      "stateMutability": "view",
      "type": "function"
    },
    {
      "inputs": [],
      "name": "PAXG_USD_PRICE",
      "outputs": [
        {
          "internalType": "uint256",
          "name": "",
          "type": "uint256"
        }
      ],
      "stateMutability": "view",
      "type": "function"
    },
    {
      "inputs": [],
      "name": "PROPOSAL_ID",
      "outputs": [
        {
          "internalType": "uint256",
          "name": "",
          "type": "uint256"
        }
      ],
      "stateMutability": "view",
      "type": "function"
    },
    {
      "inputs": [],
      "name": "PROPOSER",
      "outputs": [
        {
          "internalType": "address",
          "name": "",
          "type": "address"
        }
      ],
      "stateMutability": "view",
      "type": "function"
    },
    {
      "inputs": [],
      "name": "PROPOSER_AVO_MULTISIG",
      "outputs": [
        {
          "internalType": "address",
          "name": "",
          "type": "address"
        }
      ],
      "stateMutability": "view",
      "type": "function"
    },
    {
      "inputs": [],
      "name": "PROPOSER_AVO_MULTISIG_2",
      "outputs": [
        {
          "internalType": "address",
          "name": "",
          "type": "address"
        }
      ],
      "stateMutability": "view",
      "type": "function"
    },
    {
      "inputs": [],
      "name": "PROPOSER_AVO_MULTISIG_3",
      "outputs": [
        {
          "internalType": "address",
          "name": "",
          "type": "address"
        }
      ],
      "stateMutability": "view",
      "type": "function"
    },
    {
      "inputs": [],
      "name": "PROPOSER_AVO_MULTISIG_4",
      "outputs": [
        {
          "internalType": "address",
          "name": "",
          "type": "address"
        }
      ],
      "stateMutability": "view",
      "type": "function"
    },
    {
      "inputs": [],
      "name": "PROPOSER_AVO_MULTISIG_5",
      "outputs": [
        {
          "internalType": "address",
          "name": "",
          "type": "address"
        }
      ],
      "stateMutability": "view",
      "type": "function"
    },
    {
      "inputs": [],
      "name": "RESERVE_CONTRACT_PROXY",
      "outputs": [
        {
          "internalType": "address",
          "name": "",
          "type": "address"
        }
      ],
      "stateMutability": "view",
      "type": "function"
    },
    {
      "inputs": [],
      "name": "REUSD_USD_PRICE",
      "outputs": [
        {
          "internalType": "uint256",
          "name": "",
          "type": "uint256"
        }
      ],
      "stateMutability": "view",
      "type": "function"
    },
    {
      "inputs": [],
      "name": "RLP_USD_PRICE",
      "outputs": [
        {
          "internalType": "uint256",
          "name": "",
          "type": "uint256"
        }
      ],
      "stateMutability": "view",
      "type": "function"
    },
    {
      "inputs": [],
      "name": "SMART_LENDING_FACTORY",
      "outputs": [
        {
          "internalType": "contract IFluidSmartLendingFactory",
          "name": "",
          "type": "address"
        }
      ],
      "stateMutability": "view",
      "type": "function"
    },
    {
      "inputs": [],
      "name": "SRUSDE_USD_PRICE",
      "outputs": [
        {
          "internalType": "uint256",
          "name": "",
          "type": "uint256"
        }
      ],
      "stateMutability": "view",
      "type": "function"
    },
    {
      "inputs": [],
      "name": "STABLE_USD_PRICE",
      "outputs": [
        {
          "internalType": "uint256",
          "name": "",
          "type": "uint256"
        }
      ],
      "stateMutability": "view",
      "type": "function"
    },
    {
      "inputs": [],
      "name": "TEAM_MULTISIG",
      "outputs": [
        {
          "internalType": "address",
          "name": "",
          "type": "address"
        }
      ],
      "stateMutability": "view",
      "type": "function"
    },
    {
      "inputs": [],
      "name": "TEAM_MULTISIG_2",
      "outputs": [
        {
          "internalType": "address",
          "name": "",
          "type": "address"
        }
      ],
      "stateMutability": "view",
      "type": "function"
    },
    {
      "inputs": [],
      "name": "TIMELOCK",
      "outputs": [
        {
          "internalType": "contract ITimelock",
          "name": "",
          "type": "address"
        }
      ],
      "stateMutability": "view",
      "type": "function"
    },
    {
      "inputs": [],
      "name": "TREASURY",
      "outputs": [
        {
          "internalType": "contract IDSAV2",
          "name": "",
          "type": "address"
        }
      ],
      "stateMutability": "view",
      "type": "function"
    },
    {
      "inputs": [],
      "name": "VAULT_FACTORY",
      "outputs": [
        {
          "internalType": "contract IFluidVaultFactory",
          "name": "",
          "type": "address"
        }
      ],
      "stateMutability": "view",
      "type": "function"
    },
    {
      "inputs": [],
      "name": "XAUT_USD_PRICE",
      "outputs": [
        {
          "internalType": "uint256",
          "name": "",
          "type": "uint256"
        }
      ],
      "stateMutability": "view",
      "type": "function"
    },
    {
      "inputs": [
        {
          "internalType": "uint256",
          "name": "action_",
          "type": "uint256"
        }
      ],
      "name": "actionStatus",
      "outputs": [
        {
          "internalType": "bool",
          "name": "",
          "type": "bool"
        }
      ],
      "stateMutability": "view",
      "type": "function"
    },
    {
      "inputs": [],
      "name": "csUSDL_USD_PRICE",
      "outputs": [
        {
          "internalType": "uint256",
          "name": "",
          "type": "uint256"
        }
      ],
      "stateMutability": "view",
      "type": "function"
    },
    {
      "inputs": [],
      "name": "execute",
      "outputs": [],
      "stateMutability": "nonpayable",
      "type": "function"
    },
    {
      "inputs": [],
      "name": "ezETH_USD_PRICE",
      "outputs": [
        {
          "internalType": "uint256",
          "name": "",
          "type": "uint256"
        }
      ],
      "stateMutability": "view",
      "type": "function"
    },
    {
      "inputs": [
        {
          "internalType": "uint256",
          "name": "dexId_",
          "type": "uint256"
        }
      ],
      "name": "getDexAddress",
      "outputs": [
        {
          "internalType": "address",
          "name": "",
          "type": "address"
        }
      ],
      "stateMutability": "view",
      "type": "function"
    },
    {
      "inputs": [
        {
          "internalType": "address",
          "name": "token",
          "type": "address"
        }
      ],
      "name": "getFTokenAddress",
      "outputs": [
        {
          "internalType": "address",
          "name": "",
          "type": "address"
        }
      ],
      "stateMutability": "view",
      "type": "function"
    },
    {
      "inputs": [],
      "name": "getProposalCreationTime",
      "outputs": [
        {
          "internalType": "uint40",
          "name": "",
          "type": "uint40"
        }
      ],
      "stateMutability": "view",
      "type": "function"
    },
    {
      "inputs": [
        {
          "internalType": "address",
          "name": "token",
          "type": "address"
        },
        {
          "internalType": "uint256",
          "name": "amount",
          "type": "uint256"
        },
        {
          "internalType": "uint256",
          "name": "amountInUSD",
          "type": "uint256"
        },
        {
          "internalType": "bool",
          "name": "isSupply",
          "type": "bool"
        }
      ],
      "name": "getRawAmount",
      "outputs": [
        {
          "internalType": "uint256",
          "name": "",
          "type": "uint256"
        }
      ],
      "stateMutability": "view",
      "type": "function"
    },
    {
      "inputs": [
        {
          "internalType": "uint256",
          "name": "dexId_",
          "type": "uint256"
        }
      ],
      "name": "getSmartLendingAddress",
      "outputs": [
        {
          "internalType": "address",
          "name": "",
          "type": "address"
        }
      ],
      "stateMutability": "view",
      "type": "function"
    },
    {
      "inputs": [
        {
          "internalType": "uint256",
          "name": "vaultId_",
          "type": "uint256"
        }
      ],
      "name": "getVaultAddress",
      "outputs": [
        {
          "internalType": "address",
          "name": "",
          "type": "address"
        }
      ],
      "stateMutability": "view",
      "type": "function"
    },
    {
      "inputs": [],
      "name": "isProposalExecutable",
      "outputs": [
        {
          "internalType": "bool",
          "name": "",
          "type": "bool"
        }
      ],
      "stateMutability": "view",
      "type": "function"
    },
    {
      "inputs": [],
      "name": "mETH_USD_PRICE",
      "outputs": [
        {
          "internalType": "uint256",
          "name": "",
          "type": "uint256"
        }
      ],
      "stateMutability": "view",
      "type": "function"
    },
    {
      "inputs": [
        {
          "internalType": "string",
          "name": "description",
          "type": "string"
        }
      ],
      "name": "propose",
      "outputs": [],
      "stateMutability": "nonpayable",
      "type": "function"
    },
    {
      "inputs": [],
      "name": "rsETH_USD_PRICE",
      "outputs": [
        {
          "internalType": "uint256",
          "name": "",
          "type": "uint256"
        }
      ],
      "stateMutability": "view",
      "type": "function"
    },
    {
      "inputs": [],
      "name": "sUSDe_USD_PRICE",
      "outputs": [
        {
          "internalType": "uint256",
          "name": "",
          "type": "uint256"
        }
      ],
      "stateMutability": "view",
      "type": "function"
    },
    {
      "inputs": [],
      "name": "sUSDs_USD_PRICE",
      "outputs": [
        {
          "internalType": "uint256",
          "name": "",
          "type": "uint256"
        }
      ],
      "stateMutability": "view",
      "type": "function"
    },
    {
      "inputs": [
        {
          "internalType": "uint256[]",
          "name": "actionsToSkip_",
          "type": "uint256[]"
        }
      ],
      "name": "setActionsToSkip",
      "outputs": [],
      "stateMutability": "nonpayable",
      "type": "function"
    },
    {
      "inputs": [
        {
          "internalType": "uint40",
          "name": "proposalCreationTime_",
          "type": "uint40"
        }
      ],
      "name": "setProposalCreationTime",
      "outputs": [],
      "stateMutability": "nonpayable",
      "type": "function"
    },
    {
      "inputs": [],
      "name": "syrupUSDC_USD_PRICE",
      "outputs": [
        {
          "internalType": "uint256",
          "name": "",
          "type": "uint256"
        }
      ],
      "stateMutability": "view",
      "type": "function"
    },
    {
      "inputs": [],
      "name": "syrupUSDT_USD_PRICE",
      "outputs": [
        {
          "internalType": "uint256",
          "name": "",
          "type": "uint256"
        }
      ],
      "stateMutability": "view",
      "type": "function"
    },
    {
      "inputs": [
        {
          "internalType": "bool",
          "name": "isExecutable_",
          "type": "bool"
        }
      ],
      "name": "toggleExecutable",
      "outputs": [],
      "stateMutability": "nonpayable",
      "type": "function"
    },
    {
      "inputs": [],
      "name": "verifyProposal",
      "outputs": [],
      "stateMutability": "view",
      "type": "function"
    },
    {
      "inputs": [],
      "name": "weETH_USD_PRICE",
      "outputs": [
        {
          "internalType": "uint256",
          "name": "",
          "type": "uint256"
        }
      ],
      "stateMutability": "view",
      "type": "function"
    },
    {
      "inputs": [],
      "name": "weETHs_USD_PRICE",
      "outputs": [
        {
          "internalType": "uint256",
          "name": "",
          "type": "uint256"
        }
      ],
      "stateMutability": "view",
      "type": "function"
    },
    {
      "inputs": [],
      "name": "wstETH_USD_PRICE",
      "outputs": [
        {
          "internalType": "uint256",
          "name": "",
          "type": "uint256"
        }
      ],
      "stateMutability": "view",
      "type": "function"
    },
    {
      "inputs": [],
      "name": "wstUSR_USD_PRICE",
      "outputs": [
        {
          "internalType": "uint256",
          "name": "",
          "type": "uint256"
        }
      ],
      "stateMutability": "view",
      "type": "function"
    }
  ],
  "bytecode": "0x60a060405234801561000f575f80fd5b503060805260805161352f6100565f395f818161070f01528181611508015281816116890152818161199f01528181611a82015281816120b00152612215015261352f5ff3fe608060405234801561000f575f80fd5b5060043610610387575f3560e01c8063798d5ba3116101df578063aa98df3911610109578063c60dc265116100a9578063f6370aa911610079578063f6370aa91461075f578063f88ed60c14610769578063fb0ae91814610784578063fcee0c9814610797575f80fd5b8063c60dc265146106f7578063cc025f7c1461070a578063e6bd26a214610731578063f53eddcc14610744575f80fd5b8063b753428b116100e4578063b753428b146103b0578063b788f3a1146106b7578063bc3301a8146106d2578063bffa7f0f146106dc575f80fd5b8063aa98df391461069c578063ae68032b146106af578063b6966495146104f7575f80fd5b806396db7d5c1161017f5780639ef947371161014f5780639ef947371461063f578063a5caf0f614610657578063a64f569314610679578063a905583614610694575f80fd5b806396db7d5c146105fd5780639781a8ca1461060757806397b87b4a146106115780639d3d2a781461062c575f80fd5b806383f5d77a116101ba57806383f5d77a146105ac578063841d2699146105b457806395861bd7146105c757806396bac931146105e2575f80fd5b8063798d5ba3146105635780637aadef8b146105765780637e2f35fa14610591575f80fd5b806328787d00116102c0578063614619541161026057806366760d7d1161023057806366760d7d146103dd5780636dc0ae22146105365780637000778e14610551578063727a7c841461055b575f80fd5b80636146195414610512578063623007321461051a57806364e9d567146105245780636521e19f1461052c575f80fd5b80633484818b1161029b5780633484818b146104b757806348bbb557146104c1578063588c77e6146104dc57806358f2552e146104f7575f80fd5b806328787d00146103b05780632b54c373146104945780632d2c55651461049c575f80fd5b806311ae7a141161032b578063194c0e1811610306578063194c0e181461044c5780631bbc51a71461045657806325ad7f4d1461045e5780632861c7d114610479575f80fd5b806311ae7a141461041257806312e366aa1461041a5780631392d4ee1461042d575f80fd5b80630b396e66116103665780630b396e66146103b85780630bc9136e146103c25780630e6a204c146103ca578063103f2907146103df575f80fd5b8062623d7d1461038b5780630251eb11146103a6578063040e7a80146103b0575b5f80fd5b61039360db81565b6040519081526020015b60405180910390f35b610393620474a081565b610393606481565b61039362048c1081565b610393607a81565b6103dd6103d8366004612d69565b6107b2565b005b6103fa73324c5dc1fc42c7a4d43d92df1eba58a54d13bf2d81565b6040516001600160a01b03909116815260200161039d565b610393607881565b6103fa610428366004612d8b565b61082f565b5f5465010000000000900460ff165b604051901515815260200161039d565b6103936205747c81565b610393606e81565b6103fa739efde135ca4832abf0408c44c6f5f370eb0f35e881565b6103fa7352aa899454998be5b000ad077a46bbe360f4e49781565b610393606781565b6103fa7328849d2b63fa8d361e5fc15cb8abb13019884d0981565b61039362062e0881565b6103fa73e7eb63a8b6392481a9fdebb108cfd580dc8664d381565b6103fa735c43aac965ff230ac1cf63e924d0153291d78bad81565b6103fa73264786ef916af64a1db19f513f24a3681734ce9281565b6103dd6108aa565b61039362030d4081565b610393606c81565b610393620493e081565b6103fa730204cd037b2ec03605cfdfe482d8e257c765fa1b81565b61039362062a2081565b610393606a81565b6103dd610571366004612da2565b6108cc565b6103fa732386dc45added673317ef068992f19421b481f4c81565b6103fa73059a94a72951c0ae1cc1ce3bf0db52421bbe821081565b610393607e81565b6103fa6105c2366004612d8b565b610985565b6103fa73a0d3707c569ff8c87fa923d3823ec5d81c98be7881565b6103fa7354b91a0d94cb471f37f949c60f7fa7935b551d0381565b6103936204a38081565b6103936269492081565b6103fa7391716c4eda1fb55e84bf8b4c7085f84285c1908581565b61039361063a366004612e25565b6109bf565b5f5460405164ffffffffff909116815260200161039d565b61043c610665366004612d8b565b5f9081526001602052604090205460ff1690565b6103fa7397b0b3a8bdefe8cb9563a3c610019ad10db8ad1181565b610393607281565b6103dd6106aa366004612e80565b61123e565b610393607081565b6103fa734f6f977acdd1177dcd81ab83074855ecb9c2d49e81565b6103936204ab5081565b6103fa73a45f7bd6a5ff45d31aace6bcd3d426d9328cea0181565b6103fa610705366004612f2b565b6116f2565b6103fa7f000000000000000000000000000000000000000000000000000000000000000081565b6103fa61073f366004612d8b565b6117e0565b6103fa73e57227c7d5900165344b190fc7aa580bceb53b9b81565b6103936204a76881565b6103fa733daff61fe5cfb1f1b4ea7fba8173a58532ef184181565b6103dd610792366004612f46565b61181a565b6103fa731e2e1aed876f67fe4fd54090fd7b8f57ce23421981565b33734f6f977acdd1177dcd81ab83074855ecb9c2d49e1461080e5760405162461bcd60e51b81526020600482015260116024820152706e6f742d7465616d2d6d756c746973696760781b60448201526064015b60405180910390fd5b5f8054911515650100000000000265ff000000000019909216919091179055565b604051630971b35560e11b8152600481018290525f907391716c4eda1fb55e84bf8b4c7085f84285c19085906312e366aa906024015b602060405180830381865afa158015610880573d5f803e3d5ffd5b505050506040513d601f19601f820116820180604052508101906108a49190612f6a565b92915050565b6108b2611947565b6108ba611a69565b6108c2612097565b6108ca6121fc565b565b33734f6f977acdd1177dcd81ab83074855ecb9c2d49e146109235760405162461bcd60e51b81526020600482015260116024820152706e6f742d7465616d2d6d756c746973696760781b6044820152606401610805565b5f5b81811015610980576001805f85858581811061094357610943612f85565b9050602002013581526020019081526020015f205f6101000a81548160ff021916908315150217905550808061097890612fad565b915050610925565b505050565b60405163841d269960e01b8152600481018290525f9073e57227c7d5900165344b190fc7aa580bceb53b9b9063841d269990602401610865565b5f80841180156109ce57505f83115b15610a1b5760405162461bcd60e51b815260206004820181905260248201527f626f74682075736420616e6420616d6f756e7420617265206e6f74207a65726f6044820152606401610805565b604080516001600160a01b03871660208083019190915260058284015282518083038401815260608301938490528051910120632d71cdb960e21b90925260648101919091525f907352aa899454998be5b000ad077a46bbe360f4e4979063b5c736e490608401602060405180830381865afa158015610a9d573d5f803e3d5ffd5b505050506040513d601f19601f82011682018060405250810190610ac19190612fc5565b90505f80610ace836124be565b90925090505f601273eeeeeeeeeeeeeeeeeeeeeeeeeeeeeeeeeeeeeeed196001600160a01b038b1601610b09575062030d40905060126111bf565b737f39c581f595b53c5cb19bd0b3f8da6c935e2c9f196001600160a01b038b1601610b3c57506205747c905060126111bf565b73cd5fe23c85820f7b72d0926fc9b05b43e359b7ed196001600160a01b038b1601610b6f57506204a768905060126111bf565b73a1290d69c65a6fe4df752f95823fae25cb99e5a6196001600160a01b038b1601610ba2575062048c10905060126111bf565b73917cee801a67f933f2e6b33fc0cd1ed2d5909d87196001600160a01b038b1601610bd55750620474a0905060126111bf565b73d5f7838f5c461feff7fe49ea5ebaf7728bb0adf9196001600160a01b038b1601610c0857506204a380905060126111bf565b73bf5495efe5db9ce00f80364c8b423567e58d210f196001600160a01b038b1601610c3b5750620493e0905060126111bf565b73f1c9acdc66974dfb6decb12aa385b9cd01190e37196001600160a01b038b1601610c6e57506204ab50905060126111bf565b6001600160a01b038a1673cbb7c0000ab88b473b1f5afd9ef808440eed33bf1480610cb557506001600160a01b038a16732260fac5e5542a773aa44fbcfedf7c193bc2c599145b80610cdc57506001600160a01b038a1673657e8c867d8b37dcc18fa4caead9c45eb088c642145b80610d0357506001600160a01b038a16738236a87084f8b84306f72007f36f2618a5634494145b15610d16575062694920905060086111bf565b7318084fba666a33d37592fa2633fd49a74dd93a87196001600160a01b038b1601610d49575062694920905060126111bf565b6001600160a01b038a1673a0b86991c6218b36c1d19d4a2e9eb0ce3606eb481480610d9057506001600160a01b038a1673dac17f958d2ee523a2206206994597c13d831ec7145b15610da157506064905060066111bf565b739d39a5de30e57443bff2a8307a4256c8797a3496196001600160a01b038b1601610dd257506078905060126111bf565b73a3931d71877c0e7a3148cb7eb4463524fec27fbc196001600160a01b038b1601610e035750606c905060126111bf565b73356b8d89c1e1239cbbb9de4815c39a1474d5ba7c196001600160a01b038b1601610e345750606e905060066111bf565b7380ac24aa929eaf5013f6436cda2a7ba190f5cc0a196001600160a01b038b1601610e6557506072905060066111bf565b735086bf358635b81d8c47c66d1c8b9e567db70c71196001600160a01b038b1601610e965750606a905060126111bf565b73beefc011e94f43b8b7b455ebab290c7ab4e216f0196001600160a01b038b1601610ec757506067905060126111bf565b73c58d044404d8b14e953c115e67823784dea53d8e196001600160a01b038b1601610ef857506064905060126111bf565b733d7d6fdf07ee548b939a80edbc9b2256d0cdc002196001600160a01b038b1601610f2957506064905060126111bf565b6001600160a01b038a167340d16fc0246ad3160ccc09b8d0d3a2cd28ae6c2f1480610f7057506001600160a01b038a16734c9edd5852cd905f086c759e8383e09bff1e68b3145b80610f9757506001600160a01b038a167315700b564ca08d9439c58ca5053166e8317aa138145b80610fbe57506001600160a01b038a167366a1e37c9b0eaddca17d3662d6c05f4decf3e110145b80610fe557506001600160a01b038a167373a15fed60bf67631dc6cd7bc5b6e8da8190acf5145b8061100c57506001600160a01b038a1673085780639cc2cacd35e474e71f4d000e2405d8f6145b8061103357506001600160a01b038a1673b01dd87b29d187f3e3a4bf6cdaebfb97f3d9ab98145b8061105a57506001600160a01b038a167348f9e38f3070ad8945dfeae3fa70987722e3d89c145b8061108157506001600160a01b038a1673c139190f447e929f090edeb554d95abb8b18ac1c145b1561109257506064905060126111bf565b736f40d4a6237c257fff2db00fa0510deeecd303ea196001600160a01b038b16016110c3575060db905060126111bf565b731202f5c7b4b9e47a1a484e8b270be34dbbc75054196001600160a01b038b16016110f457506070905060126111bf565b734956b52ae2ff65d74ca2d61207523288e4528f95196001600160a01b038b16016111255750607e905060126111bf565b7368749665ff8d2d112fa859aa293f07a622782f37196001600160a01b038b1601611158575062062a20905060066111bf565b7345804880de22913dafe09f4980848ece6ecbaf77196001600160a01b038b160161118b575062062e08905060126111bf565b60405162461bcd60e51b81526020600482015260096024820152681b9bdd0b599bdd5b9960ba1b6044820152606401610805565b5f876111cb57836111cd565b845b905089156111fc57806111e58b64e8d4a51000612fdc565b6111ef9190613007565b9650505050505050611236565b60646112088285612fdc565b6112129190613007565b61121d83600a613106565b61122c8b64e8d4a51000612fdc565b6111e59190612fdc565b949350505050565b3373a45f7bd6a5ff45d31aace6bcd3d426d9328cea011480611273575033734f6f977acdd1177dcd81ab83074855ecb9c2d49e145b8061129157503073059a94a72951c0ae1cc1ce3bf0db52421bbe8210145b806112af575030739efde135ca4832abf0408c44c6f5f370eb0f35e8145b806112cd575030735c43aac965ff230ac1cf63e924d0153291d78bad145b806112eb575030733daff61fe5cfb1f1b4ea7fba8173a58532ef1841145b8061130957503073e7eb63a8b6392481a9fdebb108cfd580dc8664d3145b61134e5760405162461bcd60e51b81526020600482015260166024820152751b5cd9cb9cd95b99195c8b5b9bdd0b585b1b1bddd95960521b6044820152606401610805565b6040805160018082528183019092525f9082602080830190803683370190505090505f8267ffffffffffffffff81111561138a5761138a612e6c565b6040519080825280602002602001820160405280156113b3578160200160208202803683370190505b5090505f8367ffffffffffffffff8111156113d0576113d0612e6c565b60405190808252806020026020018201604052801561140357816020015b60608152602001906001900390816113ee5790505b5090505f8467ffffffffffffffff81111561142057611420612e6c565b60405190808252806020026020018201604052801561145357816020015b606081526020019060019003908161143e5790505b509050732386dc45added673317ef068992f19421b481f4c845f8151811061147d5761147d612f85565b60200260200101906001600160a01b031690816001600160a01b0316815250505f835f815181106114b0576114b0612f85565b6020026020010181815250506040518060600160405280602481526020016134d660249139825f815181106114e7576114e7612f85565b602090810291909101810191909152604080515f8152918201815261152f917f0000000000000000000000000000000000000000000000000000000000000000918101613154565b604051602081830303815290604052815f8151811061155057611550612f85565b6020908102919091010152604051636d4ab48d60e11b81525f90730204cd037b2ec03605cfdfe482d8e257c765fa1b9063da95691a9061159c9088908890889088908e90600401613220565b6020604051808303815f875af11580156115b8573d5f803e3d5ffd5b505050506040513d601f19601f820116820180604052508101906115dc9190612fc5565b9050607a81146116255760405162461bcd60e51b815260206004820152601460248201527350524f504f53414c5f49535f4e4f545f53414d4560601b6044820152606401610805565b3373a45f7bd6a5ff45d31aace6bcd3d426d9328cea01148061165a575033734f6f977acdd1177dcd81ab83074855ecb9c2d49e145b1561166d576116684261181a565b6116e9565b604051631f615d2360e31b815264ffffffffff421660048201527f00000000000000000000000000000000000000000000000000000000000000006001600160a01b03169063fb0ae918906024015f604051808303815f87803b1580156116d2575f80fd5b505af11580156116e4573d5f803e3d5ffd5b505050505b50505050505050565b5f73c02aaa39b223fe8d0a0e5c4f27ead9083c756cc1196001600160a01b03831601611781576040805163bb4a64d360e01b81526001600160a01b03841660048201526024810191909152601060448201526f4e6174697665556e6465726c79696e6760801b60648201527354b91a0d94cb471f37f949c60f7fa7935b551d039063bb4a64d390608401610865565b6040805163bb4a64d360e01b81526001600160a01b038416600482015260248101919091526006604482015265332a37b5b2b760d11b60648201527354b91a0d94cb471f37f949c60f7fa7935b551d039063bb4a64d390608401610865565b60405163735e935160e11b8152600481018290525f9073324c5dc1fc42c7a4d43d92df1eba58a54d13bf2d9063e6bd26a290602401610865565b3373a45f7bd6a5ff45d31aace6bcd3d426d9328cea01148061184f575033734f6f977acdd1177dcd81ab83074855ecb9c2d49e145b8061186d57503373059a94a72951c0ae1cc1ce3bf0db52421bbe8210145b8061188b575033739efde135ca4832abf0408c44c6f5f370eb0f35e8145b806118a9575033735c43aac965ff230ac1cf63e924d0153291d78bad145b806118c7575033733daff61fe5cfb1f1b4ea7fba8173a58532ef1841145b806118e557503373e7eb63a8b6392481a9fdebb108cfd580dc8664d3145b61192a5760405162461bcd60e51b81526020600482015260166024820152751b5cd9cb9cd95b99195c8b5b9bdd0b585b1b1bddd95960521b6044820152606401610805565b5f805464ffffffffff191664ffffffffff92909216919091179055565b30732386dc45added673317ef068992f19421b481f4c1461199d5760405162461bcd60e51b815260206004820152601060248201526f3737ba16bb30b634b216b1b0b63632b960811b6044820152606401610805565b7f00000000000000000000000000000000000000000000000000000000000000006001600160a01b0316631392d4ee6040518163ffffffff1660e01b8152600401602060405180830381865afa1580156119f9573d5f803e3d5ffd5b505050506040513d601f19601f82011682018060405250810190611a1d91906132be565b6108ca5760405162461bcd60e51b815260206004820152601760248201527f70726f706f73616c2d6e6f742d65786563757461626c650000000000000000006044820152606401610805565b6040516352e5787b60e11b8152600160048201819052907f00000000000000000000000000000000000000000000000000000000000000006001600160a01b03169063a5caf0f690602401602060405180830381865afa158015611acf573d5f803e3d5ffd5b505050506040513d601f19601f82011682018060405250810190611af391906132be565b612094575f611b0260a06117e0565b90505f6040518060e00160405280836001600160a01b031681526020015f6003811115611b3157611b316132d9565b8152735086bf358635b81d8c47c66d1c8b9e567db70c72602082015273a0b86991c6218b36c1d19d4a2e9eb0ce3606eb486040820152611b5860608201819052608082015261232860a0909101529050611b8a816126b3565b604051637faa1d2160e01b815273324c5dc1fc42c7a4d43d92df1eba58a54d13bf2d90637faa1d2190611bda908590734f6f977acdd1177dcd81ab83074855ecb9c2d49e906001906004016132ed565b5f604051808303815f87803b158015611bf1575f80fd5b505af1158015611c03573d5f803e3d5ffd5b5050505050505f611c1460a16117e0565b90505f6040518060e00160405280836001600160a01b031681526020015f6003811115611c4357611c436132d9565b8152735086bf358635b81d8c47c66d1c8b9e567db70c72602082015273dac17f958d2ee523a2206206994597c13d831ec76040820152611b5860608201819052608082015261232860a0909101529050611c9c816126b3565b604051637faa1d2160e01b815273324c5dc1fc42c7a4d43d92df1eba58a54d13bf2d90637faa1d2190611cec908590734f6f977acdd1177dcd81ab83074855ecb9c2d49e906001906004016132ed565b5f604051808303815f87803b158015611d03575f80fd5b505af1158015611d15573d5f803e3d5ffd5b5050505050505f611d2660a26117e0565b90505f6040518060e00160405280836001600160a01b031681526020015f6003811115611d5557611d556132d9565b8152735086bf358635b81d8c47c66d1c8b9e567db70c7260208201527340d16fc0246ad3160ccc09b8d0d3a2cd28ae6c2f6040820152611b5860608201819052608082015261232860a0909101529050611dae816126b3565b604051637faa1d2160e01b815273324c5dc1fc42c7a4d43d92df1eba58a54d13bf2d90637faa1d2190611dfe908590734f6f977acdd1177dcd81ab83074855ecb9c2d49e906001906004016132ed565b5f604051808303815f87803b158015611e15575f80fd5b505af1158015611e27573d5f803e3d5ffd5b5050505050505f611e3860a36117e0565b90505f611e45600261082f565b90505f6040518060e00160405280846001600160a01b0316815260200160026003811115611e7557611e756132d9565b8152735086bf358635b81d8c47c66d1c8b9e567db70c7260208201525f60408201819052611b5860608301526080820181905260a0909101529050611eb9816126b3565b604051637faa1d2160e01b815273324c5dc1fc42c7a4d43d92df1eba58a54d13bf2d90637faa1d2190611f09908690734f6f977acdd1177dcd81ab83074855ecb9c2d49e906001906004016132ed565b5f604051808303815f87803b158015611f20575f80fd5b505af1158015611f32573d5f803e3d5ffd5b505050505f6040518060c00160405280846001600160a01b03168152602001856001600160a01b03168152602001610bb88152602001615460815260200168bdbc41e0348b300000815260200168f3f20b8dfa69d000008152509050611f978161287b565b505050505f611fa660a46117e0565b90505f6040518060e00160405280836001600160a01b0316815260200160016003811115611fd657611fd66132d9565b81525f6020820181905273dac17f958d2ee523a2206206994597c13d831ec760408301526060820152611b58608082015261232860a090910152905061201b816126b3565b604051637faa1d2160e01b815273324c5dc1fc42c7a4d43d92df1eba58a54d13bf2d90637faa1d219061206b908590734f6f977acdd1177dcd81ab83074855ecb9c2d49e906001906004016132ed565b5f604051808303815f87803b158015612082575f80fd5b505af11580156116e9573d5f803e3d5ffd5b50565b6040516352e5787b60e11b8152600260048201819052907f00000000000000000000000000000000000000000000000000000000000000006001600160a01b03169063a5caf0f690602401602060405180830381865afa1580156120fd573d5f803e3d5ffd5b505050506040513d601f19601f8201168201806040525081019061212191906132be565b612094575f612130602c61082f565b60408051610100810182526001600160a01b0383168152735086bf358635b81d8c47c66d1c8b9e567db70c72602082015273dac17f958d2ee523a2206206994597c13d831ec791810191909152600160608201525f6080820181905261271060a083015260c0820181905260e08201529091506121ac8161299d565b604051630f18fc2760e31b81527391716c4eda1fb55e84bf8b4c7085f84285c19085906378c7e1389061206b908590734f6f977acdd1177dcd81ab83074855ecb9c2d49e906001906004016132ed565b6040516352e5787b60e11b8152600360048201819052907f00000000000000000000000000000000000000000000000000000000000000006001600160a01b03169063a5caf0f690602401602060405180830381865afa158015612262573d5f803e3d5ffd5b505050506040513d601f19601f8201168201806040525081019061228691906132be565b612094575f612295602661082f565b90505f6122a26026610985565b604051632ce226fd60e21b8152600160048201529091506001600160a01b0383169063b3889bf4906024015f604051808303815f87803b1580156122e4575f80fd5b505af11580156122f6573d5f803e3d5ffd5b505050506123556040518060a00160405280846001600160a01b0316815260200173beefc011e94f43b8b7b455ebab290c7ab4e216f16001600160a01b031681526020016001815260200162ffffff8152602001611388815250612b00565b6123b06040518060a00160405280846001600160a01b0316815260200173a0b86991c6218b36c1d19d4a2e9eb0ce3606eb486001600160a01b031681526020016001815260200162ffffff8152602001611388815250612b00565b6040805160018082528183019092525f91816020015b6123f660405180608001604052805f6001600160a01b031681526020015f81526020015f81526020015f81525090565b8152602001906001900390816123c65790505090506040518060800160405280836001600160a01b031681526020016001815260200162ffffff8152602001686c6b935b8bbd400000815250815f8151811061245457612454612f85565b602090810291909101015260405163137ed05b60e11b81526001600160a01b038416906326fda0b69061248b908490600401613311565b5f604051808303815f87803b1580156124a2575f80fd5b505af11580156124b4573d5f803e3d5ffd5b5050505050505050565b67ffffffffffffffff605b82901c811690609b83901c168115806124e0575080155b1561250357604051636a86ba8960e11b8152620111716004820152602401610805565b61ffff8316603a84901c6401ffffffff16428181039160ea87901c617fff1691148061252d575082155b806125385750806001145b1561254557505050915091565b64496cebb80084840283020484019350617fff60db87901c1692508260010361257057505050915091565b826001166001036125c55760019290921c91826c7e37be2022c0914b26800000008161259e5761259e612ff3565b049250612710601e87901c613fff166b033b2e3c9fd0803ce80000008501020492506125f2565b60019290921c916305f5e100601e87901c613fff166127108501026b033b2e3c9fd0803ce8000000020492505b806001166001036126295760011c61271081016b033b2e3c9fd0803ce800000082028161262157612621612ff3565b04905061265f565b60011c61271081016b033b2e3c9fd0803ce800000082028161264d5761264d612ff3565b046b033b2e3c9fd0803ce80000000390505b760a70c3c40a64e6c51999090b65f67d92400000000000008382026127100261ffff881691900402601087901c613fff16612710030292506801b5a660ea44b8000085840283020485019450505050915091565b5f816020015160038111156126ca576126ca6132d9565b03612719576040805160a08101825282516001600160a01b039081168252838301511660208201526113889181019190915261546060608201526080808301519082015261271781612b00565b505b5f81602001516003811115612730576127306132d9565b03612795575f6040518060c00160405280835f01516001600160a01b0316815260200183606001516001600160a01b03168152602001611388815260200161546081526020018360a0015181526020018360c00151815250905061279381612c12565b505b6001816020015160038111156127ad576127ad6132d9565b03612812575f6040518060c00160405280835f01516001600160a01b0316815260200183606001516001600160a01b03168152602001610bb8815260200161546081526020018360a0015181526020018360c00151815250905061281081612c12565b505b60028160200151600381111561282a5761282a6132d9565b03612094576040805160a08101825282516001600160a01b03908116825283830151166020820152610dac9181019190915261546060608201526080808301519082015261287781612b00565b5050565b6040805160018082528183019092525f91816020015b6128c76040518060a001604052805f6001600160a01b031681526020015f81526020015f81526020015f81526020015f81525090565b8152602001906001900390816128915790505090506040518060a0016040528083602001516001600160a01b031681526020018360400151815260200183606001518152602001836080015181526020018360a00151815250815f8151811061293257612932612f85565b6020908102919091010152815160405163ba9af1e360e01b81526001600160a01b039091169063ba9af1e39061296c908490600401613370565b5f604051808303815f87803b158015612983575f80fd5b505af1158015612995573d5f803e3d5ffd5b505050505050565b806060015115612a46575f6040518060a00160405280835f01516001600160a01b0316815260200183602001516001600160a01b031681526020016113888152602001610e1081526020018360a0015181525090506129fb81612b00565b6040805160a0808201835284516001600160a01b0390811683528584015116602083015261138892820192909252610e106060820152908301516080820152612a4381612b00565b50505b806080015115612094575f6040518060c00160405280835f01516001600160a01b0316815260200183602001516001600160a01b031681526020016113888152602001610e1081526020018360c0015181526020018360e001518152509050612aae81612c12565b6040805160c0808201835284516001600160a01b0390811683528584015116602083015261138892820192909252610e10606082015290830151608082015260e083015160a082015261098081612c12565b6040805160018082528183019092525f91816020015b6040805160c0810182525f8082526020808301829052928201819052606082018190526080820181905260a082015282525f19909201910181612b165790505090506040518060c00160405280835f01516001600160a01b0316815260200183602001516001600160a01b03168152602001600160ff1681526020018360400151815260200183606001518152602001612bbb84602001515f866080015160016109bf565b815250815f81518110612bd057612bd0612f85565b60209081029190910101526040516301635db560e11b81527352aa899454998be5b000ad077a46bbe360f4e497906302c6bb6a9061296c9084906004016133d9565b6040805160018082528183019092525f91816020015b612c766040518060e001604052805f6001600160a01b031681526020015f6001600160a01b031681526020015f60ff1681526020015f81526020015f81526020015f81526020015f81525090565b815260200190600190039081612c285790505090506040518060e00160405280835f01516001600160a01b0316815260200183602001516001600160a01b03168152602001600160ff1681526020018360400151815260200183606001518152602001612ced84602001515f86608001515f6109bf565b8152602001612d0684602001515f8660a001515f6109bf565b815250815f81518110612d1b57612d1b612f85565b602090810291909101015260405162dc47c360e11b81527352aa899454998be5b000ad077a46bbe360f4e497906301b88f869061296c908490600401613452565b8015158114612094575f80fd5b5f60208284031215612d79575f80fd5b8135612d8481612d5c565b9392505050565b5f60208284031215612d9b575f80fd5b5035919050565b5f8060208385031215612db3575f80fd5b823567ffffffffffffffff80821115612dca575f80fd5b818501915085601f830112612ddd575f80fd5b813581811115612deb575f80fd5b8660208260051b8501011115612dff575f80fd5b60209290920196919550909350505050565b6001600160a01b0381168114612094575f80fd5b5f805f8060808587031215612e38575f80fd5b8435612e4381612e11565b935060208501359250604085013591506060850135612e6181612d5c565b939692955090935050565b634e487b7160e01b5f52604160045260245ffd5b5f60208284031215612e90575f80fd5b813567ffffffffffffffff80821115612ea7575f80fd5b818401915084601f830112612eba575f80fd5b813581811115612ecc57612ecc612e6c565b604051601f8201601f19908116603f01168101908382118183101715612ef457612ef4612e6c565b81604052828152876020848701011115612f0c575f80fd5b826020860160208301375f928101602001929092525095945050505050565b5f60208284031215612f3b575f80fd5b8135612d8481612e11565b5f60208284031215612f56575f80fd5b813564ffffffffff81168114612d84575f80fd5b5f60208284031215612f7a575f80fd5b8151612d8481612e11565b634e487b7160e01b5f52603260045260245ffd5b634e487b7160e01b5f52601160045260245ffd5b5f60018201612fbe57612fbe612f99565b5060010190565b5f60208284031215612fd5575f80fd5b5051919050565b80820281158282048414176108a4576108a4612f99565b634e487b7160e01b5f52601260045260245ffd5b5f8261302157634e487b7160e01b5f52601260045260245ffd5b500490565b600181815b8085111561306057815f190482111561304657613046612f99565b8085161561305357918102915b93841c939080029061302b565b509250929050565b5f82613076575060016108a4565b8161308257505f6108a4565b816001811461309857600281146130a2576130be565b60019150506108a4565b60ff8411156130b3576130b3612f99565b50506001821b6108a4565b5060208310610133831016604e8410600b84101617156130e1575081810a6108a4565b6130eb8383613026565b805f19048211156130fe576130fe612f99565b029392505050565b5f612d848383613068565b5f81518084525f5b8181101561313557602081850181015186830182015201613119565b505f602082860101526020601f19601f83011685010191505092915050565b60018060a01b038316815260606020820152600960608201526865786563757465282960b81b608082015260a060408201525f61123660a0830184613111565b5f8151808452602080850194508084015f5b838110156131c2578151875295820195908201906001016131a6565b509495945050505050565b5f81518084526020808501808196508360051b810191508286015f5b85811015613213578284038952613201848351613111565b988501989350908401906001016131e9565b5091979650505050505050565b60a080825286519082018190525f9060209060c0840190828a01845b828110156132615781516001600160a01b03168452928401929084019060010161323c565b505050838103828501526132758189613194565b915050828103604084015261328a81876131cd565b9050828103606084015261329e81866131cd565b905082810360808401526132b28185613111565b98975050505050505050565b5f602082840312156132ce575f80fd5b8151612d8481612d5c565b634e487b7160e01b5f52602160045260245ffd5b6001600160a01b039384168152919092166020820152901515604082015260600190565b602080825282518282018190525f919060409081850190868401855b8281101561321357815180516001600160a01b0316855286810151878601528581015186860152606090810151908501526080909301929085019060010161332d565b602080825282518282018190525f919060409081850190868401855b8281101561321357815180516001600160a01b0316855286810151878601528581015186860152606080820151908601526080908101519085015260a0909301929085019060010161338c565b602080825282518282018190525f919060409081850190868401855b8281101561321357815180516001600160a01b0390811686528782015116878601528581015160ff1686860152606080820151908601526080808201519086015260a0908101519085015260c090930192908501906001016133f5565b602080825282518282018190525f919060409081850190868401855b8281101561321357815180516001600160a01b0390811686528782015116878601528581015160ff1686860152606080820151908601526080808201519086015260a0808201519086015260c0908101519085015260e0909301929085019060010161346e56fe657865637574655061796c6f616428616464726573732c737472696e672c627974657329a2646970667358221220f4d845ab57a98295bfb09cdf05c06d2ef2f9908157f3b88a3b261a30bb0424d464736f6c63430008150033",
  "linkReferences": {},
  "deployedLinkReferences": {},
  "immutableReferences": {
    "1056": [
      {
        "length": 32,
        "start": 1807
      },
      {
        "length": 32,
        "start": 5384
      },
      {
        "length": 32,
        "start": 5769
      },
      {
        "length": 32,
        "start": 6559
      },
      {
        "length": 32,
        "start": 6786
      },
      {
        "length": 32,
        "start": 8368
      },
      {
        "length": 32,
        "start": 8725
      }
    ]
  },
  "inputSourceName": "project/contracts/payloads/IGP122/PayloadIGP122.sol",
  "buildInfoId": "solc-0_8_21-cf60903aed29cd8ebf7f0661a230ade51c24a73e"
}