{
  "_format": "hh3-artifact-1",
  "contractName": "PayloadIGP126",
  "sourceName": "contracts/payloads/IGP126/PayloadIGP126.sol",
  "abi": [
    {
      "inputs": [
        {
          "internalType": "uint256",
          "name": "errorId_",
          "type": "uint256"
        }
      ],
      "name": "FluidLiquidityCalcsError",
      "type": "error"
    },
    {
      "inputs": [],
      "name": "ADDRESS_THIS",
      "outputs": [
        {
          "internalType": "address",
          "name": "",
          "type": "address"
        }
      ],
      "stateMutability": "view",
      "type": "function"
    },
    {
      "inputs": [],
      "name": "BTC_USD_PRICE",
      "outputs": [
        {
          "internalType": "uint256",
          "name": "",
          "type": "uint256"
        }
      ],
      "stateMutability": "view",
      "type": "function"
    },
    {
      "inputs": [],
      "name": "DEX_FACTORY",
      "outputs": [
        {
          "internalType": "contract IFluidDexFactory",
          "name": "",
          "type": "address"
        }
      ],
      "stateMutability": "view",
      "type": "function"
    },
    {
      "inputs": [],
      "name": "DSA_CONNECTORS_V2",
      "outputs": [
        {
          "internalType": "contract IDSAConnectorsV2",
          "name": "",
          "type": "address"
        }
      ],
      "stateMutability": "view",
      "type": "function"
    },
    {
      "inputs": [],
      "name": "ETH_USD_PRICE",
      "outputs": [
        {
          "internalType": "uint256",
          "name": "",
          "type": "uint256"
        }
      ],
      "stateMutability": "view",
      "type": "function"
    },
    {
      "inputs": [],
      "name": "FLUID_RESERVE",
      "outputs": [
        {
          "internalType": "contract IFluidReserveContract",
          "name": "",
          "type": "address"
        }
      ],
      "stateMutability": "view",
      "type": "function"
    },
    {
      "inputs": [],
      "name": "FLUID_USD_PRICE",
      "outputs": [
        {
          "internalType": "uint256",
          "name": "",
          "type": "uint256"
        }
      ],
      "stateMutability": "view",
      "type": "function"
    },
    {
      "inputs": [],
      "name": "GOVERNOR",
      "outputs": [
        {
          "internalType": "contract IGovernorBravo",
          "name": "",
          "type": "address"
        }
      ],
      "stateMutability": "view",
      "type": "function"
    },
    {
      "inputs": [],
      "name": "IETHV2",
      "outputs": [
        {
          "internalType": "contract ILite",
          "name": "",
          "type": "address"
        }
      ],
      "stateMutability": "view",
      "type": "function"
    },
    {
      "inputs": [],
      "name": "JRUSDE_USD_PRICE",
      "outputs": [
        {
          "internalType": "uint256",
          "name": "",
          "type": "uint256"
        }
      ],
      "stateMutability": "view",
      "type": "function"
    },
    {
      "inputs": [],
      "name": "LENDING_FACTORY",
      "outputs": [
        {
          "internalType": "contract IFluidLendingFactory",
          "name": "",
          "type": "address"
        }
      ],
      "stateMutability": "view",
      "type": "function"
    },
    {
      "inputs": [],
      "name": "LIQUIDITY",
      "outputs": [
        {
          "internalType": "contract IFluidLiquidityAdmin",
          "name": "",
          "type": "address"
        }
      ],
      "stateMutability": "view",
      "type": "function"
    },
    {
      "inputs": [],
      "name": "OLD_USER_MODULE",
      "outputs": [
        {
          "internalType": "address",
          "name": "",
          "type": "address"
        }
      ],
      "stateMutability": "view",
      "type": "function"
    },
    {
      "inputs": [],
      "name": "OSETH_USD_PRICE",
      "outputs": [
        {
          "internalType": "uint256",
          "name": "",
          "type": "uint256"
        }
      ],
      "stateMutability": "view",
      "type": "function"
    },
    {
      "inputs": [],
      "name": "PAXG_USD_PRICE",
      "outputs": [
        {
          "internalType": "uint256",
          "name": "",
          "type": "uint256"
        }
      ],
      "stateMutability": "view",
      "type": "function"
    },
    {
      "inputs": [],
      "name": "PROPOSAL_ID",
      "outputs": [
        {
          "internalType": "uint256",
          "name": "",
          "type": "uint256"
        }
      ],
      "stateMutability": "view",
      "type": "function"
    },
    {
      "inputs": [],
      "name": "PROPOSER",
      "outputs": [
        {
          "internalType": "address",
          "name": "",
          "type": "address"
        }
      ],
      "stateMutability": "view",
      "type": "function"
    },
    {
      "inputs": [],
      "name": "PROPOSER_AVO_MULTISIG",
      "outputs": [
        {
          "internalType": "address",
          "name": "",
          "type": "address"
        }
      ],
      "stateMutability": "view",
      "type": "function"
    },
    {
      "inputs": [],
      "name": "PROPOSER_AVO_MULTISIG_2",
      "outputs": [
        {
          "internalType": "address",
          "name": "",
          "type": "address"
        }
      ],
      "stateMutability": "view",
      "type": "function"
    },
    {
      "inputs": [],
      "name": "PROPOSER_AVO_MULTISIG_3",
      "outputs": [
        {
          "internalType": "address",
          "name": "",
          "type": "address"
        }
      ],
      "stateMutability": "view",
      "type": "function"
    },
    {
      "inputs": [],
      "name": "PROPOSER_AVO_MULTISIG_4",
      "outputs": [
        {
          "internalType": "address",
          "name": "",
          "type": "address"
        }
      ],
      "stateMutability": "view",
      "type": "function"
    },
    {
      "inputs": [],
      "name": "PROPOSER_AVO_MULTISIG_5",
      "outputs": [
        {
          "internalType": "address",
          "name": "",
          "type": "address"
        }
      ],
      "stateMutability": "view",
      "type": "function"
    },
    {
      "inputs": [],
      "name": "RESERVE_CONTRACT_PROXY",
      "outputs": [
        {
          "internalType": "address",
          "name": "",
          "type": "address"
        }
      ],
      "stateMutability": "view",
      "type": "function"
    },
    {
      "inputs": [],
      "name": "REUSD_USD_PRICE",
      "outputs": [
        {
          "internalType": "uint256",
          "name": "",
          "type": "uint256"
        }
      ],
      "stateMutability": "view",
      "type": "function"
    },
    {
      "inputs": [],
      "name": "RLP_USD_PRICE",
      "outputs": [
        {
          "internalType": "uint256",
          "name": "",
          "type": "uint256"
        }
      ],
      "stateMutability": "view",
      "type": "function"
    },
    {
      "inputs": [],
      "name": "SMART_LENDING_FACTORY",
      "outputs": [
        {
          "internalType": "contract IFluidSmartLendingFactory",
          "name": "",
          "type": "address"
        }
      ],
      "stateMutability": "view",
      "type": "function"
    },
    {
      "inputs": [],
      "name": "SRUSDE_USD_PRICE",
      "outputs": [
        {
          "internalType": "uint256",
          "name": "",
          "type": "uint256"
        }
      ],
      "stateMutability": "view",
      "type": "function"
    },
    {
      "inputs": [],
      "name": "STABLE_USD_PRICE",
      "outputs": [
        {
          "internalType": "uint256",
          "name": "",
          "type": "uint256"
        }
      ],
      "stateMutability": "view",
      "type": "function"
    },
    {
      "inputs": [],
      "name": "TEAM_MULTISIG",
      "outputs": [
        {
          "internalType": "address",
          "name": "",
          "type": "address"
        }
      ],
      "stateMutability": "view",
      "type": "function"
    },
    {
      "inputs": [],
      "name": "TEAM_MULTISIG_2",
      "outputs": [
        {
          "internalType": "address",
          "name": "",
          "type": "address"
        }
      ],
      "stateMutability": "view",
      "type": "function"
    },
    {
      "inputs": [],
      "name": "TIMELOCK",
      "outputs": [
        {
          "internalType": "contract ITimelock",
          "name": "",
          "type": "address"
        }
      ],
      "stateMutability": "view",
      "type": "function"
    },
    {
      "inputs": [],
      "name": "TREASURY",
      "outputs": [
        {
          "internalType": "contract IDSAV2",
          "name": "",
          "type": "address"
        }
      ],
      "stateMutability": "view",
      "type": "function"
    },
    {
      "inputs": [],
      "name": "VAULT_FACTORY",
      "outputs": [
        {
          "internalType": "contract IFluidVaultFactory",
          "name": "",
          "type": "address"
        }
      ],
      "stateMutability": "view",
      "type": "function"
    },
    {
      "inputs": [],
      "name": "XAUT_USD_PRICE",
      "outputs": [
        {
          "internalType": "uint256",
          "name": "",
          "type": "uint256"
        }
      ],
      "stateMutability": "view",
      "type": "function"
    },
    {
      "inputs": [
        {
          "internalType": "uint256",
          "name": "action_",
          "type": "uint256"
        }
      ],
      "name": "actionStatus",
      "outputs": [
        {
          "internalType": "bool",
          "name": "",
          "type": "bool"
        }
      ],
      "stateMutability": "view",
      "type": "function"
    },
    {
      "inputs": [],
      "name": "csUSDL_USD_PRICE",
      "outputs": [
        {
          "internalType": "uint256",
          "name": "",
          "type": "uint256"
        }
      ],
      "stateMutability": "view",
      "type": "function"
    },
    {
      "inputs": [],
      "name": "dummyImplementationAddress",
      "outputs": [
        {
          "internalType": "address",
          "name": "",
          "type": "address"
        }
      ],
      "stateMutability": "view",
      "type": "function"
    },
    {
      "inputs": [],
      "name": "dummyImplementationAddressLocked",
      "outputs": [
        {
          "internalType": "bool",
          "name": "",
          "type": "bool"
        }
      ],
      "stateMutability": "view",
      "type": "function"
    },
    {
      "inputs": [],
      "name": "execute",
      "outputs": [],
      "stateMutability": "nonpayable",
      "type": "function"
    },
    {
      "inputs": [],
      "name": "ezETH_USD_PRICE",
      "outputs": [
        {
          "internalType": "uint256",
          "name": "",
          "type": "uint256"
        }
      ],
      "stateMutability": "view",
      "type": "function"
    },
    {
      "inputs": [
        {
          "internalType": "uint256",
          "name": "dexId_",
          "type": "uint256"
        }
      ],
      "name": "getDexAddress",
      "outputs": [
        {
          "internalType": "address",
          "name": "",
          "type": "address"
        }
      ],
      "stateMutability": "view",
      "type": "function"
    },
    {
      "inputs": [
        {
          "internalType": "address",
          "name": "token",
          "type": "address"
        }
      ],
      "name": "getFTokenAddress",
      "outputs": [
        {
          "internalType": "address",
          "name": "",
          "type": "address"
        }
      ],
      "stateMutability": "view",
      "type": "function"
    },
    {
      "inputs": [],
      "name": "getProposalCreationTime",
      "outputs": [
        {
          "internalType": "uint40",
          "name": "",
          "type": "uint40"
        }
      ],
      "stateMutability": "view",
      "type": "function"
    },
    {
      "inputs": [
        {
          "internalType": "address",
          "name": "token",
          "type": "address"
        },
        {
          "internalType": "uint256",
          "name": "amount",
          "type": "uint256"
        },
        {
          "internalType": "uint256",
          "name": "amountInUSD",
          "type": "uint256"
        },
        {
          "internalType": "bool",
          "name": "isSupply",
          "type": "bool"
        }
      ],
      "name": "getRawAmount",
      "outputs": [
        {
          "internalType": "uint256",
          "name": "",
          "type": "uint256"
        }
      ],
      "stateMutability": "view",
      "type": "function"
    },
    {
      "inputs": [
        {
          "internalType": "uint256",
          "name": "dexId_",
          "type": "uint256"
        }
      ],
      "name": "getSmartLendingAddress",
      "outputs": [
        {
          "internalType": "address",
          "name": "",
          "type": "address"
        }
      ],
      "stateMutability": "view",
      "type": "function"
    },
    {
      "inputs": [
        {
          "internalType": "uint256",
          "name": "vaultId_",
          "type": "uint256"
        }
      ],
      "name": "getVaultAddress",
      "outputs": [
        {
          "internalType": "address",
          "name": "",
          "type": "address"
        }
      ],
      "stateMutability": "view",
      "type": "function"
    },
    {
      "inputs": [],
      "name": "isProposalExecutable",
      "outputs": [
        {
          "internalType": "bool",
          "name": "",
          "type": "bool"
        }
      ],
      "stateMutability": "view",
      "type": "function"
    },
    {
      "inputs": [],
      "name": "lockDummyImplementationAddress",
      "outputs": [],
      "stateMutability": "nonpayable",
      "type": "function"
    },
    {
      "inputs": [],
      "name": "lockOnBehalfOfAuth",
      "outputs": [],
      "stateMutability": "nonpayable",
      "type": "function"
    },
    {
      "inputs": [],
      "name": "lockPausableDexAuth",
      "outputs": [],
      "stateMutability": "nonpayable",
      "type": "function"
    },
    {
      "inputs": [],
      "name": "lockPauseableAuth",
      "outputs": [],
      "stateMutability": "nonpayable",
      "type": "function"
    },
    {
      "inputs": [],
      "name": "lockUserModuleAddress",
      "outputs": [],
      "stateMutability": "nonpayable",
      "type": "function"
    },
    {
      "inputs": [],
      "name": "lockVaultFactoryOwner",
      "outputs": [],
      "stateMutability": "nonpayable",
      "type": "function"
    },
    {
      "inputs": [],
      "name": "mETH_USD_PRICE",
      "outputs": [
        {
          "internalType": "uint256",
          "name": "",
          "type": "uint256"
        }
      ],
      "stateMutability": "view",
      "type": "function"
    },
    {
      "inputs": [],
      "name": "onBehalfOfAuth",
      "outputs": [
        {
          "internalType": "address",
          "name": "",
          "type": "address"
        }
      ],
      "stateMutability": "view",
      "type": "function"
    },
    {
      "inputs": [],
      "name": "onBehalfOfAuthLocked",
      "outputs": [
        {
          "internalType": "bool",
          "name": "",
          "type": "bool"
        }
      ],
      "stateMutability": "view",
      "type": "function"
    },
    {
      "inputs": [],
      "name": "pausableDexAuth",
      "outputs": [
        {
          "internalType": "address",
          "name": "",
          "type": "address"
        }
      ],
      "stateMutability": "view",
      "type": "function"
    },
    {
      "inputs": [],
      "name": "pausableDexAuthLocked",
      "outputs": [
        {
          "internalType": "bool",
          "name": "",
          "type": "bool"
        }
      ],
      "stateMutability": "view",
      "type": "function"
    },
    {
      "inputs": [],
      "name": "pauseableAuth",
      "outputs": [
        {
          "internalType": "address",
          "name": "",
          "type": "address"
        }
      ],
      "stateMutability": "view",
      "type": "function"
    },
    {
      "inputs": [],
      "name": "pauseableAuthLocked",
      "outputs": [
        {
          "internalType": "bool",
          "name": "",
          "type": "bool"
        }
      ],
      "stateMutability": "view",
      "type": "function"
    },
    {
      "inputs": [
        {
          "internalType": "string",
          "name": "description",
          "type": "string"
        }
      ],
      "name": "propose",
      "outputs": [],
      "stateMutability": "nonpayable",
      "type": "function"
    },
    {
      "inputs": [],
      "name": "rsETH_USD_PRICE",
      "outputs": [
        {
          "internalType": "uint256",
          "name": "",
          "type": "uint256"
        }
      ],
      "stateMutability": "view",
      "type": "function"
    },
    {
      "inputs": [],
      "name": "sUSDe_USD_PRICE",
      "outputs": [
        {
          "internalType": "uint256",
          "name": "",
          "type": "uint256"
        }
      ],
      "stateMutability": "view",
      "type": "function"
    },
    {
      "inputs": [],
      "name": "sUSDs_USD_PRICE",
      "outputs": [
        {
          "internalType": "uint256",
          "name": "",
          "type": "uint256"
        }
      ],
      "stateMutability": "view",
      "type": "function"
    },
    {
      "inputs": [
        {
          "internalType": "uint256[]",
          "name": "actionsToSkip_",
          "type": "uint256[]"
        }
      ],
      "name": "setActionsToSkip",
      "outputs": [],
      "stateMutability": "nonpayable",
      "type": "function"
    },
    {
      "inputs": [
        {
          "internalType": "address",
          "name": "dummyImplementationAddress_",
          "type": "address"
        }
      ],
      "name": "setDummyImplementationAddress",
      "outputs": [],
      "stateMutability": "nonpayable",
      "type": "function"
    },
    {
      "inputs": [
        {
          "internalType": "address",
          "name": "onBehalfOfAuth_",
          "type": "address"
        }
      ],
      "name": "setOnBehalfOfAuth",
      "outputs": [],
      "stateMutability": "nonpayable",
      "type": "function"
    },
    {
      "inputs": [
        {
          "internalType": "address",
          "name": "pausableDexAuth_",
          "type": "address"
        }
      ],
      "name": "setPausableDexAuth",
      "outputs": [],
      "stateMutability": "nonpayable",
      "type": "function"
    },
    {
      "inputs": [
        {
          "internalType": "address",
          "name": "pauseableAuth_",
          "type": "address"
        }
      ],
      "name": "setPauseableAuth",
      "outputs": [],
      "stateMutability": "nonpayable",
      "type": "function"
    },
    {
      "inputs": [
        {
          "internalType": "uint40",
          "name": "proposalCreationTime_",
          "type": "uint40"
        }
      ],
      "name": "setProposalCreationTime",
      "outputs": [],
      "stateMutability": "nonpayable",
      "type": "function"
    },
    {
      "inputs": [
        {
          "internalType": "address",
          "name": "userModuleAddress_",
          "type": "address"
        }
      ],
      "name": "setUserModuleAddress",
      "outputs": [],
      "stateMutability": "nonpayable",
      "type": "function"
    },
    {
      "inputs": [
        {
          "internalType": "address",
          "name": "vaultFactoryOwner_",
          "type": "address"
        }
      ],
      "name": "setVaultFactoryOwner",
      "outputs": [],
      "stateMutability": "nonpayable",
      "type": "function"
    },
    {
      "inputs": [],
      "name": "syrupUSDC_USD_PRICE",
      "outputs": [
        {
          "internalType": "uint256",
          "name": "",
          "type": "uint256"
        }
      ],
      "stateMutability": "view",
      "type": "function"
    },
    {
      "inputs": [],
      "name": "syrupUSDT_USD_PRICE",
      "outputs": [
        {
          "internalType": "uint256",
          "name": "",
          "type": "uint256"
        }
      ],
      "stateMutability": "view",
      "type": "function"
    },
    {
      "inputs": [
        {
          "internalType": "bool",
          "name": "isExecutable_",
          "type": "bool"
        }
      ],
      "name": "toggleExecutable",
      "outputs": [],
      "stateMutability": "nonpayable",
      "type": "function"
    },
    {
      "inputs": [],
      "name": "userModuleAddress",
      "outputs": [
        {
          "internalType": "address",
          "name": "",
          "type": "address"
        }
      ],
      "stateMutability": "view",
      "type": "function"
    },
    {
      "inputs": [],
      "name": "userModuleAddressLocked",
      "outputs": [
        {
          "internalType": "bool",
          "name": "",
          "type": "bool"
        }
      ],
      "stateMutability": "view",
      "type": "function"
    },
    {
      "inputs": [],
      "name": "vaultFactoryOwner",
      "outputs": [
        {
          "internalType": "address",
          "name": "",
          "type": "address"
        }
      ],
      "stateMutability": "view",
      "type": "function"
    },
    {
      "inputs": [],
      "name": "vaultFactoryOwnerLocked",
      "outputs": [
        {
          "internalType": "bool",
          "name": "",
          "type": "bool"
        }
      ],
      "stateMutability": "view",
      "type": "function"
    },
    {
      "inputs": [],
      "name": "verifyProposal",
      "outputs": [],
      "stateMutability": "view",
      "type": "function"
    },
    {
      "inputs": [],
      "name": "weETH_USD_PRICE",
      "outputs": [
        {
          "internalType": "uint256",
          "name": "",
          "type": "uint256"
        }
      ],
      "stateMutability": "view",
      "type": "function"
    },
    {
      "inputs": [],
      "name": "weETHs_USD_PRICE",
      "outputs": [
        {
          "internalType": "uint256",
          "name": "",
          "type": "uint256"
        }
      ],
      "stateMutability": "view",
      "type": "function"
    },
    {
      "inputs": [],
      "name": "wstETH_USD_PRICE",
      "outputs": [
        {
          "internalType": "uint256",
          "name": "",
          "type": "uint256"
        }
      ],
      "stateMutability": "view",
      "type": "function"
    },
    {
      "inputs": [],
      "name": "wstUSR_USD_PRICE",
      "outputs": [
        {
          "internalType": "uint256",
          "name": "",
          "type": "uint256"
        }
      ],
      "stateMutability": "view",
      "type": "function"
    }
  ],
  "bytecode": "0x60a0604052600280546001600160a01b0319908116909155600380548216905560048054821690556005805482169055600680548216905560078054909116905534801561004b575f80fd5b503060805260805161449c6100fb5f395f818161098f01528181611b7201528181611cec0152818161207d01528181612160015281816126b101528181612729015281816128950152818161290d01528181612c5c01528181612d3601528181612dae01528181612ed201528181612f4a015281816131150152818161318d015281816132bc01528181613415015281816134e40152818161355c0152818161364401526136bc015261449c5ff3fe608060405234801561000f575f80fd5b506004361061049a575f3560e01c8063798d5ba311610263578063a90558361161014b578063c60dc265116100ca578063f53eddcc1161008f578063f53eddcc146109df578063f6370aa9146109fa578063f858b9b814610a04578063f88ed60c14610a18578063fb0ae91814610a33578063fcee0c9814610a46575f80fd5b8063c60dc26514610977578063cc025f7c1461098a578063d5818ec7146109b1578063e6bd26a2146109b9578063ed3660c5146109cc575f80fd5b8063b788f3a111610110578063b788f3a114610922578063bc3301a814610936578063bd8e486514610940578063bffa7f0f14610954578063c38b0f661461096f575f80fd5b8063a9055836146108ff578063aa98df3914610907578063ae68032b1461091a578063b6966495146106df578063b753428b146104c3575f80fd5b806396db7d5c116101e25780639ef94737116101a75780639ef9473714610887578063a45e1e7f1461089f578063a4d7866e146108a7578063a5caf0f6146108af578063a64f5693146108d1578063a7a60914146108ec575f80fd5b806396db7d5c146108325780639781a8ca1461083c57806397b87b4a146108465780639835a0bd146108615780639d3d2a7814610874575f80fd5b806383f5d77a1161022857806383f5d77a146104f9578063841d2699146107d6578063847b575b146107e957806395861bd7146107fc57806396bac93114610817575f80fd5b8063798d5ba31461076757806379b79a801461077a5780637aadef8b1461078d5780637e2f35fa146107a857806381c8c425146107c3575f80fd5b80633484818b1161038657806358f2552e116103055780636521e19f116102ca5780636521e19f1461071c57806366760d7d146105145780636dc0ae22146107265780637000778e14610741578063727a7c841461074b578063752f1e3114610753575f80fd5b806358f2552e146106df5780635c517457146106fa5780636146195414610702578063623007321461070a57806364e9d56714610714575f80fd5b80634ca254251161034b5780634ca254251461066f578063533e0b3f146106825780635689daec14610695578063588c77e6146106b057806358bf3112146106cb575f80fd5b80633484818b1461061c5780633b80188f14610626578063444386141461063957806348bbb5571461064c57806349af5a9f14610667575f80fd5b806312e366aa1161041d57806325ad7f4d116103e257806325ad7f4d146105b05780632861c7d1146105cb57806328787d00146104c35780632b54c373146105e65780632d2c5565146105ee5780633427355814610609575f80fd5b806312e366aa146105655780631392d4ee1461057857806317c1ac9e1461058b578063194c0e181461059e5780631bbc51a7146105a8575f80fd5b80630bc9136e116104635780630bc9136e146104f95780630e6a204c146105015780630e8043aa14610516578063103f29071461052a57806311ae7a141461055d575f80fd5b8062623d7d1461049e5780630251eb11146104b9578063040e7a80146104c35780630731dc99146104cb5780630b396e66146104ef575b5f80fd5b6104a660db81565b6040519081526020015b60405180910390f35b6104a6620474a081565b6104a6606481565b6007546104df90600160b81b900460ff1681565b60405190151581526020016104b0565b6104a662048c1081565b6104a6607e81565b61051461050f366004613bd6565b610a61565b005b6007546104df90600160a01b900460ff1681565b61054573324c5dc1fc42c7a4d43d92df1eba58a54d13bf2d81565b6040516001600160a01b0390911681526020016104b0565b6104a6607881565b610545610573366004613bf8565b610ab7565b5f5465010000000000900460ff166104df565b600554610545906001600160a01b031681565b6104a66205747c81565b6104a6606e81565b610545739efde135ca4832abf0408c44c6f5f370eb0f35e881565b6105457352aa899454998be5b000ad077a46bbe360f4e49781565b6104a6606781565b6105457328849d2b63fa8d361e5fc15cb8abb13019884d0981565b600754610545906001600160a01b031681565b6104a662062e0881565b610514610634366004613c23565b610b32565b610514610647366004613c23565b610baa565b61054573e7eb63a8b6392481a9fdebb108cfd580dc8664d381565b610514610c22565b61051461067d366004613c23565b610c63565b600354610545906001600160a01b031681565b610545732e4015880367b7c2613df77f816739d97a8c46ad81565b610545735c43aac965ff230ac1cf63e924d0153291d78bad81565b6007546104df90600160c81b900460ff1681565b61054573264786ef916af64a1db19f513f24a3681734ce9281565b610514610cdb565b610514610d1c565b6104a662030d4081565b6104a6606c81565b6104a6620493e081565b610545730204cd037b2ec03605cfdfe482d8e257c765fa1b81565b6104a662062a2081565b6104a6606a81565b6007546104df90600160b01b900460ff1681565b610514610775366004613c3e565b610d7e565b610514610788366004613c23565b610e0c565b610545732386dc45added673317ef068992f19421b481f4c81565b61054573059a94a72951c0ae1cc1ce3bf0db52421bbe821081565b6105146107d1366004613c23565b610e84565b6105456107e4366004613bf8565b610efc565b600454610545906001600160a01b031681565b61054573a0d3707c569ff8c87fa923d3823ec5d81c98be7881565b6105457354b91a0d94cb471f37f949c60f7fa7935b551d0381565b6104a66204a38081565b6104a66269492081565b6105457391716c4eda1fb55e84bf8b4c7085f84285c1908581565b600654610545906001600160a01b031681565b6104a6610882366004613cad565b610f36565b5f5460405164ffffffffff90911681526020016104b0565b6105146117b5565b6105146117f6565b6104df6108bd366004613bf8565b5f9081526001602052604090205460ff1690565b6105457397b0b3a8bdefe8cb9563a3c610019ad10db8ad1181565b6105146108fa366004613c23565b611837565b6104a6607281565b610514610915366004613d39565b6118af565b6104a6607081565b6105455f8051602061444783398151915281565b6104a66204ab5081565b6007546104df90600160c01b900460ff1681565b61054573a45f7bd6a5ff45d31aace6bcd3d426d9328cea0181565b610514611d55565b610545610985366004613c23565b611d96565b6105457f000000000000000000000000000000000000000000000000000000000000000081565b610514611e84565b6105456109c7366004613bf8565b611ec5565b600254610545906001600160a01b031681565b61054573e57227c7d5900165344b190fc7aa580bceb53b9b81565b6104a66204a76881565b6007546104df90600160a81b900460ff1681565b610545733daff61fe5cfb1f1b4ea7fba8173a58532ef184181565b610514610a41366004613dc8565b611eff565b610545731e2e1aed876f67fe4fd54090fd7b8f57ce23421981565b335f8051602061444783398151915214610a965760405162461bcd60e51b8152600401610a8d90613dec565b60405180910390fd5b5f8054911515650100000000000265ff000000000019909216919091179055565b604051630971b35560e11b8152600481018290525f907391716c4eda1fb55e84bf8b4c7085f84285c19085906312e366aa906024015b602060405180830381865afa158015610b08573d5f803e3d5ffd5b505050506040513d601f19601f82011682018060405250810190610b2c9190613e17565b92915050565b335f8051602061444783398151915214610b5e5760405162461bcd60e51b8152600401610a8d90613dec565b600754600160a81b900460ff1615610b885760405162461bcd60e51b8152600401610a8d90613e32565b600380546001600160a01b0319166001600160a01b0392909216919091179055565b335f8051602061444783398151915214610bd65760405162461bcd60e51b8152600401610a8d90613dec565b600754600160b81b900460ff1615610c005760405162461bcd60e51b8152600401610a8d90613e32565b600580546001600160a01b0319166001600160a01b0392909216919091179055565b335f8051602061444783398151915214610c4e5760405162461bcd60e51b8152600401610a8d90613dec565b6007805460ff60a01b1916600160a01b179055565b335f8051602061444783398151915214610c8f5760405162461bcd60e51b8152600401610a8d90613dec565b600754600160c01b900460ff1615610cb95760405162461bcd60e51b8152600401610a8d90613e32565b600680546001600160a01b0319166001600160a01b0392909216919091179055565b335f8051602061444783398151915214610d075760405162461bcd60e51b8152600401610a8d90613dec565b6007805460ff60a81b1916600160a81b179055565b610d24612025565b610d2c612147565b610d34612698565b610d3c61287c565b610d44612c44565b610d4c612d1d565b610d54612eb9565b610d5c6130fc565b610d646132a3565b610d6c6133fc565b610d746134cb565b610d7c61362b565b565b335f8051602061444783398151915214610daa5760405162461bcd60e51b8152600401610a8d90613dec565b5f5b81811015610e07576001805f858585818110610dca57610dca613e52565b9050602002013581526020019081526020015f205f6101000a81548160ff0219169083151502179055508080610dff90613e7a565b915050610dac565b505050565b335f8051602061444783398151915214610e385760405162461bcd60e51b8152600401610a8d90613dec565b600754600160c81b900460ff1615610e625760405162461bcd60e51b8152600401610a8d90613e32565b600780546001600160a01b0319166001600160a01b0392909216919091179055565b335f8051602061444783398151915214610eb05760405162461bcd60e51b8152600401610a8d90613dec565b600754600160b01b900460ff1615610eda5760405162461bcd60e51b8152600401610a8d90613e32565b600480546001600160a01b0319166001600160a01b0392909216919091179055565b60405163841d269960e01b8152600481018290525f9073e57227c7d5900165344b190fc7aa580bceb53b9b9063841d269990602401610aed565b5f8084118015610f4557505f83115b15610f925760405162461bcd60e51b815260206004820181905260248201527f626f74682075736420616e6420616d6f756e7420617265206e6f74207a65726f6044820152606401610a8d565b604080516001600160a01b03871660208083019190915260058284015282518083038401815260608301938490528051910120632d71cdb960e21b90925260648101919091525f907352aa899454998be5b000ad077a46bbe360f4e4979063b5c736e490608401602060405180830381865afa158015611014573d5f803e3d5ffd5b505050506040513d601f19601f820116820180604052508101906110389190613e92565b90505f80611045836137d9565b90925090505f601273eeeeeeeeeeeeeeeeeeeeeeeeeeeeeeeeeeeeeeed196001600160a01b038b1601611080575062030d4090506012611736565b737f39c581f595b53c5cb19bd0b3f8da6c935e2c9f196001600160a01b038b16016110b357506205747c90506012611736565b73cd5fe23c85820f7b72d0926fc9b05b43e359b7ed196001600160a01b038b16016110e657506204a76890506012611736565b73a1290d69c65a6fe4df752f95823fae25cb99e5a6196001600160a01b038b1601611119575062048c1090506012611736565b73917cee801a67f933f2e6b33fc0cd1ed2d5909d87196001600160a01b038b160161114c5750620474a090506012611736565b73d5f7838f5c461feff7fe49ea5ebaf7728bb0adf9196001600160a01b038b160161117f57506204a38090506012611736565b73bf5495efe5db9ce00f80364c8b423567e58d210f196001600160a01b038b16016111b25750620493e090506012611736565b73f1c9acdc66974dfb6decb12aa385b9cd01190e37196001600160a01b038b16016111e557506204ab5090506012611736565b6001600160a01b038a1673cbb7c0000ab88b473b1f5afd9ef808440eed33bf148061122c57506001600160a01b038a16732260fac5e5542a773aa44fbcfedf7c193bc2c599145b8061125357506001600160a01b038a1673657e8c867d8b37dcc18fa4caead9c45eb088c642145b8061127a57506001600160a01b038a16738236a87084f8b84306f72007f36f2618a5634494145b1561128d57506269492090506008611736565b7318084fba666a33d37592fa2633fd49a74dd93a87196001600160a01b038b16016112c057506269492090506012611736565b6001600160a01b038a1673a0b86991c6218b36c1d19d4a2e9eb0ce3606eb48148061130757506001600160a01b038a1673dac17f958d2ee523a2206206994597c13d831ec7145b156113185750606490506006611736565b739d39a5de30e57443bff2a8307a4256c8797a3496196001600160a01b038b16016113495750607890506012611736565b73a3931d71877c0e7a3148cb7eb4463524fec27fbc196001600160a01b038b160161137a5750606c90506012611736565b73356b8d89c1e1239cbbb9de4815c39a1474d5ba7c196001600160a01b038b16016113ab5750606e90506006611736565b7380ac24aa929eaf5013f6436cda2a7ba190f5cc0a196001600160a01b038b16016113dc5750607290506006611736565b735086bf358635b81d8c47c66d1c8b9e567db70c71196001600160a01b038b160161140d5750606a90506012611736565b73beefc011e94f43b8b7b455ebab290c7ab4e216f0196001600160a01b038b160161143e5750606790506012611736565b73c58d044404d8b14e953c115e67823784dea53d8e196001600160a01b038b160161146f5750606490506012611736565b733d7d6fdf07ee548b939a80edbc9b2256d0cdc002196001600160a01b038b16016114a05750606490506012611736565b6001600160a01b038a167340d16fc0246ad3160ccc09b8d0d3a2cd28ae6c2f14806114e757506001600160a01b038a16734c9edd5852cd905f086c759e8383e09bff1e68b3145b8061150e57506001600160a01b038a167315700b564ca08d9439c58ca5053166e8317aa138145b8061153557506001600160a01b038a167366a1e37c9b0eaddca17d3662d6c05f4decf3e110145b8061155c57506001600160a01b038a167373a15fed60bf67631dc6cd7bc5b6e8da8190acf5145b8061158357506001600160a01b038a1673085780639cc2cacd35e474e71f4d000e2405d8f6145b806115aa57506001600160a01b038a1673b01dd87b29d187f3e3a4bf6cdaebfb97f3d9ab98145b806115d157506001600160a01b038a167348f9e38f3070ad8945dfeae3fa70987722e3d89c145b806115f857506001600160a01b038a1673c139190f447e929f090edeb554d95abb8b18ac1c145b156116095750606490506012611736565b736f40d4a6237c257fff2db00fa0510deeecd303ea196001600160a01b038b160161163a575060db90506012611736565b731202f5c7b4b9e47a1a484e8b270be34dbbc75054196001600160a01b038b160161166b5750607090506012611736565b734956b52ae2ff65d74ca2d61207523288e4528f95196001600160a01b038b160161169c5750607e90506012611736565b7368749665ff8d2d112fa859aa293f07a622782f37196001600160a01b038b16016116cf575062062a2090506006611736565b7345804880de22913dafe09f4980848ece6ecbaf77196001600160a01b038b1601611702575062062e0890506012611736565b60405162461bcd60e51b81526020600482015260096024820152681b9bdd0b599bdd5b9960ba1b6044820152606401610a8d565b5f876117425783611744565b845b90508915611773578061175c8b64e8d4a51000613ea9565b6117669190613ed4565b96505050505050506117ad565b606461177f8285613ea9565b6117899190613ed4565b61179483600a613fd3565b6117a38b64e8d4a51000613ea9565b61175c9190613ea9565b949350505050565b335f80516020614447833981519152146117e15760405162461bcd60e51b8152600401610a8d90613dec565b6007805460ff60b01b1916600160b01b179055565b335f80516020614447833981519152146118225760405162461bcd60e51b8152600401610a8d90613dec565b6007805460ff60c01b1916600160c01b179055565b335f80516020614447833981519152146118635760405162461bcd60e51b8152600401610a8d90613dec565b600754600160a01b900460ff161561188d5760405162461bcd60e51b8152600401610a8d90613e32565b600280546001600160a01b0319166001600160a01b0392909216919091179055565b3373a45f7bd6a5ff45d31aace6bcd3d426d9328cea0114806118dd5750335f80516020614447833981519152145b806118fb57503073059a94a72951c0ae1cc1ce3bf0db52421bbe8210145b80611919575030739efde135ca4832abf0408c44c6f5f370eb0f35e8145b80611937575030735c43aac965ff230ac1cf63e924d0153291d78bad145b80611955575030733daff61fe5cfb1f1b4ea7fba8173a58532ef1841145b8061197357503073e7eb63a8b6392481a9fdebb108cfd580dc8664d3145b6119b85760405162461bcd60e51b81526020600482015260166024820152751b5cd9cb9cd95b99195c8b5b9bdd0b585b1b1bddd95960521b6044820152606401610a8d565b6040805160018082528183019092525f9082602080830190803683370190505090505f8267ffffffffffffffff8111156119f4576119f4613cf4565b604051908082528060200260200182016040528015611a1d578160200160208202803683370190505b5090505f8367ffffffffffffffff811115611a3a57611a3a613cf4565b604051908082528060200260200182016040528015611a6d57816020015b6060815260200190600190039081611a585790505b5090505f8467ffffffffffffffff811115611a8a57611a8a613cf4565b604051908082528060200260200182016040528015611abd57816020015b6060815260200190600190039081611aa85790505b509050732386dc45added673317ef068992f19421b481f4c845f81518110611ae757611ae7613e52565b60200260200101906001600160a01b031690816001600160a01b0316815250505f835f81518110611b1a57611b1a613e52565b60200260200101818152505060405180606001604052806024815260200161442360249139825f81518110611b5157611b51613e52565b602090810291909101810191909152604080515f81529182018152611b99917f0000000000000000000000000000000000000000000000000000000000000000918101614021565b604051602081830303815290604052815f81518110611bba57611bba613e52565b6020908102919091010152604051636d4ab48d60e11b81525f90730204cd037b2ec03605cfdfe482d8e257c765fa1b9063da95691a90611c069088908890889088908e906004016140ed565b6020604051808303815f875af1158015611c22573d5f803e3d5ffd5b505050506040513d601f19601f82011682018060405250810190611c469190613e92565b9050607e8114611c8f5760405162461bcd60e51b815260206004820152601460248201527350524f504f53414c5f49535f4e4f545f53414d4560601b6044820152606401610a8d565b3373a45f7bd6a5ff45d31aace6bcd3d426d9328cea011480611cbd5750335f80516020614447833981519152145b15611cd057611ccb42611eff565b611d4c565b604051631f615d2360e31b815264ffffffffff421660048201527f00000000000000000000000000000000000000000000000000000000000000006001600160a01b03169063fb0ae918906024015f604051808303815f87803b158015611d35575f80fd5b505af1158015611d47573d5f803e3d5ffd5b505050505b50505050505050565b335f8051602061444783398151915214611d815760405162461bcd60e51b8152600401610a8d90613dec565b6007805460ff60b81b1916600160b81b179055565b5f73c02aaa39b223fe8d0a0e5c4f27ead9083c756cc1196001600160a01b03831601611e25576040805163bb4a64d360e01b81526001600160a01b03841660048201526024810191909152601060448201526f4e6174697665556e6465726c79696e6760801b60648201527354b91a0d94cb471f37f949c60f7fa7935b551d039063bb4a64d390608401610aed565b6040805163bb4a64d360e01b81526001600160a01b038416600482015260248101919091526006604482015265332a37b5b2b760d11b60648201527354b91a0d94cb471f37f949c60f7fa7935b551d039063bb4a64d390608401610aed565b335f8051602061444783398151915214611eb05760405162461bcd60e51b8152600401610a8d90613dec565b6007805460ff60c81b1916600160c81b179055565b60405163735e935160e11b8152600481018290525f9073324c5dc1fc42c7a4d43d92df1eba58a54d13bf2d9063e6bd26a290602401610aed565b3373a45f7bd6a5ff45d31aace6bcd3d426d9328cea011480611f2d5750335f80516020614447833981519152145b80611f4b57503373059a94a72951c0ae1cc1ce3bf0db52421bbe8210145b80611f69575033739efde135ca4832abf0408c44c6f5f370eb0f35e8145b80611f87575033735c43aac965ff230ac1cf63e924d0153291d78bad145b80611fa5575033733daff61fe5cfb1f1b4ea7fba8173a58532ef1841145b80611fc357503373e7eb63a8b6392481a9fdebb108cfd580dc8664d3145b6120085760405162461bcd60e51b81526020600482015260166024820152751b5cd9cb9cd95b99195c8b5b9bdd0b585b1b1bddd95960521b6044820152606401610a8d565b5f805464ffffffffff191664ffffffffff92909216919091179055565b30732386dc45added673317ef068992f19421b481f4c1461207b5760405162461bcd60e51b815260206004820152601060248201526f3737ba16bb30b634b216b1b0b63632b960811b6044820152606401610a8d565b7f00000000000000000000000000000000000000000000000000000000000000006001600160a01b0316631392d4ee6040518163ffffffff1660e01b8152600401602060405180830381865afa1580156120d7573d5f803e3d5ffd5b505050506040513d601f19601f820116820180604052508101906120fb919061418b565b610d7c5760405162461bcd60e51b815260206004820152601760248201527f70726f706f73616c2d6e6f742d65786563757461626c650000000000000000006044820152606401610a8d565b6040516352e5787b60e11b8152600160048201819052907f00000000000000000000000000000000000000000000000000000000000000006001600160a01b03169063a5caf0f690602401602060405180830381865afa1580156121ad573d5f803e3d5ffd5b505050506040513d601f19601f820116820180604052508101906121d1919061418b565b6126955773324c5dc1fc42c7a4d43d92df1eba58a54d13bf2d637faa1d216121f9606e611ec5565b5f8051602061444783398151915260016040518463ffffffff1660e01b8152600401612227939291906141a6565b5f604051808303815f87803b15801561223e575f80fd5b505af1158015612250573d5f803e3d5ffd5b5050505073324c5dc1fc42c7a4d43d92df1eba58a54d13bf2d6001600160a01b0316637faa1d21612281606f611ec5565b5f8051602061444783398151915260016040518463ffffffff1660e01b81526004016122af939291906141a6565b5f604051808303815f87803b1580156122c6575f80fd5b505af11580156122d8573d5f803e3d5ffd5b5050505073324c5dc1fc42c7a4d43d92df1eba58a54d13bf2d6001600160a01b0316637faa1d216123096070611ec5565b5f8051602061444783398151915260016040518463ffffffff1660e01b8152600401612337939291906141a6565b5f604051808303815f87803b15801561234e575f80fd5b505af1158015612360573d5f803e3d5ffd5b5050505073324c5dc1fc42c7a4d43d92df1eba58a54d13bf2d6001600160a01b0316637faa1d216123916085611ec5565b5f8051602061444783398151915260016040518463ffffffff1660e01b81526004016123bf939291906141a6565b5f604051808303815f87803b1580156123d6575f80fd5b505af11580156123e8573d5f803e3d5ffd5b5050505073324c5dc1fc42c7a4d43d92df1eba58a54d13bf2d6001600160a01b0316637faa1d216124196086611ec5565b5f8051602061444783398151915260016040518463ffffffff1660e01b8152600401612447939291906141a6565b5f604051808303815f87803b15801561245e575f80fd5b505af1158015612470573d5f803e3d5ffd5b5050505073324c5dc1fc42c7a4d43d92df1eba58a54d13bf2d6001600160a01b0316637faa1d216124a16087611ec5565b5f8051602061444783398151915260016040518463ffffffff1660e01b81526004016124cf939291906141a6565b5f604051808303815f87803b1580156124e6575f80fd5b505af11580156124f8573d5f803e3d5ffd5b5050505073324c5dc1fc42c7a4d43d92df1eba58a54d13bf2d6001600160a01b0316637faa1d21612529608f611ec5565b5f8051602061444783398151915260016040518463ffffffff1660e01b8152600401612557939291906141a6565b5f604051808303815f87803b15801561256e575f80fd5b505af1158015612580573d5f803e3d5ffd5b5050505073324c5dc1fc42c7a4d43d92df1eba58a54d13bf2d6001600160a01b0316637faa1d216125b16090611ec5565b5f8051602061444783398151915260016040518463ffffffff1660e01b81526004016125df939291906141a6565b5f604051808303815f87803b1580156125f6575f80fd5b505af1158015612608573d5f803e3d5ffd5b505050507391716c4eda1fb55e84bf8b4c7085f84285c190856001600160a01b03166378c7e138612639601b610ab7565b5f8051602061444783398151915260016040518463ffffffff1660e01b8152600401612667939291906141a6565b5f604051808303815f87803b15801561267e575f80fd5b505af1158015612690573d5f803e3d5ffd5b505050505b50565b6040516352e5787b60e11b8152600260048201819052907f00000000000000000000000000000000000000000000000000000000000000006001600160a01b03169063a5caf0f690602401602060405180830381865afa1580156126fe573d5f803e3d5ffd5b505050506040513d601f19601f82011682018060405250810190612722919061418b565b612695575f7f00000000000000000000000000000000000000000000000000000000000000006001600160a01b031663ed3660c56040518163ffffffff1660e01b8152600401602060405180830381865afa158015612783573d5f803e3d5ffd5b505050506040513d601f19601f820116820180604052508101906127a79190613e17565b90506001600160a01b0381166127f55760405162461bcd60e51b81526020600482015260136024820152721d5cd95c8b5b5bd91d5b194b5b9bdd0b5cd95d606a1b6044820152606401610a8d565b604051633ff8b31d60e01b8152732e4015880367b7c2613df77f816739d97a8c46ad60048201526001600160a01b03821660248201527352aa899454998be5b000ad077a46bbe360f4e49790633ff8b31d906044015b5f604051808303815f87803b158015612862575f80fd5b505af1158015612874573d5f803e3d5ffd5b505050505050565b6040516352e5787b60e11b8152600360048201819052907f00000000000000000000000000000000000000000000000000000000000000006001600160a01b03169063a5caf0f690602401602060405180830381865afa1580156128e2573d5f803e3d5ffd5b505050506040513d601f19601f82011682018060405250810190612906919061418b565b612695575f7f00000000000000000000000000000000000000000000000000000000000000006001600160a01b031663ed3660c56040518163ffffffff1660e01b8152600401602060405180830381865afa158015612967573d5f803e3d5ffd5b505050506040513d601f19601f8201168201806040525081019061298b9190613e17565b90506001600160a01b0381166129d95760405162461bcd60e51b81526020600482015260136024820152721d5cd95c8b5b5bd91d5b194b5b9bdd0b5cd95d606a1b6044820152606401610a8d565b6040516311272db960e31b8152732e4015880367b7c2613df77f816739d97a8c46ad60048201525f907352aa899454998be5b000ad077a46bbe360f4e497906389396dc8906024015f60405180830381865afa158015612a3b573d5f803e3d5ffd5b505050506040513d5f823e601f3d908101601f19168201604052612a6291908101906141ca565b80519091505f612a73826001614278565b67ffffffffffffffff811115612a8b57612a8b613cf4565b604051908082528060200260200182016040528015612ab4578160200160208202803683370190505b5090505f5b82811015612b1657838181518110612ad357612ad3613e52565b6020026020010151828281518110612aed57612aed613e52565b6001600160e01b031990921660209283029190910190910152612b0f81613e7a565b9050612ab9565b507fdacb5419b3a364d15c0a7f04c12b64c98b665a88e8f945fd69383fb36d00d2d2818381518110612b4a57612b4a613e52565b6001600160e01b0319929092166020928302919091019091015260405163110bad1960e11b8152732e4015880367b7c2613df77f816739d97a8c46ad60048201527352aa899454998be5b000ad077a46bbe360f4e497906322175a32906024015f604051808303815f87803b158015612bc1575f80fd5b505af1158015612bd3573d5f803e3d5ffd5b50506040516378600da160e11b81527352aa899454998be5b000ad077a46bbe360f4e497925063f0c01b429150612c10908790859060040161428b565b5f604051808303815f87803b158015612c27575f80fd5b505af1158015612c39573d5f803e3d5ffd5b505050505050505050565b6040516352e5787b60e11b81526004808201819052907f00000000000000000000000000000000000000000000000000000000000000006001600160a01b03169063a5caf0f690602401602060405180830381865afa158015612ca9573d5f803e3d5ffd5b505050506040513d601f19601f82011682018060405250810190612ccd919061418b565b612695577352aa899454998be5b000ad077a46bbe360f4e4976001600160a01b031663981c829f6040518163ffffffff1660e01b81526004015f604051808303815f87803b15801561267e575f80fd5b6040516352e5787b60e11b8152600560048201819052907f00000000000000000000000000000000000000000000000000000000000000006001600160a01b03169063a5caf0f690602401602060405180830381865afa158015612d83573d5f803e3d5ffd5b505050506040513d601f19601f82011682018060405250810190612da7919061418b565b612695575f7f00000000000000000000000000000000000000000000000000000000000000006001600160a01b031663533e0b3f6040518163ffffffff1660e01b8152600401602060405180830381865afa158015612e08573d5f803e3d5ffd5b505050506040513d601f19601f82011682018060405250810190612e2c9190613e17565b90506001600160a01b038116612e795760405162461bcd60e51b8152602060048201526012602482015271191d5b5b5e4b5a5b5c1b0b5b9bdd0b5cd95d60721b6044820152606401610a8d565b60405163c39aa07d60e01b81526001600160a01b03821660048201527352aa899454998be5b000ad077a46bbe360f4e4979063c39aa07d9060240161284b565b6040516352e5787b60e11b8152600660048201819052907f00000000000000000000000000000000000000000000000000000000000000006001600160a01b03169063a5caf0f690602401602060405180830381865afa158015612f1f573d5f803e3d5ffd5b505050506040513d601f19601f82011682018060405250810190612f43919061418b565b612695575f7f00000000000000000000000000000000000000000000000000000000000000006001600160a01b031663847b575b6040518163ffffffff1660e01b8152600401602060405180830381865afa158015612fa4573d5f803e3d5ffd5b505050506040513d601f19601f82011682018060405250810190612fc89190613e17565b90506001600160a01b0381166130205760405162461bcd60e51b815260206004820152601960248201527f6f6e2d626568616c662d6f662d617574682d6e6f742d736574000000000000006044820152606401610a8d565b6040805160018082528183019092525f91816020015b604080518082019091525f80825260208201528152602001906001900390816130365790505090506040518060400160405280836001600160a01b0316815260200160011515815250815f8151811061309157613091613e52565b6020908102919091010152604051633f66feff60e01b81527352aa899454998be5b000ad077a46bbe360f4e49790633f66feff906130d39084906004016142ea565b5f604051808303815f87803b1580156130ea575f80fd5b505af1158015611d4c573d5f803e3d5ffd5b6040516352e5787b60e11b8152600760048201819052907f00000000000000000000000000000000000000000000000000000000000000006001600160a01b03169063a5caf0f690602401602060405180830381865afa158015613162573d5f803e3d5ffd5b505050506040513d601f19601f82011682018060405250810190613186919061418b565b612695575f7f00000000000000000000000000000000000000000000000000000000000000006001600160a01b03166317c1ac9e6040518163ffffffff1660e01b8152600401602060405180830381865afa1580156131e7573d5f803e3d5ffd5b505050506040513d601f19601f8201168201806040525081019061320b9190613e17565b90506001600160a01b0381166132635760405162461bcd60e51b815260206004820152601b60248201527f7661756c742d666163746f72792d6f776e65722d6e6f742d73657400000000006044820152606401610a8d565b60405163f2fde38b60e01b81526001600160a01b038216600482015273324c5dc1fc42c7a4d43d92df1eba58a54d13bf2d9063f2fde38b9060240161284b565b6040516352e5787b60e11b8152600860048201819052907f00000000000000000000000000000000000000000000000000000000000000006001600160a01b03169063a5caf0f690602401602060405180830381865afa158015613309573d5f803e3d5ffd5b505050506040513d601f19601f8201168201806040525081019061332d919061418b565b6126955761335861333e606e611ec5565b73a0b86991c6218b36c1d19d4a2e9eb0ce3606eb486139ce565b61337f613365606f611ec5565b73dac17f958d2ee523a2206206994597c13d831ec76139ce565b6133a661338c6070611ec5565b7340d16fc0246ad3160ccc09b8d0d3a2cd28ae6c2f6139ce565b6133b361333e6085611ec5565b5f6133be6002610ab7565b90505f6133cb6022610ab7565b90506133e0826133db6086611ec5565b613ae9565b6133ee826133db608f611ec5565b610e07816133db6090611ec5565b6040516352e5787b60e11b8152600960048201819052907f00000000000000000000000000000000000000000000000000000000000000006001600160a01b03169063a5caf0f690602401602060405180830381865afa158015613462573d5f803e3d5ffd5b505050506040513d601f19601f82011682018060405250810190613486919061418b565b61269557613494601b610ab7565b6001600160a01b03166382df16526040518163ffffffff1660e01b81526004015f604051808303815f87803b15801561267e575f80fd5b6040516352e5787b60e11b8152600a60048201819052907f00000000000000000000000000000000000000000000000000000000000000006001600160a01b03169063a5caf0f690602401602060405180830381865afa158015613531573d5f803e3d5ffd5b505050506040513d601f19601f82011682018060405250810190613555919061418b565b612695575f7f00000000000000000000000000000000000000000000000000000000000000006001600160a01b0316639835a0bd6040518163ffffffff1660e01b8152600401602060405180830381865afa1580156135b6573d5f803e3d5ffd5b505050506040513d601f19601f820116820180604052508101906135da9190613e17565b90506001600160a01b0381166130205760405162461bcd60e51b81526020600482015260166024820152751c185d5cd958589b194b585d5d1a0b5b9bdd0b5cd95d60521b6044820152606401610a8d565b6040516352e5787b60e11b8152600b60048201819052907f00000000000000000000000000000000000000000000000000000000000000006001600160a01b03169063a5caf0f690602401602060405180830381865afa158015613691573d5f803e3d5ffd5b505050506040513d601f19601f820116820180604052508101906136b5919061418b565b612695575f7f00000000000000000000000000000000000000000000000000000000000000006001600160a01b031663342735586040518163ffffffff1660e01b8152600401602060405180830381865afa158015613716573d5f803e3d5ffd5b505050506040513d601f19601f8201168201806040525081019061373a9190613e17565b90506001600160a01b0381166137925760405162461bcd60e51b815260206004820152601960248201527f7061757361626c652d6465782d617574682d6e6f742d736574000000000000006044820152606401610a8d565b604051638f2db95d60e01b81526001600160a01b0382166004820152600160248201527391716c4eda1fb55e84bf8b4c7085f84285c1908590638f2db95d9060440161284b565b67ffffffffffffffff605b82901c811690609b83901c168115806137fb575080155b1561381e57604051636a86ba8960e11b8152620111716004820152602401610a8d565b61ffff8316603a84901c6401ffffffff16428181039160ea87901c617fff16911480613848575082155b806138535750806001145b1561386057505050915091565b64496cebb80084840283020484019350617fff60db87901c1692508260010361388b57505050915091565b826001166001036138e05760019290921c91826c7e37be2022c0914b2680000000816138b9576138b9613ec0565b049250612710601e87901c613fff166b033b2e3c9fd0803ce800000085010204925061390d565b60019290921c916305f5e100601e87901c613fff166127108501026b033b2e3c9fd0803ce8000000020492505b806001166001036139445760011c61271081016b033b2e3c9fd0803ce800000082028161393c5761393c613ec0565b04905061397a565b60011c61271081016b033b2e3c9fd0803ce800000082028161396857613968613ec0565b046b033b2e3c9fd0803ce80000000390505b760a70c3c40a64e6c51999090b65f67d92400000000000008382026127100261ffff881691900402601087901c613fff16612710030292506801b5a660ea44b8000085840283020485019450505050915091565b6040805160018082528183019092525f91816020015b613a326040518060e001604052805f6001600160a01b031681526020015f6001600160a01b031681526020015f60ff1681526020015f81526020015f81526020015f81526020015f81525090565b8152602001906001900390816139e45790505090506040518060e00160405280846001600160a01b03168152602001836001600160a01b03168152602001600160ff1681526020016001815260200162ffffff8152602001600a81526020016014815250815f81518110613aa857613aa8613e52565b602090810291909101015260405162dc47c360e11b81527352aa899454998be5b000ad077a46bbe360f4e497906301b88f86906130d3908490600401614336565b6040805160018082528183019092525f91816020015b613b356040518060a001604052805f6001600160a01b031681526020015f81526020015f81526020015f81526020015f81525090565b815260200190600190039081613aff5790505090506040518060a00160405280836001600160a01b031681526020016001815260200162ffffff8152602001600a81526020016014815250815f81518110613b9257613b92613e52565b602090810291909101015260405163ba9af1e360e01b81526001600160a01b0384169063ba9af1e3906130d39084906004016143b9565b8015158114612695575f80fd5b5f60208284031215613be6575f80fd5b8135613bf181613bc9565b9392505050565b5f60208284031215613c08575f80fd5b5035919050565b6001600160a01b0381168114612695575f80fd5b5f60208284031215613c33575f80fd5b8135613bf181613c0f565b5f8060208385031215613c4f575f80fd5b823567ffffffffffffffff80821115613c66575f80fd5b818501915085601f830112613c79575f80fd5b813581811115613c87575f80fd5b8660208260051b8501011115613c9b575f80fd5b60209290920196919550909350505050565b5f805f8060808587031215613cc0575f80fd5b8435613ccb81613c0f565b935060208501359250604085013591506060850135613ce981613bc9565b939692955090935050565b634e487b7160e01b5f52604160045260245ffd5b604051601f8201601f1916810167ffffffffffffffff81118282101715613d3157613d31613cf4565b604052919050565b5f6020808385031215613d4a575f80fd5b823567ffffffffffffffff80821115613d61575f80fd5b818501915085601f830112613d74575f80fd5b813581811115613d8657613d86613cf4565b613d98601f8201601f19168501613d08565b91508082528684828501011115613dad575f80fd5b80848401858401375f90820190930192909252509392505050565b5f60208284031215613dd8575f80fd5b813564ffffffffff81168114613bf1575f80fd5b6020808252601190820152706e6f742d7465616d2d6d756c746973696760781b604082015260600190565b5f60208284031215613e27575f80fd5b8151613bf181613c0f565b6020808252600690820152651b1bd8dad95960d21b604082015260600190565b634e487b7160e01b5f52603260045260245ffd5b634e487b7160e01b5f52601160045260245ffd5b5f60018201613e8b57613e8b613e66565b5060010190565b5f60208284031215613ea2575f80fd5b5051919050565b8082028115828204841417610b2c57610b2c613e66565b634e487b7160e01b5f52601260045260245ffd5b5f82613eee57634e487b7160e01b5f52601260045260245ffd5b500490565b600181815b80851115613f2d57815f1904821115613f1357613f13613e66565b80851615613f2057918102915b93841c9390800290613ef8565b509250929050565b5f82613f4357506001610b2c565b81613f4f57505f610b2c565b8160018114613f655760028114613f6f57613f8b565b6001915050610b2c565b60ff841115613f8057613f80613e66565b50506001821b610b2c565b5060208310610133831016604e8410600b8410161715613fae575081810a610b2c565b613fb88383613ef3565b805f1904821115613fcb57613fcb613e66565b029392505050565b5f613bf18383613f35565b5f81518084525f5b8181101561400257602081850181015186830182015201613fe6565b505f602082860101526020601f19601f83011685010191505092915050565b60018060a01b038316815260606020820152600960608201526865786563757465282960b81b608082015260a060408201525f6117ad60a0830184613fde565b5f8151808452602080850194508084015f5b8381101561408f57815187529582019590820190600101614073565b509495945050505050565b5f81518084526020808501808196508360051b810191508286015f5b858110156140e05782840389526140ce848351613fde565b988501989350908401906001016140b6565b5091979650505050505050565b60a080825286519082018190525f9060209060c0840190828a01845b8281101561412e5781516001600160a01b031684529284019290840190600101614109565b505050838103828501526141428189614061565b9150508281036040840152614157818761409a565b9050828103606084015261416b818661409a565b9050828103608084015261417f8185613fde565b98975050505050505050565b5f6020828403121561419b575f80fd5b8151613bf181613bc9565b6001600160a01b039384168152919092166020820152901515604082015260600190565b5f60208083850312156141db575f80fd5b825167ffffffffffffffff808211156141f2575f80fd5b818501915085601f830112614205575f80fd5b81518181111561421757614217613cf4565b8060051b9150614228848301613d08565b8181529183018401918481019088841115614241575f80fd5b938501935b8385101561417f57845192506001600160e01b031983168314614268575f8081fd5b8282529385019390850190614246565b80820180821115610b2c57610b2c613e66565b6001600160a01b03831681526040602080830182905283519183018290525f9184820191906060850190845b818110156142dd5784516001600160e01b031916835293830193918301916001016142b7565b5090979650505050505050565b602080825282518282018190525f919060409081850190868401855b828110156140e057815180516001600160a01b031685528601511515868501529284019290850190600101614306565b602080825282518282018190525f919060409081850190868401855b828110156140e057815180516001600160a01b0390811686528782015116878601528581015160ff1686860152606080820151908601526080808201519086015260a0808201519086015260c0908101519085015260e09093019290850190600101614352565b602080825282518282018190525f919060409081850190868401855b828110156140e057815180516001600160a01b0316855286810151878601528581015186860152606080820151908601526080908101519085015260a090930192908501906001016143d556fe657865637574655061796c6f616428616464726573732c737472696e672c6279746573290000000000000000000000004f6f977acdd1177dcd81ab83074855ecb9c2d49ea2646970667358221220cc4fd4303a28ea03114d3976a3e0fae3acfc265462710b0fd7d5048563ccdd2064736f6c63430008150033",
  "linkReferences": {},
  "deployedLinkReferences": {},
  "immutableReferences": {
    "1617": [
      {
        "length": 32,
        "start": 2447
      },
      {
        "length": 32,
        "start": 7026
      },
      {
        "length": 32,
        "start": 7404
      },
      {
        "length": 32,
        "start": 8317
      },
      {
        "length": 32,
        "start": 8544
      },
      {
        "length": 32,
        "start": 9905
      },
      {
        "length": 32,
        "start": 10025
      },
      {
        "length": 32,
        "start": 10389
      },
      {
        "length": 32,
        "start": 10509
      },
      {
        "length": 32,
        "start": 11356
      },
      {
        "length": 32,
        "start": 11574
      },
      {
        "length": 32,
        "start": 11694
      },
      {
        "length": 32,
        "start": 11986
      },
      {
        "length": 32,
        "start": 12106
      },
      {
        "length": 32,
        "start": 12565
      },
      {
        "length": 32,
        "start": 12685
      },
      {
        "length": 32,
        "start": 12988
      },
      {
        "length": 32,
        "start": 13333
      },
      {
        "length": 32,
        "start": 13540
      },
      {
        "length": 32,
        "start": 13660
      },
      {
        "length": 32,
        "start": 13892
      },
      {
        "length": 32,
        "start": 14012
      }
    ]
  },
  "inputSourceName": "project/contracts/payloads/IGP126/PayloadIGP126.sol",
  "buildInfoId": "solc-0_8_21-e5f103e2cd94e480aeda63ae8c9d7552dc087e58"
}