{
  "_format": "hh3-artifact-1",
  "contractName": "PayloadIGP120",
  "sourceName": "contracts/payloads/IGP120/PayloadIGP120.sol",
  "abi": [
    {
      "inputs": [],
      "name": "ADDRESS_THIS",
      "outputs": [
        {
          "internalType": "address",
          "name": "",
          "type": "address"
        }
      ],
      "stateMutability": "view",
      "type": "function"
    },
    {
      "inputs": [],
      "name": "DEX_FACTORY",
      "outputs": [
        {
          "internalType": "contract IFluidDexFactory",
          "name": "",
          "type": "address"
        }
      ],
      "stateMutability": "view",
      "type": "function"
    },
    {
      "inputs": [],
      "name": "DEX_T1_DEPLOYMENT_LOGIC",
      "outputs": [
        {
          "internalType": "address",
          "name": "",
          "type": "address"
        }
      ],
      "stateMutability": "view",
      "type": "function"
    },
    {
      "inputs": [],
      "name": "DSA_CONNECTORS_V2",
      "outputs": [
        {
          "internalType": "contract IDSAConnectorsV2",
          "name": "",
          "type": "address"
        }
      ],
      "stateMutability": "view",
      "type": "function"
    },
    {
      "inputs": [],
      "name": "FLUID_RESERVE",
      "outputs": [
        {
          "internalType": "contract IFluidReserveContract",
          "name": "",
          "type": "address"
        }
      ],
      "stateMutability": "view",
      "type": "function"
    },
    {
      "inputs": [],
      "name": "GOVERNOR",
      "outputs": [
        {
          "internalType": "contract IGovernorBravo",
          "name": "",
          "type": "address"
        }
      ],
      "stateMutability": "view",
      "type": "function"
    },
    {
      "inputs": [],
      "name": "IETHV2",
      "outputs": [
        {
          "internalType": "contract ILite",
          "name": "",
          "type": "address"
        }
      ],
      "stateMutability": "view",
      "type": "function"
    },
    {
      "inputs": [],
      "name": "LENDING_FACTORY",
      "outputs": [
        {
          "internalType": "contract IFluidLendingFactory",
          "name": "",
          "type": "address"
        }
      ],
      "stateMutability": "view",
      "type": "function"
    },
    {
      "inputs": [],
      "name": "LIQUIDITY",
      "outputs": [
        {
          "internalType": "contract IFluidLiquidityAdmin",
          "name": "",
          "type": "address"
        }
      ],
      "stateMutability": "view",
      "type": "function"
    },
    {
      "inputs": [],
      "name": "PROPOSAL_ID",
      "outputs": [
        {
          "internalType": "uint256",
          "name": "",
          "type": "uint256"
        }
      ],
      "stateMutability": "view",
      "type": "function"
    },
    {
      "inputs": [],
      "name": "PROPOSER",
      "outputs": [
        {
          "internalType": "address",
          "name": "",
          "type": "address"
        }
      ],
      "stateMutability": "view",
      "type": "function"
    },
    {
      "inputs": [],
      "name": "PROPOSER_AVO_MULTISIG",
      "outputs": [
        {
          "internalType": "address",
          "name": "",
          "type": "address"
        }
      ],
      "stateMutability": "view",
      "type": "function"
    },
    {
      "inputs": [],
      "name": "PROPOSER_AVO_MULTISIG_2",
      "outputs": [
        {
          "internalType": "address",
          "name": "",
          "type": "address"
        }
      ],
      "stateMutability": "view",
      "type": "function"
    },
    {
      "inputs": [],
      "name": "PROPOSER_AVO_MULTISIG_3",
      "outputs": [
        {
          "internalType": "address",
          "name": "",
          "type": "address"
        }
      ],
      "stateMutability": "view",
      "type": "function"
    },
    {
      "inputs": [],
      "name": "PROPOSER_AVO_MULTISIG_4",
      "outputs": [
        {
          "internalType": "address",
          "name": "",
          "type": "address"
        }
      ],
      "stateMutability": "view",
      "type": "function"
    },
    {
      "inputs": [],
      "name": "PROPOSER_AVO_MULTISIG_5",
      "outputs": [
        {
          "internalType": "address",
          "name": "",
          "type": "address"
        }
      ],
      "stateMutability": "view",
      "type": "function"
    },
    {
      "inputs": [],
      "name": "RESERVE_CONTRACT_PROXY",
      "outputs": [
        {
          "internalType": "address",
          "name": "",
          "type": "address"
        }
      ],
      "stateMutability": "view",
      "type": "function"
    },
    {
      "inputs": [],
      "name": "SMART_LENDING_FACTORY",
      "outputs": [
        {
          "internalType": "contract IFluidSmartLendingFactory",
          "name": "",
          "type": "address"
        }
      ],
      "stateMutability": "view",
      "type": "function"
    },
    {
      "inputs": [],
      "name": "TEAM_MULTISIG",
      "outputs": [
        {
          "internalType": "address",
          "name": "",
          "type": "address"
        }
      ],
      "stateMutability": "view",
      "type": "function"
    },
    {
      "inputs": [],
      "name": "TEAM_MULTISIG_2",
      "outputs": [
        {
          "internalType": "address",
          "name": "",
          "type": "address"
        }
      ],
      "stateMutability": "view",
      "type": "function"
    },
    {
      "inputs": [],
      "name": "TIMELOCK",
      "outputs": [
        {
          "internalType": "contract ITimelock",
          "name": "",
          "type": "address"
        }
      ],
      "stateMutability": "view",
      "type": "function"
    },
    {
      "inputs": [],
      "name": "TREASURY",
      "outputs": [
        {
          "internalType": "contract IDSAV2",
          "name": "",
          "type": "address"
        }
      ],
      "stateMutability": "view",
      "type": "function"
    },
    {
      "inputs": [],
      "name": "VAULT_FACTORY",
      "outputs": [
        {
          "internalType": "contract IFluidVaultFactory",
          "name": "",
          "type": "address"
        }
      ],
      "stateMutability": "view",
      "type": "function"
    },
    {
      "inputs": [
        {
          "internalType": "uint256",
          "name": "action_",
          "type": "uint256"
        }
      ],
      "name": "actionStatus",
      "outputs": [
        {
          "internalType": "bool",
          "name": "",
          "type": "bool"
        }
      ],
      "stateMutability": "view",
      "type": "function"
    },
    {
      "inputs": [],
      "name": "execute",
      "outputs": [],
      "stateMutability": "nonpayable",
      "type": "function"
    },
    {
      "inputs": [
        {
          "internalType": "uint256",
          "name": "dexId_",
          "type": "uint256"
        }
      ],
      "name": "getDexAddress",
      "outputs": [
        {
          "internalType": "address",
          "name": "",
          "type": "address"
        }
      ],
      "stateMutability": "view",
      "type": "function"
    },
    {
      "inputs": [
        {
          "internalType": "address",
          "name": "token",
          "type": "address"
        }
      ],
      "name": "getFTokenAddress",
      "outputs": [
        {
          "internalType": "address",
          "name": "",
          "type": "address"
        }
      ],
      "stateMutability": "view",
      "type": "function"
    },
    {
      "inputs": [],
      "name": "getProposalCreationTime",
      "outputs": [
        {
          "internalType": "uint40",
          "name": "",
          "type": "uint40"
        }
      ],
      "stateMutability": "view",
      "type": "function"
    },
    {
      "inputs": [
        {
          "internalType": "address",
          "name": "token",
          "type": "address"
        },
        {
          "internalType": "uint256",
          "name": "amount",
          "type": "uint256"
        },
        {
          "internalType": "uint256",
          "name": "amountInUSD",
          "type": "uint256"
        },
        {
          "internalType": "bool",
          "name": "isSupply",
          "type": "bool"
        }
      ],
      "name": "getRawAmount",
      "outputs": [
        {
          "internalType": "uint256",
          "name": "",
          "type": "uint256"
        }
      ],
      "stateMutability": "view",
      "type": "function"
    },
    {
      "inputs": [
        {
          "internalType": "uint256",
          "name": "dexId_",
          "type": "uint256"
        }
      ],
      "name": "getSmartLendingAddress",
      "outputs": [
        {
          "internalType": "address",
          "name": "",
          "type": "address"
        }
      ],
      "stateMutability": "view",
      "type": "function"
    },
    {
      "inputs": [
        {
          "internalType": "uint256",
          "name": "vaultId_",
          "type": "uint256"
        }
      ],
      "name": "getVaultAddress",
      "outputs": [
        {
          "internalType": "address",
          "name": "",
          "type": "address"
        }
      ],
      "stateMutability": "view",
      "type": "function"
    },
    {
      "inputs": [],
      "name": "isProposalExecutable",
      "outputs": [
        {
          "internalType": "bool",
          "name": "",
          "type": "bool"
        }
      ],
      "stateMutability": "view",
      "type": "function"
    },
    {
      "inputs": [
        {
          "internalType": "string",
          "name": "description",
          "type": "string"
        }
      ],
      "name": "propose",
      "outputs": [],
      "stateMutability": "nonpayable",
      "type": "function"
    },
    {
      "inputs": [
        {
          "internalType": "uint256[]",
          "name": "actionsToSkip_",
          "type": "uint256[]"
        }
      ],
      "name": "setActionsToSkip",
      "outputs": [],
      "stateMutability": "nonpayable",
      "type": "function"
    },
    {
      "inputs": [
        {
          "internalType": "uint40",
          "name": "proposalCreationTime_",
          "type": "uint40"
        }
      ],
      "name": "setProposalCreationTime",
      "outputs": [],
      "stateMutability": "nonpayable",
      "type": "function"
    },
    {
      "inputs": [
        {
          "internalType": "bool",
          "name": "isExecutable_",
          "type": "bool"
        }
      ],
      "name": "toggleExecutable",
      "outputs": [],
      "stateMutability": "nonpayable",
      "type": "function"
    },
    {
      "inputs": [],
      "name": "verifyProposal",
      "outputs": [],
      "stateMutability": "view",
      "type": "function"
    }
  ],
  "bytecode": "0x60a060405234801561000f575f80fd5b50306080526080516115806100485f395f818161051101528181610a7101528181610bf201528181610f080152610feb01526115805ff3fe608060405234801561000f575f80fd5b506004361061021e575f3560e01c8063841d26991161012a578063b6966495116100b4578063e6bd26a211610079578063e6bd26a214610533578063f53eddcc14610546578063f88ed60c14610561578063fb0ae9181461057c578063fcee0c981461058f575f80fd5b8063b696649514610359578063b788f3a1146104c3578063bffa7f0f146104de578063c60dc265146104f9578063cc025f7c1461050c575f80fd5b80639d3d2a78116100fa5780639d3d2a78146104445780639ef947371461045b578063a5caf0f614610473578063a64f569314610495578063aa98df39146104b0575f80fd5b8063841d2699146103e057806395861bd7146103f357806396bac9311461040e57806397b87b4a14610429575f80fd5b806348bbb557116101ab57806366760d7d1161017b57806366760d7d146102835780636dc0ae221461037c578063798d5ba3146103975780637aadef8b146103aa5780637e2f35fa146103c5575f80fd5b806348bbb55714610323578063588c77e61461033e57806358f2552e146103595780636146195414610374575f80fd5b806312e366aa116101f157806312e366aa146102a05780631392d4ee146102b357806325ad7f4d146102d25780632861c7d1146102ed5780632d2c556514610308575f80fd5b80630b5b4238146102225780630bc9136e1461025a5780630e6a204c14610270578063103f290714610285575b5f80fd5b61023d733fb3fe857c1ee52e7002196e295a7adffed8081981565b6040516001600160a01b0390911681526020015b60405180910390f35b610262607881565b604051908152602001610251565b61028361027e3660046110eb565b6105aa565b005b61023d73324c5dc1fc42c7a4d43d92df1eba58a54d13bf2d81565b61023d6102ae36600461110d565b610627565b5f5465010000000000900460ff165b6040519015158152602001610251565b61023d739efde135ca4832abf0408c44c6f5f370eb0f35e881565b61023d7352aa899454998be5b000ad077a46bbe360f4e49781565b61023d7328849d2b63fa8d361e5fc15cb8abb13019884d0981565b61023d73e7eb63a8b6392481a9fdebb108cfd580dc8664d381565b61023d735c43aac965ff230ac1cf63e924d0153291d78bad81565b61023d73264786ef916af64a1db19f513f24a3681734ce9281565b6102836106a2565b61023d730204cd037b2ec03605cfdfe482d8e257c765fa1b81565b6102836103a5366004611124565b6106b4565b61023d732386dc45added673317ef068992f19421b481f4c81565b61023d73059a94a72951c0ae1cc1ce3bf0db52421bbe821081565b61023d6103ee36600461110d565b61076d565b61023d73a0d3707c569ff8c87fa923d3823ec5d81c98be7881565b61023d7354b91a0d94cb471f37f949c60f7fa7935b551d0381565b61023d7391716c4eda1fb55e84bf8b4c7085f84285c1908581565b6102626104523660046111a7565b5f949350505050565b5f5460405164ffffffffff9091168152602001610251565b6102c261048136600461110d565b5f9081526001602052604090205460ff1690565b61023d7397b0b3a8bdefe8cb9563a3c610019ad10db8ad1181565b6102836104be366004611202565b6107a7565b61023d734f6f977acdd1177dcd81ab83074855ecb9c2d49e81565b61023d73a45f7bd6a5ff45d31aace6bcd3d426d9328cea0181565b61023d6105073660046112ad565b610c5b565b61023d7f000000000000000000000000000000000000000000000000000000000000000081565b61023d61054136600461110d565b610d49565b61023d73e57227c7d5900165344b190fc7aa580bceb53b9b81565b61023d733daff61fe5cfb1f1b4ea7fba8173a58532ef184181565b61028361058a3660046112c8565b610d83565b61023d731e2e1aed876f67fe4fd54090fd7b8f57ce23421981565b33734f6f977acdd1177dcd81ab83074855ecb9c2d49e146106065760405162461bcd60e51b81526020600482015260116024820152706e6f742d7465616d2d6d756c746973696760781b60448201526064015b60405180910390fd5b5f8054911515650100000000000265ff000000000019909216919091179055565b604051630971b35560e11b8152600481018290525f907391716c4eda1fb55e84bf8b4c7085f84285c19085906312e366aa906024015b602060405180830381865afa158015610678573d5f803e3d5ffd5b505050506040513d601f19601f8201168201806040525081019061069c91906112ec565b92915050565b6106aa610eb0565b6106b2610fd2565b565b33734f6f977acdd1177dcd81ab83074855ecb9c2d49e1461070b5760405162461bcd60e51b81526020600482015260116024820152706e6f742d7465616d2d6d756c746973696760781b60448201526064016105fd565b5f5b81811015610768576001805f85858581811061072b5761072b611307565b9050602002013581526020019081526020015f205f6101000a81548160ff02191690831515021790555080806107609061131b565b91505061070d565b505050565b60405163841d269960e01b8152600481018290525f9073e57227c7d5900165344b190fc7aa580bceb53b9b9063841d26999060240161065d565b3373a45f7bd6a5ff45d31aace6bcd3d426d9328cea0114806107dc575033734f6f977acdd1177dcd81ab83074855ecb9c2d49e145b806107fa57503073059a94a72951c0ae1cc1ce3bf0db52421bbe8210145b80610818575030739efde135ca4832abf0408c44c6f5f370eb0f35e8145b80610836575030735c43aac965ff230ac1cf63e924d0153291d78bad145b80610854575030733daff61fe5cfb1f1b4ea7fba8173a58532ef1841145b8061087257503073e7eb63a8b6392481a9fdebb108cfd580dc8664d3145b6108b75760405162461bcd60e51b81526020600482015260166024820152751b5cd9cb9cd95b99195c8b5b9bdd0b585b1b1bddd95960521b60448201526064016105fd565b6040805160018082528183019092525f9082602080830190803683370190505090505f8267ffffffffffffffff8111156108f3576108f36111ee565b60405190808252806020026020018201604052801561091c578160200160208202803683370190505b5090505f8367ffffffffffffffff811115610939576109396111ee565b60405190808252806020026020018201604052801561096c57816020015b60608152602001906001900390816109575790505b5090505f8467ffffffffffffffff811115610989576109896111ee565b6040519080825280602002602001820160405280156109bc57816020015b60608152602001906001900390816109a75790505b509050732386dc45added673317ef068992f19421b481f4c845f815181106109e6576109e6611307565b60200260200101906001600160a01b031690816001600160a01b0316815250505f835f81518110610a1957610a19611307565b60200260200101818152505060405180606001604052806024815260200161152760249139825f81518110610a5057610a50611307565b602090810291909101810191909152604080515f81529182018152610a98917f0000000000000000000000000000000000000000000000000000000000000000918101611382565b604051602081830303815290604052815f81518110610ab957610ab9611307565b6020908102919091010152604051636d4ab48d60e11b81525f90730204cd037b2ec03605cfdfe482d8e257c765fa1b9063da95691a90610b059088908890889088908e90600401611456565b6020604051808303815f875af1158015610b21573d5f803e3d5ffd5b505050506040513d601f19601f82011682018060405250810190610b4591906114f4565b905060788114610b8e5760405162461bcd60e51b815260206004820152601460248201527350524f504f53414c5f49535f4e4f545f53414d4560601b60448201526064016105fd565b3373a45f7bd6a5ff45d31aace6bcd3d426d9328cea011480610bc3575033734f6f977acdd1177dcd81ab83074855ecb9c2d49e145b15610bd657610bd142610d83565b610c52565b604051631f615d2360e31b815264ffffffffff421660048201527f00000000000000000000000000000000000000000000000000000000000000006001600160a01b03169063fb0ae918906024015f604051808303815f87803b158015610c3b575f80fd5b505af1158015610c4d573d5f803e3d5ffd5b505050505b50505050505050565b5f73c02aaa39b223fe8d0a0e5c4f27ead9083c756cc1196001600160a01b03831601610cea576040805163bb4a64d360e01b81526001600160a01b03841660048201526024810191909152601060448201526f4e6174697665556e6465726c79696e6760801b60648201527354b91a0d94cb471f37f949c60f7fa7935b551d039063bb4a64d39060840161065d565b6040805163bb4a64d360e01b81526001600160a01b038416600482015260248101919091526006604482015265332a37b5b2b760d11b60648201527354b91a0d94cb471f37f949c60f7fa7935b551d039063bb4a64d39060840161065d565b60405163735e935160e11b8152600481018290525f9073324c5dc1fc42c7a4d43d92df1eba58a54d13bf2d9063e6bd26a29060240161065d565b3373a45f7bd6a5ff45d31aace6bcd3d426d9328cea011480610db8575033734f6f977acdd1177dcd81ab83074855ecb9c2d49e145b80610dd657503373059a94a72951c0ae1cc1ce3bf0db52421bbe8210145b80610df4575033739efde135ca4832abf0408c44c6f5f370eb0f35e8145b80610e12575033735c43aac965ff230ac1cf63e924d0153291d78bad145b80610e30575033733daff61fe5cfb1f1b4ea7fba8173a58532ef1841145b80610e4e57503373e7eb63a8b6392481a9fdebb108cfd580dc8664d3145b610e935760405162461bcd60e51b81526020600482015260166024820152751b5cd9cb9cd95b99195c8b5b9bdd0b585b1b1bddd95960521b60448201526064016105fd565b5f805464ffffffffff191664ffffffffff92909216919091179055565b30732386dc45added673317ef068992f19421b481f4c14610f065760405162461bcd60e51b815260206004820152601060248201526f3737ba16bb30b634b216b1b0b63632b960811b60448201526064016105fd565b7f00000000000000000000000000000000000000000000000000000000000000006001600160a01b0316631392d4ee6040518163ffffffff1660e01b8152600401602060405180830381865afa158015610f62573d5f803e3d5ffd5b505050506040513d601f19601f82011682018060405250810190610f86919061150b565b6106b25760405162461bcd60e51b815260206004820152601760248201527f70726f706f73616c2d6e6f742d65786563757461626c6500000000000000000060448201526064016105fd565b6040516352e5787b60e11b8152600160048201819052907f00000000000000000000000000000000000000000000000000000000000000006001600160a01b03169063a5caf0f690602401602060405180830381865afa158015611038573d5f803e3d5ffd5b505050506040513d601f19601f8201168201806040525081019061105c919061150b565b6110db57604051632faba6a560e11b8152733fb3fe857c1ee52e7002196e295a7adffed808196004820152600160248201527391716c4eda1fb55e84bf8b4c7085f84285c1908590635f574d4a906044015f604051808303815f87803b1580156110c4575f80fd5b505af11580156110d6573d5f803e3d5ffd5b505050505b50565b80151581146110db575f80fd5b5f602082840312156110fb575f80fd5b8135611106816110de565b9392505050565b5f6020828403121561111d575f80fd5b5035919050565b5f8060208385031215611135575f80fd5b823567ffffffffffffffff8082111561114c575f80fd5b818501915085601f83011261115f575f80fd5b81358181111561116d575f80fd5b8660208260051b8501011115611181575f80fd5b60209290920196919550909350505050565b6001600160a01b03811681146110db575f80fd5b5f805f80608085870312156111ba575f80fd5b84356111c581611193565b9350602085013592506040850135915060608501356111e3816110de565b939692955090935050565b634e487b7160e01b5f52604160045260245ffd5b5f60208284031215611212575f80fd5b813567ffffffffffffffff80821115611229575f80fd5b818401915084601f83011261123c575f80fd5b81358181111561124e5761124e6111ee565b604051601f8201601f19908116603f01168101908382118183101715611276576112766111ee565b8160405282815287602084870101111561128e575f80fd5b826020860160208301375f928101602001929092525095945050505050565b5f602082840312156112bd575f80fd5b813561110681611193565b5f602082840312156112d8575f80fd5b813564ffffffffff81168114611106575f80fd5b5f602082840312156112fc575f80fd5b815161110681611193565b634e487b7160e01b5f52603260045260245ffd5b5f6001820161133857634e487b7160e01b5f52601160045260245ffd5b5060010190565b5f81518084525f5b8181101561136357602081850181015186830182015201611347565b505f602082860101526020601f19601f83011685010191505092915050565b60018060a01b038316815260606020820152600960608201526865786563757465282960b81b608082015260a060408201525f6113c260a083018461133f565b949350505050565b5f8151808452602080850194508084015f5b838110156113f8578151875295820195908201906001016113dc565b509495945050505050565b5f81518084526020808501808196508360051b810191508286015f5b8581101561144957828403895261143784835161133f565b9885019893509084019060010161141f565b5091979650505050505050565b60a080825286519082018190525f9060209060c0840190828a01845b828110156114975781516001600160a01b031684529284019290840190600101611472565b505050838103828501526114ab81896113ca565b91505082810360408401526114c08187611403565b905082810360608401526114d48186611403565b905082810360808401526114e8818561133f565b98975050505050505050565b5f60208284031215611504575f80fd5b5051919050565b5f6020828403121561151b575f80fd5b8151611106816110de56fe657865637574655061796c6f616428616464726573732c737472696e672c627974657329a2646970667358221220ea60f60cae79961e72cc241ca26c2debb56cbde0b0c262dce754092e75973b7e64736f6c63430008150033",
  "linkReferences": {},
  "deployedLinkReferences": {},
  "immutableReferences": {
    "152": [
      {
        "length": 32,
        "start": 1297
      },
      {
        "length": 32,
        "start": 2673
      },
      {
        "length": 32,
        "start": 3058
      },
      {
        "length": 32,
        "start": 3848
      },
      {
        "length": 32,
        "start": 4075
      }
    ]
  },
  "inputSourceName": "project/contracts/payloads/IGP120/PayloadIGP120.sol",
  "buildInfoId": "solc-0_8_21-574589ece0ec444bee218e52a70a9eec816a1ec6"
}