{
  "_format": "hh3-artifact-1",
  "contractName": "PayloadIGP113",
  "sourceName": "contracts/payloads/IGP113/PayloadIGP113.sol",
  "abi": [
    {
      "inputs": [
        {
          "internalType": "uint256",
          "name": "errorId_",
          "type": "uint256"
        }
      ],
      "name": "FluidLiquidityCalcsError",
      "type": "error"
    },
    {
      "inputs": [],
      "name": "ADDRESS_THIS",
      "outputs": [
        {
          "internalType": "address",
          "name": "",
          "type": "address"
        }
      ],
      "stateMutability": "view",
      "type": "function"
    },
    {
      "inputs": [],
      "name": "BTC_USD_PRICE",
      "outputs": [
        {
          "internalType": "uint256",
          "name": "",
          "type": "uint256"
        }
      ],
      "stateMutability": "view",
      "type": "function"
    },
    {
      "inputs": [],
      "name": "DEX_FACTORY",
      "outputs": [
        {
          "internalType": "contract IFluidDexFactory",
          "name": "",
          "type": "address"
        }
      ],
      "stateMutability": "view",
      "type": "function"
    },
    {
      "inputs": [],
      "name": "DSA_CONNECTORS_V2",
      "outputs": [
        {
          "internalType": "contract IDSAConnectorsV2",
          "name": "",
          "type": "address"
        }
      ],
      "stateMutability": "view",
      "type": "function"
    },
    {
      "inputs": [],
      "name": "ETH_USD_PRICE",
      "outputs": [
        {
          "internalType": "uint256",
          "name": "",
          "type": "uint256"
        }
      ],
      "stateMutability": "view",
      "type": "function"
    },
    {
      "inputs": [],
      "name": "FLUID_RESERVE",
      "outputs": [
        {
          "internalType": "contract IFluidReserveContract",
          "name": "",
          "type": "address"
        }
      ],
      "stateMutability": "view",
      "type": "function"
    },
    {
      "inputs": [],
      "name": "FLUID_USD_PRICE",
      "outputs": [
        {
          "internalType": "uint256",
          "name": "",
          "type": "uint256"
        }
      ],
      "stateMutability": "view",
      "type": "function"
    },
    {
      "inputs": [],
      "name": "GOVERNOR",
      "outputs": [
        {
          "internalType": "contract IGovernorBravo",
          "name": "",
          "type": "address"
        }
      ],
      "stateMutability": "view",
      "type": "function"
    },
    {
      "inputs": [],
      "name": "IETHV2",
      "outputs": [
        {
          "internalType": "contract ILite",
          "name": "",
          "type": "address"
        }
      ],
      "stateMutability": "view",
      "type": "function"
    },
    {
      "inputs": [],
      "name": "JRUSDE_USD_PRICE",
      "outputs": [
        {
          "internalType": "uint256",
          "name": "",
          "type": "uint256"
        }
      ],
      "stateMutability": "view",
      "type": "function"
    },
    {
      "inputs": [],
      "name": "LENDING_FACTORY",
      "outputs": [
        {
          "internalType": "contract IFluidLendingFactory",
          "name": "",
          "type": "address"
        }
      ],
      "stateMutability": "view",
      "type": "function"
    },
    {
      "inputs": [],
      "name": "LIQUIDITY",
      "outputs": [
        {
          "internalType": "contract IFluidLiquidityAdmin",
          "name": "",
          "type": "address"
        }
      ],
      "stateMutability": "view",
      "type": "function"
    },
    {
      "inputs": [],
      "name": "OSETH_USD_PRICE",
      "outputs": [
        {
          "internalType": "uint256",
          "name": "",
          "type": "uint256"
        }
      ],
      "stateMutability": "view",
      "type": "function"
    },
    {
      "inputs": [],
      "name": "PAXG_USD_PRICE",
      "outputs": [
        {
          "internalType": "uint256",
          "name": "",
          "type": "uint256"
        }
      ],
      "stateMutability": "view",
      "type": "function"
    },
    {
      "inputs": [],
      "name": "PROPOSAL_ID",
      "outputs": [
        {
          "internalType": "uint256",
          "name": "",
          "type": "uint256"
        }
      ],
      "stateMutability": "view",
      "type": "function"
    },
    {
      "inputs": [],
      "name": "PROPOSER",
      "outputs": [
        {
          "internalType": "address",
          "name": "",
          "type": "address"
        }
      ],
      "stateMutability": "view",
      "type": "function"
    },
    {
      "inputs": [],
      "name": "PROPOSER_AVO_MULTISIG",
      "outputs": [
        {
          "internalType": "address",
          "name": "",
          "type": "address"
        }
      ],
      "stateMutability": "view",
      "type": "function"
    },
    {
      "inputs": [],
      "name": "PROPOSER_AVO_MULTISIG_2",
      "outputs": [
        {
          "internalType": "address",
          "name": "",
          "type": "address"
        }
      ],
      "stateMutability": "view",
      "type": "function"
    },
    {
      "inputs": [],
      "name": "PROPOSER_AVO_MULTISIG_3",
      "outputs": [
        {
          "internalType": "address",
          "name": "",
          "type": "address"
        }
      ],
      "stateMutability": "view",
      "type": "function"
    },
    {
      "inputs": [],
      "name": "PROPOSER_AVO_MULTISIG_4",
      "outputs": [
        {
          "internalType": "address",
          "name": "",
          "type": "address"
        }
      ],
      "stateMutability": "view",
      "type": "function"
    },
    {
      "inputs": [],
      "name": "PROPOSER_AVO_MULTISIG_5",
      "outputs": [
        {
          "internalType": "address",
          "name": "",
          "type": "address"
        }
      ],
      "stateMutability": "view",
      "type": "function"
    },
    {
      "inputs": [],
      "name": "RESERVE_CONTRACT_PROXY",
      "outputs": [
        {
          "internalType": "address",
          "name": "",
          "type": "address"
        }
      ],
      "stateMutability": "view",
      "type": "function"
    },
    {
      "inputs": [],
      "name": "RLP_USD_PRICE",
      "outputs": [
        {
          "internalType": "uint256",
          "name": "",
          "type": "uint256"
        }
      ],
      "stateMutability": "view",
      "type": "function"
    },
    {
      "inputs": [],
      "name": "SMART_LENDING_FACTORY",
      "outputs": [
        {
          "internalType": "contract IFluidSmartLendingFactory",
          "name": "",
          "type": "address"
        }
      ],
      "stateMutability": "view",
      "type": "function"
    },
    {
      "inputs": [],
      "name": "SRUSDE_USD_PRICE",
      "outputs": [
        {
          "internalType": "uint256",
          "name": "",
          "type": "uint256"
        }
      ],
      "stateMutability": "view",
      "type": "function"
    },
    {
      "inputs": [],
      "name": "STABLE_USD_PRICE",
      "outputs": [
        {
          "internalType": "uint256",
          "name": "",
          "type": "uint256"
        }
      ],
      "stateMutability": "view",
      "type": "function"
    },
    {
      "inputs": [],
      "name": "TEAM_MULTISIG",
      "outputs": [
        {
          "internalType": "address",
          "name": "",
          "type": "address"
        }
      ],
      "stateMutability": "view",
      "type": "function"
    },
    {
      "inputs": [],
      "name": "TEAM_MULTISIG_2",
      "outputs": [
        {
          "internalType": "address",
          "name": "",
          "type": "address"
        }
      ],
      "stateMutability": "view",
      "type": "function"
    },
    {
      "inputs": [],
      "name": "TIMELOCK",
      "outputs": [
        {
          "internalType": "contract ITimelock",
          "name": "",
          "type": "address"
        }
      ],
      "stateMutability": "view",
      "type": "function"
    },
    {
      "inputs": [],
      "name": "TREASURY",
      "outputs": [
        {
          "internalType": "contract IDSAV2",
          "name": "",
          "type": "address"
        }
      ],
      "stateMutability": "view",
      "type": "function"
    },
    {
      "inputs": [],
      "name": "VAULT_FACTORY",
      "outputs": [
        {
          "internalType": "contract IFluidVaultFactory",
          "name": "",
          "type": "address"
        }
      ],
      "stateMutability": "view",
      "type": "function"
    },
    {
      "inputs": [],
      "name": "XAUT_USD_PRICE",
      "outputs": [
        {
          "internalType": "uint256",
          "name": "",
          "type": "uint256"
        }
      ],
      "stateMutability": "view",
      "type": "function"
    },
    {
      "inputs": [
        {
          "internalType": "uint256",
          "name": "action_",
          "type": "uint256"
        }
      ],
      "name": "actionStatus",
      "outputs": [
        {
          "internalType": "bool",
          "name": "",
          "type": "bool"
        }
      ],
      "stateMutability": "view",
      "type": "function"
    },
    {
      "inputs": [],
      "name": "execute",
      "outputs": [],
      "stateMutability": "nonpayable",
      "type": "function"
    },
    {
      "inputs": [],
      "name": "ezETH_USD_PRICE",
      "outputs": [
        {
          "internalType": "uint256",
          "name": "",
          "type": "uint256"
        }
      ],
      "stateMutability": "view",
      "type": "function"
    },
    {
      "inputs": [
        {
          "internalType": "uint256",
          "name": "dexId_",
          "type": "uint256"
        }
      ],
      "name": "getDexAddress",
      "outputs": [
        {
          "internalType": "address",
          "name": "",
          "type": "address"
        }
      ],
      "stateMutability": "view",
      "type": "function"
    },
    {
      "inputs": [
        {
          "internalType": "address",
          "name": "token",
          "type": "address"
        }
      ],
      "name": "getFTokenAddress",
      "outputs": [
        {
          "internalType": "address",
          "name": "",
          "type": "address"
        }
      ],
      "stateMutability": "view",
      "type": "function"
    },
    {
      "inputs": [],
      "name": "getProposalCreationTime",
      "outputs": [
        {
          "internalType": "uint40",
          "name": "",
          "type": "uint40"
        }
      ],
      "stateMutability": "view",
      "type": "function"
    },
    {
      "inputs": [
        {
          "internalType": "address",
          "name": "token",
          "type": "address"
        },
        {
          "internalType": "uint256",
          "name": "amount",
          "type": "uint256"
        },
        {
          "internalType": "uint256",
          "name": "amountInUSD",
          "type": "uint256"
        },
        {
          "internalType": "bool",
          "name": "isSupply",
          "type": "bool"
        }
      ],
      "name": "getRawAmount",
      "outputs": [
        {
          "internalType": "uint256",
          "name": "",
          "type": "uint256"
        }
      ],
      "stateMutability": "view",
      "type": "function"
    },
    {
      "inputs": [
        {
          "internalType": "uint256",
          "name": "dexId_",
          "type": "uint256"
        }
      ],
      "name": "getSmartLendingAddress",
      "outputs": [
        {
          "internalType": "address",
          "name": "",
          "type": "address"
        }
      ],
      "stateMutability": "view",
      "type": "function"
    },
    {
      "inputs": [
        {
          "internalType": "uint256",
          "name": "vaultId_",
          "type": "uint256"
        }
      ],
      "name": "getVaultAddress",
      "outputs": [
        {
          "internalType": "address",
          "name": "",
          "type": "address"
        }
      ],
      "stateMutability": "view",
      "type": "function"
    },
    {
      "inputs": [],
      "name": "isProposalExecutable",
      "outputs": [
        {
          "internalType": "bool",
          "name": "",
          "type": "bool"
        }
      ],
      "stateMutability": "view",
      "type": "function"
    },
    {
      "inputs": [],
      "name": "mETH_USD_PRICE",
      "outputs": [
        {
          "internalType": "uint256",
          "name": "",
          "type": "uint256"
        }
      ],
      "stateMutability": "view",
      "type": "function"
    },
    {
      "inputs": [
        {
          "internalType": "string",
          "name": "description",
          "type": "string"
        }
      ],
      "name": "propose",
      "outputs": [],
      "stateMutability": "nonpayable",
      "type": "function"
    },
    {
      "inputs": [],
      "name": "rsETH_USD_PRICE",
      "outputs": [
        {
          "internalType": "uint256",
          "name": "",
          "type": "uint256"
        }
      ],
      "stateMutability": "view",
      "type": "function"
    },
    {
      "inputs": [],
      "name": "sUSDe_USD_PRICE",
      "outputs": [
        {
          "internalType": "uint256",
          "name": "",
          "type": "uint256"
        }
      ],
      "stateMutability": "view",
      "type": "function"
    },
    {
      "inputs": [],
      "name": "sUSDs_USD_PRICE",
      "outputs": [
        {
          "internalType": "uint256",
          "name": "",
          "type": "uint256"
        }
      ],
      "stateMutability": "view",
      "type": "function"
    },
    {
      "inputs": [
        {
          "internalType": "uint256[]",
          "name": "actionsToSkip_",
          "type": "uint256[]"
        }
      ],
      "name": "setActionsToSkip",
      "outputs": [],
      "stateMutability": "nonpayable",
      "type": "function"
    },
    {
      "inputs": [
        {
          "internalType": "uint40",
          "name": "proposalCreationTime_",
          "type": "uint40"
        }
      ],
      "name": "setProposalCreationTime",
      "outputs": [],
      "stateMutability": "nonpayable",
      "type": "function"
    },
    {
      "inputs": [],
      "name": "syrupUSDC_USD_PRICE",
      "outputs": [
        {
          "internalType": "uint256",
          "name": "",
          "type": "uint256"
        }
      ],
      "stateMutability": "view",
      "type": "function"
    },
    {
      "inputs": [],
      "name": "syrupUSDT_USD_PRICE",
      "outputs": [
        {
          "internalType": "uint256",
          "name": "",
          "type": "uint256"
        }
      ],
      "stateMutability": "view",
      "type": "function"
    },
    {
      "inputs": [
        {
          "internalType": "bool",
          "name": "isExecutable_",
          "type": "bool"
        }
      ],
      "name": "toggleExecutable",
      "outputs": [],
      "stateMutability": "nonpayable",
      "type": "function"
    },
    {
      "inputs": [],
      "name": "verifyProposal",
      "outputs": [],
      "stateMutability": "view",
      "type": "function"
    },
    {
      "inputs": [],
      "name": "weETH_USD_PRICE",
      "outputs": [
        {
          "internalType": "uint256",
          "name": "",
          "type": "uint256"
        }
      ],
      "stateMutability": "view",
      "type": "function"
    },
    {
      "inputs": [],
      "name": "weETHs_USD_PRICE",
      "outputs": [
        {
          "internalType": "uint256",
          "name": "",
          "type": "uint256"
        }
      ],
      "stateMutability": "view",
      "type": "function"
    },
    {
      "inputs": [],
      "name": "wstETH_USD_PRICE",
      "outputs": [
        {
          "internalType": "uint256",
          "name": "",
          "type": "uint256"
        }
      ],
      "stateMutability": "view",
      "type": "function"
    },
    {
      "inputs": [],
      "name": "wstUSR_USD_PRICE",
      "outputs": [
        {
          "internalType": "uint256",
          "name": "",
          "type": "uint256"
        }
      ],
      "stateMutability": "view",
      "type": "function"
    }
  ],
  "bytecode": "0x60a060405234801561000f575f80fd5b5030608052608051613c946100645f395f81816106e001528181611488015281816116090152818161191f01528181611a0201528181611ba201528181611eec015281816127100152612a6b0152613c945ff3fe608060405234801561000f575f80fd5b5060043610610371575f3560e01c80637aadef8b116101d4578063aa98df3911610109578063c60dc265116100a9578063f6370aa911610079578063f6370aa914610730578063f88ed60c1461073a578063fb0ae91814610755578063fcee0c9814610768575f80fd5b8063c60dc265146106c8578063cc025f7c146106db578063e6bd26a214610702578063f53eddcc14610715575f80fd5b8063b753428b116100e4578063b753428b1461039b578063b788f3a114610692578063bc3301a8146103a3578063bffa7f0f146106ad575f80fd5b8063aa98df3914610677578063ae68032b1461068a578063b6966495146104da575f80fd5b80639781a8ca116101745780639ef947371161014f5780639ef947371461061a578063a5caf0f614610632578063a64f569314610654578063a90558361461066f575f80fd5b80639781a8ca146105e257806397b87b4a146105ec5780639d3d2a7814610607575f80fd5b8063841d2699116101af578063841d26991461058f57806395861bd7146105a257806396bac931146105bd57806396db7d5c146105d8575f80fd5b80637aadef8b146105515780637e2f35fa1461056c57806383f5d77a14610587575f80fd5b806328787d00116102aa578063623007321161024a57806366760d7d1161022557806366760d7d146103c85780636dc0ae22146105195780637000778e14610534578063798d5ba31461053e575f80fd5b806362300732146104fd57806364e9d567146105075780636521e19f1461050f575f80fd5b806348bbb5571161028557806348bbb557146104a4578063588c77e6146104bf57806358f2552e146104da57806361461954146104f5575f80fd5b806328787d001461039b5780632d2c55651461047f5780633484818b1461049a575f80fd5b806311ae7a1411610315578063194c0e18116102f0578063194c0e18146104375780631bbc51a71461044157806325ad7f4d146104495780632861c7d114610464575f80fd5b806311ae7a14146103fd57806312e366aa146104055780631392d4ee14610418575f80fd5b80630b396e66116103505780630b396e66146103a35780630bc9136e146103ad5780630e6a204c146103b5578063103f2907146103ca575f80fd5b8062623d7d146103755780630251eb1114610391578063040e7a801461039b575b5f80fd5b61037e61014c81565b6040519081526020015b60405180910390f35b61037e620474a081565b61037e606481565b61037e62048c1081565b61037e607181565b6103c86103c336600461340b565b610783565b005b6103e573324c5dc1fc42c7a4d43d92df1eba58a54d13bf2d81565b6040516001600160a01b039091168152602001610388565b61037e607881565b6103e561041336600461342d565b610800565b5f5465010000000000900460ff165b6040519015158152602001610388565b61037e62053fc081565b61037e606e81565b6103e5739efde135ca4832abf0408c44c6f5f370eb0f35e881565b6103e57352aa899454998be5b000ad077a46bbe360f4e49781565b6103e57328849d2b63fa8d361e5fc15cb8abb13019884d0981565b61037e62062e0881565b6103e573e7eb63a8b6392481a9fdebb108cfd580dc8664d381565b6103e5735c43aac965ff230ac1cf63e924d0153291d78bad81565b6103e573264786ef916af64a1db19f513f24a3681734ce9281565b6103c861087b565b61037e62043df081565b61037e606c81565b61037e620493e081565b6103e5730204cd037b2ec03605cfdfe482d8e257c765fa1b81565b61037e62062a2081565b6103c861054c366004613444565b6108ad565b6103e5732386dc45added673317ef068992f19421b481f4c81565b6103e573059a94a72951c0ae1cc1ce3bf0db52421bbe821081565b61037e607e81565b6103e561059d36600461342d565b610966565b6103e573a0d3707c569ff8c87fa923d3823ec5d81c98be7881565b6103e57354b91a0d94cb471f37f949c60f7fa7935b551d0381565b61037e6204a38081565b61037e628339c081565b6103e57391716c4eda1fb55e84bf8b4c7085f84285c1908581565b61037e6106153660046134c7565b6109a0565b5f5460405164ffffffffff9091168152602001610388565b61042761064036600461342d565b5f9081526001602052604090205460ff1690565b6103e57397b0b3a8bdefe8cb9563a3c610019ad10db8ad1181565b61037e607281565b6103c8610685366004613553565b6111be565b61037e607081565b6103e5734f6f977acdd1177dcd81ab83074855ecb9c2d49e81565b6103e573a45f7bd6a5ff45d31aace6bcd3d426d9328cea0181565b6103e56106d63660046135e2565b611672565b6103e57f000000000000000000000000000000000000000000000000000000000000000081565b6103e561071036600461342d565b611760565b6103e573e57227c7d5900165344b190fc7aa580bceb53b9b81565b61037e6204a76881565b6103e5733daff61fe5cfb1f1b4ea7fba8173a58532ef184181565b6103c86107633660046135fd565b61179a565b6103e5731e2e1aed876f67fe4fd54090fd7b8f57ce23421981565b33734f6f977acdd1177dcd81ab83074855ecb9c2d49e146107df5760405162461bcd60e51b81526020600482015260116024820152706e6f742d7465616d2d6d756c746973696760781b60448201526064015b60405180910390fd5b5f8054911515650100000000000265ff000000000019909216919091179055565b604051630971b35560e11b8152600481018290525f907391716c4eda1fb55e84bf8b4c7085f84285c19085906312e366aa906024015b602060405180830381865afa158015610851573d5f803e3d5ffd5b505050506040513d601f19601f820116820180604052508101906108759190613621565b92915050565b6108836118c7565b61088b6119e9565b610893611b89565b61089b611ed3565b6108a36126f8565b6108ab612a52565b565b33734f6f977acdd1177dcd81ab83074855ecb9c2d49e146109045760405162461bcd60e51b81526020600482015260116024820152706e6f742d7465616d2d6d756c746973696760781b60448201526064016107d6565b5f5b81811015610961576001805f8585858181106109245761092461363c565b9050602002013581526020019081526020015f205f6101000a81548160ff021916908315150217905550808061095990613664565b915050610906565b505050565b60405163841d269960e01b8152600481018290525f9073e57227c7d5900165344b190fc7aa580bceb53b9b9063841d269990602401610836565b5f80841180156109af57505f83115b156109fc5760405162461bcd60e51b815260206004820181905260248201527f626f74682075736420616e6420616d6f756e7420617265206e6f74207a65726f60448201526064016107d6565b604080516001600160a01b03871660208083019190915260058284015282518083038401815260608301938490528051910120632d71cdb960e21b90925260648101919091525f907352aa899454998be5b000ad077a46bbe360f4e4979063b5c736e490608401602060405180830381865afa158015610a7e573d5f803e3d5ffd5b505050506040513d601f19601f82011682018060405250810190610aa2919061367c565b90505f80610aaf83612b60565b90925090505f601273eeeeeeeeeeeeeeeeeeeeeeeeeeeeeeeeeeeeeeed196001600160a01b038b1601610aea575062043df09050601261113f565b737f39c581f595b53c5cb19bd0b3f8da6c935e2c9f196001600160a01b038b1601610b1d575062053fc09050601261113f565b73cd5fe23c85820f7b72d0926fc9b05b43e359b7ed196001600160a01b038b1601610b5057506204a7689050601261113f565b73a1290d69c65a6fe4df752f95823fae25cb99e5a6196001600160a01b038b1601610b83575062048c109050601261113f565b73917cee801a67f933f2e6b33fc0cd1ed2d5909d87196001600160a01b038b1601610bb65750620474a09050601261113f565b73d5f7838f5c461feff7fe49ea5ebaf7728bb0adf9196001600160a01b038b1601610be957506204a3809050601261113f565b73bf5495efe5db9ce00f80364c8b423567e58d210f196001600160a01b038b1601610c1c5750620493e09050601261113f565b73f1c9acdc66974dfb6decb12aa385b9cd01190e37196001600160a01b038b1601610c4f575062048c109050601261113f565b6001600160a01b038a1673cbb7c0000ab88b473b1f5afd9ef808440eed33bf1480610c9657506001600160a01b038a16732260fac5e5542a773aa44fbcfedf7c193bc2c599145b80610cbd57506001600160a01b038a1673657e8c867d8b37dcc18fa4caead9c45eb088c642145b80610ce457506001600160a01b038a16738236a87084f8b84306f72007f36f2618a5634494145b15610cf75750628339c09050600861113f565b7318084fba666a33d37592fa2633fd49a74dd93a87196001600160a01b038b1601610d2a5750628339c09050601261113f565b6001600160a01b038a1673a0b86991c6218b36c1d19d4a2e9eb0ce3606eb481480610d7157506001600160a01b038a1673dac17f958d2ee523a2206206994597c13d831ec7145b15610d82575060649050600661113f565b739d39a5de30e57443bff2a8307a4256c8797a3496196001600160a01b038b1601610db3575060789050601261113f565b73a3931d71877c0e7a3148cb7eb4463524fec27fbc196001600160a01b038b1601610de45750606c9050601261113f565b73356b8d89c1e1239cbbb9de4815c39a1474d5ba7c196001600160a01b038b1601610e155750606e9050600661113f565b7380ac24aa929eaf5013f6436cda2a7ba190f5cc0a196001600160a01b038b1601610e46575060729050600661113f565b73c58d044404d8b14e953c115e67823784dea53d8e196001600160a01b038b1601610e77575060649050601261113f565b733d7d6fdf07ee548b939a80edbc9b2256d0cdc002196001600160a01b038b1601610ea8575060649050601261113f565b6001600160a01b038a167340d16fc0246ad3160ccc09b8d0d3a2cd28ae6c2f1480610eef57506001600160a01b038a16734c9edd5852cd905f086c759e8383e09bff1e68b3145b80610f1657506001600160a01b038a167315700b564ca08d9439c58ca5053166e8317aa138145b80610f3d57506001600160a01b038a167366a1e37c9b0eaddca17d3662d6c05f4decf3e110145b80610f6457506001600160a01b038a167373a15fed60bf67631dc6cd7bc5b6e8da8190acf5145b80610f8b57506001600160a01b038a1673085780639cc2cacd35e474e71f4d000e2405d8f6145b80610fb257506001600160a01b038a1673b01dd87b29d187f3e3a4bf6cdaebfb97f3d9ab98145b80610fd957506001600160a01b038a167348f9e38f3070ad8945dfeae3fa70987722e3d89c145b8061100057506001600160a01b038a1673c139190f447e929f090edeb554d95abb8b18ac1c145b15611011575060649050601261113f565b736f40d4a6237c257fff2db00fa0510deeecd303ea196001600160a01b038b1601611043575061014c9050601261113f565b731202f5c7b4b9e47a1a484e8b270be34dbbc75054196001600160a01b038b1601611074575060709050601261113f565b734956b52ae2ff65d74ca2d61207523288e4528f95196001600160a01b038b16016110a55750607e9050601261113f565b7368749665ff8d2d112fa859aa293f07a622782f37196001600160a01b038b16016110d8575062062a209050600661113f565b7345804880de22913dafe09f4980848ece6ecbaf77196001600160a01b038b160161110b575062062e089050601261113f565b60405162461bcd60e51b81526020600482015260096024820152681b9bdd0b599bdd5b9960ba1b60448201526064016107d6565b5f8761114b578361114d565b845b9050891561117c57806111658b64e8d4a51000613693565b61116f91906136be565b96505050505050506111b6565b60646111888285613693565b61119291906136be565b61119d83600a6137bd565b6111ac8b64e8d4a51000613693565b6111659190613693565b949350505050565b3373a45f7bd6a5ff45d31aace6bcd3d426d9328cea0114806111f3575033734f6f977acdd1177dcd81ab83074855ecb9c2d49e145b8061121157503073059a94a72951c0ae1cc1ce3bf0db52421bbe8210145b8061122f575030739efde135ca4832abf0408c44c6f5f370eb0f35e8145b8061124d575030735c43aac965ff230ac1cf63e924d0153291d78bad145b8061126b575030733daff61fe5cfb1f1b4ea7fba8173a58532ef1841145b8061128957503073e7eb63a8b6392481a9fdebb108cfd580dc8664d3145b6112ce5760405162461bcd60e51b81526020600482015260166024820152751b5cd9cb9cd95b99195c8b5b9bdd0b585b1b1bddd95960521b60448201526064016107d6565b6040805160018082528183019092525f9082602080830190803683370190505090505f8267ffffffffffffffff81111561130a5761130a61350e565b604051908082528060200260200182016040528015611333578160200160208202803683370190505b5090505f8367ffffffffffffffff8111156113505761135061350e565b60405190808252806020026020018201604052801561138357816020015b606081526020019060019003908161136e5790505b5090505f8467ffffffffffffffff8111156113a0576113a061350e565b6040519080825280602002602001820160405280156113d357816020015b60608152602001906001900390816113be5790505b509050732386dc45added673317ef068992f19421b481f4c845f815181106113fd576113fd61363c565b60200260200101906001600160a01b031690816001600160a01b0316815250505f835f815181106114305761143061363c565b602002602001018181525050604051806060016040528060248152602001613c3b60249139825f815181106114675761146761363c565b602090810291909101810191909152604080515f815291820181526114af917f000000000000000000000000000000000000000000000000000000000000000091810161380b565b604051602081830303815290604052815f815181106114d0576114d061363c565b6020908102919091010152604051636d4ab48d60e11b81525f90730204cd037b2ec03605cfdfe482d8e257c765fa1b9063da95691a9061151c9088908890889088908e906004016138d7565b6020604051808303815f875af1158015611538573d5f803e3d5ffd5b505050506040513d601f19601f8201168201806040525081019061155c919061367c565b9050607181146115a55760405162461bcd60e51b815260206004820152601460248201527350524f504f53414c5f49535f4e4f545f53414d4560601b60448201526064016107d6565b3373a45f7bd6a5ff45d31aace6bcd3d426d9328cea0114806115da575033734f6f977acdd1177dcd81ab83074855ecb9c2d49e145b156115ed576115e84261179a565b611669565b604051631f615d2360e31b815264ffffffffff421660048201527f00000000000000000000000000000000000000000000000000000000000000006001600160a01b03169063fb0ae918906024015f604051808303815f87803b158015611652575f80fd5b505af1158015611664573d5f803e3d5ffd5b505050505b50505050505050565b5f73c02aaa39b223fe8d0a0e5c4f27ead9083c756cc1196001600160a01b03831601611701576040805163bb4a64d360e01b81526001600160a01b03841660048201526024810191909152601060448201526f4e6174697665556e6465726c79696e6760801b60648201527354b91a0d94cb471f37f949c60f7fa7935b551d039063bb4a64d390608401610836565b6040805163bb4a64d360e01b81526001600160a01b038416600482015260248101919091526006604482015265332a37b5b2b760d11b60648201527354b91a0d94cb471f37f949c60f7fa7935b551d039063bb4a64d390608401610836565b60405163735e935160e11b8152600481018290525f9073324c5dc1fc42c7a4d43d92df1eba58a54d13bf2d9063e6bd26a290602401610836565b3373a45f7bd6a5ff45d31aace6bcd3d426d9328cea0114806117cf575033734f6f977acdd1177dcd81ab83074855ecb9c2d49e145b806117ed57503373059a94a72951c0ae1cc1ce3bf0db52421bbe8210145b8061180b575033739efde135ca4832abf0408c44c6f5f370eb0f35e8145b80611829575033735c43aac965ff230ac1cf63e924d0153291d78bad145b80611847575033733daff61fe5cfb1f1b4ea7fba8173a58532ef1841145b8061186557503373e7eb63a8b6392481a9fdebb108cfd580dc8664d3145b6118aa5760405162461bcd60e51b81526020600482015260166024820152751b5cd9cb9cd95b99195c8b5b9bdd0b585b1b1bddd95960521b60448201526064016107d6565b5f805464ffffffffff191664ffffffffff92909216919091179055565b30732386dc45added673317ef068992f19421b481f4c1461191d5760405162461bcd60e51b815260206004820152601060248201526f3737ba16bb30b634b216b1b0b63632b960811b60448201526064016107d6565b7f00000000000000000000000000000000000000000000000000000000000000006001600160a01b0316631392d4ee6040518163ffffffff1660e01b8152600401602060405180830381865afa158015611979573d5f803e3d5ffd5b505050506040513d601f19601f8201168201806040525081019061199d9190613975565b6108ab5760405162461bcd60e51b815260206004820152601760248201527f70726f706f73616c2d6e6f742d65786563757461626c6500000000000000000060448201526064016107d6565b6040516352e5787b60e11b8152600160048201819052907f00000000000000000000000000000000000000000000000000000000000000006001600160a01b03169063a5caf0f690602401602060405180830381865afa158015611a4f573d5f803e3d5ffd5b505050506040513d601f19601f82011682018060405250810190611a739190613975565b611b86575f611a826009610800565b604051630f18fc2760e31b8152909150738eae5474c3dfe2c5f07e7423019e443258a731009073d43d85f4f4eedda3ed3bbe2ca7351ee32b8bb44a907391716c4eda1fb55e84bf8b4c7085f84285c19085906378c7e13890611aec90869086905f90600401613990565b5f604051808303815f87803b158015611b03575f80fd5b505af1158015611b15573d5f803e3d5ffd5b5050604051630f18fc2760e31b81527391716c4eda1fb55e84bf8b4c7085f84285c1908592506378c7e1389150611b559086908590600190600401613990565b5f604051808303815f87803b158015611b6c575f80fd5b505af1158015611b7e573d5f803e3d5ffd5b505050505050505b50565b6040516352e5787b60e11b8152600260048201819052907f00000000000000000000000000000000000000000000000000000000000000006001600160a01b03169063a5caf0f690602401602060405180830381865afa158015611bef573d5f803e3d5ffd5b505050506040513d601f19601f82011682018060405250810190611c139190613975565b611b86576040516311272db960e31b8152736967e68f7f9b3921181f27e66aa9c3ac7e13dbc0600482018190529073f1167f851509ca5ef56f8521fb1ee07e4e5c92c8905f907352aa899454998be5b000ad077a46bbe360f4e497906389396dc8906024015f60405180830381865afa158015611c92573d5f803e3d5ffd5b505050506040513d5f823e601f3d908101601f19168201604052611cb991908101906139b4565b60405163110bad1960e11b81526001600160a01b03851660048201529091507352aa899454998be5b000ad077a46bbe360f4e497906322175a32906024015f604051808303815f87803b158015611d0e575f80fd5b505af1158015611d20573d5f803e3d5ffd5b50506040516378600da160e11b81527352aa899454998be5b000ad077a46bbe360f4e497925063f0c01b429150611d5d9085908590600401613a62565b5f604051808303815f87803b158015611d74575f80fd5b505af1158015611d86573d5f803e3d5ffd5b50506040516311272db960e31b815273c3800e7527145837e525cfa6ad96b6b5dae015866004820181905295507353effa0e612d88f39ab32eb5274f2fae478d261c94505f93507352aa899454998be5b000ad077a46bbe360f4e49792506389396dc891506024015f60405180830381865afa158015611e08573d5f803e3d5ffd5b505050506040513d5f823e601f3d908101601f19168201604052611e2f91908101906139b4565b60405163110bad1960e11b81526001600160a01b03851660048201529091507352aa899454998be5b000ad077a46bbe360f4e497906322175a32906024015f604051808303815f87803b158015611e84575f80fd5b505af1158015611e96573d5f803e3d5ffd5b50506040516378600da160e11b81527352aa899454998be5b000ad077a46bbe360f4e497925063f0c01b429150611b559085908590600401613a62565b6040516352e5787b60e11b8152600360048201819052907f00000000000000000000000000000000000000000000000000000000000000006001600160a01b03169063a5caf0f690602401602060405180830381865afa158015611f39573d5f803e3d5ffd5b505050506040513d601f19601f82011682018060405250810190611f5d9190613975565b611b86575f611f6c602b610800565b60408051610100810182526001600160a01b038316815273f1c9acdc66974dfb6decb12aa385b9cd01190e38602082015273eeeeeeeeeeeeeeeeeeeeeeeeeeeeeeeeeeeeeeee91810191909152600160608201525f6080820181905261271060a083015260c0820181905260e0820152909150611fe881612d55565b604051630f18fc2760e31b81527391716c4eda1fb55e84bf8b4c7085f84285c19085906378c7e13890612038908590734f6f977acdd1177dcd81ab83074855ecb9c2d49e90600190600401613990565b5f604051808303815f87803b15801561204f575f80fd5b505af1158015612061573d5f803e3d5ffd5b50505050505f6120716099611760565b90505f6040518060e00160405280836001600160a01b031681526020015f60038111156120a0576120a0613ac1565b815273f1c9acdc66974dfb6decb12aa385b9cd01190e38602082015273a0b86991c6218b36c1d19d4a2e9eb0ce3606eb486040820152611b5860608201819052608082015261232860a09091015290506120f981612eb8565b604051637faa1d2160e01b815273324c5dc1fc42c7a4d43d92df1eba58a54d13bf2d90637faa1d2190612149908590734f6f977acdd1177dcd81ab83074855ecb9c2d49e90600190600401613990565b5f604051808303815f87803b158015612160575f80fd5b505af1158015612172573d5f803e3d5ffd5b5050505050505f612183609a611760565b90505f6040518060e00160405280836001600160a01b031681526020015f60038111156121b2576121b2613ac1565b815273f1c9acdc66974dfb6decb12aa385b9cd01190e38602082015273dac17f958d2ee523a2206206994597c13d831ec76040820152611b5860608201819052608082015261232860a090910152905061220b81612eb8565b604051637faa1d2160e01b815273324c5dc1fc42c7a4d43d92df1eba58a54d13bf2d90637faa1d219061225b908590734f6f977acdd1177dcd81ab83074855ecb9c2d49e90600190600401613990565b5f604051808303815f87803b158015612272575f80fd5b505af1158015612284573d5f803e3d5ffd5b5050505050505f612295609b611760565b90505f6040518060e00160405280836001600160a01b031681526020015f60038111156122c4576122c4613ac1565b815273f1c9acdc66974dfb6decb12aa385b9cd01190e3860208201527340d16fc0246ad3160ccc09b8d0d3a2cd28ae6c2f6040820152611b5860608201819052608082015261232860a090910152905061231d81612eb8565b604051637faa1d2160e01b815273324c5dc1fc42c7a4d43d92df1eba58a54d13bf2d90637faa1d219061236d908590734f6f977acdd1177dcd81ab83074855ecb9c2d49e90600190600401613990565b5f604051808303815f87803b158015612384575f80fd5b505af1158015612396573d5f803e3d5ffd5b5050505050505f6123a7609c611760565b90505f6123b46002610800565b90505f6040518060e00160405280846001600160a01b03168152602001600260038111156123e4576123e4613ac1565b815273f1c9acdc66974dfb6decb12aa385b9cd01190e3860208201525f60408201819052611b5860608301526080820181905260a090910152905061242881612eb8565b604051637faa1d2160e01b815273324c5dc1fc42c7a4d43d92df1eba58a54d13bf2d90637faa1d2190612478908690734f6f977acdd1177dcd81ab83074855ecb9c2d49e90600190600401613990565b5f604051808303815f87803b15801561248f575f80fd5b505af11580156124a1573d5f803e3d5ffd5b50505050505f6040518060c00160405280836001600160a01b03168152602001846001600160a01b03168152602001610bb88152602001615460815260200168bdbc41e0348b300000815260200168f3f20b8dfa69d00000815250905061250781613080565b5050505f612515609d611760565b90505f6125226022610800565b90505f6040518060e00160405280846001600160a01b031681526020016002600381111561255257612552613ac1565b815273f1c9acdc66974dfb6decb12aa385b9cd01190e3860208201525f60408201819052611b5860608301526080820181905260a090910152905061259681612eb8565b604051637faa1d2160e01b815273324c5dc1fc42c7a4d43d92df1eba58a54d13bf2d90637faa1d21906125e6908690734f6f977acdd1177dcd81ab83074855ecb9c2d49e90600190600401613990565b5f604051808303815f87803b1580156125fd575f80fd5b505af115801561260f573d5f803e3d5ffd5b50505050505f6040518060c00160405280836001600160a01b03168152602001846001600160a01b03168152602001610bb88152602001615460815260200168bdbc41e0348b300000815260200168f3f20b8dfa69d00000815250905061267581613080565b5050505f612683609e611760565b90505f6126906001610800565b90505f6040518060c00160405280836001600160a01b03168152602001846001600160a01b03168152602001610bb881526020016154608152602001670de0b6b3a764000081526020016714d1120d7b16000081525090506126f181613080565b5050505050565b6040516352e5787b60e11b81526004808201819052907f00000000000000000000000000000000000000000000000000000000000000006001600160a01b03169063a5caf0f690602401602060405180830381865afa15801561275d573d5f803e3d5ffd5b505050506040513d601f19601f820116820180604052508101906127819190613975565b611b86576040805160608101825273eeeeeeeeeeeeeeeeeeeeeeeeeeeeeeeeeeeeeeee815273a0b86991c6218b36c1d19d4a2e9eb0ce3606eb4860208083019190915273dac17f958d2ee523a2206206994597c13d831ec7828401528251808401909352734e42f9e626facddd97edfa537aa52c5024448625835273e3b7e3f4da603fc40fd889cabdee30a4cf15dd3490830152905f5b60028110156128d1575f5b60038110156128be575f6040518060c0016040528085856002811061284a5761284a61363c565b60200201516001600160a01b0316815260200186846003811061286f5761286f61363c565b60200201516001600160a01b03168152602001610bb881526020016154608152602001611388815260200161271081525090506128ab816131a2565b50806128b681613664565b915050612823565b50806128c981613664565b915050612818565b50506040805160a08101825273eeeeeeeeeeeeeeeeeeeeeeeeeeeeeeeeeeeeeeee815273a0b86991c6218b36c1d19d4a2e9eb0ce3606eb4860208083019190915273dac17f958d2ee523a2206206994597c13d831ec78284015273cbb7c0000ab88b473b1f5afd9ef808440eed33bf6060830152732260fac5e5542a773aa44fbcfedf7c193bc2c59960808301528251808401909352734e42f9e626facddd97edfa537aa52c5024448625835273e3b7e3f4da603fc40fd889cabdee30a4cf15dd349083015291505f5b6002811015612a4c575f5b6005811015612a39575f6040518060a001604052808585600281106129cd576129cd61363c565b60200201516001600160a01b031681526020018684600581106129f2576129f261363c565b60200201516001600160a01b03168152602001611388815260200161546081526020016127108152509050612a26816132ec565b5080612a3181613664565b9150506129a6565b5080612a4481613664565b91505061299b565b50505050565b6040516352e5787b60e11b8152600560048201819052907f00000000000000000000000000000000000000000000000000000000000000006001600160a01b03169063a5caf0f690602401602060405180830381865afa158015612ab8573d5f803e3d5ffd5b505050506040513d601f19601f82011682018060405250810190612adc9190613975565b611b86575f612aeb6061611760565b90505f6040518060e00160405280836001600160a01b0316815260200160016003811115612b1b57612b1b613ac1565b81525f60208201819052732260fac5e5542a773aa44fbcfedf7c193bc2c59960408301526060820152624c4b406080820181905260a090910152905061096181612eb8565b67ffffffffffffffff605b82901c811690609b83901c16811580612b82575080155b15612ba557604051636a86ba8960e11b81526201117160048201526024016107d6565b61ffff8316603a84901c6401ffffffff16428181039160ea87901c617fff16911480612bcf575082155b80612bda5750806001145b15612be757505050915091565b64496cebb80084840283020484019350617fff60db87901c16925082600103612c1257505050915091565b82600116600103612c675760019290921c91826c7e37be2022c0914b268000000081612c4057612c406136aa565b049250612710601e87901c613fff166b033b2e3c9fd0803ce8000000850102049250612c94565b60019290921c916305f5e100601e87901c613fff166127108501026b033b2e3c9fd0803ce8000000020492505b80600116600103612ccb5760011c61271081016b033b2e3c9fd0803ce8000000820281612cc357612cc36136aa565b049050612d01565b60011c61271081016b033b2e3c9fd0803ce8000000820281612cef57612cef6136aa565b046b033b2e3c9fd0803ce80000000390505b760a70c3c40a64e6c51999090b65f67d92400000000000008382026127100261ffff881691900402601087901c613fff16612710030292506801b5a660ea44b8000085840283020485019450505050915091565b806060015115612dfe575f6040518060a00160405280835f01516001600160a01b0316815260200183602001516001600160a01b031681526020016113888152602001610e1081526020018360a001518152509050612db3816132ec565b6040805160a0808201835284516001600160a01b0390811683528584015116602083015261138892820192909252610e106060820152908301516080820152612dfb816132ec565b50505b806080015115611b86575f6040518060c00160405280835f01516001600160a01b0316815260200183602001516001600160a01b031681526020016113888152602001610e1081526020018360c0015181526020018360e001518152509050612e66816131a2565b6040805160c0808201835284516001600160a01b0390811683528584015116602083015261138892820192909252610e10606082015290830151608082015260e083015160a0820152610961816131a2565b5f81602001516003811115612ecf57612ecf613ac1565b03612f1e576040805160a08101825282516001600160a01b0390811682528383015116602082015261138891810191909152615460606082015260808083015190820152612f1c816132ec565b505b5f81602001516003811115612f3557612f35613ac1565b03612f9a575f6040518060c00160405280835f01516001600160a01b0316815260200183606001516001600160a01b03168152602001611388815260200161546081526020018360a0015181526020018360c001518152509050612f98816131a2565b505b600181602001516003811115612fb257612fb2613ac1565b03613017575f6040518060c00160405280835f01516001600160a01b0316815260200183606001516001600160a01b03168152602001610bb8815260200161546081526020018360a0015181526020018360c001518152509050613015816131a2565b505b60028160200151600381111561302f5761302f613ac1565b03611b86576040805160a08101825282516001600160a01b03908116825283830151166020820152610dac9181019190915261546060608201526080808301519082015261307c816132ec565b5050565b6040805160018082528183019092525f91816020015b6130cc6040518060a001604052805f6001600160a01b031681526020015f81526020015f81526020015f81526020015f81525090565b8152602001906001900390816130965790505090506040518060a0016040528083602001516001600160a01b031681526020018360400151815260200183606001518152602001836080015181526020018360a00151815250815f815181106131375761313761363c565b6020908102919091010152815160405163ba9af1e360e01b81526001600160a01b039091169063ba9af1e390613171908490600401613ad5565b5f604051808303815f87803b158015613188575f80fd5b505af115801561319a573d5f803e3d5ffd5b505050505050565b6040805160018082528183019092525f91816020015b6132066040518060e001604052805f6001600160a01b031681526020015f6001600160a01b031681526020015f60ff1681526020015f81526020015f81526020015f81526020015f81525090565b8152602001906001900390816131b85790505090506040518060e00160405280835f01516001600160a01b0316815260200183602001516001600160a01b03168152602001600160ff168152602001836040015181526020018360600151815260200161327d84602001515f86608001515f6109a0565b815260200161329684602001515f8660a001515f6109a0565b815250815f815181106132ab576132ab61363c565b602090810291909101015260405162dc47c360e11b81527352aa899454998be5b000ad077a46bbe360f4e497906301b88f8690613171908490600401613b3e565b6040805160018082528183019092525f91816020015b6040805160c0810182525f8082526020808301829052928201819052606082018190526080820181905260a082015282525f199092019101816133025790505090506040518060c00160405280835f01516001600160a01b0316815260200183602001516001600160a01b03168152602001600160ff16815260200183604001518152602001836060015181526020016133a784602001515f866080015160016109a0565b815250815f815181106133bc576133bc61363c565b60209081029190910101526040516301635db560e11b81527352aa899454998be5b000ad077a46bbe360f4e497906302c6bb6a90613171908490600401613bc1565b8015158114611b86575f80fd5b5f6020828403121561341b575f80fd5b8135613426816133fe565b9392505050565b5f6020828403121561343d575f80fd5b5035919050565b5f8060208385031215613455575f80fd5b823567ffffffffffffffff8082111561346c575f80fd5b818501915085601f83011261347f575f80fd5b81358181111561348d575f80fd5b8660208260051b85010111156134a1575f80fd5b60209290920196919550909350505050565b6001600160a01b0381168114611b86575f80fd5b5f805f80608085870312156134da575f80fd5b84356134e5816134b3565b935060208501359250604085013591506060850135613503816133fe565b939692955090935050565b634e487b7160e01b5f52604160045260245ffd5b604051601f8201601f1916810167ffffffffffffffff8111828210171561354b5761354b61350e565b604052919050565b5f6020808385031215613564575f80fd5b823567ffffffffffffffff8082111561357b575f80fd5b818501915085601f83011261358e575f80fd5b8135818111156135a0576135a061350e565b6135b2601f8201601f19168501613522565b915080825286848285010111156135c7575f80fd5b80848401858401375f90820190930192909252509392505050565b5f602082840312156135f2575f80fd5b8135613426816134b3565b5f6020828403121561360d575f80fd5b813564ffffffffff81168114613426575f80fd5b5f60208284031215613631575f80fd5b8151613426816134b3565b634e487b7160e01b5f52603260045260245ffd5b634e487b7160e01b5f52601160045260245ffd5b5f6001820161367557613675613650565b5060010190565b5f6020828403121561368c575f80fd5b5051919050565b808202811582820484141761087557610875613650565b634e487b7160e01b5f52601260045260245ffd5b5f826136d857634e487b7160e01b5f52601260045260245ffd5b500490565b600181815b8085111561371757815f19048211156136fd576136fd613650565b8085161561370a57918102915b93841c93908002906136e2565b509250929050565b5f8261372d57506001610875565b8161373957505f610875565b816001811461374f576002811461375957613775565b6001915050610875565b60ff84111561376a5761376a613650565b50506001821b610875565b5060208310610133831016604e8410600b8410161715613798575081810a610875565b6137a283836136dd565b805f19048211156137b5576137b5613650565b029392505050565b5f613426838361371f565b5f81518084525f5b818110156137ec576020818501810151868301820152016137d0565b505f602082860101526020601f19601f83011685010191505092915050565b60018060a01b038316815260606020820152600960608201526865786563757465282960b81b608082015260a060408201525f6111b660a08301846137c8565b5f8151808452602080850194508084015f5b838110156138795781518752958201959082019060010161385d565b509495945050505050565b5f81518084526020808501808196508360051b810191508286015f5b858110156138ca5782840389526138b88483516137c8565b988501989350908401906001016138a0565b5091979650505050505050565b60a080825286519082018190525f9060209060c0840190828a01845b828110156139185781516001600160a01b0316845292840192908401906001016138f3565b5050508381038285015261392c818961384b565b91505082810360408401526139418187613884565b905082810360608401526139558186613884565b9050828103608084015261396981856137c8565b98975050505050505050565b5f60208284031215613985575f80fd5b8151613426816133fe565b6001600160a01b039384168152919092166020820152901515604082015260600190565b5f60208083850312156139c5575f80fd5b825167ffffffffffffffff808211156139dc575f80fd5b818501915085601f8301126139ef575f80fd5b815181811115613a0157613a0161350e565b8060051b9150613a12848301613522565b8181529183018401918481019088841115613a2b575f80fd5b938501935b8385101561396957845192506001600160e01b031983168314613a52575f8081fd5b8282529385019390850190613a30565b6001600160a01b03831681526040602080830182905283519183018290525f9184820191906060850190845b81811015613ab45784516001600160e01b03191683529383019391830191600101613a8e565b5090979650505050505050565b634e487b7160e01b5f52602160045260245ffd5b602080825282518282018190525f919060409081850190868401855b828110156138ca57815180516001600160a01b0316855286810151878601528581015186860152606080820151908601526080908101519085015260a09093019290850190600101613af1565b602080825282518282018190525f919060409081850190868401855b828110156138ca57815180516001600160a01b0390811686528782015116878601528581015160ff1686860152606080820151908601526080808201519086015260a0808201519086015260c0908101519085015260e09093019290850190600101613b5a565b602080825282518282018190525f919060409081850190868401855b828110156138ca57815180516001600160a01b0390811686528782015116878601528581015160ff1686860152606080820151908601526080808201519086015260a0908101519085015260c09093019290850190600101613bdd56fe657865637574655061796c6f616428616464726573732c737472696e672c627974657329a2646970667358221220a5eef68af3b8459846d35a115dd632d3c6111a45bbe2d36b90d6c0ca849bc11664736f6c63430008150033",
  "linkReferences": {},
  "deployedLinkReferences": {},
  "immutableReferences": {
    "1324": [
      {
        "length": 32,
        "start": 1760
      },
      {
        "length": 32,
        "start": 5256
      },
      {
        "length": 32,
        "start": 5641
      },
      {
        "length": 32,
        "start": 6431
      },
      {
        "length": 32,
        "start": 6658
      },
      {
        "length": 32,
        "start": 7074
      },
      {
        "length": 32,
        "start": 7916
      },
      {
        "length": 32,
        "start": 10000
      },
      {
        "length": 32,
        "start": 10859
      }
    ]
  },
  "inputSourceName": "project/contracts/payloads/IGP113/PayloadIGP113.sol",
  "buildInfoId": "solc-0_8_21-3782b851b6c69327a4fba2fe8f760be8ea3beccf"
}