{
  "_format": "hh3-artifact-1",
  "contractName": "PayloadIGP116",
  "sourceName": "contracts/payloads/IGP116/PayloadIGP116.sol",
  "abi": [
    {
      "inputs": [
        {
          "internalType": "uint256",
          "name": "errorId_",
          "type": "uint256"
        }
      ],
      "name": "FluidLiquidityCalcsError",
      "type": "error"
    },
    {
      "inputs": [],
      "name": "ADDRESS_THIS",
      "outputs": [
        {
          "internalType": "address",
          "name": "",
          "type": "address"
        }
      ],
      "stateMutability": "view",
      "type": "function"
    },
    {
      "inputs": [],
      "name": "BTC_USD_PRICE",
      "outputs": [
        {
          "internalType": "uint256",
          "name": "",
          "type": "uint256"
        }
      ],
      "stateMutability": "view",
      "type": "function"
    },
    {
      "inputs": [],
      "name": "DEX_FACTORY",
      "outputs": [
        {
          "internalType": "contract IFluidDexFactory",
          "name": "",
          "type": "address"
        }
      ],
      "stateMutability": "view",
      "type": "function"
    },
    {
      "inputs": [],
      "name": "DSA_CONNECTORS_V2",
      "outputs": [
        {
          "internalType": "contract IDSAConnectorsV2",
          "name": "",
          "type": "address"
        }
      ],
      "stateMutability": "view",
      "type": "function"
    },
    {
      "inputs": [],
      "name": "ETH_USD_PRICE",
      "outputs": [
        {
          "internalType": "uint256",
          "name": "",
          "type": "uint256"
        }
      ],
      "stateMutability": "view",
      "type": "function"
    },
    {
      "inputs": [],
      "name": "FLUID_RESERVE",
      "outputs": [
        {
          "internalType": "contract IFluidReserveContract",
          "name": "",
          "type": "address"
        }
      ],
      "stateMutability": "view",
      "type": "function"
    },
    {
      "inputs": [],
      "name": "FLUID_USD_PRICE",
      "outputs": [
        {
          "internalType": "uint256",
          "name": "",
          "type": "uint256"
        }
      ],
      "stateMutability": "view",
      "type": "function"
    },
    {
      "inputs": [],
      "name": "GOVERNOR",
      "outputs": [
        {
          "internalType": "contract IGovernorBravo",
          "name": "",
          "type": "address"
        }
      ],
      "stateMutability": "view",
      "type": "function"
    },
    {
      "inputs": [],
      "name": "IETHV2",
      "outputs": [
        {
          "internalType": "contract ILite",
          "name": "",
          "type": "address"
        }
      ],
      "stateMutability": "view",
      "type": "function"
    },
    {
      "inputs": [],
      "name": "JRUSDE_USD_PRICE",
      "outputs": [
        {
          "internalType": "uint256",
          "name": "",
          "type": "uint256"
        }
      ],
      "stateMutability": "view",
      "type": "function"
    },
    {
      "inputs": [],
      "name": "LENDING_FACTORY",
      "outputs": [
        {
          "internalType": "contract IFluidLendingFactory",
          "name": "",
          "type": "address"
        }
      ],
      "stateMutability": "view",
      "type": "function"
    },
    {
      "inputs": [],
      "name": "LIQUIDITY",
      "outputs": [
        {
          "internalType": "contract IFluidLiquidityAdmin",
          "name": "",
          "type": "address"
        }
      ],
      "stateMutability": "view",
      "type": "function"
    },
    {
      "inputs": [],
      "name": "OSETH_USD_PRICE",
      "outputs": [
        {
          "internalType": "uint256",
          "name": "",
          "type": "uint256"
        }
      ],
      "stateMutability": "view",
      "type": "function"
    },
    {
      "inputs": [],
      "name": "PAXG_USD_PRICE",
      "outputs": [
        {
          "internalType": "uint256",
          "name": "",
          "type": "uint256"
        }
      ],
      "stateMutability": "view",
      "type": "function"
    },
    {
      "inputs": [],
      "name": "PROPOSAL_ID",
      "outputs": [
        {
          "internalType": "uint256",
          "name": "",
          "type": "uint256"
        }
      ],
      "stateMutability": "view",
      "type": "function"
    },
    {
      "inputs": [],
      "name": "PROPOSER",
      "outputs": [
        {
          "internalType": "address",
          "name": "",
          "type": "address"
        }
      ],
      "stateMutability": "view",
      "type": "function"
    },
    {
      "inputs": [],
      "name": "PROPOSER_AVO_MULTISIG",
      "outputs": [
        {
          "internalType": "address",
          "name": "",
          "type": "address"
        }
      ],
      "stateMutability": "view",
      "type": "function"
    },
    {
      "inputs": [],
      "name": "PROPOSER_AVO_MULTISIG_2",
      "outputs": [
        {
          "internalType": "address",
          "name": "",
          "type": "address"
        }
      ],
      "stateMutability": "view",
      "type": "function"
    },
    {
      "inputs": [],
      "name": "PROPOSER_AVO_MULTISIG_3",
      "outputs": [
        {
          "internalType": "address",
          "name": "",
          "type": "address"
        }
      ],
      "stateMutability": "view",
      "type": "function"
    },
    {
      "inputs": [],
      "name": "PROPOSER_AVO_MULTISIG_4",
      "outputs": [
        {
          "internalType": "address",
          "name": "",
          "type": "address"
        }
      ],
      "stateMutability": "view",
      "type": "function"
    },
    {
      "inputs": [],
      "name": "PROPOSER_AVO_MULTISIG_5",
      "outputs": [
        {
          "internalType": "address",
          "name": "",
          "type": "address"
        }
      ],
      "stateMutability": "view",
      "type": "function"
    },
    {
      "inputs": [],
      "name": "RESERVE_CONTRACT_PROXY",
      "outputs": [
        {
          "internalType": "address",
          "name": "",
          "type": "address"
        }
      ],
      "stateMutability": "view",
      "type": "function"
    },
    {
      "inputs": [],
      "name": "RLP_USD_PRICE",
      "outputs": [
        {
          "internalType": "uint256",
          "name": "",
          "type": "uint256"
        }
      ],
      "stateMutability": "view",
      "type": "function"
    },
    {
      "inputs": [],
      "name": "SMART_LENDING_FACTORY",
      "outputs": [
        {
          "internalType": "contract IFluidSmartLendingFactory",
          "name": "",
          "type": "address"
        }
      ],
      "stateMutability": "view",
      "type": "function"
    },
    {
      "inputs": [],
      "name": "SRUSDE_USD_PRICE",
      "outputs": [
        {
          "internalType": "uint256",
          "name": "",
          "type": "uint256"
        }
      ],
      "stateMutability": "view",
      "type": "function"
    },
    {
      "inputs": [],
      "name": "STABLE_USD_PRICE",
      "outputs": [
        {
          "internalType": "uint256",
          "name": "",
          "type": "uint256"
        }
      ],
      "stateMutability": "view",
      "type": "function"
    },
    {
      "inputs": [],
      "name": "TEAM_MULTISIG",
      "outputs": [
        {
          "internalType": "address",
          "name": "",
          "type": "address"
        }
      ],
      "stateMutability": "view",
      "type": "function"
    },
    {
      "inputs": [],
      "name": "TEAM_MULTISIG_2",
      "outputs": [
        {
          "internalType": "address",
          "name": "",
          "type": "address"
        }
      ],
      "stateMutability": "view",
      "type": "function"
    },
    {
      "inputs": [],
      "name": "TIMELOCK",
      "outputs": [
        {
          "internalType": "contract ITimelock",
          "name": "",
          "type": "address"
        }
      ],
      "stateMutability": "view",
      "type": "function"
    },
    {
      "inputs": [],
      "name": "TREASURY",
      "outputs": [
        {
          "internalType": "contract IDSAV2",
          "name": "",
          "type": "address"
        }
      ],
      "stateMutability": "view",
      "type": "function"
    },
    {
      "inputs": [],
      "name": "VAULT_FACTORY",
      "outputs": [
        {
          "internalType": "contract IFluidVaultFactory",
          "name": "",
          "type": "address"
        }
      ],
      "stateMutability": "view",
      "type": "function"
    },
    {
      "inputs": [],
      "name": "XAUT_USD_PRICE",
      "outputs": [
        {
          "internalType": "uint256",
          "name": "",
          "type": "uint256"
        }
      ],
      "stateMutability": "view",
      "type": "function"
    },
    {
      "inputs": [
        {
          "internalType": "uint256",
          "name": "action_",
          "type": "uint256"
        }
      ],
      "name": "actionStatus",
      "outputs": [
        {
          "internalType": "bool",
          "name": "",
          "type": "bool"
        }
      ],
      "stateMutability": "view",
      "type": "function"
    },
    {
      "inputs": [],
      "name": "execute",
      "outputs": [],
      "stateMutability": "nonpayable",
      "type": "function"
    },
    {
      "inputs": [],
      "name": "ezETH_USD_PRICE",
      "outputs": [
        {
          "internalType": "uint256",
          "name": "",
          "type": "uint256"
        }
      ],
      "stateMutability": "view",
      "type": "function"
    },
    {
      "inputs": [
        {
          "internalType": "uint256",
          "name": "dexId_",
          "type": "uint256"
        }
      ],
      "name": "getDexAddress",
      "outputs": [
        {
          "internalType": "address",
          "name": "",
          "type": "address"
        }
      ],
      "stateMutability": "view",
      "type": "function"
    },
    {
      "inputs": [
        {
          "internalType": "address",
          "name": "token",
          "type": "address"
        }
      ],
      "name": "getFTokenAddress",
      "outputs": [
        {
          "internalType": "address",
          "name": "",
          "type": "address"
        }
      ],
      "stateMutability": "view",
      "type": "function"
    },
    {
      "inputs": [],
      "name": "getProposalCreationTime",
      "outputs": [
        {
          "internalType": "uint40",
          "name": "",
          "type": "uint40"
        }
      ],
      "stateMutability": "view",
      "type": "function"
    },
    {
      "inputs": [
        {
          "internalType": "address",
          "name": "token",
          "type": "address"
        },
        {
          "internalType": "uint256",
          "name": "amount",
          "type": "uint256"
        },
        {
          "internalType": "uint256",
          "name": "amountInUSD",
          "type": "uint256"
        },
        {
          "internalType": "bool",
          "name": "isSupply",
          "type": "bool"
        }
      ],
      "name": "getRawAmount",
      "outputs": [
        {
          "internalType": "uint256",
          "name": "",
          "type": "uint256"
        }
      ],
      "stateMutability": "view",
      "type": "function"
    },
    {
      "inputs": [
        {
          "internalType": "uint256",
          "name": "dexId_",
          "type": "uint256"
        }
      ],
      "name": "getSmartLendingAddress",
      "outputs": [
        {
          "internalType": "address",
          "name": "",
          "type": "address"
        }
      ],
      "stateMutability": "view",
      "type": "function"
    },
    {
      "inputs": [
        {
          "internalType": "uint256",
          "name": "vaultId_",
          "type": "uint256"
        }
      ],
      "name": "getVaultAddress",
      "outputs": [
        {
          "internalType": "address",
          "name": "",
          "type": "address"
        }
      ],
      "stateMutability": "view",
      "type": "function"
    },
    {
      "inputs": [],
      "name": "isProposalExecutable",
      "outputs": [
        {
          "internalType": "bool",
          "name": "",
          "type": "bool"
        }
      ],
      "stateMutability": "view",
      "type": "function"
    },
    {
      "inputs": [],
      "name": "mETH_USD_PRICE",
      "outputs": [
        {
          "internalType": "uint256",
          "name": "",
          "type": "uint256"
        }
      ],
      "stateMutability": "view",
      "type": "function"
    },
    {
      "inputs": [
        {
          "internalType": "string",
          "name": "description",
          "type": "string"
        }
      ],
      "name": "propose",
      "outputs": [],
      "stateMutability": "nonpayable",
      "type": "function"
    },
    {
      "inputs": [],
      "name": "rsETH_USD_PRICE",
      "outputs": [
        {
          "internalType": "uint256",
          "name": "",
          "type": "uint256"
        }
      ],
      "stateMutability": "view",
      "type": "function"
    },
    {
      "inputs": [],
      "name": "sUSDe_USD_PRICE",
      "outputs": [
        {
          "internalType": "uint256",
          "name": "",
          "type": "uint256"
        }
      ],
      "stateMutability": "view",
      "type": "function"
    },
    {
      "inputs": [],
      "name": "sUSDs_USD_PRICE",
      "outputs": [
        {
          "internalType": "uint256",
          "name": "",
          "type": "uint256"
        }
      ],
      "stateMutability": "view",
      "type": "function"
    },
    {
      "inputs": [
        {
          "internalType": "uint256[]",
          "name": "actionsToSkip_",
          "type": "uint256[]"
        }
      ],
      "name": "setActionsToSkip",
      "outputs": [],
      "stateMutability": "nonpayable",
      "type": "function"
    },
    {
      "inputs": [
        {
          "internalType": "uint40",
          "name": "proposalCreationTime_",
          "type": "uint40"
        }
      ],
      "name": "setProposalCreationTime",
      "outputs": [],
      "stateMutability": "nonpayable",
      "type": "function"
    },
    {
      "inputs": [],
      "name": "syrupUSDC_USD_PRICE",
      "outputs": [
        {
          "internalType": "uint256",
          "name": "",
          "type": "uint256"
        }
      ],
      "stateMutability": "view",
      "type": "function"
    },
    {
      "inputs": [],
      "name": "syrupUSDT_USD_PRICE",
      "outputs": [
        {
          "internalType": "uint256",
          "name": "",
          "type": "uint256"
        }
      ],
      "stateMutability": "view",
      "type": "function"
    },
    {
      "inputs": [
        {
          "internalType": "bool",
          "name": "isExecutable_",
          "type": "bool"
        }
      ],
      "name": "toggleExecutable",
      "outputs": [],
      "stateMutability": "nonpayable",
      "type": "function"
    },
    {
      "inputs": [],
      "name": "verifyProposal",
      "outputs": [],
      "stateMutability": "view",
      "type": "function"
    },
    {
      "inputs": [],
      "name": "weETH_USD_PRICE",
      "outputs": [
        {
          "internalType": "uint256",
          "name": "",
          "type": "uint256"
        }
      ],
      "stateMutability": "view",
      "type": "function"
    },
    {
      "inputs": [],
      "name": "weETHs_USD_PRICE",
      "outputs": [
        {
          "internalType": "uint256",
          "name": "",
          "type": "uint256"
        }
      ],
      "stateMutability": "view",
      "type": "function"
    },
    {
      "inputs": [],
      "name": "wstETH_USD_PRICE",
      "outputs": [
        {
          "internalType": "uint256",
          "name": "",
          "type": "uint256"
        }
      ],
      "stateMutability": "view",
      "type": "function"
    },
    {
      "inputs": [],
      "name": "wstUSR_USD_PRICE",
      "outputs": [
        {
          "internalType": "uint256",
          "name": "",
          "type": "uint256"
        }
      ],
      "stateMutability": "view",
      "type": "function"
    }
  ],
  "bytecode": "0x60a060405234801561000f575f80fd5b503060805260805161266a61004f5f395f81816106ea0152818161147a015281816115fb01528181611911015281816119f40152611c7f015261266a5ff3fe608060405234801561000f575f80fd5b5060043610610371575f3560e01c80637aadef8b116101d4578063aa98df3911610109578063c60dc265116100a9578063f6370aa911610079578063f6370aa91461073a578063f88ed60c14610744578063fb0ae9181461075f578063fcee0c9814610772575f80fd5b8063c60dc265146106d2578063cc025f7c146106e5578063e6bd26a21461070c578063f53eddcc1461071f575f80fd5b8063b753428b116100e4578063b753428b1461039b578063b788f3a114610692578063bc3301a8146106ad578063bffa7f0f146106b7575f80fd5b8063aa98df3914610677578063ae68032b1461068a578063b6966495146104da575f80fd5b80639781a8ca116101745780639ef947371161014f5780639ef947371461061a578063a5caf0f614610632578063a64f569314610654578063a90558361461066f575f80fd5b80639781a8ca146105e257806397b87b4a146105ec5780639d3d2a7814610607575f80fd5b8063841d2699116101af578063841d26991461058f57806395861bd7146105a257806396bac931146105bd57806396db7d5c146105d8575f80fd5b80637aadef8b146105515780637e2f35fa1461056c57806383f5d77a14610587575f80fd5b806328787d00116102aa578063623007321161024a57806366760d7d1161022557806366760d7d146103c85780636dc0ae22146105195780637000778e14610534578063798d5ba31461053e575f80fd5b806362300732146104fd57806364e9d567146105075780636521e19f1461050f575f80fd5b806348bbb5571161028557806348bbb557146104a4578063588c77e6146104bf57806358f2552e146104da57806361461954146104f5575f80fd5b806328787d001461039b5780632d2c55651461047f5780633484818b1461049a575f80fd5b806311ae7a1411610315578063194c0e18116102f0578063194c0e18146104375780631bbc51a71461044157806325ad7f4d146104495780632861c7d114610464575f80fd5b806311ae7a14146103fd57806312e366aa146104055780631392d4ee14610418575f80fd5b80630b396e66116103505780630b396e66146103a35780630bc9136e146103ad5780630e6a204c146103b5578063103f2907146103ca575f80fd5b8062623d7d146103755780630251eb1114610391578063040e7a801461039b575b5f80fd5b61037e61014c81565b6040519081526020015b60405180910390f35b61037e620474a081565b61037e606481565b61037e62048c1081565b61037e607481565b6103c86103c336600461200d565b61078d565b005b6103e573324c5dc1fc42c7a4d43d92df1eba58a54d13bf2d81565b6040516001600160a01b039091168152602001610388565b61037e607881565b6103e561041336600461202f565b61080a565b5f5465010000000000900460ff165b6040519015158152602001610388565b61037e6205747c81565b61037e606e81565b6103e5739efde135ca4832abf0408c44c6f5f370eb0f35e881565b6103e57352aa899454998be5b000ad077a46bbe360f4e49781565b6103e57328849d2b63fa8d361e5fc15cb8abb13019884d0981565b61037e62062e0881565b6103e573e7eb63a8b6392481a9fdebb108cfd580dc8664d381565b6103e5735c43aac965ff230ac1cf63e924d0153291d78bad81565b6103e573264786ef916af64a1db19f513f24a3681734ce9281565b6103c8610885565b61037e62046cd081565b61037e606c81565b61037e620493e081565b6103e5730204cd037b2ec03605cfdfe482d8e257c765fa1b81565b61037e62062a2081565b6103c861054c366004612046565b61089f565b6103e5732386dc45added673317ef068992f19421b481f4c81565b6103e573059a94a72951c0ae1cc1ce3bf0db52421bbe821081565b61037e607e81565b6103e561059d36600461202f565b610958565b6103e573a0d3707c569ff8c87fa923d3823ec5d81c98be7881565b6103e57354b91a0d94cb471f37f949c60f7fa7935b551d0381565b61037e6204a38081565b61037e628339c081565b6103e57391716c4eda1fb55e84bf8b4c7085f84285c1908581565b61037e6106153660046120c9565b610992565b5f5460405164ffffffffff9091168152602001610388565b61042761064036600461202f565b5f9081526001602052604090205460ff1690565b6103e57397b0b3a8bdefe8cb9563a3c610019ad10db8ad1181565b61037e607281565b6103c8610685366004612124565b6111b0565b61037e607081565b6103e5734f6f977acdd1177dcd81ab83074855ecb9c2d49e81565b61037e6204ab5081565b6103e573a45f7bd6a5ff45d31aace6bcd3d426d9328cea0181565b6103e56106e03660046121cf565b611664565b6103e57f000000000000000000000000000000000000000000000000000000000000000081565b6103e561071a36600461202f565b611752565b6103e573e57227c7d5900165344b190fc7aa580bceb53b9b81565b61037e6204a76881565b6103e5733daff61fe5cfb1f1b4ea7fba8173a58532ef184181565b6103c861076d3660046121ea565b61178c565b6103e5731e2e1aed876f67fe4fd54090fd7b8f57ce23421981565b33734f6f977acdd1177dcd81ab83074855ecb9c2d49e146107e95760405162461bcd60e51b81526020600482015260116024820152706e6f742d7465616d2d6d756c746973696760781b60448201526064015b60405180910390fd5b5f8054911515650100000000000265ff000000000019909216919091179055565b604051630971b35560e11b8152600481018290525f907391716c4eda1fb55e84bf8b4c7085f84285c19085906312e366aa906024015b602060405180830381865afa15801561085b573d5f803e3d5ffd5b505050506040513d601f19601f8201168201806040525081019061087f919061220e565b92915050565b61088d6118b9565b6108956119db565b61089d611c66565b565b33734f6f977acdd1177dcd81ab83074855ecb9c2d49e146108f65760405162461bcd60e51b81526020600482015260116024820152706e6f742d7465616d2d6d756c746973696760781b60448201526064016107e0565b5f5b81811015610953576001805f85858581811061091657610916612229565b9050602002013581526020019081526020015f205f6101000a81548160ff021916908315150217905550808061094b90612251565b9150506108f8565b505050565b60405163841d269960e01b8152600481018290525f9073e57227c7d5900165344b190fc7aa580bceb53b9b9063841d269990602401610840565b5f80841180156109a157505f83115b156109ee5760405162461bcd60e51b815260206004820181905260248201527f626f74682075736420616e6420616d6f756e7420617265206e6f74207a65726f60448201526064016107e0565b604080516001600160a01b03871660208083019190915260058284015282518083038401815260608301938490528051910120632d71cdb960e21b90925260648101919091525f907352aa899454998be5b000ad077a46bbe360f4e4979063b5c736e490608401602060405180830381865afa158015610a70573d5f803e3d5ffd5b505050506040513d601f19601f82011682018060405250810190610a949190612269565b90505f80610aa183611e0b565b90925090505f601273eeeeeeeeeeeeeeeeeeeeeeeeeeeeeeeeeeeeeeed196001600160a01b038b1601610adc575062046cd090506012611131565b737f39c581f595b53c5cb19bd0b3f8da6c935e2c9f196001600160a01b038b1601610b0f57506205747c90506012611131565b73cd5fe23c85820f7b72d0926fc9b05b43e359b7ed196001600160a01b038b1601610b4257506204a76890506012611131565b73a1290d69c65a6fe4df752f95823fae25cb99e5a6196001600160a01b038b1601610b75575062048c1090506012611131565b73917cee801a67f933f2e6b33fc0cd1ed2d5909d87196001600160a01b038b1601610ba85750620474a090506012611131565b73d5f7838f5c461feff7fe49ea5ebaf7728bb0adf9196001600160a01b038b1601610bdb57506204a38090506012611131565b73bf5495efe5db9ce00f80364c8b423567e58d210f196001600160a01b038b1601610c0e5750620493e090506012611131565b73f1c9acdc66974dfb6decb12aa385b9cd01190e37196001600160a01b038b1601610c4157506204ab5090506012611131565b6001600160a01b038a1673cbb7c0000ab88b473b1f5afd9ef808440eed33bf1480610c8857506001600160a01b038a16732260fac5e5542a773aa44fbcfedf7c193bc2c599145b80610caf57506001600160a01b038a1673657e8c867d8b37dcc18fa4caead9c45eb088c642145b80610cd657506001600160a01b038a16738236a87084f8b84306f72007f36f2618a5634494145b15610ce95750628339c090506008611131565b7318084fba666a33d37592fa2633fd49a74dd93a87196001600160a01b038b1601610d1c5750628339c090506012611131565b6001600160a01b038a1673a0b86991c6218b36c1d19d4a2e9eb0ce3606eb481480610d6357506001600160a01b038a1673dac17f958d2ee523a2206206994597c13d831ec7145b15610d745750606490506006611131565b739d39a5de30e57443bff2a8307a4256c8797a3496196001600160a01b038b1601610da55750607890506012611131565b73a3931d71877c0e7a3148cb7eb4463524fec27fbc196001600160a01b038b1601610dd65750606c90506012611131565b73356b8d89c1e1239cbbb9de4815c39a1474d5ba7c196001600160a01b038b1601610e075750606e90506006611131565b7380ac24aa929eaf5013f6436cda2a7ba190f5cc0a196001600160a01b038b1601610e385750607290506006611131565b73c58d044404d8b14e953c115e67823784dea53d8e196001600160a01b038b1601610e695750606490506012611131565b733d7d6fdf07ee548b939a80edbc9b2256d0cdc002196001600160a01b038b1601610e9a5750606490506012611131565b6001600160a01b038a167340d16fc0246ad3160ccc09b8d0d3a2cd28ae6c2f1480610ee157506001600160a01b038a16734c9edd5852cd905f086c759e8383e09bff1e68b3145b80610f0857506001600160a01b038a167315700b564ca08d9439c58ca5053166e8317aa138145b80610f2f57506001600160a01b038a167366a1e37c9b0eaddca17d3662d6c05f4decf3e110145b80610f5657506001600160a01b038a167373a15fed60bf67631dc6cd7bc5b6e8da8190acf5145b80610f7d57506001600160a01b038a1673085780639cc2cacd35e474e71f4d000e2405d8f6145b80610fa457506001600160a01b038a1673b01dd87b29d187f3e3a4bf6cdaebfb97f3d9ab98145b80610fcb57506001600160a01b038a167348f9e38f3070ad8945dfeae3fa70987722e3d89c145b80610ff257506001600160a01b038a1673c139190f447e929f090edeb554d95abb8b18ac1c145b156110035750606490506012611131565b736f40d4a6237c257fff2db00fa0510deeecd303ea196001600160a01b038b1601611035575061014c90506012611131565b731202f5c7b4b9e47a1a484e8b270be34dbbc75054196001600160a01b038b16016110665750607090506012611131565b734956b52ae2ff65d74ca2d61207523288e4528f95196001600160a01b038b16016110975750607e90506012611131565b7368749665ff8d2d112fa859aa293f07a622782f37196001600160a01b038b16016110ca575062062a2090506006611131565b7345804880de22913dafe09f4980848ece6ecbaf77196001600160a01b038b16016110fd575062062e0890506012611131565b60405162461bcd60e51b81526020600482015260096024820152681b9bdd0b599bdd5b9960ba1b60448201526064016107e0565b5f8761113d578361113f565b845b9050891561116e57806111578b64e8d4a51000612280565b61116191906122ab565b96505050505050506111a8565b606461117a8285612280565b61118491906122ab565b61118f83600a6123aa565b61119e8b64e8d4a51000612280565b6111579190612280565b949350505050565b3373a45f7bd6a5ff45d31aace6bcd3d426d9328cea0114806111e5575033734f6f977acdd1177dcd81ab83074855ecb9c2d49e145b8061120357503073059a94a72951c0ae1cc1ce3bf0db52421bbe8210145b80611221575030739efde135ca4832abf0408c44c6f5f370eb0f35e8145b8061123f575030735c43aac965ff230ac1cf63e924d0153291d78bad145b8061125d575030733daff61fe5cfb1f1b4ea7fba8173a58532ef1841145b8061127b57503073e7eb63a8b6392481a9fdebb108cfd580dc8664d3145b6112c05760405162461bcd60e51b81526020600482015260166024820152751b5cd9cb9cd95b99195c8b5b9bdd0b585b1b1bddd95960521b60448201526064016107e0565b6040805160018082528183019092525f9082602080830190803683370190505090505f8267ffffffffffffffff8111156112fc576112fc612110565b604051908082528060200260200182016040528015611325578160200160208202803683370190505b5090505f8367ffffffffffffffff81111561134257611342612110565b60405190808252806020026020018201604052801561137557816020015b60608152602001906001900390816113605790505b5090505f8467ffffffffffffffff81111561139257611392612110565b6040519080825280602002602001820160405280156113c557816020015b60608152602001906001900390816113b05790505b509050732386dc45added673317ef068992f19421b481f4c845f815181106113ef576113ef612229565b60200260200101906001600160a01b031690816001600160a01b0316815250505f835f8151811061142257611422612229565b60200260200101818152505060405180606001604052806024815260200161261160249139825f8151811061145957611459612229565b602090810291909101810191909152604080515f815291820181526114a1917f0000000000000000000000000000000000000000000000000000000000000000918101612402565b604051602081830303815290604052815f815181106114c2576114c2612229565b6020908102919091010152604051636d4ab48d60e11b81525f90730204cd037b2ec03605cfdfe482d8e257c765fa1b9063da95691a9061150e9088908890889088908e906004016124ce565b6020604051808303815f875af115801561152a573d5f803e3d5ffd5b505050506040513d601f19601f8201168201806040525081019061154e9190612269565b9050607481146115975760405162461bcd60e51b815260206004820152601460248201527350524f504f53414c5f49535f4e4f545f53414d4560601b60448201526064016107e0565b3373a45f7bd6a5ff45d31aace6bcd3d426d9328cea0114806115cc575033734f6f977acdd1177dcd81ab83074855ecb9c2d49e145b156115df576115da4261178c565b61165b565b604051631f615d2360e31b815264ffffffffff421660048201527f00000000000000000000000000000000000000000000000000000000000000006001600160a01b03169063fb0ae918906024015f604051808303815f87803b158015611644575f80fd5b505af1158015611656573d5f803e3d5ffd5b505050505b50505050505050565b5f73c02aaa39b223fe8d0a0e5c4f27ead9083c756cc1196001600160a01b038316016116f3576040805163bb4a64d360e01b81526001600160a01b03841660048201526024810191909152601060448201526f4e6174697665556e6465726c79696e6760801b60648201527354b91a0d94cb471f37f949c60f7fa7935b551d039063bb4a64d390608401610840565b6040805163bb4a64d360e01b81526001600160a01b038416600482015260248101919091526006604482015265332a37b5b2b760d11b60648201527354b91a0d94cb471f37f949c60f7fa7935b551d039063bb4a64d390608401610840565b60405163735e935160e11b8152600481018290525f9073324c5dc1fc42c7a4d43d92df1eba58a54d13bf2d9063e6bd26a290602401610840565b3373a45f7bd6a5ff45d31aace6bcd3d426d9328cea0114806117c1575033734f6f977acdd1177dcd81ab83074855ecb9c2d49e145b806117df57503373059a94a72951c0ae1cc1ce3bf0db52421bbe8210145b806117fd575033739efde135ca4832abf0408c44c6f5f370eb0f35e8145b8061181b575033735c43aac965ff230ac1cf63e924d0153291d78bad145b80611839575033733daff61fe5cfb1f1b4ea7fba8173a58532ef1841145b8061185757503373e7eb63a8b6392481a9fdebb108cfd580dc8664d3145b61189c5760405162461bcd60e51b81526020600482015260166024820152751b5cd9cb9cd95b99195c8b5b9bdd0b585b1b1bddd95960521b60448201526064016107e0565b5f805464ffffffffff191664ffffffffff92909216919091179055565b30732386dc45added673317ef068992f19421b481f4c1461190f5760405162461bcd60e51b815260206004820152601060248201526f3737ba16bb30b634b216b1b0b63632b960811b60448201526064016107e0565b7f00000000000000000000000000000000000000000000000000000000000000006001600160a01b0316631392d4ee6040518163ffffffff1660e01b8152600401602060405180830381865afa15801561196b573d5f803e3d5ffd5b505050506040513d601f19601f8201168201806040525081019061198f919061256c565b61089d5760405162461bcd60e51b815260206004820152601760248201527f70726f706f73616c2d6e6f742d65786563757461626c6500000000000000000060448201526064016107e0565b6040516352e5787b60e11b8152600160048201819052907f00000000000000000000000000000000000000000000000000000000000000006001600160a01b03169063a5caf0f690602401602060405180830381865afa158015611a41573d5f803e3d5ffd5b505050506040513d601f19601f82011682018060405250810190611a65919061256c565b611c63576040805160018082528183019092525f91816020015b6060815260200190600190039081611a7f5750506040805160018082528183019092529192505f9190602082015b6060815260200190600190039081611aad5790505090505f6040518060600160405280603181526020016125e06031913990505f6969e10de76676d080000090506040518060400160405280600a8152602001692120a9a4a196a216ab1960b11b815250845f81518110611b2357611b23612229565b6020908102919091010152604051736a29a46e21c730dca1d8b23d637c101cec605c5b602482015260448101829052734f6f977acdd1177dcd81ab83074855ecb9c2d49e60648201525f6084820181905260a4820152829060c4015b60408051601f198184030181529082905291611b9a91612587565b60405180910390206001600160e01b0319166020820180516001600160e01b038381831617835250505050835f81518110611bd757611bd7612229565b6020908102919091010152506040516324c1324d60e21b81527328849d2b63fa8d361e5fc15cb8abb13019884d0990639304c93490611c1e908690869030906004016125a2565b6020604051808303815f875af1158015611c3a573d5f803e3d5ffd5b505050506040513d601f19601f82011682018060405250810190611c5e9190612269565b505050505b50565b6040516352e5787b60e11b8152600260048201819052907f00000000000000000000000000000000000000000000000000000000000000006001600160a01b03169063a5caf0f690602401602060405180830381865afa158015611ccc573d5f803e3d5ffd5b505050506040513d601f19601f82011682018060405250810190611cf0919061256c565b611c63576040805160018082528183019092525f91816020015b6060815260200190600190039081611d0a5750506040805160018082528183019092529192505f9190602082015b6060815260200190600190039081611d385790505090505f6040518060600160405280603181526020016125e06031913990505f6969e10de76676d080000090506040518060400160405280600781526020016642415349432d4160c81b815250845f81518110611dab57611dab612229565b6020908102919091010152604051736f40d4a6237c257fff2db00fa0510deeecd303eb602482015260448101829052734f6f977acdd1177dcd81ab83074855ecb9c2d49e60648201525f6084820181905260a4820152829060c401611b7f565b67ffffffffffffffff605b82901c811690609b83901c16811580611e2d575080155b15611e5057604051636a86ba8960e11b81526201117160048201526024016107e0565b61ffff8316603a84901c6401ffffffff16428181039160ea87901c617fff16911480611e7a575082155b80611e855750806001145b15611e9257505050915091565b64496cebb80084840283020484019350617fff60db87901c16925082600103611ebd57505050915091565b82600116600103611f125760019290921c91826c7e37be2022c0914b268000000081611eeb57611eeb612297565b049250612710601e87901c613fff166b033b2e3c9fd0803ce8000000850102049250611f3f565b60019290921c916305f5e100601e87901c613fff166127108501026b033b2e3c9fd0803ce8000000020492505b80600116600103611f765760011c61271081016b033b2e3c9fd0803ce8000000820281611f6e57611f6e612297565b049050611fac565b60011c61271081016b033b2e3c9fd0803ce8000000820281611f9a57611f9a612297565b046b033b2e3c9fd0803ce80000000390505b760a70c3c40a64e6c51999090b65f67d92400000000000008382026127100261ffff881691900402601087901c613fff16612710030292506801b5a660ea44b8000085840283020485019450505050915091565b8015158114611c63575f80fd5b5f6020828403121561201d575f80fd5b813561202881612000565b9392505050565b5f6020828403121561203f575f80fd5b5035919050565b5f8060208385031215612057575f80fd5b823567ffffffffffffffff8082111561206e575f80fd5b818501915085601f830112612081575f80fd5b81358181111561208f575f80fd5b8660208260051b85010111156120a3575f80fd5b60209290920196919550909350505050565b6001600160a01b0381168114611c63575f80fd5b5f805f80608085870312156120dc575f80fd5b84356120e7816120b5565b93506020850135925060408501359150606085013561210581612000565b939692955090935050565b634e487b7160e01b5f52604160045260245ffd5b5f60208284031215612134575f80fd5b813567ffffffffffffffff8082111561214b575f80fd5b818401915084601f83011261215e575f80fd5b81358181111561217057612170612110565b604051601f8201601f19908116603f0116810190838211818310171561219857612198612110565b816040528281528760208487010111156121b0575f80fd5b826020860160208301375f928101602001929092525095945050505050565b5f602082840312156121df575f80fd5b8135612028816120b5565b5f602082840312156121fa575f80fd5b813564ffffffffff81168114612028575f80fd5b5f6020828403121561221e575f80fd5b8151612028816120b5565b634e487b7160e01b5f52603260045260245ffd5b634e487b7160e01b5f52601160045260245ffd5b5f600182016122625761226261223d565b5060010190565b5f60208284031215612279575f80fd5b5051919050565b808202811582820484141761087f5761087f61223d565b634e487b7160e01b5f52601260045260245ffd5b5f826122c557634e487b7160e01b5f52601260045260245ffd5b500490565b600181815b8085111561230457815f19048211156122ea576122ea61223d565b808516156122f757918102915b93841c93908002906122cf565b509250929050565b5f8261231a5750600161087f565b8161232657505f61087f565b816001811461233c576002811461234657612362565b600191505061087f565b60ff8411156123575761235761223d565b50506001821b61087f565b5060208310610133831016604e8410600b8410161715612385575081810a61087f565b61238f83836122ca565b805f19048211156123a2576123a261223d565b029392505050565b5f612028838361230c565b5f5b838110156123cf5781810151838201526020016123b7565b50505f910152565b5f81518084526123ee8160208601602086016123b5565b601f01601f19169290920160200192915050565b60018060a01b038316815260606020820152600960608201526865786563757465282960b81b608082015260a060408201525f6111a860a08301846123d7565b5f8151808452602080850194508084015f5b8381101561247057815187529582019590820190600101612454565b509495945050505050565b5f81518084526020808501808196508360051b810191508286015f5b858110156124c15782840389526124af8483516123d7565b98850198935090840190600101612497565b5091979650505050505050565b60a080825286519082018190525f9060209060c0840190828a01845b8281101561250f5781516001600160a01b0316845292840192908401906001016124ea565b505050838103828501526125238189612442565b9150508281036040840152612538818761247b565b9050828103606084015261254c818661247b565b9050828103608084015261256081856123d7565b98975050505050505050565b5f6020828403121561257c575f80fd5b815161202881612000565b5f82516125988184602087016123b5565b9190910192915050565b606081525f6125b4606083018661247b565b82810360208401526125c6818661247b565b91505060018060a01b038316604083015294935050505056fe776974686472617728616464726573732c75696e743235362c616464726573732c75696e743235362c75696e7432353629657865637574655061796c6f616428616464726573732c737472696e672c627974657329a264697066735822122097262c31056af7d1edd380566019d2da1498387bb0cf84a18d30c46b99603ab964736f6c63430008150033",
  "linkReferences": {},
  "deployedLinkReferences": {},
  "immutableReferences": {
    "835": [
      {
        "length": 32,
        "start": 1770
      },
      {
        "length": 32,
        "start": 5242
      },
      {
        "length": 32,
        "start": 5627
      },
      {
        "length": 32,
        "start": 6417
      },
      {
        "length": 32,
        "start": 6644
      },
      {
        "length": 32,
        "start": 7295
      }
    ]
  },
  "inputSourceName": "project/contracts/payloads/IGP116/PayloadIGP116.sol",
  "buildInfoId": "solc-0_8_21-bc11029e1e8366f4cc9391f86bf1ed136dee7971"
}