{
  "_format": "hh3-artifact-1",
  "contractName": "PayloadIGP109",
  "sourceName": "contracts/payloads/IGP109/PayloadIGP109.sol",
  "abi": [
    {
      "inputs": [
        {
          "internalType": "uint256",
          "name": "errorId_",
          "type": "uint256"
        }
      ],
      "name": "FluidLiquidityCalcsError",
      "type": "error"
    },
    {
      "inputs": [],
      "name": "ADDRESS_THIS",
      "outputs": [
        {
          "internalType": "address",
          "name": "",
          "type": "address"
        }
      ],
      "stateMutability": "view",
      "type": "function"
    },
    {
      "inputs": [],
      "name": "BTC_USD_PRICE",
      "outputs": [
        {
          "internalType": "uint256",
          "name": "",
          "type": "uint256"
        }
      ],
      "stateMutability": "view",
      "type": "function"
    },
    {
      "inputs": [],
      "name": "DEX_FACTORY",
      "outputs": [
        {
          "internalType": "contract IFluidDexFactory",
          "name": "",
          "type": "address"
        }
      ],
      "stateMutability": "view",
      "type": "function"
    },
    {
      "inputs": [],
      "name": "ETH_USD_PRICE",
      "outputs": [
        {
          "internalType": "uint256",
          "name": "",
          "type": "uint256"
        }
      ],
      "stateMutability": "view",
      "type": "function"
    },
    {
      "inputs": [],
      "name": "FLUID_RESERVE",
      "outputs": [
        {
          "internalType": "contract IFluidReserveContract",
          "name": "",
          "type": "address"
        }
      ],
      "stateMutability": "view",
      "type": "function"
    },
    {
      "inputs": [],
      "name": "FLUID_USD_PRICE",
      "outputs": [
        {
          "internalType": "uint256",
          "name": "",
          "type": "uint256"
        }
      ],
      "stateMutability": "view",
      "type": "function"
    },
    {
      "inputs": [],
      "name": "GOVERNOR",
      "outputs": [
        {
          "internalType": "contract IGovernorBravo",
          "name": "",
          "type": "address"
        }
      ],
      "stateMutability": "view",
      "type": "function"
    },
    {
      "inputs": [],
      "name": "IETHV2",
      "outputs": [
        {
          "internalType": "contract ILite",
          "name": "",
          "type": "address"
        }
      ],
      "stateMutability": "view",
      "type": "function"
    },
    {
      "inputs": [],
      "name": "LENDING_FACTORY",
      "outputs": [
        {
          "internalType": "contract IFluidLendingFactory",
          "name": "",
          "type": "address"
        }
      ],
      "stateMutability": "view",
      "type": "function"
    },
    {
      "inputs": [],
      "name": "LIQUIDITY",
      "outputs": [
        {
          "internalType": "contract IFluidLiquidityAdmin",
          "name": "",
          "type": "address"
        }
      ],
      "stateMutability": "view",
      "type": "function"
    },
    {
      "inputs": [],
      "name": "PAXG_USD_PRICE",
      "outputs": [
        {
          "internalType": "uint256",
          "name": "",
          "type": "uint256"
        }
      ],
      "stateMutability": "view",
      "type": "function"
    },
    {
      "inputs": [],
      "name": "PROPOSAL_ID",
      "outputs": [
        {
          "internalType": "uint256",
          "name": "",
          "type": "uint256"
        }
      ],
      "stateMutability": "view",
      "type": "function"
    },
    {
      "inputs": [],
      "name": "PROPOSER",
      "outputs": [
        {
          "internalType": "address",
          "name": "",
          "type": "address"
        }
      ],
      "stateMutability": "view",
      "type": "function"
    },
    {
      "inputs": [],
      "name": "PROPOSER_AVO_MULTISIG",
      "outputs": [
        {
          "internalType": "address",
          "name": "",
          "type": "address"
        }
      ],
      "stateMutability": "view",
      "type": "function"
    },
    {
      "inputs": [],
      "name": "PROPOSER_AVO_MULTISIG_2",
      "outputs": [
        {
          "internalType": "address",
          "name": "",
          "type": "address"
        }
      ],
      "stateMutability": "view",
      "type": "function"
    },
    {
      "inputs": [],
      "name": "PROPOSER_AVO_MULTISIG_3",
      "outputs": [
        {
          "internalType": "address",
          "name": "",
          "type": "address"
        }
      ],
      "stateMutability": "view",
      "type": "function"
    },
    {
      "inputs": [],
      "name": "PROPOSER_AVO_MULTISIG_4",
      "outputs": [
        {
          "internalType": "address",
          "name": "",
          "type": "address"
        }
      ],
      "stateMutability": "view",
      "type": "function"
    },
    {
      "inputs": [],
      "name": "PROPOSER_AVO_MULTISIG_5",
      "outputs": [
        {
          "internalType": "address",
          "name": "",
          "type": "address"
        }
      ],
      "stateMutability": "view",
      "type": "function"
    },
    {
      "inputs": [],
      "name": "RLP_USD_PRICE",
      "outputs": [
        {
          "internalType": "uint256",
          "name": "",
          "type": "uint256"
        }
      ],
      "stateMutability": "view",
      "type": "function"
    },
    {
      "inputs": [],
      "name": "SMART_LENDING_FACTORY",
      "outputs": [
        {
          "internalType": "contract IFluidSmartLendingFactory",
          "name": "",
          "type": "address"
        }
      ],
      "stateMutability": "view",
      "type": "function"
    },
    {
      "inputs": [],
      "name": "STABLE_USD_PRICE",
      "outputs": [
        {
          "internalType": "uint256",
          "name": "",
          "type": "uint256"
        }
      ],
      "stateMutability": "view",
      "type": "function"
    },
    {
      "inputs": [],
      "name": "TEAM_MULTISIG",
      "outputs": [
        {
          "internalType": "address",
          "name": "",
          "type": "address"
        }
      ],
      "stateMutability": "view",
      "type": "function"
    },
    {
      "inputs": [],
      "name": "TEAM_MULTISIG_2",
      "outputs": [
        {
          "internalType": "address",
          "name": "",
          "type": "address"
        }
      ],
      "stateMutability": "view",
      "type": "function"
    },
    {
      "inputs": [],
      "name": "TIMELOCK",
      "outputs": [
        {
          "internalType": "contract ITimelock",
          "name": "",
          "type": "address"
        }
      ],
      "stateMutability": "view",
      "type": "function"
    },
    {
      "inputs": [],
      "name": "TREASURY",
      "outputs": [
        {
          "internalType": "contract IDSAV2",
          "name": "",
          "type": "address"
        }
      ],
      "stateMutability": "view",
      "type": "function"
    },
    {
      "inputs": [],
      "name": "VAULT_FACTORY",
      "outputs": [
        {
          "internalType": "contract IFluidVaultFactory",
          "name": "",
          "type": "address"
        }
      ],
      "stateMutability": "view",
      "type": "function"
    },
    {
      "inputs": [],
      "name": "XAUT_USD_PRICE",
      "outputs": [
        {
          "internalType": "uint256",
          "name": "",
          "type": "uint256"
        }
      ],
      "stateMutability": "view",
      "type": "function"
    },
    {
      "inputs": [
        {
          "internalType": "uint256",
          "name": "action_",
          "type": "uint256"
        }
      ],
      "name": "actionStatus",
      "outputs": [
        {
          "internalType": "bool",
          "name": "",
          "type": "bool"
        }
      ],
      "stateMutability": "view",
      "type": "function"
    },
    {
      "inputs": [],
      "name": "execute",
      "outputs": [],
      "stateMutability": "nonpayable",
      "type": "function"
    },
    {
      "inputs": [],
      "name": "ezETH_USD_PRICE",
      "outputs": [
        {
          "internalType": "uint256",
          "name": "",
          "type": "uint256"
        }
      ],
      "stateMutability": "view",
      "type": "function"
    },
    {
      "inputs": [
        {
          "internalType": "uint256",
          "name": "dexId_",
          "type": "uint256"
        }
      ],
      "name": "getDexAddress",
      "outputs": [
        {
          "internalType": "address",
          "name": "",
          "type": "address"
        }
      ],
      "stateMutability": "view",
      "type": "function"
    },
    {
      "inputs": [
        {
          "internalType": "address",
          "name": "token",
          "type": "address"
        }
      ],
      "name": "getFTokenAddress",
      "outputs": [
        {
          "internalType": "address",
          "name": "",
          "type": "address"
        }
      ],
      "stateMutability": "view",
      "type": "function"
    },
    {
      "inputs": [],
      "name": "getProposalCreationTime",
      "outputs": [
        {
          "internalType": "uint40",
          "name": "",
          "type": "uint40"
        }
      ],
      "stateMutability": "view",
      "type": "function"
    },
    {
      "inputs": [
        {
          "internalType": "address",
          "name": "token",
          "type": "address"
        },
        {
          "internalType": "uint256",
          "name": "amount",
          "type": "uint256"
        },
        {
          "internalType": "uint256",
          "name": "amountInUSD",
          "type": "uint256"
        },
        {
          "internalType": "bool",
          "name": "isSupply",
          "type": "bool"
        }
      ],
      "name": "getRawAmount",
      "outputs": [
        {
          "internalType": "uint256",
          "name": "",
          "type": "uint256"
        }
      ],
      "stateMutability": "view",
      "type": "function"
    },
    {
      "inputs": [
        {
          "internalType": "uint256",
          "name": "dexId_",
          "type": "uint256"
        }
      ],
      "name": "getSmartLendingAddress",
      "outputs": [
        {
          "internalType": "address",
          "name": "",
          "type": "address"
        }
      ],
      "stateMutability": "view",
      "type": "function"
    },
    {
      "inputs": [
        {
          "internalType": "uint256",
          "name": "vaultId_",
          "type": "uint256"
        }
      ],
      "name": "getVaultAddress",
      "outputs": [
        {
          "internalType": "address",
          "name": "",
          "type": "address"
        }
      ],
      "stateMutability": "view",
      "type": "function"
    },
    {
      "inputs": [],
      "name": "isProposalExecutable",
      "outputs": [
        {
          "internalType": "bool",
          "name": "",
          "type": "bool"
        }
      ],
      "stateMutability": "view",
      "type": "function"
    },
    {
      "inputs": [],
      "name": "mETH_USD_PRICE",
      "outputs": [
        {
          "internalType": "uint256",
          "name": "",
          "type": "uint256"
        }
      ],
      "stateMutability": "view",
      "type": "function"
    },
    {
      "inputs": [
        {
          "internalType": "string",
          "name": "description",
          "type": "string"
        }
      ],
      "name": "propose",
      "outputs": [],
      "stateMutability": "nonpayable",
      "type": "function"
    },
    {
      "inputs": [],
      "name": "rsETH_USD_PRICE",
      "outputs": [
        {
          "internalType": "uint256",
          "name": "",
          "type": "uint256"
        }
      ],
      "stateMutability": "view",
      "type": "function"
    },
    {
      "inputs": [],
      "name": "sUSDe_USD_PRICE",
      "outputs": [
        {
          "internalType": "uint256",
          "name": "",
          "type": "uint256"
        }
      ],
      "stateMutability": "view",
      "type": "function"
    },
    {
      "inputs": [],
      "name": "sUSDs_USD_PRICE",
      "outputs": [
        {
          "internalType": "uint256",
          "name": "",
          "type": "uint256"
        }
      ],
      "stateMutability": "view",
      "type": "function"
    },
    {
      "inputs": [
        {
          "internalType": "uint256[]",
          "name": "actionsToSkip_",
          "type": "uint256[]"
        }
      ],
      "name": "setActionsToSkip",
      "outputs": [],
      "stateMutability": "nonpayable",
      "type": "function"
    },
    {
      "inputs": [
        {
          "internalType": "uint40",
          "name": "proposalCreationTime_",
          "type": "uint40"
        }
      ],
      "name": "setProposalCreationTime",
      "outputs": [],
      "stateMutability": "nonpayable",
      "type": "function"
    },
    {
      "inputs": [
        {
          "internalType": "bool",
          "name": "isExecutable_",
          "type": "bool"
        }
      ],
      "name": "toggleExecutable",
      "outputs": [],
      "stateMutability": "nonpayable",
      "type": "function"
    },
    {
      "inputs": [],
      "name": "verifyProposal",
      "outputs": [],
      "stateMutability": "view",
      "type": "function"
    },
    {
      "inputs": [],
      "name": "weETH_USD_PRICE",
      "outputs": [
        {
          "internalType": "uint256",
          "name": "",
          "type": "uint256"
        }
      ],
      "stateMutability": "view",
      "type": "function"
    },
    {
      "inputs": [],
      "name": "weETHs_USD_PRICE",
      "outputs": [
        {
          "internalType": "uint256",
          "name": "",
          "type": "uint256"
        }
      ],
      "stateMutability": "view",
      "type": "function"
    },
    {
      "inputs": [],
      "name": "wstETH_USD_PRICE",
      "outputs": [
        {
          "internalType": "uint256",
          "name": "",
          "type": "uint256"
        }
      ],
      "stateMutability": "view",
      "type": "function"
    },
    {
      "inputs": [],
      "name": "wstUSR_USD_PRICE",
      "outputs": [
        {
          "internalType": "uint256",
          "name": "",
          "type": "uint256"
        }
      ],
      "stateMutability": "view",
      "type": "function"
    }
  ],
  "bytecode": "0x60a060405234801561000f575f80fd5b50306080526080516145826100805f395f81816105fa015281816112cb0152818161144c015281816117620152818161184501528181611b5801528181611ecd01528181612153015281816122f70152818161275201528181612a3101528181612b1e015261323a01526145825ff3fe608060405234801561000f575f80fd5b50600436106102ca575f3560e01c80637aadef8b1161017b578063aa98df39116100e4578063cc025f7c1161009e578063f6370aa911610079578063f6370aa91461064a578063f88ed60c14610654578063fb0ae9181461066f578063fcee0c9814610682575f80fd5b8063cc025f7c146105f5578063e6bd26a21461061c578063f53eddcc1461062f575f80fd5b8063aa98df3914610576578063ae68032b14610589578063b696649514610591578063b788f3a1146105ac578063bffa7f0f146105c7578063c60dc265146105e2575f80fd5b806396db7d5c1161013557806396db7d5c146104fa5780639781a8ca1461050457806397b87b4a1461050e5780639d3d2a78146105295780639ef947371461053c578063a5caf0f614610554575f80fd5b80637aadef8b146104735780637e2f35fa1461048e57806383f5d77a146104a9578063841d2699146104b157806395861bd7146104c457806396bac931146104df575f80fd5b806328787d001161023757806362300732116101f157806366760d7d116101cc57806366760d7d146103195780636dc0ae22146104455780637000778e146103eb578063798d5ba314610460575f80fd5b8063623007321461043357806364e9d5671461043d5780636521e19f146102f4575f80fd5b806328787d00146103c85780632d2c5565146103d05780633484818b146103eb57806348bbb557146103f5578063588c77e614610410578063614619541461042b575f80fd5b806311ae7a141161028857806311ae7a141461034e57806312e366aa146103565780631392d4ee14610369578063194c0e181461038857806325ad7f4d146103925780632861c7d1146103ad575f80fd5b8062623d7d146102ce5780630251eb11146102ea5780630b396e66146102f45780630bc9136e146102fe5780630e6a204c14610306578063103f29071461031b575b5f80fd5b6102d76101a481565b6040519081526020015b60405180910390f35b6102d76203f7a081565b6102d762040b2881565b6102d7606d81565b610319610314366004613d25565b61069d565b005b61033673324c5dc1fc42c7a4d43d92df1eba58a54d13bf2d81565b6040516001600160a01b0390911681526020016102e1565b6102d7607581565b610336610364366004613d47565b61071a565b5f5465010000000000900460ff165b60405190151581526020016102e1565b6102d76204a76881565b610336739efde135ca4832abf0408c44c6f5f370eb0f35e881565b6103367352aa899454998be5b000ad077a46bbe360f4e49781565b6102d7606481565b6103367328849d2b63fa8d361e5fc15cb8abb13019884d0981565b6102d76204f1a081565b61033673e7eb63a8b6392481a9fdebb108cfd580dc8664d381565b610336735c43aac965ff230ac1cf63e924d0153291d78bad81565b610319610795565b6102d76203d09081565b6102d7606981565b610336730204cd037b2ec03605cfdfe482d8e257c765fa1b81565b61031961046e366004613d5e565b6107e7565b610336732386dc45added673317ef068992f19421b481f4c81565b61033673059a94a72951c0ae1cc1ce3bf0db52421bbe821081565b6102d7607681565b6103366104bf366004613d47565b6108a0565b61033673a0d3707c569ff8c87fa923d3823ec5d81c98be7881565b6103367354b91a0d94cb471f37f949c60f7fa7935b551d0381565b6102d762041ac881565b6102d7629d2a6081565b6103367391716c4eda1fb55e84bf8b4c7085f84285c1908581565b6102d7610537366004613de1565b6108da565b5f5460405164ffffffffff90911681526020016102e1565b610378610562366004613d47565b5f9081526001602052604090205460ff1690565b610319610584366004613e3c565b611001565b6102d7606b81565b61033673264786ef916af64a1db19f513f24a3681734ce9281565b610336734f6f977acdd1177dcd81ab83074855ecb9c2d49e81565b61033673a45f7bd6a5ff45d31aace6bcd3d426d9328cea0181565b6103366105f0366004613ee7565b6114b5565b6103367f000000000000000000000000000000000000000000000000000000000000000081565b61033661062a366004613d47565b6115a3565b61033673e57227c7d5900165344b190fc7aa580bceb53b9b81565b6102d762041eb081565b610336733daff61fe5cfb1f1b4ea7fba8173a58532ef184181565b61031961067d366004613f02565b6115dd565b610336731e2e1aed876f67fe4fd54090fd7b8f57ce23421981565b33734f6f977acdd1177dcd81ab83074855ecb9c2d49e146106f95760405162461bcd60e51b81526020600482015260116024820152706e6f742d7465616d2d6d756c746973696760781b60448201526064015b60405180910390fd5b5f8054911515650100000000000265ff000000000019909216919091179055565b604051630971b35560e11b8152600481018290525f907391716c4eda1fb55e84bf8b4c7085f84285c19085906312e366aa906024015b602060405180830381865afa15801561076b573d5f803e3d5ffd5b505050506040513d601f19601f8201168201806040525081019061078f9190613f26565b92915050565b61079d61170a565b6107a561182c565b6107ad611b3f565b6107b5611eb4565b6107bd61213b565b6107c56122de565b6107cd612739565b6107d5612a18565b6107dd612b05565b6107e5613221565b565b33734f6f977acdd1177dcd81ab83074855ecb9c2d49e1461083e5760405162461bcd60e51b81526020600482015260116024820152706e6f742d7465616d2d6d756c746973696760781b60448201526064016106f0565b5f5b8181101561089b576001805f85858581811061085e5761085e613f41565b9050602002013581526020019081526020015f205f6101000a81548160ff021916908315150217905550808061089390613f69565b915050610840565b505050565b60405163841d269960e01b8152600481018290525f9073e57227c7d5900165344b190fc7aa580bceb53b9b9063841d269990602401610750565b5f80841180156108e957505f83115b156109365760405162461bcd60e51b815260206004820181905260248201527f626f74682075736420616e6420616d6f756e7420617265206e6f74207a65726f60448201526064016106f0565b604080516001600160a01b03871660208083019190915260058284015282518083038401815260608301938490528051910120632d71cdb960e21b90925260648101919091525f907352aa899454998be5b000ad077a46bbe360f4e4979063b5c736e490608401602060405180830381865afa1580156109b8573d5f803e3d5ffd5b505050506040513d601f19601f820116820180604052508101906109dc9190613f81565b90505f806109e983613614565b90925090505f601273eeeeeeeeeeeeeeeeeeeeeeeeeeeeeeeeeeeeeeed196001600160a01b038b1601610a2457506203d09090506012610f82565b737f39c581f595b53c5cb19bd0b3f8da6c935e2c9f196001600160a01b038b1601610a5757506204a76890506012610f82565b73cd5fe23c85820f7b72d0926fc9b05b43e359b7ed196001600160a01b038b1601610a8a575062041eb090506012610f82565b73a1290d69c65a6fe4df752f95823fae25cb99e5a6196001600160a01b038b1601610abd575062040b2890506012610f82565b73917cee801a67f933f2e6b33fc0cd1ed2d5909d87196001600160a01b038b1601610af057506203f7a090506012610f82565b73d5f7838f5c461feff7fe49ea5ebaf7728bb0adf9196001600160a01b038b1601610b23575062041ac890506012610f82565b73bf5495efe5db9ce00f80364c8b423567e58d210f196001600160a01b038b1601610b56575062040b2890506012610f82565b6001600160a01b038a1673cbb7c0000ab88b473b1f5afd9ef808440eed33bf1480610b9d57506001600160a01b038a16732260fac5e5542a773aa44fbcfedf7c193bc2c599145b80610bc457506001600160a01b038a1673657e8c867d8b37dcc18fa4caead9c45eb088c642145b80610beb57506001600160a01b038a16738236a87084f8b84306f72007f36f2618a5634494145b15610bfe5750629d2a6090506008610f82565b7318084fba666a33d37592fa2633fd49a74dd93a87196001600160a01b038b1601610c315750629d2a6090506012610f82565b6001600160a01b038a1673a0b86991c6218b36c1d19d4a2e9eb0ce3606eb481480610c7857506001600160a01b038a1673dac17f958d2ee523a2206206994597c13d831ec7145b15610c895750606490506006610f82565b739d39a5de30e57443bff2a8307a4256c8797a3496196001600160a01b038b1601610cba5750607590506012610f82565b73a3931d71877c0e7a3148cb7eb4463524fec27fbc196001600160a01b038b1601610ceb5750606990506012610f82565b6001600160a01b038a167340d16fc0246ad3160ccc09b8d0d3a2cd28ae6c2f1480610d3257506001600160a01b038a16734c9edd5852cd905f086c759e8383e09bff1e68b3145b80610d5957506001600160a01b038a167315700b564ca08d9439c58ca5053166e8317aa138145b80610d8057506001600160a01b038a167366a1e37c9b0eaddca17d3662d6c05f4decf3e110145b80610da757506001600160a01b038a167373a15fed60bf67631dc6cd7bc5b6e8da8190acf5145b80610dce57506001600160a01b038a1673085780639cc2cacd35e474e71f4d000e2405d8f6145b80610df557506001600160a01b038a1673b01dd87b29d187f3e3a4bf6cdaebfb97f3d9ab98145b80610e1c57506001600160a01b038a167348f9e38f3070ad8945dfeae3fa70987722e3d89c145b80610e4357506001600160a01b038a1673c139190f447e929f090edeb554d95abb8b18ac1c145b15610e545750606490506012610f82565b736f40d4a6237c257fff2db00fa0510deeecd303ea196001600160a01b038b1601610e8657506101a490506012610f82565b731202f5c7b4b9e47a1a484e8b270be34dbbc75054196001600160a01b038b1601610eb75750606b90506012610f82565b734956b52ae2ff65d74ca2d61207523288e4528f95196001600160a01b038b1601610ee85750607690506012610f82565b7368749665ff8d2d112fa859aa293f07a622782f37196001600160a01b038b1601610f1b57506204f1a090506006610f82565b7345804880de22913dafe09f4980848ece6ecbaf77196001600160a01b038b1601610f4e57506204f1a090506012610f82565b60405162461bcd60e51b81526020600482015260096024820152681b9bdd0b599bdd5b9960ba1b60448201526064016106f0565b5f87610f8e5783610f90565b845b90508915610fbf5780610fa88b64e8d4a51000613f98565b610fb29190613fc3565b9650505050505050610ff9565b6064610fcb8285613f98565b610fd59190613fc3565b610fe083600a6140c2565b610fef8b64e8d4a51000613f98565b610fa89190613f98565b949350505050565b3373a45f7bd6a5ff45d31aace6bcd3d426d9328cea011480611036575033734f6f977acdd1177dcd81ab83074855ecb9c2d49e145b8061105457503073059a94a72951c0ae1cc1ce3bf0db52421bbe8210145b80611072575030739efde135ca4832abf0408c44c6f5f370eb0f35e8145b80611090575030735c43aac965ff230ac1cf63e924d0153291d78bad145b806110ae575030733daff61fe5cfb1f1b4ea7fba8173a58532ef1841145b806110cc57503073e7eb63a8b6392481a9fdebb108cfd580dc8664d3145b6111115760405162461bcd60e51b81526020600482015260166024820152751b5cd9cb9cd95b99195c8b5b9bdd0b585b1b1bddd95960521b60448201526064016106f0565b6040805160018082528183019092525f9082602080830190803683370190505090505f8267ffffffffffffffff81111561114d5761114d613e28565b604051908082528060200260200182016040528015611176578160200160208202803683370190505b5090505f8367ffffffffffffffff81111561119357611193613e28565b6040519080825280602002602001820160405280156111c657816020015b60608152602001906001900390816111b15790505b5090505f8467ffffffffffffffff8111156111e3576111e3613e28565b60405190808252806020026020018201604052801561121657816020015b60608152602001906001900390816112015790505b509050732386dc45added673317ef068992f19421b481f4c845f8151811061124057611240613f41565b60200260200101906001600160a01b031690816001600160a01b0316815250505f835f8151811061127357611273613f41565b60200260200101818152505060405180606001604052806024815260200161452960249139825f815181106112aa576112aa613f41565b602090810291909101810191909152604080515f815291820181526112f2917f000000000000000000000000000000000000000000000000000000000000000091810161411a565b604051602081830303815290604052815f8151811061131357611313613f41565b6020908102919091010152604051636d4ab48d60e11b81525f90730204cd037b2ec03605cfdfe482d8e257c765fa1b9063da95691a9061135f9088908890889088908e906004016141ef565b6020604051808303815f875af115801561137b573d5f803e3d5ffd5b505050506040513d601f19601f8201168201806040525081019061139f9190613f81565b9050606d81146113e85760405162461bcd60e51b815260206004820152601460248201527350524f504f53414c5f49535f4e4f545f53414d4560601b60448201526064016106f0565b3373a45f7bd6a5ff45d31aace6bcd3d426d9328cea01148061141d575033734f6f977acdd1177dcd81ab83074855ecb9c2d49e145b156114305761142b426115dd565b6114ac565b604051631f615d2360e31b815264ffffffffff421660048201527f00000000000000000000000000000000000000000000000000000000000000006001600160a01b03169063fb0ae918906024015f604051808303815f87803b158015611495575f80fd5b505af11580156114a7573d5f803e3d5ffd5b505050505b50505050505050565b5f73c02aaa39b223fe8d0a0e5c4f27ead9083c756cc1196001600160a01b03831601611544576040805163bb4a64d360e01b81526001600160a01b03841660048201526024810191909152601060448201526f4e6174697665556e6465726c79696e6760801b60648201527354b91a0d94cb471f37f949c60f7fa7935b551d039063bb4a64d390608401610750565b6040805163bb4a64d360e01b81526001600160a01b038416600482015260248101919091526006604482015265332a37b5b2b760d11b60648201527354b91a0d94cb471f37f949c60f7fa7935b551d039063bb4a64d390608401610750565b60405163735e935160e11b8152600481018290525f9073324c5dc1fc42c7a4d43d92df1eba58a54d13bf2d9063e6bd26a290602401610750565b3373a45f7bd6a5ff45d31aace6bcd3d426d9328cea011480611612575033734f6f977acdd1177dcd81ab83074855ecb9c2d49e145b8061163057503373059a94a72951c0ae1cc1ce3bf0db52421bbe8210145b8061164e575033739efde135ca4832abf0408c44c6f5f370eb0f35e8145b8061166c575033735c43aac965ff230ac1cf63e924d0153291d78bad145b8061168a575033733daff61fe5cfb1f1b4ea7fba8173a58532ef1841145b806116a857503373e7eb63a8b6392481a9fdebb108cfd580dc8664d3145b6116ed5760405162461bcd60e51b81526020600482015260166024820152751b5cd9cb9cd95b99195c8b5b9bdd0b585b1b1bddd95960521b60448201526064016106f0565b5f805464ffffffffff191664ffffffffff92909216919091179055565b30732386dc45added673317ef068992f19421b481f4c146117605760405162461bcd60e51b815260206004820152601060248201526f3737ba16bb30b634b216b1b0b63632b960811b60448201526064016106f0565b7f00000000000000000000000000000000000000000000000000000000000000006001600160a01b0316631392d4ee6040518163ffffffff1660e01b8152600401602060405180830381865afa1580156117bc573d5f803e3d5ffd5b505050506040513d601f19601f820116820180604052508101906117e09190614281565b6107e55760405162461bcd60e51b815260206004820152601760248201527f70726f706f73616c2d6e6f742d65786563757461626c6500000000000000000060448201526064016106f0565b6040516352e5787b60e11b8152600160048201819052907f00000000000000000000000000000000000000000000000000000000000000006001600160a01b03169063a5caf0f690602401602060405180830381865afa158015611892573d5f803e3d5ffd5b505050506040513d601f19601f820116820180604052508101906118b69190614281565b611b3c5760408051600880825261012082019092526123f0916124b891612580915f919060208201610100803683370190505090506011815f815181106118ff576118ff613f41565b60200260200101818152505060128160018151811061192057611920613f41565b60200260200101818152505060328160028151811061194157611941613f41565b60200260200101818152505060388160038151811061196257611962613f41565b602002602001018181525050605c8160048151811061198357611983613f41565b6020026020010181815250506062816005815181106119a4576119a4613f41565b602002602001018181525050607d816006815181106119c5576119c5613f41565b602002602001018181525050607e816007815181106119e6576119e6613f41565b6020026020010181815250505f5b8151811015611b36575f611a20838381518110611a1357611a13613f41565b60200260200101516115a3565b604051631131d2c560e31b8152600481018690529091506001600160a01b0382169063898e9628906024015f604051808303815f87803b158015611a62575f80fd5b505af1158015611a74573d5f803e3d5ffd5b50506040516369dadf0d60e11b8152600481018890526001600160a01b038416925063d3b5be1a91506024015f604051808303815f87803b158015611ab7575f80fd5b505af1158015611ac9573d5f803e3d5ffd5b5050604051631427086960e21b8152600481018990526001600160a01b038416925063509c21a491506024015f604051808303815f87803b158015611b0c575f80fd5b505af1158015611b1e573d5f803e3d5ffd5b50505050508080611b2e90613f69565b9150506119f4565b50505050505b50565b6040516352e5787b60e11b8152600260048201819052907f00000000000000000000000000000000000000000000000000000000000000006001600160a01b03169063a5caf0f690602401602060405180830381865afa158015611ba5573d5f803e3d5ffd5b505050506040513d601f19601f82011682018060405250810190611bc99190614281565b611b3c5760408051600980825261014082019092526123f0916124b8916125809160c8915f916020820161012080368337019050509050606e815f81518110611c1457611c14613f41565b602002602001018181525050606f81600181518110611c3557611c35613f41565b602002602001018181525050607081600281518110611c5657611c56613f41565b602002602001018181525050608581600381518110611c7757611c77613f41565b602002602001018181525050608681600481518110611c9857611c98613f41565b602002602001018181525050608781600581518110611cb957611cb9613f41565b602002602001018181525050608e81600681518110611cda57611cda613f41565b602002602001018181525050608f81600781518110611cfb57611cfb613f41565b602002602001018181525050609081600881518110611d1c57611d1c613f41565b6020026020010181815250505f5b81518110156114ac575f611d49838381518110611a1357611a13613f41565b604051631131d2c560e31b8152600481018790529091506001600160a01b0382169063898e9628906024015f604051808303815f87803b158015611d8b575f80fd5b505af1158015611d9d573d5f803e3d5ffd5b50506040516369dadf0d60e11b8152600481018990526001600160a01b038416925063d3b5be1a91506024015f604051808303815f87803b158015611de0575f80fd5b505af1158015611df2573d5f803e3d5ffd5b5050604051631427086960e21b8152600481018a90526001600160a01b038416925063509c21a491506024015f604051808303815f87803b158015611e35575f80fd5b505af1158015611e47573d5f803e3d5ffd5b50506040516357917a1160e01b8152600481018790526001600160a01b03841692506357917a1191506024015f604051808303815f87803b158015611e8a575f80fd5b505af1158015611e9c573d5f803e3d5ffd5b50505050508080611eac90613f69565b915050611d2a565b6040516352e5787b60e11b8152600360048201819052907f00000000000000000000000000000000000000000000000000000000000000006001600160a01b03169063a5caf0f690602401602060405180830381865afa158015611f1a573d5f803e3d5ffd5b505050506040513d601f19601f82011682018060405250810190611f3e9190614281565b611b3c576040805160018082528183019092525f91816020015b6060815260200190600190039081611f585750506040805160018082528183019092529192505f9190602082015b6060815260200190600190039081611f865790505090505f6040518060600160405280603181526020016144f86031913990505f69d3c21bcecceda100000090506040518060400160405280600781526020016642415349432d4160c81b815250845f81518110611ff957611ff9613f41565b6020908102919091010152604051736f40d4a6237c257fff2db00fa0510deeecd303eb602482015260448101829052734f6f977acdd1177dcd81ab83074855ecb9c2d49e60648201525f6084820181905260a4820152829060c4015b60408051601f1981840301815290829052916120709161429c565b60405180910390206001600160e01b0319166020820180516001600160e01b038381831617835250505050835f815181106120ad576120ad613f41565b6020908102919091010152506040516324c1324d60e21b81527328849d2b63fa8d361e5fc15cb8abb13019884d0990639304c934906120f4908690869030906004016142b7565b6020604051808303815f875af1158015612110573d5f803e3d5ffd5b505050506040513d601f19601f820116820180604052508101906121349190613f81565b5050505050565b6040516352e5787b60e11b81526004808201819052907f00000000000000000000000000000000000000000000000000000000000000006001600160a01b03169063a5caf0f690602401602060405180830381865afa1580156121a0573d5f803e3d5ffd5b505050506040513d601f19601f820116820180604052508101906121c49190614281565b611b3c576040805160018082528183019092525f91816020015b60608152602001906001900390816121de5750506040805160018082528183019092529192505f9190602082015b606081526020019060019003908161220c5790505090505f6040518060600160405280603181526020016144f86031913990505f68084033059c1e74000090506040518060400160405280600781526020016642415349432d4160c81b815250845f8151811061227e5761227e613f41565b602090810291909101015260405173a0d3707c569ff8c87fa923d3823ec5d81c98be78602482015260448101829052734f6f977acdd1177dcd81ab83074855ecb9c2d49e60648201525f6084820181905260a4820152829060c401612055565b6040516352e5787b60e11b8152600560048201819052907f00000000000000000000000000000000000000000000000000000000000000006001600160a01b03169063a5caf0f690602401602060405180830381865afa158015612344573d5f803e3d5ffd5b505050506040513d601f19601f820116820180604052508101906123689190614281565b611b3c575f61237760696115a3565b90505f612384601661071a565b90506123908183613809565b61239a81836138f3565b604051633eff8b6b60e21b81526001600160a01b038381166004830152600160248301819052604483015282169063fbfe2dac906064015f604051808303815f87803b1580156123e8575f80fd5b505af11580156123fa573d5f803e3d5ffd5b5050505050505f61240b601661071a565b905061242b8173cbb7c0000ab88b473b1f5afd9ef808440eed33bf6139d3565b6124498173dac17f958d2ee523a2206206994597c13d831ec76139d3565b6124678173cbb7c0000ab88b473b1f5afd9ef808440eed33bf613aa2565b6124858173dac17f958d2ee523a2206206994597c13d831ec7613aa2565b6040805160028082526060820183525f9260208301908036833701905050905073cbb7c0000ab88b473b1f5afd9ef808440eed33bf815f815181106124cc576124cc613f41565b60200260200101906001600160a01b031690816001600160a01b03168152505073dac17f958d2ee523a2206206994597c13d831ec78160018151811061251457612514613f41565b6001600160a01b03929092166020928302919091018201526040805160028082526060820183525f93919290918301908036833701905050905073cbb7c0000ab88b473b1f5afd9ef808440eed33bf815f8151811061257557612575613f41565b60200260200101906001600160a01b031690816001600160a01b03168152505073dac17f958d2ee523a2206206994597c13d831ec7816001815181106125bd576125bd613f41565b6001600160a01b039092166020928302919091019091015260405163dd4cbf6b60e01b81527352aa899454998be5b000ad077a46bbe360f4e4979063dd4cbf6b90612610908690869086906004016142f4565b5f604051808303815f87803b158015612627575f80fd5b505af1158015612639573d5f803e3d5ffd5b5050604051632ce226fd60e21b81525f60048201526001600160a01b038616925063b3889bf491506024015f604051808303815f87803b15801561267b575f80fd5b505af115801561268d573d5f803e3d5ffd5b50506040516369482f6b60e11b81525f60048201526001600160a01b038616925063d2905ed691506024015f604051808303815f87803b1580156126cf575f80fd5b505af11580156126e1573d5f803e3d5ffd5b50505050826001600160a01b03166382df16526040518163ffffffff1660e01b81526004015f604051808303815f87803b15801561271d575f80fd5b505af115801561272f573d5f803e3d5ffd5b5050505050505050565b6040516352e5787b60e11b8152600660048201819052907f00000000000000000000000000000000000000000000000000000000000000006001600160a01b03169063a5caf0f690602401602060405180830381865afa15801561279f573d5f803e3d5ffd5b505050506040513d601f19601f820116820180604052508101906127c39190614281565b611b3c575f6127d2606a6115a3565b90505f6127df601a61071a565b90506127eb8183613809565b6127f581836138f3565b604051633eff8b6b60e21b81526001600160a01b038381166004830152600160248301819052604483015282169063fbfe2dac906064015f604051808303815f87803b158015612843575f80fd5b505af1158015612855573d5f803e3d5ffd5b5050505050505f612866601a61071a565b90506128868173cbb7c0000ab88b473b1f5afd9ef808440eed33bf6139d3565b6128a48173eeeeeeeeeeeeeeeeeeeeeeeeeeeeeeeeeeeeeeee6139d3565b6128c28173cbb7c0000ab88b473b1f5afd9ef808440eed33bf613aa2565b6128e08173eeeeeeeeeeeeeeeeeeeeeeeeeeeeeeeeeeeeeeee613aa2565b6040805160028082526060820183525f9260208301908036833701905050905073cbb7c0000ab88b473b1f5afd9ef808440eed33bf815f8151811061292757612927613f41565b60200260200101906001600160a01b031690816001600160a01b03168152505073eeeeeeeeeeeeeeeeeeeeeeeeeeeeeeeeeeeeeeee8160018151811061296f5761296f613f41565b6001600160a01b03929092166020928302919091018201526040805160028082526060820183525f93919290918301908036833701905050905073cbb7c0000ab88b473b1f5afd9ef808440eed33bf815f815181106129d0576129d0613f41565b60200260200101906001600160a01b031690816001600160a01b03168152505073eeeeeeeeeeeeeeeeeeeeeeeeeeeeeeeeeeeeeeee816001815181106125bd576125bd613f41565b6040516352e5787b60e11b8152600760048201819052907f00000000000000000000000000000000000000000000000000000000000000006001600160a01b03169063a5caf0f690602401602060405180830381865afa158015612a7e573d5f803e3d5ffd5b505050506040513d601f19601f82011682018060405250810190612aa29190614281565b611b3c576040805160a081018252732bbe31d63e6813e3ac858c04dae43fb2a72b0d1180825273a3931d71877c0e7a3148cb7eb4463524fec27fbd60208301526109c492820192909252615460606082015261c350608082015261089b81613bbd565b6040516352e5787b60e11b8152600860048201819052907f00000000000000000000000000000000000000000000000000000000000000006001600160a01b03169063a5caf0f690602401602060405180830381865afa158015612b6b573d5f803e3d5ffd5b505050506040513d601f19601f82011682018060405250810190612b8f9190614281565b611b3c575f612b9e60546115a3565b6040805160018082528183019092529192505f9190816020015b612bc0613cd3565b815260200190600190039081612bb85790505090506040518060c00160405280836001600160a01b0316815260200173eeeeeeeeeeeeeeeeeeeeeeeeeeeeeeeeeeeeeeee6001600160a01b03168152602001600160ff1681526020016109c48152602001615460815260200166470de4df820000815250815f81518110612c4957612c49613f41565b60209081029190910101526040516301635db560e11b81527352aa899454998be5b000ad077a46bbe360f4e497906302c6bb6a90612c8b908490600401614333565b5f604051808303815f87803b158015612ca2575f80fd5b505af1158015612cb4573d5f803e3d5ffd5b50505050612cd68273a3931d71877c0e7a3148cb7eb4463524fec27fbd613aa2565b50505f612ce360556115a3565b6040805160018082528183019092529192505f9190816020015b612d05613cd3565b815260200190600190039081612cfd5790505090506040518060c00160405280836001600160a01b03168152602001737f39c581f595b53c5cb19bd0b3f8da6c935e2ca06001600160a01b03168152602001600160ff1681526020016109c4815260200161546081526020016801236efcbcbb340000815250815f81518110612d9057612d90613f41565b60209081029190910101526040516301635db560e11b81527352aa899454998be5b000ad077a46bbe360f4e497906302c6bb6a90612dd2908490600401614333565b5f604051808303815f87803b158015612de9575f80fd5b505af1158015612dfb573d5f803e3d5ffd5b50505050612e1d8273a3931d71877c0e7a3148cb7eb4463524fec27fbd613aa2565b50505f612e2a60566115a3565b9050612e4a8173cbb7c0000ab88b473b1f5afd9ef808440eed33bf6139d3565b612e688173a3931d71877c0e7a3148cb7eb4463524fec27fbd613aa2565b6040805160018082528183019092525f916020808301908036833701905050905073cbb7c0000ab88b473b1f5afd9ef808440eed33bf815f81518110612eb057612eb0613f41565b6001600160a01b0392909216602092830291909101909101526040805160018082528183019092525f9181602001602082028036833701905050905073a3931d71877c0e7a3148cb7eb4463524fec27fbd815f81518110612f1357612f13613f41565b6001600160a01b039092166020928302919091019091015260405163dd4cbf6b60e01b81527352aa899454998be5b000ad077a46bbe360f4e4979063dd4cbf6b90612f66908690869086906004016142f4565b5f604051808303815f87803b158015612f7d575f80fd5b505af1158015612f8f573d5f803e3d5ffd5b505050505050505f612fa1605b6115a3565b6040805160018082528183019092529192505f9190816020015b612fc3613cd3565b815260200190600190039081612fbb5790505090506040518060c00160405280836001600160a01b0316815260200173cd5fe23c85820f7b72d0926fc9b05b43e359b7ee6001600160a01b03168152602001600160ff1681526020016109c48152602001615460815260200166354a6ba7a18000815250815f8151811061304c5761304c613f41565b60209081029190910101526040516301635db560e11b81527352aa899454998be5b000ad077a46bbe360f4e497906302c6bb6a9061308e908490600401614333565b5f604051808303815f87803b1580156130a5575f80fd5b505af11580156130b7573d5f803e3d5ffd5b505050506130d98273a3931d71877c0e7a3148cb7eb4463524fec27fbd613aa2565b50505f6130e6603a6115a3565b6040805160018082528183019092529192505f9190816020015b613108613cd3565b8152602001906001900390816131005790505090506040518060c00160405280836001600160a01b0316815260200173a3931d71877c0e7a3148cb7eb4463524fec27fbd6001600160a01b03168152602001600160ff1681526020016109c48152602001615460815260200169043c33c1937564800000815250815f8151811061319457613194613f41565b60209081029190910101526040516301635db560e11b81527352aa899454998be5b000ad077a46bbe360f4e497906302c6bb6a906131d6908490600401614333565b5f604051808303815f87803b1580156131ed575f80fd5b505af11580156131ff573d5f803e3d5ffd5b5050505061089b827340d16fc0246ad3160ccc09b8d0d3a2cd28ae6c2f613aa2565b6040516352e5787b60e11b8152600960048201819052907f00000000000000000000000000000000000000000000000000000000000000006001600160a01b03169063a5caf0f690602401602060405180830381865afa158015613287573d5f803e3d5ffd5b505050506040513d601f19601f820116820180604052508101906132ab9190614281565b611b3c575f6132ba601f61071a565b90506132da8173a3931d71877c0e7a3148cb7eb4463524fec27fbd6139d3565b6132f88173dac17f958d2ee523a2206206994597c13d831ec76139d3565b6133168173a3931d71877c0e7a3148cb7eb4463524fec27fbd613aa2565b6133348173dac17f958d2ee523a2206206994597c13d831ec7613aa2565b6040805160028082526060820183525f9260208301908036833701905050905073a3931d71877c0e7a3148cb7eb4463524fec27fbd815f8151811061337b5761337b613f41565b60200260200101906001600160a01b031690816001600160a01b03168152505073dac17f958d2ee523a2206206994597c13d831ec7816001815181106133c3576133c3613f41565b6001600160a01b03929092166020928302919091018201526040805160028082526060820183525f93919290918301908036833701905050905073a3931d71877c0e7a3148cb7eb4463524fec27fbd815f8151811061342457613424613f41565b60200260200101906001600160a01b031690816001600160a01b03168152505073dac17f958d2ee523a2206206994597c13d831ec78160018151811061346c5761346c613f41565b6001600160a01b039092166020928302919091019091015260405163dd4cbf6b60e01b81527352aa899454998be5b000ad077a46bbe360f4e4979063dd4cbf6b906134bf908690869086906004016142f4565b5f604051808303815f87803b1580156134d6575f80fd5b505af11580156134e8573d5f803e3d5ffd5b505050505050505f6134fa601f6108a0565b90505f613507601f61071a565b90506135138183613809565b604051633eff8b6b60e21b81526001600160a01b038381166004830152600160248301525f604483015282169063fbfe2dac906064015f604051808303815f87803b158015613560575f80fd5b505af1158015613572573d5f803e3d5ffd5b5050604051632ce226fd60e21b81525f60048201526001600160a01b038416925063b3889bf491506024015f604051808303815f87803b1580156135b4575f80fd5b505af11580156135c6573d5f803e3d5ffd5b50505050806001600160a01b03166382df16526040518163ffffffff1660e01b81526004015f604051808303815f87803b158015613602575f80fd5b505af11580156114ac573d5f803e3d5ffd5b67ffffffffffffffff605b82901c811690609b83901c16811580613636575080155b1561365957604051636a86ba8960e11b81526201117160048201526024016106f0565b61ffff8316603a84901c6401ffffffff16428181039160ea87901c617fff16911480613683575082155b8061368e5750806001145b1561369b57505050915091565b64496cebb80084840283020484019350617fff60db87901c169250826001036136c657505050915091565b8260011660010361371b5760019290921c91826c7e37be2022c0914b2680000000816136f4576136f4613faf565b049250612710601e87901c613fff166b033b2e3c9fd0803ce8000000850102049250613748565b60019290921c916305f5e100601e87901c613fff166127108501026b033b2e3c9fd0803ce8000000020492505b8060011660010361377f5760011c61271081016b033b2e3c9fd0803ce800000082028161377757613777613faf565b0490506137b5565b60011c61271081016b033b2e3c9fd0803ce80000008202816137a3576137a3613faf565b046b033b2e3c9fd0803ce80000000390505b760a70c3c40a64e6c51999090b65f67d92400000000000008382026127100261ffff881691900402601087901c613fff16612710030292506801b5a660ea44b8000085840283020485019450505050915091565b6040805160018082528183019092525f91816020015b61384f60405180608001604052805f6001600160a01b031681526020015f81526020015f81526020015f81525090565b81526020019060019003908161381f5790505090506040518060800160405280836001600160a01b031681526020016001815260200162ffffff8152602001600a815250815f815181106138a5576138a5613f41565b602090810291909101015260405163137ed05b60e11b81526001600160a01b038416906326fda0b6906138dc9084906004016143ac565b5f604051808303815f87803b158015613602575f80fd5b6040805160018082528183019092525f91816020015b61393f6040518060a001604052805f6001600160a01b031681526020015f81526020015f81526020015f81526020015f81525090565b8152602001906001900390816139095790505090506040518060a00160405280836001600160a01b031681526020016001815260200162ffffff8152602001600a81526020016014815250815f8151811061399c5761399c613f41565b602090810291909101015260405163ba9af1e360e01b81526001600160a01b0384169063ba9af1e3906138dc90849060040161440b565b6040805160018082528183019092525f91816020015b6139f1613cd3565b8152602001906001900390816139e95790505090506040518060c00160405280846001600160a01b03168152602001836001600160a01b03168152602001600160ff1681526020016001815260200162ffffff8152602001600a815250815f81518110613a6057613a60613f41565b60209081029190910101526040516301635db560e11b81527352aa899454998be5b000ad077a46bbe360f4e497906302c6bb6a906138dc908490600401614333565b6040805160018082528183019092525f91816020015b613b066040518060e001604052805f6001600160a01b031681526020015f6001600160a01b031681526020015f60ff1681526020015f81526020015f81526020015f81526020015f81525090565b815260200190600190039081613ab85790505090506040518060e00160405280846001600160a01b03168152602001836001600160a01b03168152602001600160ff1681526020016001815260200162ffffff8152602001600a81526020016014815250815f81518110613b7c57613b7c613f41565b602090810291909101015260405162dc47c360e11b81527352aa899454998be5b000ad077a46bbe360f4e497906301b88f86906138dc908490600401614474565b6040805160018082528183019092525f91816020015b613bdb613cd3565b815260200190600190039081613bd35790505090506040518060c00160405280835f01516001600160a01b0316815260200183602001516001600160a01b03168152602001600160ff1681526020018360400151815260200183606001518152602001613c5384602001515f866080015160016108da565b815250815f81518110613c6857613c68613f41565b60209081029190910101526040516301635db560e11b81527352aa899454998be5b000ad077a46bbe360f4e497906302c6bb6a90613caa908490600401614333565b5f604051808303815f87803b158015613cc1575f80fd5b505af1158015611b36573d5f803e3d5ffd5b6040518060c001604052805f6001600160a01b031681526020015f6001600160a01b031681526020015f60ff1681526020015f81526020015f81526020015f81525090565b8015158114611b3c575f80fd5b5f60208284031215613d35575f80fd5b8135613d4081613d18565b9392505050565b5f60208284031215613d57575f80fd5b5035919050565b5f8060208385031215613d6f575f80fd5b823567ffffffffffffffff80821115613d86575f80fd5b818501915085601f830112613d99575f80fd5b813581811115613da7575f80fd5b8660208260051b8501011115613dbb575f80fd5b60209290920196919550909350505050565b6001600160a01b0381168114611b3c575f80fd5b5f805f8060808587031215613df4575f80fd5b8435613dff81613dcd565b935060208501359250604085013591506060850135613e1d81613d18565b939692955090935050565b634e487b7160e01b5f52604160045260245ffd5b5f60208284031215613e4c575f80fd5b813567ffffffffffffffff80821115613e63575f80fd5b818401915084601f830112613e76575f80fd5b813581811115613e8857613e88613e28565b604051601f8201601f19908116603f01168101908382118183101715613eb057613eb0613e28565b81604052828152876020848701011115613ec8575f80fd5b826020860160208301375f928101602001929092525095945050505050565b5f60208284031215613ef7575f80fd5b8135613d4081613dcd565b5f60208284031215613f12575f80fd5b813564ffffffffff81168114613d40575f80fd5b5f60208284031215613f36575f80fd5b8151613d4081613dcd565b634e487b7160e01b5f52603260045260245ffd5b634e487b7160e01b5f52601160045260245ffd5b5f60018201613f7a57613f7a613f55565b5060010190565b5f60208284031215613f91575f80fd5b5051919050565b808202811582820484141761078f5761078f613f55565b634e487b7160e01b5f52601260045260245ffd5b5f82613fdd57634e487b7160e01b5f52601260045260245ffd5b500490565b600181815b8085111561401c57815f190482111561400257614002613f55565b8085161561400f57918102915b93841c9390800290613fe7565b509250929050565b5f826140325750600161078f565b8161403e57505f61078f565b8160018114614054576002811461405e5761407a565b600191505061078f565b60ff84111561406f5761406f613f55565b50506001821b61078f565b5060208310610133831016604e8410600b841016171561409d575081810a61078f565b6140a78383613fe2565b805f19048211156140ba576140ba613f55565b029392505050565b5f613d408383614024565b5f5b838110156140e75781810151838201526020016140cf565b50505f910152565b5f81518084526141068160208601602086016140cd565b601f01601f19169290920160200192915050565b60018060a01b038316815260606020820152600960608201526865786563757465282960b81b608082015260a060408201525f610ff960a08301846140ef565b5f8151808452602080850194508084015f5b838110156141915781516001600160a01b03168752958201959082019060010161416c565b509495945050505050565b5f81518084526020808501808196508360051b810191508286015f5b858110156141e25782840389526141d08483516140ef565b988501989350908401906001016141b8565b5091979650505050505050565b60a081525f61420160a083018861415a565b8281036020848101919091528751808352888201928201905f5b818110156142375784518352938301939183019160010161421b565b5050848103604086015261424b818961419c565b925050508281036060840152614261818661419c565b9050828103608084015261427581856140ef565b98975050505050505050565b5f60208284031215614291575f80fd5b8151613d4081613d18565b5f82516142ad8184602087016140cd565b9190910192915050565b606081525f6142c9606083018661419c565b82810360208401526142db818661419c565b91505060018060a01b0383166040830152949350505050565b6001600160a01b03841681526060602082018190525f906143179083018561415a565b8281036040840152614329818561415a565b9695505050505050565b602080825282518282018190525f919060409081850190868401855b828110156141e257815180516001600160a01b0390811686528782015116878601528581015160ff1686860152606080820151908601526080808201519086015260a0908101519085015260c0909301929085019060010161434f565b602080825282518282018190525f919060409081850190868401855b828110156141e257815180516001600160a01b031685528681015187860152858101518686015260609081015190850152608090930192908501906001016143c8565b602080825282518282018190525f919060409081850190868401855b828110156141e257815180516001600160a01b0316855286810151878601528581015186860152606080820151908601526080908101519085015260a09093019290850190600101614427565b602080825282518282018190525f919060409081850190868401855b828110156141e257815180516001600160a01b0390811686528782015116878601528581015160ff1686860152606080820151908601526080808201519086015260a0808201519086015260c0908101519085015260e0909301929085019060010161449056fe776974686472617728616464726573732c75696e743235362c616464726573732c75696e743235362c75696e7432353629657865637574655061796c6f616428616464726573732c737472696e672c627974657329a264697066735822122072b83a702b480c959d810318c560b2162ddf8e053fa318d3a384803e7f56d14564736f6c63430008150033",
  "linkReferences": {},
  "deployedLinkReferences": {},
  "immutableReferences": {
    "1748": [
      {
        "length": 32,
        "start": 1530
      },
      {
        "length": 32,
        "start": 4811
      },
      {
        "length": 32,
        "start": 5196
      },
      {
        "length": 32,
        "start": 5986
      },
      {
        "length": 32,
        "start": 6213
      },
      {
        "length": 32,
        "start": 7000
      },
      {
        "length": 32,
        "start": 7885
      },
      {
        "length": 32,
        "start": 8531
      },
      {
        "length": 32,
        "start": 8951
      },
      {
        "length": 32,
        "start": 10066
      },
      {
        "length": 32,
        "start": 10801
      },
      {
        "length": 32,
        "start": 11038
      },
      {
        "length": 32,
        "start": 12858
      }
    ]
  },
  "inputSourceName": "project/contracts/payloads/IGP109/PayloadIGP109.sol",
  "buildInfoId": "solc-0_8_21-3a934d749ce0a9be7dab75d9be61f72eaa9eda51"
}