{
  "_format": "hh3-artifact-1",
  "contractName": "PayloadIGP114",
  "sourceName": "contracts/payloads/IGP114/PayloadIGP114.sol",
  "abi": [
    {
      "inputs": [
        {
          "internalType": "uint256",
          "name": "errorId_",
          "type": "uint256"
        }
      ],
      "name": "FluidLiquidityCalcsError",
      "type": "error"
    },
    {
      "inputs": [],
      "name": "ADDRESS_THIS",
      "outputs": [
        {
          "internalType": "address",
          "name": "",
          "type": "address"
        }
      ],
      "stateMutability": "view",
      "type": "function"
    },
    {
      "inputs": [],
      "name": "BTC_USD_PRICE",
      "outputs": [
        {
          "internalType": "uint256",
          "name": "",
          "type": "uint256"
        }
      ],
      "stateMutability": "view",
      "type": "function"
    },
    {
      "inputs": [],
      "name": "DEX_FACTORY",
      "outputs": [
        {
          "internalType": "contract IFluidDexFactory",
          "name": "",
          "type": "address"
        }
      ],
      "stateMutability": "view",
      "type": "function"
    },
    {
      "inputs": [],
      "name": "DSA_CONNECTORS_V2",
      "outputs": [
        {
          "internalType": "contract IDSAConnectorsV2",
          "name": "",
          "type": "address"
        }
      ],
      "stateMutability": "view",
      "type": "function"
    },
    {
      "inputs": [],
      "name": "ETH_USD_PRICE",
      "outputs": [
        {
          "internalType": "uint256",
          "name": "",
          "type": "uint256"
        }
      ],
      "stateMutability": "view",
      "type": "function"
    },
    {
      "inputs": [],
      "name": "FLUID_RESERVE",
      "outputs": [
        {
          "internalType": "contract IFluidReserveContract",
          "name": "",
          "type": "address"
        }
      ],
      "stateMutability": "view",
      "type": "function"
    },
    {
      "inputs": [],
      "name": "FLUID_USD_PRICE",
      "outputs": [
        {
          "internalType": "uint256",
          "name": "",
          "type": "uint256"
        }
      ],
      "stateMutability": "view",
      "type": "function"
    },
    {
      "inputs": [],
      "name": "GOVERNOR",
      "outputs": [
        {
          "internalType": "contract IGovernorBravo",
          "name": "",
          "type": "address"
        }
      ],
      "stateMutability": "view",
      "type": "function"
    },
    {
      "inputs": [],
      "name": "IETHV2",
      "outputs": [
        {
          "internalType": "contract ILite",
          "name": "",
          "type": "address"
        }
      ],
      "stateMutability": "view",
      "type": "function"
    },
    {
      "inputs": [],
      "name": "JRUSDE_USD_PRICE",
      "outputs": [
        {
          "internalType": "uint256",
          "name": "",
          "type": "uint256"
        }
      ],
      "stateMutability": "view",
      "type": "function"
    },
    {
      "inputs": [],
      "name": "LENDING_FACTORY",
      "outputs": [
        {
          "internalType": "contract IFluidLendingFactory",
          "name": "",
          "type": "address"
        }
      ],
      "stateMutability": "view",
      "type": "function"
    },
    {
      "inputs": [],
      "name": "LIQUIDITY",
      "outputs": [
        {
          "internalType": "contract IFluidLiquidityAdmin",
          "name": "",
          "type": "address"
        }
      ],
      "stateMutability": "view",
      "type": "function"
    },
    {
      "inputs": [],
      "name": "OSETH_USD_PRICE",
      "outputs": [
        {
          "internalType": "uint256",
          "name": "",
          "type": "uint256"
        }
      ],
      "stateMutability": "view",
      "type": "function"
    },
    {
      "inputs": [],
      "name": "PAXG_USD_PRICE",
      "outputs": [
        {
          "internalType": "uint256",
          "name": "",
          "type": "uint256"
        }
      ],
      "stateMutability": "view",
      "type": "function"
    },
    {
      "inputs": [],
      "name": "PROPOSAL_ID",
      "outputs": [
        {
          "internalType": "uint256",
          "name": "",
          "type": "uint256"
        }
      ],
      "stateMutability": "view",
      "type": "function"
    },
    {
      "inputs": [],
      "name": "PROPOSER",
      "outputs": [
        {
          "internalType": "address",
          "name": "",
          "type": "address"
        }
      ],
      "stateMutability": "view",
      "type": "function"
    },
    {
      "inputs": [],
      "name": "PROPOSER_AVO_MULTISIG",
      "outputs": [
        {
          "internalType": "address",
          "name": "",
          "type": "address"
        }
      ],
      "stateMutability": "view",
      "type": "function"
    },
    {
      "inputs": [],
      "name": "PROPOSER_AVO_MULTISIG_2",
      "outputs": [
        {
          "internalType": "address",
          "name": "",
          "type": "address"
        }
      ],
      "stateMutability": "view",
      "type": "function"
    },
    {
      "inputs": [],
      "name": "PROPOSER_AVO_MULTISIG_3",
      "outputs": [
        {
          "internalType": "address",
          "name": "",
          "type": "address"
        }
      ],
      "stateMutability": "view",
      "type": "function"
    },
    {
      "inputs": [],
      "name": "PROPOSER_AVO_MULTISIG_4",
      "outputs": [
        {
          "internalType": "address",
          "name": "",
          "type": "address"
        }
      ],
      "stateMutability": "view",
      "type": "function"
    },
    {
      "inputs": [],
      "name": "PROPOSER_AVO_MULTISIG_5",
      "outputs": [
        {
          "internalType": "address",
          "name": "",
          "type": "address"
        }
      ],
      "stateMutability": "view",
      "type": "function"
    },
    {
      "inputs": [],
      "name": "RESERVE_CONTRACT_PROXY",
      "outputs": [
        {
          "internalType": "address",
          "name": "",
          "type": "address"
        }
      ],
      "stateMutability": "view",
      "type": "function"
    },
    {
      "inputs": [],
      "name": "RLP_USD_PRICE",
      "outputs": [
        {
          "internalType": "uint256",
          "name": "",
          "type": "uint256"
        }
      ],
      "stateMutability": "view",
      "type": "function"
    },
    {
      "inputs": [],
      "name": "SMART_LENDING_FACTORY",
      "outputs": [
        {
          "internalType": "contract IFluidSmartLendingFactory",
          "name": "",
          "type": "address"
        }
      ],
      "stateMutability": "view",
      "type": "function"
    },
    {
      "inputs": [],
      "name": "SRUSDE_USD_PRICE",
      "outputs": [
        {
          "internalType": "uint256",
          "name": "",
          "type": "uint256"
        }
      ],
      "stateMutability": "view",
      "type": "function"
    },
    {
      "inputs": [],
      "name": "STABLE_USD_PRICE",
      "outputs": [
        {
          "internalType": "uint256",
          "name": "",
          "type": "uint256"
        }
      ],
      "stateMutability": "view",
      "type": "function"
    },
    {
      "inputs": [],
      "name": "TEAM_MULTISIG",
      "outputs": [
        {
          "internalType": "address",
          "name": "",
          "type": "address"
        }
      ],
      "stateMutability": "view",
      "type": "function"
    },
    {
      "inputs": [],
      "name": "TEAM_MULTISIG_2",
      "outputs": [
        {
          "internalType": "address",
          "name": "",
          "type": "address"
        }
      ],
      "stateMutability": "view",
      "type": "function"
    },
    {
      "inputs": [],
      "name": "TIMELOCK",
      "outputs": [
        {
          "internalType": "contract ITimelock",
          "name": "",
          "type": "address"
        }
      ],
      "stateMutability": "view",
      "type": "function"
    },
    {
      "inputs": [],
      "name": "TREASURY",
      "outputs": [
        {
          "internalType": "contract IDSAV2",
          "name": "",
          "type": "address"
        }
      ],
      "stateMutability": "view",
      "type": "function"
    },
    {
      "inputs": [],
      "name": "VAULT_FACTORY",
      "outputs": [
        {
          "internalType": "contract IFluidVaultFactory",
          "name": "",
          "type": "address"
        }
      ],
      "stateMutability": "view",
      "type": "function"
    },
    {
      "inputs": [],
      "name": "XAUT_USD_PRICE",
      "outputs": [
        {
          "internalType": "uint256",
          "name": "",
          "type": "uint256"
        }
      ],
      "stateMutability": "view",
      "type": "function"
    },
    {
      "inputs": [
        {
          "internalType": "uint256",
          "name": "action_",
          "type": "uint256"
        }
      ],
      "name": "actionStatus",
      "outputs": [
        {
          "internalType": "bool",
          "name": "",
          "type": "bool"
        }
      ],
      "stateMutability": "view",
      "type": "function"
    },
    {
      "inputs": [],
      "name": "execute",
      "outputs": [],
      "stateMutability": "nonpayable",
      "type": "function"
    },
    {
      "inputs": [],
      "name": "ezETH_USD_PRICE",
      "outputs": [
        {
          "internalType": "uint256",
          "name": "",
          "type": "uint256"
        }
      ],
      "stateMutability": "view",
      "type": "function"
    },
    {
      "inputs": [
        {
          "internalType": "uint256",
          "name": "dexId_",
          "type": "uint256"
        }
      ],
      "name": "getDexAddress",
      "outputs": [
        {
          "internalType": "address",
          "name": "",
          "type": "address"
        }
      ],
      "stateMutability": "view",
      "type": "function"
    },
    {
      "inputs": [
        {
          "internalType": "address",
          "name": "token",
          "type": "address"
        }
      ],
      "name": "getFTokenAddress",
      "outputs": [
        {
          "internalType": "address",
          "name": "",
          "type": "address"
        }
      ],
      "stateMutability": "view",
      "type": "function"
    },
    {
      "inputs": [],
      "name": "getProposalCreationTime",
      "outputs": [
        {
          "internalType": "uint40",
          "name": "",
          "type": "uint40"
        }
      ],
      "stateMutability": "view",
      "type": "function"
    },
    {
      "inputs": [
        {
          "internalType": "address",
          "name": "token",
          "type": "address"
        },
        {
          "internalType": "uint256",
          "name": "amount",
          "type": "uint256"
        },
        {
          "internalType": "uint256",
          "name": "amountInUSD",
          "type": "uint256"
        },
        {
          "internalType": "bool",
          "name": "isSupply",
          "type": "bool"
        }
      ],
      "name": "getRawAmount",
      "outputs": [
        {
          "internalType": "uint256",
          "name": "",
          "type": "uint256"
        }
      ],
      "stateMutability": "view",
      "type": "function"
    },
    {
      "inputs": [
        {
          "internalType": "uint256",
          "name": "dexId_",
          "type": "uint256"
        }
      ],
      "name": "getSmartLendingAddress",
      "outputs": [
        {
          "internalType": "address",
          "name": "",
          "type": "address"
        }
      ],
      "stateMutability": "view",
      "type": "function"
    },
    {
      "inputs": [
        {
          "internalType": "uint256",
          "name": "vaultId_",
          "type": "uint256"
        }
      ],
      "name": "getVaultAddress",
      "outputs": [
        {
          "internalType": "address",
          "name": "",
          "type": "address"
        }
      ],
      "stateMutability": "view",
      "type": "function"
    },
    {
      "inputs": [],
      "name": "isProposalExecutable",
      "outputs": [
        {
          "internalType": "bool",
          "name": "",
          "type": "bool"
        }
      ],
      "stateMutability": "view",
      "type": "function"
    },
    {
      "inputs": [],
      "name": "mETH_USD_PRICE",
      "outputs": [
        {
          "internalType": "uint256",
          "name": "",
          "type": "uint256"
        }
      ],
      "stateMutability": "view",
      "type": "function"
    },
    {
      "inputs": [
        {
          "internalType": "string",
          "name": "description",
          "type": "string"
        }
      ],
      "name": "propose",
      "outputs": [],
      "stateMutability": "nonpayable",
      "type": "function"
    },
    {
      "inputs": [],
      "name": "rsETH_USD_PRICE",
      "outputs": [
        {
          "internalType": "uint256",
          "name": "",
          "type": "uint256"
        }
      ],
      "stateMutability": "view",
      "type": "function"
    },
    {
      "inputs": [],
      "name": "sUSDe_USD_PRICE",
      "outputs": [
        {
          "internalType": "uint256",
          "name": "",
          "type": "uint256"
        }
      ],
      "stateMutability": "view",
      "type": "function"
    },
    {
      "inputs": [],
      "name": "sUSDs_USD_PRICE",
      "outputs": [
        {
          "internalType": "uint256",
          "name": "",
          "type": "uint256"
        }
      ],
      "stateMutability": "view",
      "type": "function"
    },
    {
      "inputs": [
        {
          "internalType": "uint256[]",
          "name": "actionsToSkip_",
          "type": "uint256[]"
        }
      ],
      "name": "setActionsToSkip",
      "outputs": [],
      "stateMutability": "nonpayable",
      "type": "function"
    },
    {
      "inputs": [
        {
          "internalType": "uint40",
          "name": "proposalCreationTime_",
          "type": "uint40"
        }
      ],
      "name": "setProposalCreationTime",
      "outputs": [],
      "stateMutability": "nonpayable",
      "type": "function"
    },
    {
      "inputs": [
        {
          "internalType": "address",
          "name": "userModuleAddress_",
          "type": "address"
        }
      ],
      "name": "setUserModuleAddress",
      "outputs": [],
      "stateMutability": "nonpayable",
      "type": "function"
    },
    {
      "inputs": [],
      "name": "syrupUSDC_USD_PRICE",
      "outputs": [
        {
          "internalType": "uint256",
          "name": "",
          "type": "uint256"
        }
      ],
      "stateMutability": "view",
      "type": "function"
    },
    {
      "inputs": [],
      "name": "syrupUSDT_USD_PRICE",
      "outputs": [
        {
          "internalType": "uint256",
          "name": "",
          "type": "uint256"
        }
      ],
      "stateMutability": "view",
      "type": "function"
    },
    {
      "inputs": [
        {
          "internalType": "bool",
          "name": "isExecutable_",
          "type": "bool"
        }
      ],
      "name": "toggleExecutable",
      "outputs": [],
      "stateMutability": "nonpayable",
      "type": "function"
    },
    {
      "inputs": [],
      "name": "userModuleAddress",
      "outputs": [
        {
          "internalType": "address",
          "name": "",
          "type": "address"
        }
      ],
      "stateMutability": "view",
      "type": "function"
    },
    {
      "inputs": [],
      "name": "verifyProposal",
      "outputs": [],
      "stateMutability": "view",
      "type": "function"
    },
    {
      "inputs": [],
      "name": "weETH_USD_PRICE",
      "outputs": [
        {
          "internalType": "uint256",
          "name": "",
          "type": "uint256"
        }
      ],
      "stateMutability": "view",
      "type": "function"
    },
    {
      "inputs": [],
      "name": "weETHs_USD_PRICE",
      "outputs": [
        {
          "internalType": "uint256",
          "name": "",
          "type": "uint256"
        }
      ],
      "stateMutability": "view",
      "type": "function"
    },
    {
      "inputs": [],
      "name": "wstETH_USD_PRICE",
      "outputs": [
        {
          "internalType": "uint256",
          "name": "",
          "type": "uint256"
        }
      ],
      "stateMutability": "view",
      "type": "function"
    },
    {
      "inputs": [],
      "name": "wstUSR_USD_PRICE",
      "outputs": [
        {
          "internalType": "uint256",
          "name": "",
          "type": "uint256"
        }
      ],
      "stateMutability": "view",
      "type": "function"
    }
  ],
  "bytecode": "0x60a0604052600280546001600160a01b031916905534801561001f575f80fd5b5030608052608051613cd661006d5f395f81816106fa0152818161149a015281816116140152818161192301528181611a0601528181611a9601528181611caa01526128550152613cd65ff3fe608060405234801561000f575f80fd5b5060043610610387575f3560e01c80637e2f35fa116101df578063ae68032b11610109578063cc025f7c116100a9578063f6370aa911610079578063f6370aa91461075d578063f88ed60c14610767578063fb0ae91814610782578063fcee0c9814610795575f80fd5b8063cc025f7c146106f5578063e6bd26a21461071c578063ed3660c51461072f578063f53eddcc14610742575f80fd5b8063b788f3a1116100e4578063b788f3a1146106b3578063bc3301a8146103b9578063bffa7f0f146106c7578063c60dc265146106e2575f80fd5b8063ae68032b146106ab578063b6966495146104f0578063b753428b146103b1575f80fd5b806397b87b4a1161017f578063a64f56931161014f578063a64f56931461066a578063a7a6091414610685578063a9055836146103c3578063aa98df3914610698575f80fd5b806397b87b4a146106025780639d3d2a781461061d5780639ef9473714610630578063a5caf0f614610648575f80fd5b806395861bd7116101ba57806395861bd7146105b857806396bac931146105d357806396db7d5c146105ee5780639781a8ca146105f8575f80fd5b80637e2f35fa1461058257806383f5d77a1461059d578063841d2699146105a5575f80fd5b806328787d00116102c057806362300732116102605780636dc0ae22116102305780636dc0ae221461052f5780637000778e1461054a578063798d5ba3146105545780637aadef8b14610567575f80fd5b8063623007321461051357806364e9d5671461051d5780636521e19f1461052557806366760d7d146103de575f80fd5b806348bbb5571161029b57806348bbb557146104ba578063588c77e6146104d557806358f2552e146104f0578063614619541461050b575f80fd5b806328787d00146103b15780632d2c5565146104955780633484818b146104b0575f80fd5b806311ae7a141161032b578063194c0e1811610306578063194c0e181461044d5780631bbc51a71461045757806325ad7f4d1461045f5780632861c7d11461047a575f80fd5b806311ae7a141461041357806312e366aa1461041b5780631392d4ee1461042e575f80fd5b80630b396e66116103665780630b396e66146103b95780630bc9136e146103c35780630e6a204c146103cb578063103f2907146103e0575f80fd5b8062623d7d1461038b5780630251eb11146103a7578063040e7a80146103b1575b5f80fd5b61039461014c81565b6040519081526020015b60405180910390f35b610394620474a081565b610394606481565b61039462048c1081565b610394607281565b6103de6103d936600461336f565b6107b0565b005b6103fb73324c5dc1fc42c7a4d43d92df1eba58a54d13bf2d81565b6040516001600160a01b03909116815260200161039e565b610394607881565b6103fb610429366004613391565b610806565b5f5465010000000000900460ff165b604051901515815260200161039e565b61039462053fc081565b610394606e81565b6103fb739efde135ca4832abf0408c44c6f5f370eb0f35e881565b6103fb7352aa899454998be5b000ad077a46bbe360f4e49781565b6103fb7328849d2b63fa8d361e5fc15cb8abb13019884d0981565b61039462062e0881565b6103fb73e7eb63a8b6392481a9fdebb108cfd580dc8664d381565b6103fb735c43aac965ff230ac1cf63e924d0153291d78bad81565b6103fb73264786ef916af64a1db19f513f24a3681734ce9281565b6103de610881565b61039462043df081565b610394606c81565b610394620493e081565b6103fb730204cd037b2ec03605cfdfe482d8e257c765fa1b81565b61039462062a2081565b6103de6105623660046133a8565b6108a3565b6103fb732386dc45added673317ef068992f19421b481f4c81565b6103fb73059a94a72951c0ae1cc1ce3bf0db52421bbe821081565b610394607e81565b6103fb6105b3366004613391565b610931565b6103fb73a0d3707c569ff8c87fa923d3823ec5d81c98be7881565b6103fb7354b91a0d94cb471f37f949c60f7fa7935b551d0381565b6103946204a38081565b610394628339c081565b6103fb7391716c4eda1fb55e84bf8b4c7085f84285c1908581565b61039461062b36600461342b565b61096b565b5f5460405164ffffffffff909116815260200161039e565b61043d610656366004613391565b5f9081526001602052604090205460ff1690565b6103fb7397b0b3a8bdefe8cb9563a3c610019ad10db8ad1181565b6103de610693366004613472565b611189565b6103de6106a63660046134d2565b6111d7565b610394607081565b6103fb5f80516020613c8183398151915281565b6103fb73a45f7bd6a5ff45d31aace6bcd3d426d9328cea0181565b6103fb6106f0366004613472565b61167d565b6103fb7f000000000000000000000000000000000000000000000000000000000000000081565b6103fb61072a366004613391565b61176b565b6002546103fb906001600160a01b031681565b6103fb73e57227c7d5900165344b190fc7aa580bceb53b9b81565b6103946204a76881565b6103fb733daff61fe5cfb1f1b4ea7fba8173a58532ef184181565b6103de610790366004613561565b6117a5565b6103fb731e2e1aed876f67fe4fd54090fd7b8f57ce23421981565b335f80516020613c81833981519152146107e55760405162461bcd60e51b81526004016107dc90613585565b60405180910390fd5b5f8054911515650100000000000265ff000000000019909216919091179055565b604051630971b35560e11b8152600481018290525f907391716c4eda1fb55e84bf8b4c7085f84285c19085906312e366aa906024015b602060405180830381865afa158015610857573d5f803e3d5ffd5b505050506040513d601f19601f8201168201806040525081019061087b91906135b0565b92915050565b6108896118cb565b6108916119ed565b610899611c91565b6108a161283c565b565b335f80516020613c81833981519152146108cf5760405162461bcd60e51b81526004016107dc90613585565b5f5b8181101561092c576001805f8585858181106108ef576108ef6135cb565b9050602002013581526020019081526020015f205f6101000a81548160ff0219169083151502179055508080610924906135f3565b9150506108d1565b505050565b60405163841d269960e01b8152600481018290525f9073e57227c7d5900165344b190fc7aa580bceb53b9b9063841d26999060240161083c565b5f808411801561097a57505f83115b156109c75760405162461bcd60e51b815260206004820181905260248201527f626f74682075736420616e6420616d6f756e7420617265206e6f74207a65726f60448201526064016107dc565b604080516001600160a01b03871660208083019190915260058284015282518083038401815260608301938490528051910120632d71cdb960e21b90925260648101919091525f907352aa899454998be5b000ad077a46bbe360f4e4979063b5c736e490608401602060405180830381865afa158015610a49573d5f803e3d5ffd5b505050506040513d601f19601f82011682018060405250810190610a6d919061360b565b90505f80610a7a83612abf565b90925090505f601273eeeeeeeeeeeeeeeeeeeeeeeeeeeeeeeeeeeeeeed196001600160a01b038b1601610ab5575062043df09050601261110a565b737f39c581f595b53c5cb19bd0b3f8da6c935e2c9f196001600160a01b038b1601610ae8575062053fc09050601261110a565b73cd5fe23c85820f7b72d0926fc9b05b43e359b7ed196001600160a01b038b1601610b1b57506204a7689050601261110a565b73a1290d69c65a6fe4df752f95823fae25cb99e5a6196001600160a01b038b1601610b4e575062048c109050601261110a565b73917cee801a67f933f2e6b33fc0cd1ed2d5909d87196001600160a01b038b1601610b815750620474a09050601261110a565b73d5f7838f5c461feff7fe49ea5ebaf7728bb0adf9196001600160a01b038b1601610bb457506204a3809050601261110a565b73bf5495efe5db9ce00f80364c8b423567e58d210f196001600160a01b038b1601610be75750620493e09050601261110a565b73f1c9acdc66974dfb6decb12aa385b9cd01190e37196001600160a01b038b1601610c1a575062048c109050601261110a565b6001600160a01b038a1673cbb7c0000ab88b473b1f5afd9ef808440eed33bf1480610c6157506001600160a01b038a16732260fac5e5542a773aa44fbcfedf7c193bc2c599145b80610c8857506001600160a01b038a1673657e8c867d8b37dcc18fa4caead9c45eb088c642145b80610caf57506001600160a01b038a16738236a87084f8b84306f72007f36f2618a5634494145b15610cc25750628339c09050600861110a565b7318084fba666a33d37592fa2633fd49a74dd93a87196001600160a01b038b1601610cf55750628339c09050601261110a565b6001600160a01b038a1673a0b86991c6218b36c1d19d4a2e9eb0ce3606eb481480610d3c57506001600160a01b038a1673dac17f958d2ee523a2206206994597c13d831ec7145b15610d4d575060649050600661110a565b739d39a5de30e57443bff2a8307a4256c8797a3496196001600160a01b038b1601610d7e575060789050601261110a565b73a3931d71877c0e7a3148cb7eb4463524fec27fbc196001600160a01b038b1601610daf5750606c9050601261110a565b73356b8d89c1e1239cbbb9de4815c39a1474d5ba7c196001600160a01b038b1601610de05750606e9050600661110a565b7380ac24aa929eaf5013f6436cda2a7ba190f5cc0a196001600160a01b038b1601610e11575060729050600661110a565b73c58d044404d8b14e953c115e67823784dea53d8e196001600160a01b038b1601610e42575060649050601261110a565b733d7d6fdf07ee548b939a80edbc9b2256d0cdc002196001600160a01b038b1601610e73575060649050601261110a565b6001600160a01b038a167340d16fc0246ad3160ccc09b8d0d3a2cd28ae6c2f1480610eba57506001600160a01b038a16734c9edd5852cd905f086c759e8383e09bff1e68b3145b80610ee157506001600160a01b038a167315700b564ca08d9439c58ca5053166e8317aa138145b80610f0857506001600160a01b038a167366a1e37c9b0eaddca17d3662d6c05f4decf3e110145b80610f2f57506001600160a01b038a167373a15fed60bf67631dc6cd7bc5b6e8da8190acf5145b80610f5657506001600160a01b038a1673085780639cc2cacd35e474e71f4d000e2405d8f6145b80610f7d57506001600160a01b038a1673b01dd87b29d187f3e3a4bf6cdaebfb97f3d9ab98145b80610fa457506001600160a01b038a167348f9e38f3070ad8945dfeae3fa70987722e3d89c145b80610fcb57506001600160a01b038a1673c139190f447e929f090edeb554d95abb8b18ac1c145b15610fdc575060649050601261110a565b736f40d4a6237c257fff2db00fa0510deeecd303ea196001600160a01b038b160161100e575061014c9050601261110a565b731202f5c7b4b9e47a1a484e8b270be34dbbc75054196001600160a01b038b160161103f575060709050601261110a565b734956b52ae2ff65d74ca2d61207523288e4528f95196001600160a01b038b16016110705750607e9050601261110a565b7368749665ff8d2d112fa859aa293f07a622782f37196001600160a01b038b16016110a3575062062a209050600661110a565b7345804880de22913dafe09f4980848ece6ecbaf77196001600160a01b038b16016110d6575062062e089050601261110a565b60405162461bcd60e51b81526020600482015260096024820152681b9bdd0b599bdd5b9960ba1b60448201526064016107dc565b5f876111165783611118565b845b9050891561114757806111308b64e8d4a51000613622565b61113a919061364d565b9650505050505050611181565b60646111538285613622565b61115d919061364d565b61116883600a61374c565b6111778b64e8d4a51000613622565b6111309190613622565b949350505050565b335f80516020613c81833981519152146111b55760405162461bcd60e51b81526004016107dc90613585565b600280546001600160a01b0319166001600160a01b0392909216919091179055565b3373a45f7bd6a5ff45d31aace6bcd3d426d9328cea0114806112055750335f80516020613c81833981519152145b8061122357503073059a94a72951c0ae1cc1ce3bf0db52421bbe8210145b80611241575030739efde135ca4832abf0408c44c6f5f370eb0f35e8145b8061125f575030735c43aac965ff230ac1cf63e924d0153291d78bad145b8061127d575030733daff61fe5cfb1f1b4ea7fba8173a58532ef1841145b8061129b57503073e7eb63a8b6392481a9fdebb108cfd580dc8664d3145b6112e05760405162461bcd60e51b81526020600482015260166024820152751b5cd9cb9cd95b99195c8b5b9bdd0b585b1b1bddd95960521b60448201526064016107dc565b6040805160018082528183019092525f9082602080830190803683370190505090505f8267ffffffffffffffff81111561131c5761131c61348d565b604051908082528060200260200182016040528015611345578160200160208202803683370190505b5090505f8367ffffffffffffffff8111156113625761136261348d565b60405190808252806020026020018201604052801561139557816020015b60608152602001906001900390816113805790505b5090505f8467ffffffffffffffff8111156113b2576113b261348d565b6040519080825280602002602001820160405280156113e557816020015b60608152602001906001900390816113d05790505b509050732386dc45added673317ef068992f19421b481f4c845f8151811061140f5761140f6135cb565b60200260200101906001600160a01b031690816001600160a01b0316815250505f835f81518110611442576114426135cb565b602002602001018181525050604051806060016040528060248152602001613c5d60249139825f81518110611479576114796135cb565b602090810291909101810191909152604080515f815291820181526114c1917f00000000000000000000000000000000000000000000000000000000000000009181016137a4565b604051602081830303815290604052815f815181106114e2576114e26135cb565b6020908102919091010152604051636d4ab48d60e11b81525f90730204cd037b2ec03605cfdfe482d8e257c765fa1b9063da95691a9061152e9088908890889088908e90600401613870565b6020604051808303815f875af115801561154a573d5f803e3d5ffd5b505050506040513d601f19601f8201168201806040525081019061156e919061360b565b9050607281146115b75760405162461bcd60e51b815260206004820152601460248201527350524f504f53414c5f49535f4e4f545f53414d4560601b60448201526064016107dc565b3373a45f7bd6a5ff45d31aace6bcd3d426d9328cea0114806115e55750335f80516020613c81833981519152145b156115f8576115f3426117a5565b611674565b604051631f615d2360e31b815264ffffffffff421660048201527f00000000000000000000000000000000000000000000000000000000000000006001600160a01b03169063fb0ae918906024015f604051808303815f87803b15801561165d575f80fd5b505af115801561166f573d5f803e3d5ffd5b505050505b50505050505050565b5f73c02aaa39b223fe8d0a0e5c4f27ead9083c756cc1196001600160a01b0383160161170c576040805163bb4a64d360e01b81526001600160a01b03841660048201526024810191909152601060448201526f4e6174697665556e6465726c79696e6760801b60648201527354b91a0d94cb471f37f949c60f7fa7935b551d039063bb4a64d39060840161083c565b6040805163bb4a64d360e01b81526001600160a01b038416600482015260248101919091526006604482015265332a37b5b2b760d11b60648201527354b91a0d94cb471f37f949c60f7fa7935b551d039063bb4a64d39060840161083c565b60405163735e935160e11b8152600481018290525f9073324c5dc1fc42c7a4d43d92df1eba58a54d13bf2d9063e6bd26a29060240161083c565b3373a45f7bd6a5ff45d31aace6bcd3d426d9328cea0114806117d35750335f80516020613c81833981519152145b806117f157503373059a94a72951c0ae1cc1ce3bf0db52421bbe8210145b8061180f575033739efde135ca4832abf0408c44c6f5f370eb0f35e8145b8061182d575033735c43aac965ff230ac1cf63e924d0153291d78bad145b8061184b575033733daff61fe5cfb1f1b4ea7fba8173a58532ef1841145b8061186957503373e7eb63a8b6392481a9fdebb108cfd580dc8664d3145b6118ae5760405162461bcd60e51b81526020600482015260166024820152751b5cd9cb9cd95b99195c8b5b9bdd0b585b1b1bddd95960521b60448201526064016107dc565b5f805464ffffffffff191664ffffffffff92909216919091179055565b30732386dc45added673317ef068992f19421b481f4c146119215760405162461bcd60e51b815260206004820152601060248201526f3737ba16bb30b634b216b1b0b63632b960811b60448201526064016107dc565b7f00000000000000000000000000000000000000000000000000000000000000006001600160a01b0316631392d4ee6040518163ffffffff1660e01b8152600401602060405180830381865afa15801561197d573d5f803e3d5ffd5b505050506040513d601f19601f820116820180604052508101906119a1919061390e565b6108a15760405162461bcd60e51b815260206004820152601760248201527f70726f706f73616c2d6e6f742d65786563757461626c6500000000000000000060448201526064016107dc565b6040516352e5787b60e11b8152600160048201819052907f00000000000000000000000000000000000000000000000000000000000000006001600160a01b03169063a5caf0f690602401602060405180830381865afa158015611a53573d5f803e3d5ffd5b505050506040513d601f19601f82011682018060405250810190611a77919061390e565b611c8e575f73f1167f851509ca5ef56f8521fb1ee07e4e5c92c890505f7f00000000000000000000000000000000000000000000000000000000000000006001600160a01b031663ed3660c56040518163ffffffff1660e01b8152600401602060405180830381865afa158015611af0573d5f803e3d5ffd5b505050506040513d601f19601f82011682018060405250810190611b1491906135b0565b90506001600160a01b038116611b3b5750738bd91778fcf8bcf4e578710c9f5ad9bc852dc1035b6040516311272db960e31b81526001600160a01b03831660048201525f907352aa899454998be5b000ad077a46bbe360f4e497906389396dc8906024015f60405180830381865afa158015611b92573d5f803e3d5ffd5b505050506040513d5f823e601f3d908101601f19168201604052611bb99190810190613929565b60405163110bad1960e11b81526001600160a01b03851660048201529091507352aa899454998be5b000ad077a46bbe360f4e497906322175a32906024015f604051808303815f87803b158015611c0e575f80fd5b505af1158015611c20573d5f803e3d5ffd5b50506040516378600da160e11b81527352aa899454998be5b000ad077a46bbe360f4e497925063f0c01b429150611c5d90859085906004016139d7565b5f604051808303815f87803b158015611c74575f80fd5b505af1158015611c86573d5f803e3d5ffd5b505050505050505b50565b6040516352e5787b60e11b8152600260048201819052907f00000000000000000000000000000000000000000000000000000000000000006001600160a01b03169063a5caf0f690602401602060405180830381865afa158015611cf7573d5f803e3d5ffd5b505050506040513d601f19601f82011682018060405250810190611d1b919061390e565b611c8e575f611d2a602b610806565b60408051610100810182526001600160a01b038316815273f1c9acdc66974dfb6decb12aa385b9cd01190e38602082015273eeeeeeeeeeeeeeeeeeeeeeeeeeeeeeeeeeeeeeee91810191909152600160608201525f6080820181905291925060a08101611d9b620f4240600e613622565b81526020015f81526020015f8152509050611db581612cb4565b604051630f18fc2760e31b81527391716c4eda1fb55e84bf8b4c7085f84285c19085906378c7e13890611dfd9085905f80516020613c81833981519152905f90600401613a36565b5f604051808303815f87803b158015611e14575f80fd5b505af1158015611e26573d5f803e3d5ffd5b50505050505f611e36609961176b565b90505f6040518060e00160405280836001600160a01b031681526020015f6003811115611e6557611e65613a5a565b815273f1c9acdc66974dfb6decb12aa385b9cd01190e38602082015273a0b86991c6218b36c1d19d4a2e9eb0ce3606eb486040820152606001611eac620f42406008613622565b8152602001611ebf620f42406005613622565b8152602001611ed2620f4240600a613622565b90529050611edf81612e17565b604051637faa1d2160e01b815273324c5dc1fc42c7a4d43d92df1eba58a54d13bf2d90637faa1d2190611f279085905f80516020613c81833981519152905f90600401613a36565b5f604051808303815f87803b158015611f3e575f80fd5b505af1158015611f50573d5f803e3d5ffd5b5050505050505f611f61609a61176b565b90505f6040518060e00160405280836001600160a01b031681526020015f6003811115611f9057611f90613a5a565b815273f1c9acdc66974dfb6decb12aa385b9cd01190e38602082015273dac17f958d2ee523a2206206994597c13d831ec76040820152606001611fd7620f42406008613622565b8152602001611fea620f42406005613622565b8152602001611ffd620f4240600a613622565b9052905061200a81612e17565b604051637faa1d2160e01b815273324c5dc1fc42c7a4d43d92df1eba58a54d13bf2d90637faa1d21906120529085905f80516020613c81833981519152905f90600401613a36565b5f604051808303815f87803b158015612069575f80fd5b505af115801561207b573d5f803e3d5ffd5b5050505050505f61208c609b61176b565b90505f6040518060e00160405280836001600160a01b031681526020015f60038111156120bb576120bb613a5a565b815273f1c9acdc66974dfb6decb12aa385b9cd01190e3860208201527340d16fc0246ad3160ccc09b8d0d3a2cd28ae6c2f6040820152606001612102620f42406008613622565b8152602001612115620f42406005613622565b8152602001612128620f4240600a613622565b9052905061213581612e17565b604051637faa1d2160e01b815273324c5dc1fc42c7a4d43d92df1eba58a54d13bf2d90637faa1d219061217d9085905f80516020613c81833981519152905f90600401613a36565b5f604051808303815f87803b158015612194575f80fd5b505af11580156121a6573d5f803e3d5ffd5b5050505050505f6121b7609c61176b565b90505f6121c46002610806565b90505f6040518060e00160405280846001600160a01b03168152602001600260038111156121f4576121f4613a5a565b815273f1c9acdc66974dfb6decb12aa385b9cd01190e3860208201525f6040820152606001612227620f42406008613622565b81526020015f81526020015f815250905061224181612e17565b604051637faa1d2160e01b815273324c5dc1fc42c7a4d43d92df1eba58a54d13bf2d90637faa1d21906122899086905f80516020613c81833981519152905f90600401613a36565b5f604051808303815f87803b1580156122a0575f80fd5b505af11580156122b2573d5f803e3d5ffd5b50505050505f6040518060c00160405280836001600160a01b03168152602001846001600160a01b03168152602001610bb8815260200161546081526020016a02116545850052128000008152602001620f424060056123129190613622565b61232490670de0b6b3a7640000613622565b9052905061233181612fdf565b5050505f61233f609d61176b565b90505f61234c6022610806565b90505f6040518060e00160405280846001600160a01b031681526020016002600381111561237c5761237c613a5a565b815273f1c9acdc66974dfb6decb12aa385b9cd01190e3860208201525f60408201526060016123af620f42406008613622565b81526020015f81526020015f81525090506123c981612e17565b604051637faa1d2160e01b815273324c5dc1fc42c7a4d43d92df1eba58a54d13bf2d90637faa1d21906124119086905f80516020613c81833981519152905f90600401613a36565b5f604051808303815f87803b158015612428575f80fd5b505af115801561243a573d5f803e3d5ffd5b50505050505f6040518060c00160405280836001600160a01b03168152602001846001600160a01b03168152602001610bb8815260200161546081526020016a02116545850052128000008152602001620f4240600561249a9190613622565b6124ac90670de0b6b3a7640000613622565b905290506124b981612fdf565b5050505f6124c7609e61176b565b90505f6124d46001610806565b90505f6040518060c00160405280836001600160a01b03168152602001846001600160a01b03168152602001610bb8815260200161546081526020016848431755769bb40000815260200168fec99a4a552ff00000815250905061253781612fdf565b604051637faa1d2160e01b815273324c5dc1fc42c7a4d43d92df1eba58a54d13bf2d90637faa1d219061257f9086905f80516020613c81833981519152905f90600401613a36565b5f604051808303815f87803b158015612596575f80fd5b505af11580156125a8573d5f803e3d5ffd5b505050505050505f6125ba602c61176b565b90505f6125c76001610806565b90505f6040518060c00160405280836001600160a01b03168152602001846001600160a01b03168152602001610bb88152602001615460815260200168a2a15d09519be0000081526020016901b71a14cc5c58100000815250905061262b81612fdf565b5050505f6126396001610806565b6040516369482f6b60e11b81526902ab0c205a56c1e0000060048201529091506001600160a01b0382169063d2905ed6906024015f604051808303815f87803b158015612684575f80fd5b505af1158015612696573d5f803e3d5ffd5b505f9250600291506126a59050565b6040519080825280602002602001820160405280156126de57816020015b6126cb613317565b8152602001906001900390816126c35790505b5090506040518060e00160405280836001600160a01b03168152602001737f39c581f595b53c5cb19bd0b3f8da6c935e2ca06001600160a01b03168152602001600160ff1681526020016113888152602001610e1081526020016902a5a058fc295ed0000081526020016904c3ba39c5e411100000815250815f81518110612768576127686135cb565b60200260200101819052506040518060e00160405280836001600160a01b0316815260200173eeeeeeeeeeeeeeeeeeeeeeeeeeeeeeeeeeeeeeee6001600160a01b03168152602001600160ff1681526020016113888152602001610e10815260200169032d26d12e980b60000081526020016905b7ac4553de7ae00000815250816001815181106127fb576127fb6135cb565b602090810291909101015260405162dc47c360e11b81527352aa899454998be5b000ad077a46bbe360f4e497906301b88f8690611c5d908490600401613a6e565b6040516352e5787b60e11b8152600360048201819052907f00000000000000000000000000000000000000000000000000000000000000006001600160a01b03169063a5caf0f690602401602060405180830381865afa1580156128a2573d5f803e3d5ffd5b505050506040513d601f19601f820116820180604052508101906128c6919061390e565b611c8e576040805160018082528183019092525f91816020015b60608152602001906001900390816128e05750506040805160018082528183019092529192505f9190602082015b606081526020019060019003908161290e5790505090505f604051806060016040528060318152602001613c2c6031913990505f6a021165458500521280000090506040518060400160405280600a8152602001692120a9a4a196a216ab1960b11b815250845f81518110612985576129856135cb565b6020908102919091010152604051736a29a46e21c730dca1d8b23d637c101cec605c5b6024820152604481018290525f80516020613c8183398151915260648201525f6084820181905260a4820152829060c40160408051601f1981840301815290829052916129f491613af1565b60405180910390206001600160e01b0319166020820180516001600160e01b038381831617835250505050835f81518110612a3157612a316135cb565b6020908102919091010152506040516324c1324d60e21b81527328849d2b63fa8d361e5fc15cb8abb13019884d0990639304c93490612a7890869086903090600401613b0c565b6020604051808303815f875af1158015612a94573d5f803e3d5ffd5b505050506040513d601f19601f82011682018060405250810190612ab8919061360b565b5050505050565b67ffffffffffffffff605b82901c811690609b83901c16811580612ae1575080155b15612b0457604051636a86ba8960e11b81526201117160048201526024016107dc565b61ffff8316603a84901c6401ffffffff16428181039160ea87901c617fff16911480612b2e575082155b80612b395750806001145b15612b4657505050915091565b64496cebb80084840283020484019350617fff60db87901c16925082600103612b7157505050915091565b82600116600103612bc65760019290921c91826c7e37be2022c0914b268000000081612b9f57612b9f613639565b049250612710601e87901c613fff166b033b2e3c9fd0803ce8000000850102049250612bf3565b60019290921c916305f5e100601e87901c613fff166127108501026b033b2e3c9fd0803ce8000000020492505b80600116600103612c2a5760011c61271081016b033b2e3c9fd0803ce8000000820281612c2257612c22613639565b049050612c60565b60011c61271081016b033b2e3c9fd0803ce8000000820281612c4e57612c4e613639565b046b033b2e3c9fd0803ce80000000390505b760a70c3c40a64e6c51999090b65f67d92400000000000008382026127100261ffff881691900402601087901c613fff16612710030292506801b5a660ea44b8000085840283020485019450505050915091565b806060015115612d5d575f6040518060a00160405280835f01516001600160a01b0316815260200183602001516001600160a01b031681526020016113888152602001610e1081526020018360a001518152509050612d1281613101565b6040805160a0808201835284516001600160a01b0390811683528584015116602083015261138892820192909252610e106060820152908301516080820152612d5a81613101565b50505b806080015115611c8e575f6040518060c00160405280835f01516001600160a01b0316815260200183602001516001600160a01b031681526020016113888152602001610e1081526020018360c0015181526020018360e001518152509050612dc581613213565b6040805160c0808201835284516001600160a01b0390811683528584015116602083015261138892820192909252610e10606082015290830151608082015260e083015160a082015261092c81613213565b5f81602001516003811115612e2e57612e2e613a5a565b03612e7d576040805160a08101825282516001600160a01b0390811682528383015116602082015261138891810191909152615460606082015260808083015190820152612e7b81613101565b505b5f81602001516003811115612e9457612e94613a5a565b03612ef9575f6040518060c00160405280835f01516001600160a01b0316815260200183606001516001600160a01b03168152602001611388815260200161546081526020018360a0015181526020018360c001518152509050612ef781613213565b505b600181602001516003811115612f1157612f11613a5a565b03612f76575f6040518060c00160405280835f01516001600160a01b0316815260200183606001516001600160a01b03168152602001610bb8815260200161546081526020018360a0015181526020018360c001518152509050612f7481613213565b505b600281602001516003811115612f8e57612f8e613a5a565b03611c8e576040805160a08101825282516001600160a01b03908116825283830151166020820152610dac91810191909152615460606082015260808083015190820152612fdb81613101565b5050565b6040805160018082528183019092525f91816020015b61302b6040518060a001604052805f6001600160a01b031681526020015f81526020015f81526020015f81526020015f81525090565b815260200190600190039081612ff55790505090506040518060a0016040528083602001516001600160a01b031681526020018360400151815260200183606001518152602001836080015181526020018360a00151815250815f81518110613096576130966135cb565b6020908102919091010152815160405163ba9af1e360e01b81526001600160a01b039091169063ba9af1e3906130d0908490600401613b49565b5f604051808303815f87803b1580156130e7575f80fd5b505af11580156130f9573d5f803e3d5ffd5b505050505050565b6040805160018082528183019092525f91816020015b6040805160c0810182525f8082526020808301829052928201819052606082018190526080820181905260a082015282525f199092019101816131175790505090506040518060c00160405280835f01516001600160a01b0316815260200183602001516001600160a01b03168152602001600160ff16815260200183604001518152602001836060015181526020016131bc84602001515f8660800151600161096b565b815250815f815181106131d1576131d16135cb565b60209081029190910101526040516301635db560e11b81527352aa899454998be5b000ad077a46bbe360f4e497906302c6bb6a906130d0908490600401613bb2565b6040805160018082528183019092525f91816020015b613231613317565b8152602001906001900390816132295790505090506040518060e00160405280835f01516001600160a01b0316815260200183602001516001600160a01b03168152602001600160ff16815260200183604001518152602001836060015181526020016132a884602001515f86608001515f61096b565b81526020016132c184602001515f8660a001515f61096b565b815250815f815181106132d6576132d66135cb565b602090810291909101015260405162dc47c360e11b81527352aa899454998be5b000ad077a46bbe360f4e497906301b88f86906130d0908490600401613a6e565b6040518060e001604052805f6001600160a01b031681526020015f6001600160a01b031681526020015f60ff1681526020015f81526020015f81526020015f81526020015f81525090565b8015158114611c8e575f80fd5b5f6020828403121561337f575f80fd5b813561338a81613362565b9392505050565b5f602082840312156133a1575f80fd5b5035919050565b5f80602083850312156133b9575f80fd5b823567ffffffffffffffff808211156133d0575f80fd5b818501915085601f8301126133e3575f80fd5b8135818111156133f1575f80fd5b8660208260051b8501011115613405575f80fd5b60209290920196919550909350505050565b6001600160a01b0381168114611c8e575f80fd5b5f805f806080858703121561343e575f80fd5b843561344981613417565b93506020850135925060408501359150606085013561346781613362565b939692955090935050565b5f60208284031215613482575f80fd5b813561338a81613417565b634e487b7160e01b5f52604160045260245ffd5b604051601f8201601f1916810167ffffffffffffffff811182821017156134ca576134ca61348d565b604052919050565b5f60208083850312156134e3575f80fd5b823567ffffffffffffffff808211156134fa575f80fd5b818501915085601f83011261350d575f80fd5b81358181111561351f5761351f61348d565b613531601f8201601f191685016134a1565b91508082528684828501011115613546575f80fd5b80848401858401375f90820190930192909252509392505050565b5f60208284031215613571575f80fd5b813564ffffffffff8116811461338a575f80fd5b6020808252601190820152706e6f742d7465616d2d6d756c746973696760781b604082015260600190565b5f602082840312156135c0575f80fd5b815161338a81613417565b634e487b7160e01b5f52603260045260245ffd5b634e487b7160e01b5f52601160045260245ffd5b5f60018201613604576136046135df565b5060010190565b5f6020828403121561361b575f80fd5b5051919050565b808202811582820484141761087b5761087b6135df565b634e487b7160e01b5f52601260045260245ffd5b5f8261366757634e487b7160e01b5f52601260045260245ffd5b500490565b600181815b808511156136a657815f190482111561368c5761368c6135df565b8085161561369957918102915b93841c9390800290613671565b509250929050565b5f826136bc5750600161087b565b816136c857505f61087b565b81600181146136de57600281146136e857613704565b600191505061087b565b60ff8411156136f9576136f96135df565b50506001821b61087b565b5060208310610133831016604e8410600b8410161715613727575081810a61087b565b613731838361366c565b805f1904821115613744576137446135df565b029392505050565b5f61338a83836136ae565b5f5b83811015613771578181015183820152602001613759565b50505f910152565b5f8151808452613790816020860160208601613757565b601f01601f19169290920160200192915050565b60018060a01b038316815260606020820152600960608201526865786563757465282960b81b608082015260a060408201525f61118160a0830184613779565b5f8151808452602080850194508084015f5b83811015613812578151875295820195908201906001016137f6565b509495945050505050565b5f81518084526020808501808196508360051b810191508286015f5b85811015613863578284038952613851848351613779565b98850198935090840190600101613839565b5091979650505050505050565b60a080825286519082018190525f9060209060c0840190828a01845b828110156138b15781516001600160a01b03168452928401929084019060010161388c565b505050838103828501526138c581896137e4565b91505082810360408401526138da818761381d565b905082810360608401526138ee818661381d565b905082810360808401526139028185613779565b98975050505050505050565b5f6020828403121561391e575f80fd5b815161338a81613362565b5f602080838503121561393a575f80fd5b825167ffffffffffffffff80821115613951575f80fd5b818501915085601f830112613964575f80fd5b8151818111156139765761397661348d565b8060051b91506139878483016134a1565b81815291830184019184810190888411156139a0575f80fd5b938501935b8385101561390257845192506001600160e01b0319831683146139c7575f8081fd5b82825293850193908501906139a5565b6001600160a01b03831681526040602080830182905283519183018290525f9184820191906060850190845b81811015613a295784516001600160e01b03191683529383019391830191600101613a03565b5090979650505050505050565b6001600160a01b039384168152919092166020820152901515604082015260600190565b634e487b7160e01b5f52602160045260245ffd5b602080825282518282018190525f919060409081850190868401855b8281101561386357815180516001600160a01b0390811686528782015116878601528581015160ff1686860152606080820151908601526080808201519086015260a0808201519086015260c0908101519085015260e09093019290850190600101613a8a565b5f8251613b02818460208701613757565b9190910192915050565b606081525f613b1e606083018661381d565b8281036020840152613b30818661381d565b91505060018060a01b0383166040830152949350505050565b602080825282518282018190525f919060409081850190868401855b8281101561386357815180516001600160a01b0316855286810151878601528581015186860152606080820151908601526080908101519085015260a09093019290850190600101613b65565b602080825282518282018190525f919060409081850190868401855b8281101561386357815180516001600160a01b0390811686528782015116878601528581015160ff1686860152606080820151908601526080808201519086015260a0908101519085015260c09093019290850190600101613bce56fe776974686472617728616464726573732c75696e743235362c616464726573732c75696e743235362c75696e7432353629657865637574655061796c6f616428616464726573732c737472696e672c6279746573290000000000000000000000004f6f977acdd1177dcd81ab83074855ecb9c2d49ea2646970667358221220be457b6df4a730fbc13aaf7e0ca4a57835d2c7e02078e73942f98ba66eef6a8364736f6c63430008150033",
  "linkReferences": {},
  "deployedLinkReferences": {},
  "immutableReferences": {
    "1311": [
      {
        "length": 32,
        "start": 1786
      },
      {
        "length": 32,
        "start": 5274
      },
      {
        "length": 32,
        "start": 5652
      },
      {
        "length": 32,
        "start": 6435
      },
      {
        "length": 32,
        "start": 6662
      },
      {
        "length": 32,
        "start": 6806
      },
      {
        "length": 32,
        "start": 7338
      },
      {
        "length": 32,
        "start": 10325
      }
    ]
  },
  "inputSourceName": "project/contracts/payloads/IGP114/PayloadIGP114.sol",
  "buildInfoId": "solc-0_8_21-f75f3b1d70daba5c517c16e8fa3dba01a7397aee"
}