{
  "contractName": "Governed",
  "abi": [
    {
      "inputs": [],
      "name": "governor",
      "outputs": [
        {
          "internalType": "contract IGovernor",
          "name": "",
          "type": "address"
        }
      ],
      "stateMutability": "view",
      "type": "function"
    },
    {
      "inputs": [
        {
          "internalType": "contract IGovernor",
          "name": "newIGovernor",
          "type": "address"
        }
      ],
      "name": "changeIGovernor",
      "outputs": [],
      "stateMutability": "nonpayable",
      "type": "function"
    },
    {
      "inputs": [
        {
          "internalType": "bytes",
          "name": "data",
          "type": "bytes"
        }
      ],
      "name": "delegateCallToChanger",
      "outputs": [
        {
          "internalType": "bytes",
          "name": "",
          "type": "bytes"
        }
      ],
      "stateMutability": "nonpayable",
      "type": "function"
    }
  ],
  "bytecode": "0x608060405234801561001057600080fd5b50610560806100206000396000f3fe608060405234801561001057600080fd5b50600436106100415760003560e01c80630c340a2414610046578063b6e083301461006a578063dc8990e114610092575b600080fd5b61004e610177565b604080516001600160a01b039092168252519081900360200190f35b6100906004803603602081101561008057600080fd5b50356001600160a01b0316610186565b005b610102600480360360208110156100a857600080fd5b8101906020810181356401000000008111156100c357600080fd5b8201836020820111156100d557600080fd5b803590602001918460018302840111640100000000831117156100f757600080fd5b5090925090506102d6565b6040805160208082528351818301528351919283929083019185019080838360005b8381101561013c578181015183820152602001610124565b50505050905090810190601f1680156101695780820380516001836020036101000a031916815260200191505b509250505060405180910390f35b6000546001600160a01b031681565b6000546040805163d994d6d560e01b815233600482015290516001600160a01b039092169163d994d6d591602480820192602092909190829003018186803b1580156101d157600080fd5b505afa1580156101e5573d6000803e3d6000fd5b505050506040513d60208110156101fb57600080fd5b50516040805180820190915260168152753737ba2fb0baba3437b934bd32b22fb1b430b733b2b960511b6020820152906102b35760405162461bcd60e51b81526004018080602001828103825283818151815260200191508051906020019080838360005b83811015610278578181015183820152602001610260565b50505050905090810190601f1680156102a55780820380516001836020036101000a031916815260200191505b509250505060405180910390fd5b50600080546001600160a01b0319166001600160a01b0392909216919091179055565b6000546040805163d994d6d560e01b815233600482015290516060926001600160a01b03169163d994d6d5916024808301926020929190829003018186803b15801561032157600080fd5b505afa158015610335573d6000803e3d6000fd5b505050506040513d602081101561034b57600080fd5b50516040805180820190915260168152753737ba2fb0baba3437b934bd32b22fb1b430b733b2b960511b6020820152906103c65760405162461bcd60e51b8152602060048201818152835160248401528351909283926044909101919085019080838360008315610278578181015183820152602001610260565b50600033905060006060826001600160a01b031686866040516024018080602001828103825284848281815260200192508082843760008382015260408051601f909201601f1990811690940182810390940182529283526020810180516001600160e01b03166350b113e560e11b17815292518151919750955085945091925081905083835b6020831061046c5780518252601f19909201916020918201910161044d565b6001836020036101000a038019825116818451168082178552505050505050905001915050600060405180830381855af49150503d80600081146104cc576040519150601f19603f3d011682016040523d82523d6000602084013e6104d1565b606091505b509150915081610521576040805162461bcd60e51b8152602060048201526016602482015275115c9c9bdc881a5b8819195b1959d85d194818d85b1b60521b604482015290519081900360640190fd5b9594505050505056fea2646970667358221220acdfa9a3084a2206ffa760458d818ea20c944cea211e8a80b1a9d683512a332064736f6c634300060c0033",
  "immutableReferences": {},
  "source": "// SPDX-License-Identifier: UNLICENSED\npragma solidity ^0.6.0;\n\nimport {IGovernor} from \"./IGovernor.sol\";\n\n/**\n  @title Governed\n  @notice Base contract to be inherited by governed contracts\n  @dev This contract is not usable on its own since it does not have any _productive useful_ behaviour\n  The only purpose of this contract is to define some useful modifiers and functions to be used on the\n  governance aspect of the child contract\n  */\ncontract Governed {\n    /**\n      @notice The address of the contract which governs this one\n     */\n    IGovernor public governor;\n\n    string private constant NOT_AUTHORIZED_CHANGER = \"not_authorized_changer\";\n\n    /**\n      @notice Modifier that protects the function\n      @dev You should use this modifier in any function that should be called through\n      the governance system\n     */\n    modifier onlyAuthorizedChanger() {\n        require(governor.isAuthorizedChanger(msg.sender), NOT_AUTHORIZED_CHANGER);\n        _;\n    }\n\n    /**\n      @notice Initialize the contract with the basic settings\n      @dev This initialize replaces the constructor but it is not called automatically.\n      It is necessary because of the upgradeability of the contracts\n      @param _governor Governor address\n     */\n    function _initialize(IGovernor _governor) internal {\n        governor = _governor;\n    }\n\n    /**\n      @notice Change the contract's governor. Should be called through the old governance system\n      @param newIGovernor New governor address\n     */\n    function changeIGovernor(IGovernor newIGovernor) external onlyAuthorizedChanger {\n        governor = newIGovernor;\n    }\n\n    /**\n      @notice This method is used by a change contract to access the storage freely even without a setter.\n      @param data the serialized function arguments\n     */\n    function delegateCallToChanger(bytes calldata data)\n        external\n        onlyAuthorizedChanger\n        returns (bytes memory)\n    {\n        address changerContrat = msg.sender;\n        (bool success, bytes memory result) = changerContrat.delegatecall(\n            abi.encodeWithSignature(\"impersonate(bytes)\", data)\n        );\n        require(success, \"Error in delegate call\");\n        return result;\n    }\n\n    // Leave a gap betweeen inherited contracts variables in order to be\n    // able to add more variables in them later\n    uint256[50] private upgradeGap;\n}\n",
  "sourcePath": "/home/jbokser/work2/OMoC-SC-Shared/contracts/moc-governance/Governance/Governed.sol",
  "compiler": {
    "name": "solc",
    "version": "0.6.12+commit.27d51765.Emscripten.clang"
  },
  "schemaVersion": "3.3.3",
  "updatedAt": "2021-02-04T20:51:03.398Z",
  "devdoc": {
    "details": "This contract is not usable on its own since it does not have any _productive useful_ behaviour The only purpose of this contract is to define some useful modifiers and functions to be used on the governance aspect of the child contract",
    "kind": "dev",
    "methods": {
      "changeIGovernor(address)": {
        "params": {
          "newIGovernor": "New governor address"
        }
      },
      "delegateCallToChanger(bytes)": {
        "params": {
          "data": "the serialized function arguments"
        }
      }
    },
    "title": "Governed",
    "version": 1
  },
  "userdoc": {
    "kind": "user",
    "methods": {
      "changeIGovernor(address)": {
        "notice": "Change the contract's governor. Should be called through the old governance system"
      },
      "delegateCallToChanger(bytes)": {
        "notice": "This method is used by a change contract to access the storage freely even without a setter."
      },
      "governor()": {
        "notice": "The address of the contract which governs this one"
      }
    },
    "notice": "Base contract to be inherited by governed contracts",
    "version": 1
  }
}