{
  "contractName": "GovernedRegistry",
  "abi": [
    {
      "inputs": [
        {
          "internalType": "contract IGovernor",
          "name": "newIGovernor",
          "type": "address"
        }
      ],
      "name": "changeIGovernor",
      "outputs": [],
      "stateMutability": "nonpayable",
      "type": "function"
    },
    {
      "inputs": [
        {
          "internalType": "bytes",
          "name": "data",
          "type": "bytes"
        }
      ],
      "name": "delegateCallToChanger",
      "outputs": [
        {
          "internalType": "bytes",
          "name": "",
          "type": "bytes"
        }
      ],
      "stateMutability": "nonpayable",
      "type": "function"
    },
    {
      "inputs": [],
      "name": "governor",
      "outputs": [
        {
          "internalType": "contract IGovernor",
          "name": "",
          "type": "address"
        }
      ],
      "stateMutability": "view",
      "type": "function"
    },
    {
      "inputs": [
        {
          "internalType": "contract IGovernor",
          "name": "_governor",
          "type": "address"
        }
      ],
      "name": "initialize",
      "outputs": [],
      "stateMutability": "nonpayable",
      "type": "function"
    },
    {
      "inputs": [
        {
          "internalType": "bytes32",
          "name": "_key",
          "type": "bytes32"
        }
      ],
      "name": "getDecimal",
      "outputs": [
        {
          "internalType": "int232",
          "name": "base",
          "type": "int232"
        },
        {
          "internalType": "int16",
          "name": "exp",
          "type": "int16"
        }
      ],
      "stateMutability": "view",
      "type": "function"
    },
    {
      "inputs": [
        {
          "internalType": "bytes32",
          "name": "_key",
          "type": "bytes32"
        }
      ],
      "name": "getUint",
      "outputs": [
        {
          "internalType": "uint248",
          "name": "",
          "type": "uint248"
        }
      ],
      "stateMutability": "view",
      "type": "function"
    },
    {
      "inputs": [
        {
          "internalType": "bytes32",
          "name": "_key",
          "type": "bytes32"
        }
      ],
      "name": "getString",
      "outputs": [
        {
          "internalType": "string",
          "name": "",
          "type": "string"
        }
      ],
      "stateMutability": "view",
      "type": "function"
    },
    {
      "inputs": [
        {
          "internalType": "bytes32",
          "name": "_key",
          "type": "bytes32"
        }
      ],
      "name": "getAddress",
      "outputs": [
        {
          "internalType": "address",
          "name": "",
          "type": "address"
        }
      ],
      "stateMutability": "view",
      "type": "function"
    },
    {
      "inputs": [
        {
          "internalType": "bytes32",
          "name": "_key",
          "type": "bytes32"
        }
      ],
      "name": "getBytes",
      "outputs": [
        {
          "internalType": "bytes",
          "name": "",
          "type": "bytes"
        }
      ],
      "stateMutability": "view",
      "type": "function"
    },
    {
      "inputs": [
        {
          "internalType": "bytes32",
          "name": "_key",
          "type": "bytes32"
        }
      ],
      "name": "getBool",
      "outputs": [
        {
          "internalType": "bool",
          "name": "",
          "type": "bool"
        }
      ],
      "stateMutability": "view",
      "type": "function"
    },
    {
      "inputs": [
        {
          "internalType": "bytes32",
          "name": "_key",
          "type": "bytes32"
        }
      ],
      "name": "getInt",
      "outputs": [
        {
          "internalType": "int248",
          "name": "",
          "type": "int248"
        }
      ],
      "stateMutability": "view",
      "type": "function"
    },
    {
      "inputs": [
        {
          "internalType": "bytes32",
          "name": "_key",
          "type": "bytes32"
        },
        {
          "internalType": "int232",
          "name": "_base",
          "type": "int232"
        },
        {
          "internalType": "int16",
          "name": "_exp",
          "type": "int16"
        }
      ],
      "name": "setDecimal",
      "outputs": [],
      "stateMutability": "nonpayable",
      "type": "function"
    },
    {
      "inputs": [
        {
          "internalType": "bytes32",
          "name": "_key",
          "type": "bytes32"
        },
        {
          "internalType": "uint248",
          "name": "_value",
          "type": "uint248"
        }
      ],
      "name": "setUint",
      "outputs": [],
      "stateMutability": "nonpayable",
      "type": "function"
    },
    {
      "inputs": [
        {
          "internalType": "bytes32",
          "name": "_key",
          "type": "bytes32"
        },
        {
          "internalType": "string",
          "name": "_value",
          "type": "string"
        }
      ],
      "name": "setString",
      "outputs": [],
      "stateMutability": "nonpayable",
      "type": "function"
    },
    {
      "inputs": [
        {
          "internalType": "bytes32",
          "name": "_key",
          "type": "bytes32"
        },
        {
          "internalType": "address",
          "name": "_value",
          "type": "address"
        }
      ],
      "name": "setAddress",
      "outputs": [],
      "stateMutability": "nonpayable",
      "type": "function"
    },
    {
      "inputs": [
        {
          "internalType": "bytes32",
          "name": "_key",
          "type": "bytes32"
        },
        {
          "internalType": "bytes",
          "name": "_value",
          "type": "bytes"
        }
      ],
      "name": "setBytes",
      "outputs": [],
      "stateMutability": "nonpayable",
      "type": "function"
    },
    {
      "inputs": [
        {
          "internalType": "bytes32",
          "name": "_key",
          "type": "bytes32"
        },
        {
          "internalType": "bool",
          "name": "_value",
          "type": "bool"
        }
      ],
      "name": "setBool",
      "outputs": [],
      "stateMutability": "nonpayable",
      "type": "function"
    },
    {
      "inputs": [
        {
          "internalType": "bytes32",
          "name": "_key",
          "type": "bytes32"
        },
        {
          "internalType": "int248",
          "name": "_value",
          "type": "int248"
        }
      ],
      "name": "setInt",
      "outputs": [],
      "stateMutability": "nonpayable",
      "type": "function"
    },
    {
      "inputs": [
        {
          "internalType": "bytes32",
          "name": "_key",
          "type": "bytes32"
        }
      ],
      "name": "deleteDecimal",
      "outputs": [],
      "stateMutability": "nonpayable",
      "type": "function"
    },
    {
      "inputs": [
        {
          "internalType": "bytes32",
          "name": "_key",
          "type": "bytes32"
        }
      ],
      "name": "deleteUint",
      "outputs": [],
      "stateMutability": "nonpayable",
      "type": "function"
    },
    {
      "inputs": [
        {
          "internalType": "bytes32",
          "name": "_key",
          "type": "bytes32"
        }
      ],
      "name": "deleteString",
      "outputs": [],
      "stateMutability": "nonpayable",
      "type": "function"
    },
    {
      "inputs": [
        {
          "internalType": "bytes32",
          "name": "_key",
          "type": "bytes32"
        }
      ],
      "name": "deleteAddress",
      "outputs": [],
      "stateMutability": "nonpayable",
      "type": "function"
    },
    {
      "inputs": [
        {
          "internalType": "bytes32",
          "name": "_key",
          "type": "bytes32"
        }
      ],
      "name": "deleteBytes",
      "outputs": [],
      "stateMutability": "nonpayable",
      "type": "function"
    },
    {
      "inputs": [
        {
          "internalType": "bytes32",
          "name": "_key",
          "type": "bytes32"
        }
      ],
      "name": "deleteBool",
      "outputs": [],
      "stateMutability": "nonpayable",
      "type": "function"
    },
    {
      "inputs": [
        {
          "internalType": "bytes32",
          "name": "_key",
          "type": "bytes32"
        }
      ],
      "name": "deleteInt",
      "outputs": [],
      "stateMutability": "nonpayable",
      "type": "function"
    },
    {
      "inputs": [
        {
          "internalType": "bytes32",
          "name": "_key",
          "type": "bytes32"
        }
      ],
      "name": "getAddressArray",
      "outputs": [
        {
          "internalType": "address[]",
          "name": "",
          "type": "address[]"
        }
      ],
      "stateMutability": "view",
      "type": "function"
    },
    {
      "inputs": [
        {
          "internalType": "bytes32",
          "name": "_key",
          "type": "bytes32"
        }
      ],
      "name": "getAddressArrayLength",
      "outputs": [
        {
          "internalType": "uint256",
          "name": "",
          "type": "uint256"
        }
      ],
      "stateMutability": "view",
      "type": "function"
    },
    {
      "inputs": [
        {
          "internalType": "bytes32",
          "name": "_key",
          "type": "bytes32"
        },
        {
          "internalType": "uint256",
          "name": "idx",
          "type": "uint256"
        }
      ],
      "name": "getAddressArrayElementAt",
      "outputs": [
        {
          "internalType": "address",
          "name": "",
          "type": "address"
        }
      ],
      "stateMutability": "view",
      "type": "function"
    },
    {
      "inputs": [
        {
          "internalType": "bytes32",
          "name": "_key",
          "type": "bytes32"
        },
        {
          "internalType": "address",
          "name": "value",
          "type": "address"
        }
      ],
      "name": "addressArrayContains",
      "outputs": [
        {
          "internalType": "bool",
          "name": "",
          "type": "bool"
        }
      ],
      "stateMutability": "view",
      "type": "function"
    },
    {
      "inputs": [
        {
          "internalType": "bytes32",
          "name": "_key",
          "type": "bytes32"
        },
        {
          "internalType": "address",
          "name": "_addr",
          "type": "address"
        }
      ],
      "name": "pushAddressArrayElement",
      "outputs": [],
      "stateMutability": "nonpayable",
      "type": "function"
    },
    {
      "inputs": [
        {
          "internalType": "bytes32",
          "name": "_key",
          "type": "bytes32"
        },
        {
          "internalType": "address[]",
          "name": "data",
          "type": "address[]"
        }
      ],
      "name": "pushAddressArray",
      "outputs": [],
      "stateMutability": "nonpayable",
      "type": "function"
    },
    {
      "inputs": [
        {
          "internalType": "bytes32",
          "name": "_key",
          "type": "bytes32"
        }
      ],
      "name": "clearAddressArray",
      "outputs": [],
      "stateMutability": "nonpayable",
      "type": "function"
    },
    {
      "inputs": [
        {
          "internalType": "bytes32",
          "name": "_key",
          "type": "bytes32"
        },
        {
          "internalType": "address",
          "name": "value",
          "type": "address"
        }
      ],
      "name": "removeAddressArrayElement",
      "outputs": [],
      "stateMutability": "nonpayable",
      "type": "function"
    }
  ],
  "bytecode": "0x608060405234801561001057600080fd5b50612ae3806100206000396000f3fe608060405234801561001057600080fd5b50600436106101fb5760003560e01c80638c1600951161011a578063c031a180116100ad578063dc8990e11161007c578063dc8990e11461081a578063dc97d96214610888578063e2b202bf146108bc578063eb78b93d146108d9578063f6bb3cc4146108fc576101fb565b8063c031a1801461077f578063c4d66de81461079c578063ca446dd9146107c2578063d75367c8146107ee576101fb565b8063adce1d57116100e9578063adce1d57146106d7578063afe5a1af14610703578063b6e0833014610720578063bd02d0f514610746576101fb565b80638c160095146105d7578063986e791a146105f45780639ed4402214610686578063abfdcced146106b2576101fb565b80635948f733116101925780636e899550116101615780636e899550146104cb5780637ae1cfca146105405780637e58e51b146105715780638a1b2d5c14610597576101fb565b80635948f733146103f8578063616b59f614610465578063631bf8ab146104825780636d3d97841461049f576101fb565b80632c62ff2d116101ce5780632c62ff2d146103085780632e28d084146103255780632fc94ba61461039a5780634259bac3146103c9576101fb565b80630c340a24146102005780630e14a376146102245780631749273e1461024357806321f8a721146102eb575b600080fd5b610208610919565b604080516001600160a01b039092168252519081900360200190f35b6102416004803603602081101561023a57600080fd5b5035610928565b005b6102416004803603604081101561025957600080fd5b81359190810190604081016020820135600160201b81111561027a57600080fd5b82018360208201111561028c57600080fd5b803590602001918460208302840111600160201b831117156102ad57600080fd5b919080806020026020016040519081016040528093929190818152602001838360200280828437600092019190915250929550610a69945050505050565b6102086004803603602081101561030157600080fd5b5035610ba1565b6102416004803603602081101561031e57600080fd5b5035610c14565b6102416004803603604081101561033b57600080fd5b81359190810190604081016020820135600160201b81111561035c57600080fd5b82018360208201111561036e57600080fd5b803590602001918460018302840111600160201b8311171561038f57600080fd5b509092509050610d13565b6103b7600480360360208110156103b057600080fd5b5035610e5a565b60408051918252519081900360200190f35b610241600480360360608110156103df57600080fd5b508035906020810135601c0b906040013560010b610e77565b6104156004803603602081101561040e57600080fd5b5035610fe0565b60408051602080825283518183015283519192839290830191858101910280838360005b83811015610451578181015183820152602001610439565b505050509050019250505060405180910390f35b6102416004803603602081101561047b57600080fd5b5035611050565b6102416004803603602081101561049857600080fd5b5035611150565b610241600480360360408110156104b557600080fd5b50803590602001356001600160a01b0316611247565b610241600480360360408110156104e157600080fd5b81359190810190604081016020820135600160201b81111561050257600080fd5b82018360208201111561051457600080fd5b803590602001918460018302840111600160201b8311171561053557600080fd5b509092509050611345565b61055d6004803603602081101561055657600080fd5b5035611486565b604080519115158252519081900360200190f35b6102416004803603604081101561058757600080fd5b5080359060200135601e0b6114f2565b6105b4600480360360208110156105ad57600080fd5b5035611627565b6040518083601c0b81526020018260010b81526020019250505060405180910390f35b610241600480360360208110156105ed57600080fd5b50356116a2565b6106116004803603602081101561060a57600080fd5b5035611799565b6040805160208082528351818301528351919283929083019185019080838360005b8381101561064b578181015183820152602001610633565b50505050905090810190601f1680156106785780820380516001836020036101000a031916815260200191505b509250505060405180910390f35b6102416004803603604081101561069c57600080fd5b50803590602001356001600160f81b031661189c565b610241600480360360408110156106c857600080fd5b508035906020013515156119ce565b61055d600480360360408110156106ed57600080fd5b50803590602001356001600160a01b0316611afd565b6102416004803603602081101561071957600080fd5b5035611b1c565b6102416004803603602081101561073657600080fd5b50356001600160a01b0316611c19565b6107636004803603602081101561075c57600080fd5b5035611d21565b604080516001600160f81b039092168252519081900360200190f35b6106116004803603602081101561079557600080fd5b5035611d93565b610241600480360360208110156107b257600080fd5b50356001600160a01b0316611e5f565b610241600480360360408110156107d857600080fd5b50803590602001356001600160a01b0316611f0b565b6102416004803603604081101561080457600080fd5b50803590602001356001600160a01b031661206a565b6106116004803603602081101561083057600080fd5b810190602081018135600160201b81111561084a57600080fd5b82018360208201111561085c57600080fd5b803590602001918460018302840111600160201b8311171561087d57600080fd5b509092509050612168565b6108a56004803603602081101561089e57600080fd5b50356123b1565b60408051601e9290920b8252519081900360200190f35b610241600480360360208110156108d257600080fd5b503561241d565b610208600480360360408110156108ef57600080fd5b5080359060200135612514565b6102416004803603602081101561091257600080fd5b5035612582565b6033546001600160a01b031681565b6033546040805163d994d6d560e01b815233600482015290516001600160a01b039092169163d994d6d591602480820192602092909190829003018186803b15801561097357600080fd5b505afa158015610987573d6000803e3d6000fd5b505050506040513d602081101561099d57600080fd5b50516040805180820190915260168152600080516020612a8e833981519152602082015290610a4a5760405162461bcd60e51b81526004018080602001828103825283818151815260200191508051906020019080838360005b83811015610a0f5781810151838201526020016109f7565b50505050905090810190601f168015610a3c5780820380516001836020036101000a031916815260200191505b509250505060405180910390fd5b50600090815260696020526040902080546001600160a01b0319169055565b6033546040805163d994d6d560e01b815233600482015290516001600160a01b039092169163d994d6d591602480820192602092909190829003018186803b158015610ab457600080fd5b505afa158015610ac8573d6000803e3d6000fd5b505050506040513d6020811015610ade57600080fd5b50516040805180820190915260168152600080516020612a8e833981519152602082015290610b4e5760405162461bcd60e51b8152602060048201818152835160248401528351909283926044909101919085019080838360008315610a0f5781810151838201526020016109f7565b5060005b8151811015610b9c57610b93828281518110610b6a57fe5b6020026020010151606d600086815260200190815260200160002061267f90919063ffffffff16565b50600101610b52565b505050565b6000818152606960205260408120546001600160a01b0316610bf8576040805162461bcd60e51b815260206004820152600b60248201526a496e76616c6964206b657960a81b604482015290519081900360640190fd5b506000908152606960205260409020546001600160a01b031690565b6033546040805163d994d6d560e01b815233600482015290516001600160a01b039092169163d994d6d591602480820192602092909190829003018186803b158015610c5f57600080fd5b505afa158015610c73573d6000803e3d6000fd5b505050506040513d6020811015610c8957600080fd5b50516040805180820190915260168152600080516020612a8e833981519152602082015290610cf95760405162461bcd60e51b8152602060048201818152835160248401528351909283926044909101919085019080838360008315610a0f5781810151838201526020016109f7565b506000908152606b60205260409020805461ffff19169055565b6033546040805163d994d6d560e01b815233600482015290516001600160a01b039092169163d994d6d591602480820192602092909190829003018186803b158015610d5e57600080fd5b505afa158015610d72573d6000803e3d6000fd5b505050506040513d6020811015610d8857600080fd5b50516040805180820190915260168152600080516020612a8e833981519152602082015290610df85760405162461bcd60e51b8152602060048201818152835160248401528351909283926044909101919085019080838360008315610a0f5781810151838201526020016109f7565b5080610e3b576040805162461bcd60e51b815260206004820152600d60248201526c496e76616c69642076616c756560981b604482015290519081900360640190fd5b6000838152606a60205260409020610e5490838361296e565b50505050565b6000818152606d60205260408120610e71906126e2565b92915050565b6033546040805163d994d6d560e01b815233600482015290516001600160a01b039092169163d994d6d591602480820192602092909190829003018186803b158015610ec257600080fd5b505afa158015610ed6573d6000803e3d6000fd5b505050506040513d6020811015610eec57600080fd5b50516040805180820190915260168152600080516020612a8e833981519152602082015290610f5c5760405162461bcd60e51b8152602060048201818152835160248401528351909283926044909101919085019080838360008315610a0f5781810151838201526020016109f7565b50604080516060810182526001808252601c94850b602080840191825294820b8385019081526000978852606690955292909520905181549251935190950b61ffff16600160f01b026001600160f01b039390940b6001600160e81b031661010002610100600160f01b031995151560ff1990931692909217949094161716179055565b6000818152606d60205260409020606090610ffa906126e2565b611039576040805162461bcd60e51b815260206004820152600b60248201526a496e76616c6964206b657960a81b604482015290519081900360640190fd5b6000828152606d60205260409020610e71906126e6565b6033546040805163d994d6d560e01b815233600482015290516001600160a01b039092169163d994d6d591602480820192602092909190829003018186803b15801561109b57600080fd5b505afa1580156110af573d6000803e3d6000fd5b505050506040513d60208110156110c557600080fd5b50516040805180820190915260168152600080516020612a8e8339815191526020820152906111355760405162461bcd60e51b8152602060048201818152835160248401528351909283926044909101919085019080838360008315610a0f5781810151838201526020016109f7565b506000818152606a6020526040812061114d916129ec565b50565b6033546040805163d994d6d560e01b815233600482015290516001600160a01b039092169163d994d6d591602480820192602092909190829003018186803b15801561119b57600080fd5b505afa1580156111af573d6000803e3d6000fd5b505050506040513d60208110156111c557600080fd5b50516040805180820190915260168152600080516020612a8e8339815191526020820152906112355760405162461bcd60e51b8152602060048201818152835160248401528351909283926044909101919085019080838360008315610a0f5781810151838201526020016109f7565b50600090815260666020526040812055565b6033546040805163d994d6d560e01b815233600482015290516001600160a01b039092169163d994d6d591602480820192602092909190829003018186803b15801561129257600080fd5b505afa1580156112a6573d6000803e3d6000fd5b505050506040513d60208110156112bc57600080fd5b50516040805180820190915260168152600080516020612a8e83398151915260208201529061132c5760405162461bcd60e51b8152602060048201818152835160248401528351909283926044909101919085019080838360008315610a0f5781810151838201526020016109f7565b506000828152606d60205260409020610b9c908261267f565b6033546040805163d994d6d560e01b815233600482015290516001600160a01b039092169163d994d6d591602480820192602092909190829003018186803b15801561139057600080fd5b505afa1580156113a4573d6000803e3d6000fd5b505050506040513d60208110156113ba57600080fd5b50516040805180820190915260168152600080516020612a8e83398151915260208201529061142a5760405162461bcd60e51b8152602060048201818152835160248401528351909283926044909101919085019080838360008315610a0f5781810151838201526020016109f7565b508061146d576040805162461bcd60e51b815260206004820152600d60248201526c496e76616c69642076616c756560981b604482015290519081900360640190fd5b6000838152606860205260409020610e5490838361296e565b6000818152606b602052604081205460ff166114d7576040805162461bcd60e51b815260206004820152600b60248201526a496e76616c6964206b657960a81b604482015290519081900360640190fd5b506000908152606b6020526040902054610100900460ff1690565b6033546040805163d994d6d560e01b815233600482015290516001600160a01b039092169163d994d6d591602480820192602092909190829003018186803b15801561153d57600080fd5b505afa158015611551573d6000803e3d6000fd5b505050506040513d602081101561156757600080fd5b50516040805180820190915260168152600080516020612a8e8339815191526020820152906115d75760405162461bcd60e51b8152602060048201818152835160248401528351909283926044909101919085019080838360008315610a0f5781810151838201526020016109f7565b5060408051808201825260018152601e92830b60208083019182526000958652606c90529190932092518354915190920b6001600160f81b03166101000291151560ff199091161760ff16179055565b600081815260666020526040812054819060ff1661167a576040805162461bcd60e51b815260206004820152600b60248201526a496e76616c6964206b657960a81b604482015290519081900360640190fd5b50506000908152606660205260409020546101008104601c0b91600160f01b90910460010b90565b6033546040805163d994d6d560e01b815233600482015290516001600160a01b039092169163d994d6d591602480820192602092909190829003018186803b1580156116ed57600080fd5b505afa158015611701573d6000803e3d6000fd5b505050506040513d602081101561171757600080fd5b50516040805180820190915260168152600080516020612a8e8339815191526020820152906117875760405162461bcd60e51b8152602060048201818152835160248401528351909283926044909101919085019080838360008315610a0f5781810151838201526020016109f7565b506000908152606c6020526040812055565b600081815260686020526040902054606090600260001961010060018416150201909116046117fd576040805162461bcd60e51b815260206004820152600b60248201526a496e76616c6964206b657960a81b604482015290519081900360640190fd5b60008281526068602090815260409182902080548351601f6002600019610100600186161502019093169290920491820184900484028101840190945280845290918301828280156118905780601f1061186557610100808354040283529160200191611890565b820191906000526020600020905b81548152906001019060200180831161187357829003601f168201915b50505050509050919050565b6033546040805163d994d6d560e01b815233600482015290516001600160a01b039092169163d994d6d591602480820192602092909190829003018186803b1580156118e757600080fd5b505afa1580156118fb573d6000803e3d6000fd5b505050506040513d602081101561191157600080fd5b50516040805180820190915260168152600080516020612a8e8339815191526020820152906119815760405162461bcd60e51b8152602060048201818152835160248401528351909283926044909101919085019080838360008315610a0f5781810151838201526020016109f7565b50604080518082018252600181526001600160f81b039283166020808301918252600095865260679052919093209251835491519092166101000291151560ff199091161760ff16179055565b6033546040805163d994d6d560e01b815233600482015290516001600160a01b039092169163d994d6d591602480820192602092909190829003018186803b158015611a1957600080fd5b505afa158015611a2d573d6000803e3d6000fd5b505050506040513d6020811015611a4357600080fd5b50516040805180820190915260168152600080516020612a8e833981519152602082015290611ab35760405162461bcd60e51b8152602060048201818152835160248401528351909283926044909101919085019080838360008315610a0f5781810151838201526020016109f7565b506040805180820182526001815291151560208084019182526000948552606b9052922090518154925115156101000261ff001991151560ff199094169390931716919091179055565b6000828152606d60205260408120611b15908361274b565b9392505050565b6033546040805163d994d6d560e01b815233600482015290516001600160a01b039092169163d994d6d591602480820192602092909190829003018186803b158015611b6757600080fd5b505afa158015611b7b573d6000803e3d6000fd5b505050506040513d6020811015611b9157600080fd5b50516040805180820190915260168152600080516020612a8e833981519152602082015290611c015760405162461bcd60e51b8152602060048201818152835160248401528351909283926044909101919085019080838360008315610a0f5781810151838201526020016109f7565b506000818152606d6020526040902061114d9061276c565b6033546040805163d994d6d560e01b815233600482015290516001600160a01b039092169163d994d6d591602480820192602092909190829003018186803b158015611c6457600080fd5b505afa158015611c78573d6000803e3d6000fd5b505050506040513d6020811015611c8e57600080fd5b50516040805180820190915260168152600080516020612a8e833981519152602082015290611cfe5760405162461bcd60e51b8152602060048201818152835160248401528351909283926044909101919085019080838360008315610a0f5781810151838201526020016109f7565b50603380546001600160a01b0319166001600160a01b0392909216919091179055565b60008181526067602052604081205460ff16611d72576040805162461bcd60e51b815260206004820152600b60248201526a496e76616c6964206b657960a81b604482015290519081900360640190fd5b5060009081526067602052604090205461010090046001600160f81b031690565b6000818152606a602052604090205460609060026000196101006001841615020190911604611df7576040805162461bcd60e51b815260206004820152600b60248201526a496e76616c6964206b657960a81b604482015290519081900360640190fd5b6000828152606a602090815260409182902080548351601f6002600019610100600186161502019093169290920491820184900484028101840190945280845290918301828280156118905780601f1061186557610100808354040283529160200191611890565b600054610100900460ff1680611e785750611e786127c6565b80611e86575060005460ff16155b611ec15760405162461bcd60e51b815260040180806020018281038252602e815260200180612a60602e913960400191505060405180910390fd5b600054610100900460ff16158015611eec576000805460ff1961ff0019909116610100171660011790555b611ef5826127cc565b8015611f07576000805461ff00191690555b5050565b6033546040805163d994d6d560e01b815233600482015290516001600160a01b039092169163d994d6d591602480820192602092909190829003018186803b158015611f5657600080fd5b505afa158015611f6a573d6000803e3d6000fd5b505050506040513d6020811015611f8057600080fd5b50516040805180820190915260168152600080516020612a8e833981519152602082015290611ff05760405162461bcd60e51b8152602060048201818152835160248401528351909283926044909101919085019080838360008315610a0f5781810151838201526020016109f7565b506001600160a01b03811661203c576040805162461bcd60e51b815260206004820152600d60248201526c496e76616c69642076616c756560981b604482015290519081900360640190fd5b60009182526069602052604090912080546001600160a01b0319166001600160a01b03909216919091179055565b6033546040805163d994d6d560e01b815233600482015290516001600160a01b039092169163d994d6d591602480820192602092909190829003018186803b1580156120b557600080fd5b505afa1580156120c9573d6000803e3d6000fd5b505050506040513d60208110156120df57600080fd5b50516040805180820190915260168152600080516020612a8e83398151915260208201529061214f5760405162461bcd60e51b8152602060048201818152835160248401528351909283926044909101919085019080838360008315610a0f5781810151838201526020016109f7565b506000828152606d60205260409020610b9c90826127ee565b6033546040805163d994d6d560e01b815233600482015290516060926001600160a01b03169163d994d6d5916024808301926020929190829003018186803b1580156121b357600080fd5b505afa1580156121c7573d6000803e3d6000fd5b505050506040513d60208110156121dd57600080fd5b50516040805180820190915260168152600080516020612a8e83398151915260208201529061224d5760405162461bcd60e51b8152602060048201818152835160248401528351909283926044909101919085019080838360008315610a0f5781810151838201526020016109f7565b50600033905060006060826001600160a01b031686866040516024018080602001828103825284848281815260200192508082843760008382015260408051601f909201601f1990811690940182810390940182529283526020810180516001600160e01b03166350b113e560e11b17815292518151919750955085945091925081905083835b602083106122f35780518252601f1990920191602091820191016122d4565b6001836020036101000a038019825116818451168082178552505050505050905001915050600060405180830381855af49150503d8060008114612353576040519150601f19603f3d011682016040523d82523d6000602084013e612358565b606091505b5091509150816123a8576040805162461bcd60e51b8152602060048201526016602482015275115c9c9bdc881a5b8819195b1959d85d194818d85b1b60521b604482015290519081900360640190fd5b95945050505050565b6000818152606c602052604081205460ff16612402576040805162461bcd60e51b815260206004820152600b60248201526a496e76616c6964206b657960a81b604482015290519081900360640190fd5b506000908152606c60205260409020546101009004601e0b90565b6033546040805163d994d6d560e01b815233600482015290516001600160a01b039092169163d994d6d591602480820192602092909190829003018186803b15801561246857600080fd5b505afa15801561247c573d6000803e3d6000fd5b505050506040513d602081101561249257600080fd5b50516040805180820190915260168152600080516020612a8e8339815191526020820152906125025760405162461bcd60e51b8152602060048201818152835160248401528351909283926044909101919085019080838360008315610a0f5781810151838201526020016109f7565b50600090815260676020526040812055565b6000828152606d6020526040812061252b906126e2565b61256a576040805162461bcd60e51b815260206004820152600b60248201526a496e76616c6964206b657960a81b604482015290519081900360640190fd5b6000838152606d60205260409020611b1590836128f5565b6033546040805163d994d6d560e01b815233600482015290516001600160a01b039092169163d994d6d591602480820192602092909190829003018186803b1580156125cd57600080fd5b505afa1580156125e1573d6000803e3d6000fd5b505050506040513d60208110156125f757600080fd5b50516040805180820190915260168152600080516020612a8e8339815191526020820152906126675760405162461bcd60e51b8152602060048201818152835160248401528351909283926044909101919085019080838360008315610a0f5781810151838201526020016109f7565b50600081815260686020526040812061114d916129ec565b600061268b838361274b565b6126da57508154600180820184556000848152602080822090930180546001600160a01b0319166001600160a01b03861690811790915585549082528286019093526040902091909155610e71565b506000610e71565b5490565b60608160000180548060200260200160405190810160405280929190818152602001828054801561189057602002820191906000526020600020905b81546001600160a01b031681526001909101906020018083116127225750505050509050919050565b6001600160a01b031660009081526001919091016020526040902054151590565b60005b81548110156127ba5781600101600083600001838154811061278d57fe5b60009182526020808320909101546001600160a01b0316835282019290925260400181205560010161276f565b5061114d816000612a30565b303b1590565b603380546001600160a01b0319166001600160a01b0392909216919091179055565b6001600160a01b038116600090815260018301602052604081205480156128eb578354600019808301919081019060009087908390811061282b57fe5b60009182526020909120015487546001600160a01b039091169150819088908590811061285457fe5b600091825260208083209190910180546001600160a01b0319166001600160a01b0394851617905591831681526001898101909252604090209084019055865487908061289d57fe5b60008281526020808220830160001990810180546001600160a01b03191690559092019092556001600160a01b0388168252600189810190915260408220919091559450610e719350505050565b6000915050610e71565b81546000908210612943576040805162461bcd60e51b8152602060048201526013602482015272696e646578206f7574206f6620626f756e647360681b604482015290519081900360640190fd5b82600001828154811061295257fe5b6000918252602090912001546001600160a01b03169392505050565b828054600181600116156101000203166002900490600052602060002090601f016020900481019282601f106129af5782800160ff198235161785556129dc565b828001600101855582156129dc579182015b828111156129dc5782358255916020019190600101906129c1565b506129e8929150612a4a565b5090565b50805460018160011615610100020316600290046000825580601f10612a12575061114d565b601f01602090049060005260206000209081019061114d9190612a4a565b508054600082559060005260206000209081019061114d91905b5b808211156129e85760008155600101612a4b56fe436f6e747261637420696e7374616e63652068617320616c7265616479206265656e20696e697469616c697a65646e6f745f617574686f72697a65645f6368616e67657200000000000000000000a2646970667358221220a83ab4c8ed4bd40fc98ed2bda2473aa15b00ff17dfbb33cc4d6e30aa969d162a64736f6c634300060c0033",
  "immutableReferences": {},
  "source": "// SPDX-License-Identifier: UNLICENSED\npragma solidity ^0.6.0;\n\nimport {Governed} from \"./moc-governance/Governance/Governed.sol\";\nimport {IGovernor} from \"./moc-governance/Governance/IGovernor.sol\";\nimport {Initializable} from \"@openzeppelin/contracts-ethereum-package/contracts/Initializable.sol\";\nimport {AddressSetLib} from \"./lib/AddressSetLib.sol\";\nimport {IRegistry} from \"./IRegistry.sol\";\n\n// Based on https://github.com/fravoll/solidity-patterns EternalStorage\ncontract GovernedRegistry is Initializable, Governed, IRegistry {\n    using AddressSetLib for AddressSetLib.AddressSet;\n\n    struct UIntVal {\n        bool b;\n        uint248 v;\n    }\n\n    struct BoolVal {\n        bool b;\n        bool v;\n    }\n\n    struct IntVal {\n        bool b;\n        int248 v;\n    }\n\n    struct DecimalVal {\n        bool b;\n        int232 base;\n        int16 exp;\n    }\n\n    mapping(bytes32 => DecimalVal) internal decimalStorage;\n    mapping(bytes32 => UIntVal) internal uIntStorage;\n    mapping(bytes32 => string) internal stringStorage;\n    mapping(bytes32 => address) internal addressStorage;\n    mapping(bytes32 => bytes) internal bytesStorage;\n    mapping(bytes32 => BoolVal) internal boolStorage;\n    mapping(bytes32 => IntVal) internal intStorage;\n    /////////// Nov 2020 UPGRADE\n    mapping(bytes32 => AddressSetLib.AddressSet) internal addressArrayStorage;\n\n    /**\n      @notice Initialize the contract with the basic settings\n      @dev This initialize replaces the constructor but it is not called automatically.\n      It is necessary because of the upgradeability of the contracts\n      @param _governor Governor address\n     */\n    function initialize(IGovernor _governor) external initializer {\n        Governed._initialize(_governor);\n    }\n\n    // *** Getter Methods ***\n    function getDecimal(bytes32 _key) external view override returns (int232 base, int16 exp) {\n        require(decimalStorage[_key].b, \"Invalid key\");\n        return (decimalStorage[_key].base, decimalStorage[_key].exp);\n    }\n\n    function getUint(bytes32 _key) external view override returns (uint248) {\n        require(uIntStorage[_key].b, \"Invalid key\");\n        return uIntStorage[_key].v;\n    }\n\n    function getString(bytes32 _key) external view override returns (string memory) {\n        require(bytes(stringStorage[_key]).length != 0, \"Invalid key\");\n        return stringStorage[_key];\n    }\n\n    function getAddress(bytes32 _key) external view override returns (address) {\n        require(addressStorage[_key] != address(0), \"Invalid key\");\n        return addressStorage[_key];\n    }\n\n    function getBytes(bytes32 _key) external view override returns (bytes memory) {\n        require(bytesStorage[_key].length != 0, \"Invalid key\");\n        return bytesStorage[_key];\n    }\n\n    function getBool(bytes32 _key) external view override returns (bool) {\n        require(boolStorage[_key].b, \"Invalid key\");\n        return boolStorage[_key].v;\n    }\n\n    function getInt(bytes32 _key) external view override returns (int248) {\n        require(intStorage[_key].b, \"Invalid key\");\n        return intStorage[_key].v;\n    }\n\n    // *** Setter Methods ***\n    function setDecimal(\n        bytes32 _key,\n        int232 _base,\n        int16 _exp\n    ) external override onlyAuthorizedChanger {\n        decimalStorage[_key] = DecimalVal(true, _base, _exp);\n    }\n\n    function setUint(bytes32 _key, uint248 _value) external override onlyAuthorizedChanger {\n        uIntStorage[_key] = UIntVal(true, _value);\n    }\n\n    function setString(bytes32 _key, string calldata _value)\n        external\n        override\n        onlyAuthorizedChanger\n    {\n        require(bytes(_value).length != 0, \"Invalid value\");\n        stringStorage[_key] = _value;\n    }\n\n    function setAddress(bytes32 _key, address _value) external override onlyAuthorizedChanger {\n        require(_value != address(0), \"Invalid value\");\n        addressStorage[_key] = _value;\n    }\n\n    function setBytes(bytes32 _key, bytes calldata _value) external override onlyAuthorizedChanger {\n        require(_value.length != 0, \"Invalid value\");\n        bytesStorage[_key] = _value;\n    }\n\n    function setBool(bytes32 _key, bool _value) external override onlyAuthorizedChanger {\n        boolStorage[_key] = BoolVal(true, _value);\n    }\n\n    function setInt(bytes32 _key, int248 _value) external override onlyAuthorizedChanger {\n        intStorage[_key] = IntVal(true, _value);\n    }\n\n    // *** Delete Methods ***\n    function deleteDecimal(bytes32 _key) external override onlyAuthorizedChanger {\n        delete decimalStorage[_key];\n    }\n\n    function deleteUint(bytes32 _key) external override onlyAuthorizedChanger {\n        delete uIntStorage[_key];\n    }\n\n    function deleteString(bytes32 _key) external override onlyAuthorizedChanger {\n        delete stringStorage[_key];\n    }\n\n    function deleteAddress(bytes32 _key) external override onlyAuthorizedChanger {\n        delete addressStorage[_key];\n    }\n\n    function deleteBytes(bytes32 _key) external override onlyAuthorizedChanger {\n        delete bytesStorage[_key];\n    }\n\n    function deleteBool(bytes32 _key) external override onlyAuthorizedChanger {\n        delete boolStorage[_key];\n    }\n\n    function deleteInt(bytes32 _key) external override onlyAuthorizedChanger {\n        delete intStorage[_key];\n    }\n\n    /////////// Nov 2020 UPGRADE\n\n    // *** Getter Methods ***\n    function getAddressArray(bytes32 _key) external view override returns (address[] memory) {\n        require(addressArrayStorage[_key].length() != 0, \"Invalid key\");\n        return addressArrayStorage[_key].asArray();\n    }\n\n    function getAddressArrayLength(bytes32 _key) external view override returns (uint256) {\n        return addressArrayStorage[_key].length();\n    }\n\n    function getAddressArrayElementAt(bytes32 _key, uint256 idx)\n        external\n        view\n        override\n        returns (address)\n    {\n        require(addressArrayStorage[_key].length() != 0, \"Invalid key\");\n        return addressArrayStorage[_key].at(idx);\n    }\n\n    function addressArrayContains(bytes32 _key, address value)\n        external\n        view\n        override\n        returns (bool)\n    {\n        return addressArrayStorage[_key].contains(value);\n    }\n\n    // *** Setters ***\n    function pushAddressArrayElement(bytes32 _key, address _addr)\n        external\n        override\n        onlyAuthorizedChanger\n    {\n        addressArrayStorage[_key].add(_addr);\n    }\n\n    function pushAddressArray(bytes32 _key, address[] memory data)\n        external\n        override\n        onlyAuthorizedChanger\n    {\n        for (uint256 i = 0; i < data.length; i++) {\n            addressArrayStorage[_key].add(data[i]);\n        }\n    }\n\n    function clearAddressArray(bytes32 _key) external override onlyAuthorizedChanger {\n        addressArrayStorage[_key].clear();\n    }\n\n    function removeAddressArrayElement(bytes32 _key, address value)\n        external\n        override\n        onlyAuthorizedChanger\n    {\n        addressArrayStorage[_key].remove(value);\n    }\n}\n",
  "sourcePath": "/home/jbokser/work2/OMoC-SC-Shared/contracts/GovernedRegistry.sol",
  "compiler": {
    "name": "solc",
    "version": "0.6.12+commit.27d51765.Emscripten.clang"
  },
  "schemaVersion": "3.3.3",
  "updatedAt": "2021-02-04T20:51:03.314Z",
  "devdoc": {
    "kind": "dev",
    "methods": {
      "changeIGovernor(address)": {
        "params": {
          "newIGovernor": "New governor address"
        }
      },
      "delegateCallToChanger(bytes)": {
        "params": {
          "data": "the serialized function arguments"
        }
      },
      "initialize(address)": {
        "details": "This initialize replaces the constructor but it is not called automatically. It is necessary because of the upgradeability of the contracts",
        "params": {
          "_governor": "Governor address"
        }
      }
    },
    "version": 1
  },
  "userdoc": {
    "kind": "user",
    "methods": {
      "changeIGovernor(address)": {
        "notice": "Change the contract's governor. Should be called through the old governance system"
      },
      "delegateCallToChanger(bytes)": {
        "notice": "This method is used by a change contract to access the storage freely even without a setter."
      },
      "governor()": {
        "notice": "The address of the contract which governs this one"
      },
      "initialize(address)": {
        "notice": "Initialize the contract with the basic settings"
      }
    },
    "version": 1
  }
}