{
  "contractName": "GovernedERC20",
  "abi": [
    {
      "anonymous": false,
      "inputs": [
        {
          "indexed": true,
          "internalType": "address",
          "name": "owner",
          "type": "address"
        },
        {
          "indexed": true,
          "internalType": "address",
          "name": "spender",
          "type": "address"
        },
        {
          "indexed": false,
          "internalType": "uint256",
          "name": "value",
          "type": "uint256"
        }
      ],
      "name": "Approval",
      "type": "event"
    },
    {
      "anonymous": false,
      "inputs": [
        {
          "indexed": true,
          "internalType": "address",
          "name": "from",
          "type": "address"
        },
        {
          "indexed": true,
          "internalType": "address",
          "name": "to",
          "type": "address"
        },
        {
          "indexed": false,
          "internalType": "uint256",
          "name": "value",
          "type": "uint256"
        }
      ],
      "name": "Transfer",
      "type": "event"
    },
    {
      "inputs": [
        {
          "internalType": "address",
          "name": "owner",
          "type": "address"
        },
        {
          "internalType": "address",
          "name": "spender",
          "type": "address"
        }
      ],
      "name": "allowance",
      "outputs": [
        {
          "internalType": "uint256",
          "name": "",
          "type": "uint256"
        }
      ],
      "stateMutability": "view",
      "type": "function"
    },
    {
      "inputs": [
        {
          "internalType": "address",
          "name": "spender",
          "type": "address"
        },
        {
          "internalType": "uint256",
          "name": "amount",
          "type": "uint256"
        }
      ],
      "name": "approve",
      "outputs": [
        {
          "internalType": "bool",
          "name": "",
          "type": "bool"
        }
      ],
      "stateMutability": "nonpayable",
      "type": "function"
    },
    {
      "inputs": [
        {
          "internalType": "address",
          "name": "account",
          "type": "address"
        }
      ],
      "name": "balanceOf",
      "outputs": [
        {
          "internalType": "uint256",
          "name": "",
          "type": "uint256"
        }
      ],
      "stateMutability": "view",
      "type": "function"
    },
    {
      "inputs": [
        {
          "internalType": "contract IGovernor",
          "name": "newIGovernor",
          "type": "address"
        }
      ],
      "name": "changeIGovernor",
      "outputs": [],
      "stateMutability": "nonpayable",
      "type": "function"
    },
    {
      "inputs": [],
      "name": "decimals",
      "outputs": [
        {
          "internalType": "uint8",
          "name": "",
          "type": "uint8"
        }
      ],
      "stateMutability": "view",
      "type": "function"
    },
    {
      "inputs": [
        {
          "internalType": "address",
          "name": "spender",
          "type": "address"
        },
        {
          "internalType": "uint256",
          "name": "subtractedValue",
          "type": "uint256"
        }
      ],
      "name": "decreaseAllowance",
      "outputs": [
        {
          "internalType": "bool",
          "name": "",
          "type": "bool"
        }
      ],
      "stateMutability": "nonpayable",
      "type": "function"
    },
    {
      "inputs": [
        {
          "internalType": "bytes",
          "name": "data",
          "type": "bytes"
        }
      ],
      "name": "delegateCallToChanger",
      "outputs": [
        {
          "internalType": "bytes",
          "name": "",
          "type": "bytes"
        }
      ],
      "stateMutability": "nonpayable",
      "type": "function"
    },
    {
      "inputs": [],
      "name": "governor",
      "outputs": [
        {
          "internalType": "contract IGovernor",
          "name": "",
          "type": "address"
        }
      ],
      "stateMutability": "view",
      "type": "function"
    },
    {
      "inputs": [
        {
          "internalType": "address",
          "name": "spender",
          "type": "address"
        },
        {
          "internalType": "uint256",
          "name": "addedValue",
          "type": "uint256"
        }
      ],
      "name": "increaseAllowance",
      "outputs": [
        {
          "internalType": "bool",
          "name": "",
          "type": "bool"
        }
      ],
      "stateMutability": "nonpayable",
      "type": "function"
    },
    {
      "inputs": [],
      "name": "name",
      "outputs": [
        {
          "internalType": "string",
          "name": "",
          "type": "string"
        }
      ],
      "stateMutability": "view",
      "type": "function"
    },
    {
      "inputs": [],
      "name": "symbol",
      "outputs": [
        {
          "internalType": "string",
          "name": "",
          "type": "string"
        }
      ],
      "stateMutability": "view",
      "type": "function"
    },
    {
      "inputs": [],
      "name": "totalSupply",
      "outputs": [
        {
          "internalType": "uint256",
          "name": "",
          "type": "uint256"
        }
      ],
      "stateMutability": "view",
      "type": "function"
    },
    {
      "inputs": [
        {
          "internalType": "address",
          "name": "recipient",
          "type": "address"
        },
        {
          "internalType": "uint256",
          "name": "amount",
          "type": "uint256"
        }
      ],
      "name": "transfer",
      "outputs": [
        {
          "internalType": "bool",
          "name": "",
          "type": "bool"
        }
      ],
      "stateMutability": "nonpayable",
      "type": "function"
    },
    {
      "inputs": [
        {
          "internalType": "address",
          "name": "sender",
          "type": "address"
        },
        {
          "internalType": "address",
          "name": "recipient",
          "type": "address"
        },
        {
          "internalType": "uint256",
          "name": "amount",
          "type": "uint256"
        }
      ],
      "name": "transferFrom",
      "outputs": [
        {
          "internalType": "bool",
          "name": "",
          "type": "bool"
        }
      ],
      "stateMutability": "nonpayable",
      "type": "function"
    },
    {
      "inputs": [
        {
          "internalType": "contract IGovernor",
          "name": "_governor",
          "type": "address"
        }
      ],
      "name": "initialize",
      "outputs": [],
      "stateMutability": "nonpayable",
      "type": "function"
    },
    {
      "inputs": [
        {
          "internalType": "address",
          "name": "account",
          "type": "address"
        },
        {
          "internalType": "uint256",
          "name": "amount",
          "type": "uint256"
        }
      ],
      "name": "mint",
      "outputs": [],
      "stateMutability": "nonpayable",
      "type": "function"
    },
    {
      "inputs": [
        {
          "internalType": "address",
          "name": "account",
          "type": "address"
        },
        {
          "internalType": "uint256",
          "name": "amount",
          "type": "uint256"
        }
      ],
      "name": "burn",
      "outputs": [],
      "stateMutability": "nonpayable",
      "type": "function"
    }
  ],
  "bytecode": "0x608060405234801561001057600080fd5b50611797806100206000396000f3fe608060405234801561001057600080fd5b506004361061010b5760003560e01c806370a08231116100a2578063a9059cbb11610071578063a9059cbb1461033f578063b6e083301461036b578063c4d66de814610391578063dc8990e1146103b7578063dd62ed3e146104275761010b565b806370a08231146102b957806395d89b41146102df5780639dc29fac146102e7578063a457c2d7146103135761010b565b806323b872dd116100de57806323b872dd1461020b578063313ce56714610241578063395093511461025f57806340c10f191461028b5761010b565b806306fdde0314610110578063095ea7b31461018d5780630c340a24146101cd57806318160ddd146101f1575b600080fd5b610118610455565b6040805160208082528351818301528351919283929083019185019080838360005b8381101561015257818101518382015260200161013a565b50505050905090810190601f16801561017f5780820380516001836020036101000a031916815260200191505b509250505060405180910390f35b6101b9600480360360408110156101a357600080fd5b506001600160a01b0381351690602001356104eb565b604080519115158252519081900360200190f35b6101d5610508565b604080516001600160a01b039092168252519081900360200190f35b6101f9610517565b60408051918252519081900360200190f35b6101b96004803603606081101561022157600080fd5b506001600160a01b0381358116916020810135909116906040013561051d565b6102496105a4565b6040805160ff9092168252519081900360200190f35b6101b96004803603604081101561027557600080fd5b506001600160a01b0381351690602001356105ad565b6102b7600480360360408110156102a157600080fd5b506001600160a01b0381351690602001356105fb565b005b6101f9600480360360208110156102cf57600080fd5b50356001600160a01b0316610737565b610118610752565b6102b7600480360360408110156102fd57600080fd5b506001600160a01b0381351690602001356107b3565b6101b96004803603604081101561032957600080fd5b506001600160a01b0381351690602001356108ae565b6101b96004803603604081101561035557600080fd5b506001600160a01b038135169060200135610916565b6102b76004803603602081101561038157600080fd5b50356001600160a01b031661092a565b6102b7600480360360208110156103a757600080fd5b50356001600160a01b0316610a3d565b610118600480360360208110156103cd57600080fd5b8101906020810181356401000000008111156103e857600080fd5b8201836020820111156103fa57600080fd5b8035906020019184600183028401116401000000008311171561041c57600080fd5b509092509050610b37565b6101f96004803603604081101561043d57600080fd5b506001600160a01b0381358116916020013516610d8b565b609b8054604080516020601f60026000196101006001881615020190951694909404938401819004810282018101909252828152606093909290918301828280156104e15780601f106104b6576101008083540402835291602001916104e1565b820191906000526020600020905b8154815290600101906020018083116104c457829003601f168201915b5050505050905090565b60006104ff6104f8610db6565b8484610dba565b50600192915050565b6033546001600160a01b031681565b609a5490565b600061052a848484610ea6565b61059a84610536610db6565b6105958560405180606001604052806028815260200161167d602891396001600160a01b038a16600090815260996020526040812090610574610db6565b6001600160a01b031681526020810191909152604001600020549190611003565b610dba565b5060019392505050565b609d5460ff1690565b60006104ff6105ba610db6565b8461059585609960006105cb610db6565b6001600160a01b03908116825260208083019390935260409182016000908120918c16815292529020549061105d565b6033546040805163d994d6d560e01b815233600482015290516001600160a01b039092169163d994d6d591602480820192602092909190829003018186803b15801561064657600080fd5b505afa15801561065a573d6000803e3d6000fd5b505050506040513d602081101561067057600080fd5b50516040805180820190915260168152753737ba2fb0baba3437b934bd32b22fb1b430b733b2b960511b6020820152906107285760405162461bcd60e51b81526004018080602001828103825283818151815260200191508051906020019080838360005b838110156106ed5781810151838201526020016106d5565b50505050905090810190601f16801561071a5780820380516001836020036101000a031916815260200191505b509250505060405180910390fd5b5061073382826110be565b5050565b6001600160a01b031660009081526098602052604090205490565b609c8054604080516020601f60026000196101006001881615020190951694909404938401819004810282018101909252828152606093909290918301828280156104e15780601f106104b6576101008083540402835291602001916104e1565b6033546040805163d994d6d560e01b815233600482015290516001600160a01b039092169163d994d6d591602480820192602092909190829003018186803b1580156107fe57600080fd5b505afa158015610812573d6000803e3d6000fd5b505050506040513d602081101561082857600080fd5b50516040805180820190915260168152753737ba2fb0baba3437b934bd32b22fb1b430b733b2b960511b6020820152906108a35760405162461bcd60e51b81526020600482018181528351602484015283519092839260449091019190850190808383600083156106ed5781810151838201526020016106d5565b5061073382826111b0565b60006104ff6108bb610db6565b846105958560405180606001604052806025815260200161173d60259139609960006108e5610db6565b6001600160a01b03908116825260208083019390935260409182016000908120918d16815292529020549190611003565b60006104ff610923610db6565b8484610ea6565b6033546040805163d994d6d560e01b815233600482015290516001600160a01b039092169163d994d6d591602480820192602092909190829003018186803b15801561097557600080fd5b505afa158015610989573d6000803e3d6000fd5b505050506040513d602081101561099f57600080fd5b50516040805180820190915260168152753737ba2fb0baba3437b934bd32b22fb1b430b733b2b960511b602082015290610a1a5760405162461bcd60e51b81526020600482018181528351602484015283519092839260449091019190850190808383600083156106ed5781810151838201526020016106d5565b50603380546001600160a01b0319166001600160a01b0392909216919091179055565b600054610100900460ff1680610a565750610a566112ac565b80610a64575060005460ff16155b610a9f5760405162461bcd60e51b815260040180806020018281038252602e8152602001806116a5602e913960400191505060405180910390fd5b600054610100900460ff16158015610aca576000805460ff1961ff0019909116610100171660011790555b610ad3826112b2565b610b1860405180604001604052806007815260200166544553544d4f4360c81b81525060405180604001604052806004815260200163544d4f4360e01b8152506112d4565b610b22601261138a565b8015610733576000805461ff00191690555050565b6033546040805163d994d6d560e01b815233600482015290516060926001600160a01b03169163d994d6d5916024808301926020929190829003018186803b158015610b8257600080fd5b505afa158015610b96573d6000803e3d6000fd5b505050506040513d6020811015610bac57600080fd5b50516040805180820190915260168152753737ba2fb0baba3437b934bd32b22fb1b430b733b2b960511b602082015290610c275760405162461bcd60e51b81526020600482018181528351602484015283519092839260449091019190850190808383600083156106ed5781810151838201526020016106d5565b50600033905060006060826001600160a01b031686866040516024018080602001828103825284848281815260200192508082843760008382015260408051601f909201601f1990811690940182810390940182529283526020810180516001600160e01b03166350b113e560e11b17815292518151919750955085945091925081905083835b60208310610ccd5780518252601f199092019160209182019101610cae565b6001836020036101000a038019825116818451168082178552505050505050905001915050600060405180830381855af49150503d8060008114610d2d576040519150601f19603f3d011682016040523d82523d6000602084013e610d32565b606091505b509150915081610d82576040805162461bcd60e51b8152602060048201526016602482015275115c9c9bdc881a5b8819195b1959d85d194818d85b1b60521b604482015290519081900360640190fd5b95945050505050565b6001600160a01b03918216600090815260996020908152604080832093909416825291909152205490565b3390565b6001600160a01b038316610dff5760405162461bcd60e51b81526004018080602001828103825260248152602001806117196024913960400191505060405180910390fd5b6001600160a01b038216610e445760405162461bcd60e51b81526004018080602001828103825260228152602001806116356022913960400191505060405180910390fd5b6001600160a01b03808416600081815260996020908152604080832094871680845294825291829020859055815185815291517f8c5be1e5ebec7d5bd14f71427d1e84f3dd0314c0f7b2291e5b200ac8c7c3b9259281900390910190a3505050565b6001600160a01b038316610eeb5760405162461bcd60e51b81526004018080602001828103825260258152602001806116f46025913960400191505060405180910390fd5b6001600160a01b038216610f305760405162461bcd60e51b81526004018080602001828103825260238152602001806115f06023913960400191505060405180910390fd5b610f3b838383611385565b610f7881604051806060016040528060268152602001611657602691396001600160a01b0386166000908152609860205260409020549190611003565b6001600160a01b038085166000908152609860205260408082209390935590841681522054610fa7908261105d565b6001600160a01b0380841660008181526098602090815260409182902094909455805185815290519193928716927fddf252ad1be2c89b69c2b068fc378daa952ba7f163c4a11628f55a4df523b3ef92918290030190a3505050565b600081848411156110555760405162461bcd60e51b81526020600482018181528351602484015283519092839260449091019190850190808383600083156106ed5781810151838201526020016106d5565b505050900390565b6000828201838110156110b7576040805162461bcd60e51b815260206004820152601b60248201527f536166654d6174683a206164646974696f6e206f766572666c6f770000000000604482015290519081900360640190fd5b9392505050565b6001600160a01b038216611119576040805162461bcd60e51b815260206004820152601f60248201527f45524332303a206d696e7420746f20746865207a65726f206164647265737300604482015290519081900360640190fd5b61112560008383611385565b609a54611132908261105d565b609a556001600160a01b038216600090815260986020526040902054611158908261105d565b6001600160a01b03831660008181526098602090815260408083209490945583518581529351929391927fddf252ad1be2c89b69c2b068fc378daa952ba7f163c4a11628f55a4df523b3ef9281900390910190a35050565b6001600160a01b0382166111f55760405162461bcd60e51b81526004018080602001828103825260218152602001806116d36021913960400191505060405180910390fd5b61120182600083611385565b61123e81604051806060016040528060228152602001611613602291396001600160a01b0385166000908152609860205260409020549190611003565b6001600160a01b038316600090815260986020526040902055609a5461126490826113a0565b609a556040805182815290516000916001600160a01b038516917fddf252ad1be2c89b69c2b068fc378daa952ba7f163c4a11628f55a4df523b3ef9181900360200190a35050565b303b1590565b603380546001600160a01b0319166001600160a01b0392909216919091179055565b600054610100900460ff16806112ed57506112ed6112ac565b806112fb575060005460ff16155b6113365760405162461bcd60e51b815260040180806020018281038252602e8152602001806116a5602e913960400191505060405180910390fd5b600054610100900460ff16158015611361576000805460ff1961ff0019909116610100171660011790555b6113696113e2565b6113738383611484565b8015611385576000805461ff00191690555b505050565b609d805460ff191660ff92909216919091179055565b60006110b783836040518060400160405280601e81526020017f536166654d6174683a207375627472616374696f6e206f766572666c6f770000815250611003565b600054610100900460ff16806113fb57506113fb6112ac565b80611409575060005460ff16155b6114445760405162461bcd60e51b815260040180806020018281038252602e8152602001806116a5602e913960400191505060405180910390fd5b600054610100900460ff1615801561146f576000805460ff1961ff0019909116610100171660011790555b8015611481576000805461ff00191690555b50565b600054610100900460ff168061149d575061149d6112ac565b806114ab575060005460ff16155b6114e65760405162461bcd60e51b815260040180806020018281038252602e8152602001806116a5602e913960400191505060405180910390fd5b600054610100900460ff16158015611511576000805460ff1961ff0019909116610100171660011790555b825161152490609b90602086019061155c565b50815161153890609c90602085019061155c565b50609d805460ff191660121790558015611385576000805461ff0019169055505050565b828054600181600116156101000203166002900490600052602060002090601f016020900481019282601f1061159d57805160ff19168380011785556115ca565b828001600101855582156115ca579182015b828111156115ca5782518255916020019190600101906115af565b506115d69291506115da565b5090565b5b808211156115d657600081556001016115db56fe45524332303a207472616e7366657220746f20746865207a65726f206164647265737345524332303a206275726e20616d6f756e7420657863656564732062616c616e636545524332303a20617070726f766520746f20746865207a65726f206164647265737345524332303a207472616e7366657220616d6f756e7420657863656564732062616c616e636545524332303a207472616e7366657220616d6f756e74206578636565647320616c6c6f77616e6365436f6e747261637420696e7374616e63652068617320616c7265616479206265656e20696e697469616c697a656445524332303a206275726e2066726f6d20746865207a65726f206164647265737345524332303a207472616e736665722066726f6d20746865207a65726f206164647265737345524332303a20617070726f76652066726f6d20746865207a65726f206164647265737345524332303a2064656372656173656420616c6c6f77616e63652062656c6f77207a65726fa26469706673582212202871a6fc127e98869659102bc8c2ac4d75ffd503d61129f583410fec195cb60f64736f6c634300060c0033",
  "immutableReferences": {},
  "source": "// SPDX-License-Identifier: UNLICENSED\npragma solidity ^0.6.2;\n\n// prettier-ignore\nimport {ERC20UpgradeSafe} from \"@openzeppelin/contracts-ethereum-package/contracts/token/ERC20/ERC20.sol\";\n\nimport {Initializable} from \"@openzeppelin/contracts-ethereum-package/contracts/Initializable.sol\";\nimport {IGovernor} from \"../moc-governance/Governance/IGovernor.sol\";\nimport {Governed} from \"../moc-governance/Governance/Governed.sol\";\nimport {IMintableERC20} from \"../IMintableERC20.sol\";\n\ncontract GovernedERC20 is Initializable, Governed, ERC20UpgradeSafe, IMintableERC20 {\n    /**\n      @notice Initialize the contract with the basic settings\n      @dev This initialize replaces the constructor but it is not called automatically.\n      It is necessary because of the upgradeability of the contracts\n      @param _governor Governor address\n     */\n    function initialize(IGovernor _governor) external initializer {\n        Governed._initialize(_governor);\n        __ERC20_init(\"TESTMOC\", \"TMOC\");\n        _setupDecimals(18);\n    }\n\n    /** @dev Creates `amount` tokens and assigns them to `account`, increasing\n     * the total supply.\n     *\n     * Emits a {Transfer} event with `from` set to the zero address.\n     *\n     * Requirements\n     *\n     * - `to` cannot be the zero address.\n     */\n    function mint(address account, uint256 amount) external override onlyAuthorizedChanger() {\n        _mint(account, amount);\n    }\n\n    /**\n     * @dev Destroys `amount` tokens from `account`, reducing the\n     * total supply.\n     *\n     * Emits a {Transfer} event with `to` set to the zero address.\n     *\n     * Requirements\n     *\n     * - `account` cannot be the zero address.\n     * - `account` must have at least `amount` tokens.\n     */\n    function burn(address account, uint256 amount) external onlyAuthorizedChanger() {\n        _burn(account, amount);\n    }\n}\n",
  "sourcePath": "/home/jbokser/work2/OMoC-SC-Shared/contracts/testing_mocks/GovernedERC20.sol",
  "compiler": {
    "name": "solc",
    "version": "0.6.12+commit.27d51765.Emscripten.clang"
  },
  "schemaVersion": "3.3.3",
  "updatedAt": "2021-02-04T20:51:03.407Z",
  "devdoc": {
    "kind": "dev",
    "methods": {
      "allowance(address,address)": {
        "details": "See {IERC20-allowance}."
      },
      "approve(address,uint256)": {
        "details": "See {IERC20-approve}. Requirements: - `spender` cannot be the zero address."
      },
      "balanceOf(address)": {
        "details": "See {IERC20-balanceOf}."
      },
      "burn(address,uint256)": {
        "details": "Destroys `amount` tokens from `account`, reducing the total supply. Emits a {Transfer} event with `to` set to the zero address. Requirements - `account` cannot be the zero address. - `account` must have at least `amount` tokens."
      },
      "changeIGovernor(address)": {
        "params": {
          "newIGovernor": "New governor address"
        }
      },
      "decimals()": {
        "details": "Returns the number of decimals used to get its user representation. For example, if `decimals` equals `2`, a balance of `505` tokens should be displayed to a user as `5,05` (`505 / 10 ** 2`). Tokens usually opt for a value of 18, imitating the relationship between Ether and Wei. This is the value {ERC20} uses, unless {_setupDecimals} is called. NOTE: This information is only used for _display_ purposes: it in no way affects any of the arithmetic of the contract, including {IERC20-balanceOf} and {IERC20-transfer}."
      },
      "decreaseAllowance(address,uint256)": {
        "details": "Atomically decreases the allowance granted to `spender` by the caller. This is an alternative to {approve} that can be used as a mitigation for problems described in {IERC20-approve}. Emits an {Approval} event indicating the updated allowance. Requirements: - `spender` cannot be the zero address. - `spender` must have allowance for the caller of at least `subtractedValue`."
      },
      "delegateCallToChanger(bytes)": {
        "params": {
          "data": "the serialized function arguments"
        }
      },
      "increaseAllowance(address,uint256)": {
        "details": "Atomically increases the allowance granted to `spender` by the caller. This is an alternative to {approve} that can be used as a mitigation for problems described in {IERC20-approve}. Emits an {Approval} event indicating the updated allowance. Requirements: - `spender` cannot be the zero address."
      },
      "initialize(address)": {
        "details": "This initialize replaces the constructor but it is not called automatically. It is necessary because of the upgradeability of the contracts",
        "params": {
          "_governor": "Governor address"
        }
      },
      "mint(address,uint256)": {
        "details": "Creates `amount` tokens and assigns them to `account`, increasing the total supply. Emits a {Transfer} event with `from` set to the zero address. Requirements - `to` cannot be the zero address."
      },
      "name()": {
        "details": "Returns the name of the token."
      },
      "symbol()": {
        "details": "Returns the symbol of the token, usually a shorter version of the name."
      },
      "totalSupply()": {
        "details": "See {IERC20-totalSupply}."
      },
      "transfer(address,uint256)": {
        "details": "See {IERC20-transfer}. Requirements: - `recipient` cannot be the zero address. - the caller must have a balance of at least `amount`."
      },
      "transferFrom(address,address,uint256)": {
        "details": "See {IERC20-transferFrom}. Emits an {Approval} event indicating the updated allowance. This is not required by the EIP. See the note at the beginning of {ERC20}; Requirements: - `sender` and `recipient` cannot be the zero address. - `sender` must have a balance of at least `amount`. - the caller must have allowance for ``sender``'s tokens of at least `amount`."
      }
    },
    "version": 1
  },
  "userdoc": {
    "kind": "user",
    "methods": {
      "changeIGovernor(address)": {
        "notice": "Change the contract's governor. Should be called through the old governance system"
      },
      "delegateCallToChanger(bytes)": {
        "notice": "This method is used by a change contract to access the storage freely even without a setter."
      },
      "governor()": {
        "notice": "The address of the contract which governs this one"
      },
      "initialize(address)": {
        "notice": "Initialize the contract with the basic settings"
      }
    },
    "version": 1
  }
}