{
  "contractName": "MocFlowRegistryClearChange",
  "abi": [
    {
      "inputs": [
        {
          "internalType": "contract IRegistry",
          "name": "_registry",
          "type": "address"
        }
      ],
      "stateMutability": "nonpayable",
      "type": "constructor"
    },
    {
      "inputs": [],
      "name": "INFO_ADDR",
      "outputs": [
        {
          "internalType": "bytes32",
          "name": "",
          "type": "bytes32"
        }
      ],
      "stateMutability": "view",
      "type": "function"
    },
    {
      "inputs": [],
      "name": "MESSAGE_VERSION",
      "outputs": [
        {
          "internalType": "bytes32",
          "name": "",
          "type": "bytes32"
        }
      ],
      "stateMutability": "view",
      "type": "function"
    },
    {
      "inputs": [],
      "name": "MOC_DELAY_MACHINE",
      "outputs": [
        {
          "internalType": "bytes32",
          "name": "",
          "type": "bytes32"
        }
      ],
      "stateMutability": "view",
      "type": "function"
    },
    {
      "inputs": [],
      "name": "MOC_FLOW_BUFFERS",
      "outputs": [
        {
          "internalType": "bytes32",
          "name": "",
          "type": "bytes32"
        }
      ],
      "stateMutability": "view",
      "type": "function"
    },
    {
      "inputs": [],
      "name": "MOC_FLOW_COINERS",
      "outputs": [
        {
          "internalType": "bytes32",
          "name": "",
          "type": "bytes32"
        }
      ],
      "stateMutability": "view",
      "type": "function"
    },
    {
      "inputs": [],
      "name": "MOC_FLOW_DRIPPERS",
      "outputs": [
        {
          "internalType": "bytes32",
          "name": "",
          "type": "bytes32"
        }
      ],
      "stateMutability": "view",
      "type": "function"
    },
    {
      "inputs": [],
      "name": "MOC_FLOW_REVERSE_AUCTIONS",
      "outputs": [
        {
          "internalType": "bytes32",
          "name": "",
          "type": "bytes32"
        }
      ],
      "stateMutability": "view",
      "type": "function"
    },
    {
      "inputs": [],
      "name": "MOC_PRICE_PROVIDER_REGISTRY",
      "outputs": [
        {
          "internalType": "bytes32",
          "name": "",
          "type": "bytes32"
        }
      ],
      "stateMutability": "view",
      "type": "function"
    },
    {
      "inputs": [],
      "name": "MOC_PROJECT_VERSION",
      "outputs": [
        {
          "internalType": "bytes32",
          "name": "",
          "type": "bytes32"
        }
      ],
      "stateMutability": "view",
      "type": "function"
    },
    {
      "inputs": [],
      "name": "MOC_STAKING_MACHINE",
      "outputs": [
        {
          "internalType": "bytes32",
          "name": "",
          "type": "bytes32"
        }
      ],
      "stateMutability": "view",
      "type": "function"
    },
    {
      "inputs": [],
      "name": "MOC_TOKEN",
      "outputs": [
        {
          "internalType": "bytes32",
          "name": "",
          "type": "bytes32"
        }
      ],
      "stateMutability": "view",
      "type": "function"
    },
    {
      "inputs": [],
      "name": "MOC_UPGRADE_DELEGATOR",
      "outputs": [
        {
          "internalType": "bytes32",
          "name": "",
          "type": "bytes32"
        }
      ],
      "stateMutability": "view",
      "type": "function"
    },
    {
      "inputs": [],
      "name": "MOC_VESTING_MACHINE",
      "outputs": [
        {
          "internalType": "bytes32",
          "name": "",
          "type": "bytes32"
        }
      ],
      "stateMutability": "view",
      "type": "function"
    },
    {
      "inputs": [],
      "name": "MOC_VOTING_MACHINE",
      "outputs": [
        {
          "internalType": "bytes32",
          "name": "",
          "type": "bytes32"
        }
      ],
      "stateMutability": "view",
      "type": "function"
    },
    {
      "inputs": [],
      "name": "MOC_VOTING_MACHINE_MAX_PRE_PROPOSALS",
      "outputs": [
        {
          "internalType": "bytes32",
          "name": "",
          "type": "bytes32"
        }
      ],
      "stateMutability": "view",
      "type": "function"
    },
    {
      "inputs": [],
      "name": "MOC_VOTING_MACHINE_MIN_STAKE",
      "outputs": [
        {
          "internalType": "bytes32",
          "name": "",
          "type": "bytes32"
        }
      ],
      "stateMutability": "view",
      "type": "function"
    },
    {
      "inputs": [],
      "name": "MOC_VOTING_MACHINE_PCT_PRECISION",
      "outputs": [
        {
          "internalType": "bytes32",
          "name": "",
          "type": "bytes32"
        }
      ],
      "stateMutability": "view",
      "type": "function"
    },
    {
      "inputs": [],
      "name": "MOC_VOTING_MACHINE_PRE_VOTE_EXPIRATION_TIME_DELTA",
      "outputs": [
        {
          "internalType": "bytes32",
          "name": "",
          "type": "bytes32"
        }
      ],
      "stateMutability": "view",
      "type": "function"
    },
    {
      "inputs": [],
      "name": "MOC_VOTING_MACHINE_PRE_VOTE_MIN_PCT_TO_WIN",
      "outputs": [
        {
          "internalType": "bytes32",
          "name": "",
          "type": "bytes32"
        }
      ],
      "stateMutability": "view",
      "type": "function"
    },
    {
      "inputs": [],
      "name": "MOC_VOTING_MACHINE_VOTE_MIN_PCT_FOR_QUORUM",
      "outputs": [
        {
          "internalType": "bytes32",
          "name": "",
          "type": "bytes32"
        }
      ],
      "stateMutability": "view",
      "type": "function"
    },
    {
      "inputs": [],
      "name": "MOC_VOTING_MACHINE_VOTE_MIN_PCT_TO_ACCEPT",
      "outputs": [
        {
          "internalType": "bytes32",
          "name": "",
          "type": "bytes32"
        }
      ],
      "stateMutability": "view",
      "type": "function"
    },
    {
      "inputs": [],
      "name": "MOC_VOTING_MACHINE_VOTE_MIN_PCT_TO_VETO",
      "outputs": [
        {
          "internalType": "bytes32",
          "name": "",
          "type": "bytes32"
        }
      ],
      "stateMutability": "view",
      "type": "function"
    },
    {
      "inputs": [],
      "name": "MOC_VOTING_MACHINE_VOTING_TIME_DELTA",
      "outputs": [
        {
          "internalType": "bytes32",
          "name": "",
          "type": "bytes32"
        }
      ],
      "stateMutability": "view",
      "type": "function"
    },
    {
      "inputs": [],
      "name": "ORACLE_BLOCKCHAIN_INFO_INTERVAL",
      "outputs": [
        {
          "internalType": "bytes32",
          "name": "",
          "type": "bytes32"
        }
      ],
      "stateMutability": "view",
      "type": "function"
    },
    {
      "inputs": [],
      "name": "ORACLE_COIN_PAIR_LOOP_TASK_INTERVAL",
      "outputs": [
        {
          "internalType": "bytes32",
          "name": "",
          "type": "bytes32"
        }
      ],
      "stateMutability": "view",
      "type": "function"
    },
    {
      "inputs": [],
      "name": "ORACLE_CONFIGURATION_TASK_INTERVAL",
      "outputs": [
        {
          "internalType": "bytes32",
          "name": "",
          "type": "bytes32"
        }
      ],
      "stateMutability": "view",
      "type": "function"
    },
    {
      "inputs": [],
      "name": "ORACLE_ENTERING_FALLBACKS_AMOUNTS",
      "outputs": [
        {
          "internalType": "bytes32",
          "name": "",
          "type": "bytes32"
        }
      ],
      "stateMutability": "view",
      "type": "function"
    },
    {
      "inputs": [],
      "name": "ORACLE_GATHER_SIGNATURE_TIMEOUT",
      "outputs": [
        {
          "internalType": "bytes32",
          "name": "",
          "type": "bytes32"
        }
      ],
      "stateMutability": "view",
      "type": "function"
    },
    {
      "inputs": [],
      "name": "ORACLE_MAIN_EXECUTOR_TASK_INTERVAL",
      "outputs": [
        {
          "internalType": "bytes32",
          "name": "",
          "type": "bytes32"
        }
      ],
      "stateMutability": "view",
      "type": "function"
    },
    {
      "inputs": [],
      "name": "ORACLE_MAIN_LOOP_TASK_INTERVAL",
      "outputs": [
        {
          "internalType": "bytes32",
          "name": "",
          "type": "bytes32"
        }
      ],
      "stateMutability": "view",
      "type": "function"
    },
    {
      "inputs": [],
      "name": "ORACLE_MANAGER_ADDR",
      "outputs": [
        {
          "internalType": "bytes32",
          "name": "",
          "type": "bytes32"
        }
      ],
      "stateMutability": "view",
      "type": "function"
    },
    {
      "inputs": [],
      "name": "ORACLE_MIN_ORACLES_PER_ROUND",
      "outputs": [
        {
          "internalType": "bytes32",
          "name": "",
          "type": "bytes32"
        }
      ],
      "stateMutability": "view",
      "type": "function"
    },
    {
      "inputs": [],
      "name": "ORACLE_PRICE_DELTA_PCT",
      "outputs": [
        {
          "internalType": "bytes32",
          "name": "",
          "type": "bytes32"
        }
      ],
      "stateMutability": "view",
      "type": "function"
    },
    {
      "inputs": [],
      "name": "ORACLE_PRICE_DIGITS",
      "outputs": [
        {
          "internalType": "bytes32",
          "name": "",
          "type": "bytes32"
        }
      ],
      "stateMutability": "view",
      "type": "function"
    },
    {
      "inputs": [],
      "name": "ORACLE_PRICE_FETCH_RATE",
      "outputs": [
        {
          "internalType": "bytes32",
          "name": "",
          "type": "bytes32"
        }
      ],
      "stateMutability": "view",
      "type": "function"
    },
    {
      "inputs": [],
      "name": "ORACLE_PRICE_PUBLISH_BLOCKS",
      "outputs": [
        {
          "internalType": "bytes32",
          "name": "",
          "type": "bytes32"
        }
      ],
      "stateMutability": "view",
      "type": "function"
    },
    {
      "inputs": [],
      "name": "ORACLE_PRICE_REJECT_DELTA_PCT",
      "outputs": [
        {
          "internalType": "bytes32",
          "name": "",
          "type": "bytes32"
        }
      ],
      "stateMutability": "view",
      "type": "function"
    },
    {
      "inputs": [],
      "name": "ORACLE_QUEUE_LEN",
      "outputs": [
        {
          "internalType": "bytes32",
          "name": "",
          "type": "bytes32"
        }
      ],
      "stateMutability": "view",
      "type": "function"
    },
    {
      "inputs": [],
      "name": "ORACLE_TRIGGER_VALID_PUBLICATION_BLOCKS",
      "outputs": [
        {
          "internalType": "bytes32",
          "name": "",
          "type": "bytes32"
        }
      ],
      "stateMutability": "view",
      "type": "function"
    },
    {
      "inputs": [],
      "name": "SCHEDULER_POOL_DELAY",
      "outputs": [
        {
          "internalType": "bytes32",
          "name": "",
          "type": "bytes32"
        }
      ],
      "stateMutability": "view",
      "type": "function"
    },
    {
      "inputs": [],
      "name": "SCHEDULER_ROUND_DELAY",
      "outputs": [
        {
          "internalType": "bytes32",
          "name": "",
          "type": "bytes32"
        }
      ],
      "stateMutability": "view",
      "type": "function"
    },
    {
      "inputs": [],
      "name": "SUPPORTERS_ADDR",
      "outputs": [
        {
          "internalType": "bytes32",
          "name": "",
          "type": "bytes32"
        }
      ],
      "stateMutability": "view",
      "type": "function"
    },
    {
      "inputs": [],
      "name": "registry",
      "outputs": [
        {
          "internalType": "contract IRegistry",
          "name": "",
          "type": "address"
        }
      ],
      "stateMutability": "view",
      "type": "function"
    },
    {
      "inputs": [],
      "name": "execute",
      "outputs": [],
      "stateMutability": "nonpayable",
      "type": "function"
    }
  ],
  "bytecode": "0x608060405234801561001057600080fd5b50604051610cf6380380610cf68339818101604052602081101561003357600080fd5b5051600080546001600160a01b039092166001600160a01b0319909216919091179055610c91806100656000396000f3fe608060405234801561001057600080fd5b50600436106102735760003560e01c8063915e4e1011610151578063ba6fc287116100c3578063e62c6a6911610087578063e62c6a69146103d8578063e873e208146103e0578063ea0e0661146103e8578063f13eb2d5146103f0578063fa8ab4c1146103f8578063faf620bc1461040057610273565b8063ba6fc287146103b0578063d0360cdb146103b8578063d274eaff146103c0578063d3f055d7146103c8578063d51673fb146103d057610273565b8063a68d751e11610115578063a68d751e14610380578063a6c456f114610388578063b01f02bf14610390578063b3699ded14610398578063b74ab6fc146103a0578063b90163d1146103a857610273565b8063915e4e101461035857806394ff8ee61461036057806397492d75146103685780639b09d9c9146103705780639d81ac841461037857610273565b80634b903654116101ea57806361461954116101ae578063614619541461030a5780636eec5a4a146103145780637b1039991461031c5780637c197e21146103405780638bc7b6f2146103485780638da1b81d1461035057610273565b80634b903654146102e25780634eb836f5146102ea578063541f51fd146102f2578063586dec23146102fa5780635fe227931461030257610273565b806328f134a41161023c57806328f134a4146102b2578063296e9cc4146102ba57806339e94f13146102c25780633bdc3950146102ca5780633f827a5a146102d2578063484cae4e146102da57610273565b80623db248146102785780630358faeb146102925780630fc67cec1461029a578063213fe5c0146102a257806326400693146102aa575b600080fd5b610280610408565b60408051918252519081900360200190f35b61028061042c565b610280610450565b610280610474565b610280610498565b6102806104bc565b6102806104e0565b610280610504565b610280610528565b61028061054c565b610280610570565b610280610594565b6102806105b8565b6102806105dc565b610280610600565b610280610624565b610312610648565b005b6102806108a4565b6103246108c8565b604080516001600160a01b039092168252519081900360200190f35b6102806108d7565b6102806108fb565b61028061091f565b610280610943565b610280610967565b61028061098b565b6102806109af565b6102806109d3565b6102806109f7565b610280610a1b565b610280610a3f565b610280610a63565b610280610a87565b610280610aab565b610280610acf565b610280610af3565b610280610b17565b610280610b3b565b610280610b5f565b610280610b83565b610280610ba7565b610280610bcb565b610280610bef565b610280610c13565b610280610c37565b7fc1c87e0508bb8270ee6a6dbe630baa072e6e3d5968981666724b9333430e1c3181565b7fda9f12e01fc92de345bb741448d36ecb967052dd7aa1670439af833c9a3d78f181565b7f275d8a46b817572476d2d55b41c7709dee307740bad676a9693805003a48d23181565b7fb43ee0a5ee6dcc7115ce824e4e353526ad6e479afa4daeb78451070de942de3681565b7fc32b9cbc59039d297e670e7c196424308c90ba4a437fa7ccd008498c934e7dbf81565b7f4cd7e3f12ee4a2db0a6ba16e03fbc31bba1048c149bbf4fc9f3c02021ec550b881565b7f2f271dc1fa81985bda14a2d6d0d60b45191d2a2d97e636b192696a8796d654a781565b7f7dfea4fb968e2599cdb7b3028c07d0188d0f92d1d00bd95c2805523c224649dd81565b7f7a3ee46ca1bd3e19089870d8d6530b083a86da93aab52efccb32d5950e2709cf81565b7feafac1a2b4d4fdcc942cbdce334a88ec83387087978d039f1320d3639a0b59df81565b7fb324a91be1ac0d0c4888c835aee124ca1a7caf4b73ce10aa3504e2683865d7e581565b7ff646c455329c7af0436f9e95c59c90ce0e11bb4e3a1deff805807798696adf8881565b7f16986f74674f2ed21d50b6e74e6b12bb323ff4f72364542fd5de5104f3cc3ca981565b7ff5afc54dd2c3e35bfa15485ed117b621cf51f31f803d11be832ccde6c77a6b5681565b7fc0ded27704f62d8726fdbd83648113d9fd8cf32c09f80523d2ba523e0bbd5ba481565b7f0428ec087e0cce276a71d1caf1afe4da32a2d48b3ebe579040612b5bd262ff7381565b6000546001600160a01b0316610690576040805162461bcd60e51b8152602060048201526008602482015267557365206f6e636560c01b604482015290519081900360640190fd5b600080546040805163afe5a1af60e01b81527f4cb845794d5472a713e41e8e4ddc566dab8d695f1dc6c8edd43dad9d55112a22600482015290516001600160a01b039092169263afe5a1af9260248084019382900301818387803b1580156106f757600080fd5b505af115801561070b573d6000803e3d6000fd5b5050600080546040805163afe5a1af60e01b81527fdd6eacd9b2305faa48e6e500ef302cf28b8cd660dc843b355a6f5f26655eee73600482015290516001600160a01b03909216945063afe5a1af9350602480820193929182900301818387803b15801561077857600080fd5b505af115801561078c573d6000803e3d6000fd5b5050600080546040805163afe5a1af60e01b81527f8970fe7a53b9c3dfce4f2afec48b5a6550afcb16ea2da8a10ec4b47a83a34a9d600482015290516001600160a01b03909216945063afe5a1af9350602480820193929182900301818387803b1580156107f957600080fd5b505af115801561080d573d6000803e3d6000fd5b5050600080546040805163afe5a1af60e01b81527f0428ec087e0cce276a71d1caf1afe4da32a2d48b3ebe579040612b5bd262ff73600482015290516001600160a01b03909216945063afe5a1af9350602480820193929182900301818387803b15801561087a57600080fd5b505af115801561088e573d6000803e3d6000fd5b5050600080546001600160a01b03191690555050565b7fdd6eacd9b2305faa48e6e500ef302cf28b8cd660dc843b355a6f5f26655eee7381565b6000546001600160a01b031681565b7f51a2be29a473202678b6cf57b717ba5d7ff671f01fdbdbfcad4e1882601b889681565b7fb027f2006a45346de89db4c5efc53f4e05e96532d27366aff00367a394d0abc481565b7f7d32d87d65898c3cbc7e72c59d223bf61c7811e99dafafd24fb08e0a38f1091481565b7f41a2ac05b365409628009a8091d8dda06fe52fe2f1c792e651e5df7599a7a7de81565b7ff75b08b2b912abdbb87cc459ca0b4fdc019329386ec84ab68399b0c86fed5a9581565b7fd4ed72d0bf9bae5e1e7ae31a372a37c8069168889284ec94be25b3f6707f5b4a81565b7f66b60892ff6e7f0da16db27046f5960fdfd6bce5c3c8c21d56ccca3236a6281b81565b7fa82bea7140872d1398fa0ab5075330ab0228f4c7e381b4b6502379ffc7cdcd9f81565b7f4bd5e7ff929fdd1ba62a33f76e0f40e97bb35e8bf126c0d9d91ce5c69a4bc52181565b7f11cfbdf601b80a575e4366f0234cc06de0c9f401fe250dd9dccfccefeedb6fc281565b7f3c557531fea67120f21bc7711270a96f1b8cff3dfe3dd798a8a9f09ce9b7797281565b7f631bcbb9b033f9c8d13c32cf6e60827348d77b91b58c295e87745219242cca2281565b7fde1ede48948567c43c504b761af8cd6af5363fafeceb1239b3083955d809714f81565b7f73ee596441ef88c207a7a9147d62f59186b4991555e37b7ce9c801f9539d105081565b7f0a1b21dfd7e4f3741529cf579e2731e847d81bbf13a82d0eba6910d7ac4c1c0a81565b7f8970fe7a53b9c3dfce4f2afec48b5a6550afcb16ea2da8a10ec4b47a83a34a9d81565b7f945f72e5d44fb0ce3b1de393d19415723b79f97ad801089d8470d1c20e15ffef81565b7ffb2d33acd65c36f68a15f8fe41cb8c0dd1eda164ffa87c6882e685ccb1c1adfb81565b7f62f5dbf0c17b0df83487409f747ad2eeca5fd54c140ca59b32cf39d6f6eaf91681565b7f4cb845794d5472a713e41e8e4ddc566dab8d695f1dc6c8edd43dad9d55112a2281565b7fef9006fe6663199909dfaa4ab45e3f86d6454adb7773682f356824b6b3bc6b0e81565b7fe4f979504d2a7a24557a15195eb83131e7c4a66d33900454705435aa5a6ee08681565b7f99f83ee0c57b325f3deafb536d55596743ff112c6ac0d853d5f4f89b75dec04581565b7f6c2abc911c0fa4c73b90c7143a9f4429749be45ebfe7b81e69b86e7ca440d81181565b7f580be8e098dd1016787d59c2a534bf9df9ec679a29de4c8f92dc3807f7d7d54d8156fea26469706673582212209d61a4b94c1b7481e69e4efb62cd88475c61d26b8a8de8ff3484eeb5f68bf7a264736f6c634300060c0033",
  "immutableReferences": {},
  "source": "// SPDX-License-Identifier: UNLICENSED\npragma solidity 0.6.12;\n\nimport {ChangeContract} from \"../moc-governance/Governance/ChangeContract.sol\";\nimport {IRegistry} from \"../IRegistry.sol\";\nimport {RegistryConstants} from \"../RegistryConstants.sol\";\n\n/**\n  @title MocFlowRegistryClearChange\n  @notice This contract is a ChangeContract intended to initialize clear all the MOC Flow registry values\n */\ncontract MocFlowRegistryClearChange is ChangeContract, RegistryConstants {\n    IRegistry public registry;\n\n    /**\n      @notice Constructor\n    */\n    constructor(IRegistry _registry) public {\n        registry = _registry;\n    }\n\n    /**\n      @notice Execute the changes.\n      @dev Should be called by the governor, but this contract does not check that explicitly because it is\n      not its responsability in the current architecture\n     */\n    function execute() external override {\n        require(address(registry) != address(0), \"Use once\");\n        registry.clearAddressArray(MOC_FLOW_BUFFERS);\n        registry.clearAddressArray(MOC_FLOW_DRIPPERS);\n        registry.clearAddressArray(MOC_FLOW_COINERS);\n        registry.clearAddressArray(MOC_FLOW_REVERSE_AUCTIONS);\n        // usable just once!!!\n        registry = IRegistry(0);\n    }\n}\n",
  "sourcePath": "/home/jbokser/work2/OMoC-SC-Shared/contracts/change/MocFlowRegistryClearChange.sol",
  "compiler": {
    "name": "solc",
    "version": "0.6.12+commit.27d51765.Emscripten.clang"
  },
  "schemaVersion": "3.3.3",
  "updatedAt": "2021-02-04T20:51:03.378Z",
  "devdoc": {
    "kind": "dev",
    "methods": {
      "execute()": {
        "details": "Should be called by the governor, but this contract does not check that explicitly because it is not its responsability in the current architecture"
      }
    },
    "title": "MocFlowRegistryClearChange",
    "version": 1
  },
  "userdoc": {
    "kind": "user",
    "methods": {
      "constructor": "Constructor",
      "execute()": {
        "notice": "Execute the changes."
      }
    },
    "notice": "This contract is a ChangeContract intended to initialize clear all the MOC Flow registry values",
    "version": 1
  }
}