{
  "contractName": "MocFlowRegistryInitChange",
  "abi": [
    {
      "inputs": [
        {
          "internalType": "contract IRegistry",
          "name": "_registry",
          "type": "address"
        },
        {
          "internalType": "address[]",
          "name": "_buffers",
          "type": "address[]"
        },
        {
          "internalType": "address[]",
          "name": "_drippers",
          "type": "address[]"
        },
        {
          "internalType": "address[]",
          "name": "_coiners",
          "type": "address[]"
        },
        {
          "internalType": "address[]",
          "name": "_reverseAuctions",
          "type": "address[]"
        }
      ],
      "stateMutability": "nonpayable",
      "type": "constructor"
    },
    {
      "inputs": [],
      "name": "INFO_ADDR",
      "outputs": [
        {
          "internalType": "bytes32",
          "name": "",
          "type": "bytes32"
        }
      ],
      "stateMutability": "view",
      "type": "function"
    },
    {
      "inputs": [],
      "name": "MESSAGE_VERSION",
      "outputs": [
        {
          "internalType": "bytes32",
          "name": "",
          "type": "bytes32"
        }
      ],
      "stateMutability": "view",
      "type": "function"
    },
    {
      "inputs": [],
      "name": "MOC_DELAY_MACHINE",
      "outputs": [
        {
          "internalType": "bytes32",
          "name": "",
          "type": "bytes32"
        }
      ],
      "stateMutability": "view",
      "type": "function"
    },
    {
      "inputs": [],
      "name": "MOC_FLOW_BUFFERS",
      "outputs": [
        {
          "internalType": "bytes32",
          "name": "",
          "type": "bytes32"
        }
      ],
      "stateMutability": "view",
      "type": "function"
    },
    {
      "inputs": [],
      "name": "MOC_FLOW_COINERS",
      "outputs": [
        {
          "internalType": "bytes32",
          "name": "",
          "type": "bytes32"
        }
      ],
      "stateMutability": "view",
      "type": "function"
    },
    {
      "inputs": [],
      "name": "MOC_FLOW_DRIPPERS",
      "outputs": [
        {
          "internalType": "bytes32",
          "name": "",
          "type": "bytes32"
        }
      ],
      "stateMutability": "view",
      "type": "function"
    },
    {
      "inputs": [],
      "name": "MOC_FLOW_REVERSE_AUCTIONS",
      "outputs": [
        {
          "internalType": "bytes32",
          "name": "",
          "type": "bytes32"
        }
      ],
      "stateMutability": "view",
      "type": "function"
    },
    {
      "inputs": [],
      "name": "MOC_PRICE_PROVIDER_REGISTRY",
      "outputs": [
        {
          "internalType": "bytes32",
          "name": "",
          "type": "bytes32"
        }
      ],
      "stateMutability": "view",
      "type": "function"
    },
    {
      "inputs": [],
      "name": "MOC_PROJECT_VERSION",
      "outputs": [
        {
          "internalType": "bytes32",
          "name": "",
          "type": "bytes32"
        }
      ],
      "stateMutability": "view",
      "type": "function"
    },
    {
      "inputs": [],
      "name": "MOC_STAKING_MACHINE",
      "outputs": [
        {
          "internalType": "bytes32",
          "name": "",
          "type": "bytes32"
        }
      ],
      "stateMutability": "view",
      "type": "function"
    },
    {
      "inputs": [],
      "name": "MOC_TOKEN",
      "outputs": [
        {
          "internalType": "bytes32",
          "name": "",
          "type": "bytes32"
        }
      ],
      "stateMutability": "view",
      "type": "function"
    },
    {
      "inputs": [],
      "name": "MOC_UPGRADE_DELEGATOR",
      "outputs": [
        {
          "internalType": "bytes32",
          "name": "",
          "type": "bytes32"
        }
      ],
      "stateMutability": "view",
      "type": "function"
    },
    {
      "inputs": [],
      "name": "MOC_VESTING_MACHINE",
      "outputs": [
        {
          "internalType": "bytes32",
          "name": "",
          "type": "bytes32"
        }
      ],
      "stateMutability": "view",
      "type": "function"
    },
    {
      "inputs": [],
      "name": "MOC_VOTING_MACHINE",
      "outputs": [
        {
          "internalType": "bytes32",
          "name": "",
          "type": "bytes32"
        }
      ],
      "stateMutability": "view",
      "type": "function"
    },
    {
      "inputs": [],
      "name": "MOC_VOTING_MACHINE_MAX_PRE_PROPOSALS",
      "outputs": [
        {
          "internalType": "bytes32",
          "name": "",
          "type": "bytes32"
        }
      ],
      "stateMutability": "view",
      "type": "function"
    },
    {
      "inputs": [],
      "name": "MOC_VOTING_MACHINE_MIN_STAKE",
      "outputs": [
        {
          "internalType": "bytes32",
          "name": "",
          "type": "bytes32"
        }
      ],
      "stateMutability": "view",
      "type": "function"
    },
    {
      "inputs": [],
      "name": "MOC_VOTING_MACHINE_PCT_PRECISION",
      "outputs": [
        {
          "internalType": "bytes32",
          "name": "",
          "type": "bytes32"
        }
      ],
      "stateMutability": "view",
      "type": "function"
    },
    {
      "inputs": [],
      "name": "MOC_VOTING_MACHINE_PRE_VOTE_EXPIRATION_TIME_DELTA",
      "outputs": [
        {
          "internalType": "bytes32",
          "name": "",
          "type": "bytes32"
        }
      ],
      "stateMutability": "view",
      "type": "function"
    },
    {
      "inputs": [],
      "name": "MOC_VOTING_MACHINE_PRE_VOTE_MIN_PCT_TO_WIN",
      "outputs": [
        {
          "internalType": "bytes32",
          "name": "",
          "type": "bytes32"
        }
      ],
      "stateMutability": "view",
      "type": "function"
    },
    {
      "inputs": [],
      "name": "MOC_VOTING_MACHINE_VOTE_MIN_PCT_FOR_QUORUM",
      "outputs": [
        {
          "internalType": "bytes32",
          "name": "",
          "type": "bytes32"
        }
      ],
      "stateMutability": "view",
      "type": "function"
    },
    {
      "inputs": [],
      "name": "MOC_VOTING_MACHINE_VOTE_MIN_PCT_TO_ACCEPT",
      "outputs": [
        {
          "internalType": "bytes32",
          "name": "",
          "type": "bytes32"
        }
      ],
      "stateMutability": "view",
      "type": "function"
    },
    {
      "inputs": [],
      "name": "MOC_VOTING_MACHINE_VOTE_MIN_PCT_TO_VETO",
      "outputs": [
        {
          "internalType": "bytes32",
          "name": "",
          "type": "bytes32"
        }
      ],
      "stateMutability": "view",
      "type": "function"
    },
    {
      "inputs": [],
      "name": "MOC_VOTING_MACHINE_VOTING_TIME_DELTA",
      "outputs": [
        {
          "internalType": "bytes32",
          "name": "",
          "type": "bytes32"
        }
      ],
      "stateMutability": "view",
      "type": "function"
    },
    {
      "inputs": [],
      "name": "ORACLE_BLOCKCHAIN_INFO_INTERVAL",
      "outputs": [
        {
          "internalType": "bytes32",
          "name": "",
          "type": "bytes32"
        }
      ],
      "stateMutability": "view",
      "type": "function"
    },
    {
      "inputs": [],
      "name": "ORACLE_COIN_PAIR_LOOP_TASK_INTERVAL",
      "outputs": [
        {
          "internalType": "bytes32",
          "name": "",
          "type": "bytes32"
        }
      ],
      "stateMutability": "view",
      "type": "function"
    },
    {
      "inputs": [],
      "name": "ORACLE_CONFIGURATION_TASK_INTERVAL",
      "outputs": [
        {
          "internalType": "bytes32",
          "name": "",
          "type": "bytes32"
        }
      ],
      "stateMutability": "view",
      "type": "function"
    },
    {
      "inputs": [],
      "name": "ORACLE_ENTERING_FALLBACKS_AMOUNTS",
      "outputs": [
        {
          "internalType": "bytes32",
          "name": "",
          "type": "bytes32"
        }
      ],
      "stateMutability": "view",
      "type": "function"
    },
    {
      "inputs": [],
      "name": "ORACLE_GATHER_SIGNATURE_TIMEOUT",
      "outputs": [
        {
          "internalType": "bytes32",
          "name": "",
          "type": "bytes32"
        }
      ],
      "stateMutability": "view",
      "type": "function"
    },
    {
      "inputs": [],
      "name": "ORACLE_MAIN_EXECUTOR_TASK_INTERVAL",
      "outputs": [
        {
          "internalType": "bytes32",
          "name": "",
          "type": "bytes32"
        }
      ],
      "stateMutability": "view",
      "type": "function"
    },
    {
      "inputs": [],
      "name": "ORACLE_MAIN_LOOP_TASK_INTERVAL",
      "outputs": [
        {
          "internalType": "bytes32",
          "name": "",
          "type": "bytes32"
        }
      ],
      "stateMutability": "view",
      "type": "function"
    },
    {
      "inputs": [],
      "name": "ORACLE_MANAGER_ADDR",
      "outputs": [
        {
          "internalType": "bytes32",
          "name": "",
          "type": "bytes32"
        }
      ],
      "stateMutability": "view",
      "type": "function"
    },
    {
      "inputs": [],
      "name": "ORACLE_MIN_ORACLES_PER_ROUND",
      "outputs": [
        {
          "internalType": "bytes32",
          "name": "",
          "type": "bytes32"
        }
      ],
      "stateMutability": "view",
      "type": "function"
    },
    {
      "inputs": [],
      "name": "ORACLE_PRICE_DELTA_PCT",
      "outputs": [
        {
          "internalType": "bytes32",
          "name": "",
          "type": "bytes32"
        }
      ],
      "stateMutability": "view",
      "type": "function"
    },
    {
      "inputs": [],
      "name": "ORACLE_PRICE_DIGITS",
      "outputs": [
        {
          "internalType": "bytes32",
          "name": "",
          "type": "bytes32"
        }
      ],
      "stateMutability": "view",
      "type": "function"
    },
    {
      "inputs": [],
      "name": "ORACLE_PRICE_FETCH_RATE",
      "outputs": [
        {
          "internalType": "bytes32",
          "name": "",
          "type": "bytes32"
        }
      ],
      "stateMutability": "view",
      "type": "function"
    },
    {
      "inputs": [],
      "name": "ORACLE_PRICE_PUBLISH_BLOCKS",
      "outputs": [
        {
          "internalType": "bytes32",
          "name": "",
          "type": "bytes32"
        }
      ],
      "stateMutability": "view",
      "type": "function"
    },
    {
      "inputs": [],
      "name": "ORACLE_PRICE_REJECT_DELTA_PCT",
      "outputs": [
        {
          "internalType": "bytes32",
          "name": "",
          "type": "bytes32"
        }
      ],
      "stateMutability": "view",
      "type": "function"
    },
    {
      "inputs": [],
      "name": "ORACLE_QUEUE_LEN",
      "outputs": [
        {
          "internalType": "bytes32",
          "name": "",
          "type": "bytes32"
        }
      ],
      "stateMutability": "view",
      "type": "function"
    },
    {
      "inputs": [],
      "name": "ORACLE_TRIGGER_VALID_PUBLICATION_BLOCKS",
      "outputs": [
        {
          "internalType": "bytes32",
          "name": "",
          "type": "bytes32"
        }
      ],
      "stateMutability": "view",
      "type": "function"
    },
    {
      "inputs": [],
      "name": "SCHEDULER_POOL_DELAY",
      "outputs": [
        {
          "internalType": "bytes32",
          "name": "",
          "type": "bytes32"
        }
      ],
      "stateMutability": "view",
      "type": "function"
    },
    {
      "inputs": [],
      "name": "SCHEDULER_ROUND_DELAY",
      "outputs": [
        {
          "internalType": "bytes32",
          "name": "",
          "type": "bytes32"
        }
      ],
      "stateMutability": "view",
      "type": "function"
    },
    {
      "inputs": [],
      "name": "SUPPORTERS_ADDR",
      "outputs": [
        {
          "internalType": "bytes32",
          "name": "",
          "type": "bytes32"
        }
      ],
      "stateMutability": "view",
      "type": "function"
    },
    {
      "inputs": [
        {
          "internalType": "uint256",
          "name": "",
          "type": "uint256"
        }
      ],
      "name": "buffers",
      "outputs": [
        {
          "internalType": "address",
          "name": "",
          "type": "address"
        }
      ],
      "stateMutability": "view",
      "type": "function"
    },
    {
      "inputs": [
        {
          "internalType": "uint256",
          "name": "",
          "type": "uint256"
        }
      ],
      "name": "coiners",
      "outputs": [
        {
          "internalType": "address",
          "name": "",
          "type": "address"
        }
      ],
      "stateMutability": "view",
      "type": "function"
    },
    {
      "inputs": [
        {
          "internalType": "uint256",
          "name": "",
          "type": "uint256"
        }
      ],
      "name": "drippers",
      "outputs": [
        {
          "internalType": "address",
          "name": "",
          "type": "address"
        }
      ],
      "stateMutability": "view",
      "type": "function"
    },
    {
      "inputs": [],
      "name": "registry",
      "outputs": [
        {
          "internalType": "contract IRegistry",
          "name": "",
          "type": "address"
        }
      ],
      "stateMutability": "view",
      "type": "function"
    },
    {
      "inputs": [
        {
          "internalType": "uint256",
          "name": "",
          "type": "uint256"
        }
      ],
      "name": "reverseAuctions",
      "outputs": [
        {
          "internalType": "address",
          "name": "",
          "type": "address"
        }
      ],
      "stateMutability": "view",
      "type": "function"
    },
    {
      "inputs": [],
      "name": "execute",
      "outputs": [],
      "stateMutability": "nonpayable",
      "type": "function"
    }
  ],
  "bytecode": "0x60806040523480156200001157600080fd5b506040516200127038038062001270833981810160405260a08110156200003757600080fd5b8151602083018051604051929492938301929190846401000000008211156200005f57600080fd5b9083019060208201858111156200007557600080fd5b82518660208202830111640100000000821117156200009357600080fd5b82525081516020918201928201910280838360005b83811015620000c2578181015183820152602001620000a8565b5050505090500160405260200180516040519392919084640100000000821115620000ec57600080fd5b9083019060208201858111156200010257600080fd5b82518660208202830111640100000000821117156200012057600080fd5b82525081516020918201928201910280838360005b838110156200014f57818101518382015260200162000135565b50505050905001604052602001805160405193929190846401000000008211156200017957600080fd5b9083019060208201858111156200018f57600080fd5b8251866020820283011164010000000082111715620001ad57600080fd5b82525081516020918201928201910280838360005b83811015620001dc578181015183820152602001620001c2565b50505050905001604052602001805160405193929190846401000000008211156200020657600080fd5b9083019060208201858111156200021c57600080fd5b82518660208202830111640100000000821117156200023a57600080fd5b82525081516020918201928201910280838360005b83811015620002695781810151838201526020016200024f565b50505050919091016040525050600080546001600160a01b0319166001600160a01b03891617905550508351620002a8906001906020870190620002f6565b508251620002be906002906020860190620002f6565b508151620002d4906003906020850190620002f6565b508051620002ea906004906020840190620002f6565b50505050505062000381565b8280548282559060005260206000209081019282156200034e579160200282015b828111156200034e57825182546001600160a01b0319166001600160a01b0390911617825560209092019160019091019062000317565b506200035c92915062000360565b5090565b5b808211156200035c5780546001600160a01b031916815560010162000361565b610edf80620003916000396000f3fe608060405234801561001057600080fd5b506004361061029f5760003560e01c806394ff8ee611610167578063c1341aeb116100ce578063e62c6a6911610087578063e62c6a6914610478578063e873e20814610480578063ea0e066114610488578063f13eb2d514610490578063fa8ab4c114610498578063faf620bc146104a05761029f565b8063c1341aeb1461041e578063cb2a7c051461043b578063d0360cdb14610458578063d274eaff14610460578063d3f055d714610468578063d51673fb146104705761029f565b8063b01f02bf11610120578063b01f02bf146103d9578063b3699ded146103e1578063b74ab6fc146103e9578063b90163d1146103f1578063ba6fc287146103f9578063bf1c02b1146104015761029f565b806394ff8ee6146103a957806397492d75146103b15780639b09d9c9146103b95780639d81ac84146103c1578063a68d751e146103c9578063a6c456f1146103d15761029f565b80634b9036541161020b5780636eec5a4a116101c45780636eec5a4a146103795780637b103999146103815780637c197e21146103895780638bc7b6f2146103915780638da1b81d14610399578063915e4e10146103a15761029f565b80634b903654146103475780634eb836f51461034f578063541f51fd14610357578063586dec231461035f5780635fe2279314610367578063614619541461036f5761029f565b806328f134a41161025d57806328f134a414610317578063296e9cc41461031f57806339e94f13146103275780633bdc39501461032f5780633f827a5a14610337578063484cae4e1461033f5761029f565b80623db248146102a45780630358faeb146102be5780630fc67cec146102c6578063213fe5c0146102ce578063218e412c146102d6578063264006931461030f575b600080fd5b6102ac6104a8565b60408051918252519081900360200190f35b6102ac6104cc565b6102ac6104f0565b6102ac610514565b6102f3600480360360208110156102ec57600080fd5b5035610538565b604080516001600160a01b039092168252519081900360200190f35b6102ac61055f565b6102ac610583565b6102ac6105a7565b6102ac6105cb565b6102ac6105ef565b6102ac610613565b6102ac610637565b6102ac61065b565b6102ac61067f565b6102ac6106a3565b6102ac6106c7565b6102ac6106eb565b61037761070f565b005b6102ac610acb565b6102f3610aef565b6102ac610afe565b6102ac610b22565b6102ac610b46565b6102ac610b6a565b6102ac610b8e565b6102ac610bb2565b6102ac610bd6565b6102ac610bfa565b6102ac610c1e565b6102ac610c42565b6102ac610c66565b6102ac610c8a565b6102ac610cae565b6102ac610cd2565b6102ac610cf6565b6102f36004803603602081101561041757600080fd5b5035610d1a565b6102f36004803603602081101561043457600080fd5b5035610d27565b6102f36004803603602081101561045157600080fd5b5035610d34565b6102ac610d41565b6102ac610d65565b6102ac610d89565b6102ac610dad565b6102ac610dd1565b6102ac610df5565b6102ac610e19565b6102ac610e3d565b6102ac610e61565b6102ac610e85565b7fc1c87e0508bb8270ee6a6dbe630baa072e6e3d5968981666724b9333430e1c3181565b7fda9f12e01fc92de345bb741448d36ecb967052dd7aa1670439af833c9a3d78f181565b7f275d8a46b817572476d2d55b41c7709dee307740bad676a9693805003a48d23181565b7fb43ee0a5ee6dcc7115ce824e4e353526ad6e479afa4daeb78451070de942de3681565b6001818154811061054557fe5b6000918252602090912001546001600160a01b0316905081565b7fc32b9cbc59039d297e670e7c196424308c90ba4a437fa7ccd008498c934e7dbf81565b7f4cd7e3f12ee4a2db0a6ba16e03fbc31bba1048c149bbf4fc9f3c02021ec550b881565b7f2f271dc1fa81985bda14a2d6d0d60b45191d2a2d97e636b192696a8796d654a781565b7f7dfea4fb968e2599cdb7b3028c07d0188d0f92d1d00bd95c2805523c224649dd81565b7f7a3ee46ca1bd3e19089870d8d6530b083a86da93aab52efccb32d5950e2709cf81565b7feafac1a2b4d4fdcc942cbdce334a88ec83387087978d039f1320d3639a0b59df81565b7fb324a91be1ac0d0c4888c835aee124ca1a7caf4b73ce10aa3504e2683865d7e581565b7ff646c455329c7af0436f9e95c59c90ce0e11bb4e3a1deff805807798696adf8881565b7f16986f74674f2ed21d50b6e74e6b12bb323ff4f72364542fd5de5104f3cc3ca981565b7ff5afc54dd2c3e35bfa15485ed117b621cf51f31f803d11be832ccde6c77a6b5681565b7fc0ded27704f62d8726fdbd83648113d9fd8cf32c09f80523d2ba523e0bbd5ba481565b7f0428ec087e0cce276a71d1caf1afe4da32a2d48b3ebe579040612b5bd262ff7381565b6000546001600160a01b0316610757576040805162461bcd60e51b8152602060048201526008602482015267557365206f6e636560c01b604482015290519081900360640190fd5b60005460408051630ba4939f60e11b81527f4cb845794d5472a713e41e8e4ddc566dab8d695f1dc6c8edd43dad9d55112a22600482018181526024830193845260018054604485018190526001600160a01b0390961695631749273e95939491939160640190849080156107f457602002820191906000526020600020905b81546001600160a01b031681526001909101906020018083116107d6575b50509350505050600060405180830381600087803b15801561081557600080fd5b505af1158015610829573d6000803e3d6000fd5b505060005460408051630ba4939f60e11b81527fdd6eacd9b2305faa48e6e500ef302cf28b8cd660dc843b355a6f5f26655eee73600482018181526024830193845260028054604485018190526001600160a01b039096169750631749273e96509194919390929091606490910190849080156108cf57602002820191906000526020600020905b81546001600160a01b031681526001909101906020018083116108b1575b50509350505050600060405180830381600087803b1580156108f057600080fd5b505af1158015610904573d6000803e3d6000fd5b505060005460408051630ba4939f60e11b81527f8970fe7a53b9c3dfce4f2afec48b5a6550afcb16ea2da8a10ec4b47a83a34a9d600482018181526024830193845260038054604485018190526001600160a01b039096169750631749273e96509194919390929091606490910190849080156109aa57602002820191906000526020600020905b81546001600160a01b0316815260019091019060200180831161098c575b50509350505050600060405180830381600087803b1580156109cb57600080fd5b505af11580156109df573d6000803e3d6000fd5b505060005460408051630ba4939f60e11b81527f0428ec087e0cce276a71d1caf1afe4da32a2d48b3ebe579040612b5bd262ff736004828101828152602484019485528154604485018190526001600160a01b039096169750631749273e96509194909391926064019084908015610a8057602002820191906000526020600020905b81546001600160a01b03168152600190910190602001808311610a62575b50509350505050600060405180830381600087803b158015610aa157600080fd5b505af1158015610ab5573d6000803e3d6000fd5b5050600080546001600160a01b03191690555050565b7fdd6eacd9b2305faa48e6e500ef302cf28b8cd660dc843b355a6f5f26655eee7381565b6000546001600160a01b031681565b7f51a2be29a473202678b6cf57b717ba5d7ff671f01fdbdbfcad4e1882601b889681565b7fb027f2006a45346de89db4c5efc53f4e05e96532d27366aff00367a394d0abc481565b7f7d32d87d65898c3cbc7e72c59d223bf61c7811e99dafafd24fb08e0a38f1091481565b7f41a2ac05b365409628009a8091d8dda06fe52fe2f1c792e651e5df7599a7a7de81565b7ff75b08b2b912abdbb87cc459ca0b4fdc019329386ec84ab68399b0c86fed5a9581565b7fd4ed72d0bf9bae5e1e7ae31a372a37c8069168889284ec94be25b3f6707f5b4a81565b7f66b60892ff6e7f0da16db27046f5960fdfd6bce5c3c8c21d56ccca3236a6281b81565b7fa82bea7140872d1398fa0ab5075330ab0228f4c7e381b4b6502379ffc7cdcd9f81565b7f4bd5e7ff929fdd1ba62a33f76e0f40e97bb35e8bf126c0d9d91ce5c69a4bc52181565b7f11cfbdf601b80a575e4366f0234cc06de0c9f401fe250dd9dccfccefeedb6fc281565b7f3c557531fea67120f21bc7711270a96f1b8cff3dfe3dd798a8a9f09ce9b7797281565b7f631bcbb9b033f9c8d13c32cf6e60827348d77b91b58c295e87745219242cca2281565b7fde1ede48948567c43c504b761af8cd6af5363fafeceb1239b3083955d809714f81565b7f73ee596441ef88c207a7a9147d62f59186b4991555e37b7ce9c801f9539d105081565b7f0a1b21dfd7e4f3741529cf579e2731e847d81bbf13a82d0eba6910d7ac4c1c0a81565b6004818154811061054557fe5b6003818154811061054557fe5b6002818154811061054557fe5b7f8970fe7a53b9c3dfce4f2afec48b5a6550afcb16ea2da8a10ec4b47a83a34a9d81565b7f945f72e5d44fb0ce3b1de393d19415723b79f97ad801089d8470d1c20e15ffef81565b7ffb2d33acd65c36f68a15f8fe41cb8c0dd1eda164ffa87c6882e685ccb1c1adfb81565b7f62f5dbf0c17b0df83487409f747ad2eeca5fd54c140ca59b32cf39d6f6eaf91681565b7f4cb845794d5472a713e41e8e4ddc566dab8d695f1dc6c8edd43dad9d55112a2281565b7fef9006fe6663199909dfaa4ab45e3f86d6454adb7773682f356824b6b3bc6b0e81565b7fe4f979504d2a7a24557a15195eb83131e7c4a66d33900454705435aa5a6ee08681565b7f99f83ee0c57b325f3deafb536d55596743ff112c6ac0d853d5f4f89b75dec04581565b7f6c2abc911c0fa4c73b90c7143a9f4429749be45ebfe7b81e69b86e7ca440d81181565b7f580be8e098dd1016787d59c2a534bf9df9ec679a29de4c8f92dc3807f7d7d54d8156fea2646970667358221220ed4680a77221bee594d14b626635faccc07c44af1ad6a65b4bfa068d89fd0b5164736f6c634300060c0033",
  "immutableReferences": {},
  "source": "// SPDX-License-Identifier: UNLICENSED\npragma solidity 0.6.12;\n\nimport {ChangeContract} from \"../moc-governance/Governance/ChangeContract.sol\";\nimport {IRegistry} from \"../IRegistry.sol\";\nimport {RegistryConstants} from \"../RegistryConstants.sol\";\n\n/**\n  @title MocFlowRegistryInitChange\n  @notice This contract is a ChangeContract intended to initialize all the MOC Flow registry values\n */\ncontract MocFlowRegistryInitChange is ChangeContract, RegistryConstants {\n    IRegistry public registry;\n    address[] public buffers;\n    address[] public drippers;\n    address[] public coiners;\n    address[] public reverseAuctions;\n\n    /**\n      @notice Constructor\n    */\n    constructor(\n        IRegistry _registry,\n        address[] memory _buffers,\n        address[] memory _drippers,\n        address[] memory _coiners,\n        address[] memory _reverseAuctions\n    ) public {\n        registry = _registry;\n        buffers = _buffers;\n        drippers = _drippers;\n        coiners = _coiners;\n        reverseAuctions = _reverseAuctions;\n    }\n\n    /**\n      @notice Execute the changes.\n      @dev Should be called by the governor, but this contract does not check that explicitly because it is\n      not its responsability in the current architecture\n     */\n    function execute() external override {\n        require(address(registry) != address(0), \"Use once\");\n        registry.pushAddressArray(MOC_FLOW_BUFFERS, buffers);\n        registry.pushAddressArray(MOC_FLOW_DRIPPERS, drippers);\n        registry.pushAddressArray(MOC_FLOW_COINERS, coiners);\n        registry.pushAddressArray(MOC_FLOW_REVERSE_AUCTIONS, reverseAuctions);\n        // usable just once!!!\n        registry = IRegistry(0);\n    }\n}\n",
  "sourcePath": "/home/jbokser/work2/OMoC-SC-Shared/contracts/change/MocFlowRegistryInitChange.sol",
  "compiler": {
    "name": "solc",
    "version": "0.6.12+commit.27d51765.Emscripten.clang"
  },
  "schemaVersion": "3.3.3",
  "updatedAt": "2021-02-04T20:51:03.379Z",
  "devdoc": {
    "kind": "dev",
    "methods": {
      "execute()": {
        "details": "Should be called by the governor, but this contract does not check that explicitly because it is not its responsability in the current architecture"
      }
    },
    "title": "MocFlowRegistryInitChange",
    "version": 1
  },
  "userdoc": {
    "kind": "user",
    "methods": {
      "constructor": "Constructor",
      "execute()": {
        "notice": "Execute the changes."
      }
    },
    "notice": "This contract is a ChangeContract intended to initialize all the MOC Flow registry values",
    "version": 1
  }
}