{
  "contractName": "MocRegistryInitChange",
  "abi": [
    {
      "inputs": [
        {
          "internalType": "contract IRegistry",
          "name": "_registry",
          "type": "address"
        },
        {
          "internalType": "address",
          "name": "_stakingMachine",
          "type": "address"
        },
        {
          "internalType": "address",
          "name": "_vestingMachine",
          "type": "address"
        },
        {
          "internalType": "address",
          "name": "_votingMachine",
          "type": "address"
        },
        {
          "internalType": "address",
          "name": "_delayMachine",
          "type": "address"
        },
        {
          "internalType": "address",
          "name": "_oracleManager",
          "type": "address"
        },
        {
          "internalType": "address",
          "name": "_supporters",
          "type": "address"
        },
        {
          "internalType": "address",
          "name": "_infoGetter",
          "type": "address"
        },
        {
          "internalType": "address",
          "name": "_upgradeDelagator",
          "type": "address"
        }
      ],
      "stateMutability": "nonpayable",
      "type": "constructor"
    },
    {
      "inputs": [],
      "name": "INFO_ADDR",
      "outputs": [
        {
          "internalType": "bytes32",
          "name": "",
          "type": "bytes32"
        }
      ],
      "stateMutability": "view",
      "type": "function"
    },
    {
      "inputs": [],
      "name": "MESSAGE_VERSION",
      "outputs": [
        {
          "internalType": "bytes32",
          "name": "",
          "type": "bytes32"
        }
      ],
      "stateMutability": "view",
      "type": "function"
    },
    {
      "inputs": [],
      "name": "MOC_DELAY_MACHINE",
      "outputs": [
        {
          "internalType": "bytes32",
          "name": "",
          "type": "bytes32"
        }
      ],
      "stateMutability": "view",
      "type": "function"
    },
    {
      "inputs": [],
      "name": "MOC_FLOW_BUFFERS",
      "outputs": [
        {
          "internalType": "bytes32",
          "name": "",
          "type": "bytes32"
        }
      ],
      "stateMutability": "view",
      "type": "function"
    },
    {
      "inputs": [],
      "name": "MOC_FLOW_COINERS",
      "outputs": [
        {
          "internalType": "bytes32",
          "name": "",
          "type": "bytes32"
        }
      ],
      "stateMutability": "view",
      "type": "function"
    },
    {
      "inputs": [],
      "name": "MOC_FLOW_DRIPPERS",
      "outputs": [
        {
          "internalType": "bytes32",
          "name": "",
          "type": "bytes32"
        }
      ],
      "stateMutability": "view",
      "type": "function"
    },
    {
      "inputs": [],
      "name": "MOC_FLOW_REVERSE_AUCTIONS",
      "outputs": [
        {
          "internalType": "bytes32",
          "name": "",
          "type": "bytes32"
        }
      ],
      "stateMutability": "view",
      "type": "function"
    },
    {
      "inputs": [],
      "name": "MOC_PRICE_PROVIDER_REGISTRY",
      "outputs": [
        {
          "internalType": "bytes32",
          "name": "",
          "type": "bytes32"
        }
      ],
      "stateMutability": "view",
      "type": "function"
    },
    {
      "inputs": [],
      "name": "MOC_PROJECT_VERSION",
      "outputs": [
        {
          "internalType": "bytes32",
          "name": "",
          "type": "bytes32"
        }
      ],
      "stateMutability": "view",
      "type": "function"
    },
    {
      "inputs": [],
      "name": "MOC_STAKING_MACHINE",
      "outputs": [
        {
          "internalType": "bytes32",
          "name": "",
          "type": "bytes32"
        }
      ],
      "stateMutability": "view",
      "type": "function"
    },
    {
      "inputs": [],
      "name": "MOC_TOKEN",
      "outputs": [
        {
          "internalType": "bytes32",
          "name": "",
          "type": "bytes32"
        }
      ],
      "stateMutability": "view",
      "type": "function"
    },
    {
      "inputs": [],
      "name": "MOC_UPGRADE_DELEGATOR",
      "outputs": [
        {
          "internalType": "bytes32",
          "name": "",
          "type": "bytes32"
        }
      ],
      "stateMutability": "view",
      "type": "function"
    },
    {
      "inputs": [],
      "name": "MOC_VESTING_MACHINE",
      "outputs": [
        {
          "internalType": "bytes32",
          "name": "",
          "type": "bytes32"
        }
      ],
      "stateMutability": "view",
      "type": "function"
    },
    {
      "inputs": [],
      "name": "MOC_VOTING_MACHINE",
      "outputs": [
        {
          "internalType": "bytes32",
          "name": "",
          "type": "bytes32"
        }
      ],
      "stateMutability": "view",
      "type": "function"
    },
    {
      "inputs": [],
      "name": "MOC_VOTING_MACHINE_MAX_PRE_PROPOSALS",
      "outputs": [
        {
          "internalType": "bytes32",
          "name": "",
          "type": "bytes32"
        }
      ],
      "stateMutability": "view",
      "type": "function"
    },
    {
      "inputs": [],
      "name": "MOC_VOTING_MACHINE_MIN_STAKE",
      "outputs": [
        {
          "internalType": "bytes32",
          "name": "",
          "type": "bytes32"
        }
      ],
      "stateMutability": "view",
      "type": "function"
    },
    {
      "inputs": [],
      "name": "MOC_VOTING_MACHINE_PCT_PRECISION",
      "outputs": [
        {
          "internalType": "bytes32",
          "name": "",
          "type": "bytes32"
        }
      ],
      "stateMutability": "view",
      "type": "function"
    },
    {
      "inputs": [],
      "name": "MOC_VOTING_MACHINE_PRE_VOTE_EXPIRATION_TIME_DELTA",
      "outputs": [
        {
          "internalType": "bytes32",
          "name": "",
          "type": "bytes32"
        }
      ],
      "stateMutability": "view",
      "type": "function"
    },
    {
      "inputs": [],
      "name": "MOC_VOTING_MACHINE_PRE_VOTE_MIN_PCT_TO_WIN",
      "outputs": [
        {
          "internalType": "bytes32",
          "name": "",
          "type": "bytes32"
        }
      ],
      "stateMutability": "view",
      "type": "function"
    },
    {
      "inputs": [],
      "name": "MOC_VOTING_MACHINE_VOTE_MIN_PCT_FOR_QUORUM",
      "outputs": [
        {
          "internalType": "bytes32",
          "name": "",
          "type": "bytes32"
        }
      ],
      "stateMutability": "view",
      "type": "function"
    },
    {
      "inputs": [],
      "name": "MOC_VOTING_MACHINE_VOTE_MIN_PCT_TO_ACCEPT",
      "outputs": [
        {
          "internalType": "bytes32",
          "name": "",
          "type": "bytes32"
        }
      ],
      "stateMutability": "view",
      "type": "function"
    },
    {
      "inputs": [],
      "name": "MOC_VOTING_MACHINE_VOTE_MIN_PCT_TO_VETO",
      "outputs": [
        {
          "internalType": "bytes32",
          "name": "",
          "type": "bytes32"
        }
      ],
      "stateMutability": "view",
      "type": "function"
    },
    {
      "inputs": [],
      "name": "MOC_VOTING_MACHINE_VOTING_TIME_DELTA",
      "outputs": [
        {
          "internalType": "bytes32",
          "name": "",
          "type": "bytes32"
        }
      ],
      "stateMutability": "view",
      "type": "function"
    },
    {
      "inputs": [],
      "name": "ORACLE_BLOCKCHAIN_INFO_INTERVAL",
      "outputs": [
        {
          "internalType": "bytes32",
          "name": "",
          "type": "bytes32"
        }
      ],
      "stateMutability": "view",
      "type": "function"
    },
    {
      "inputs": [],
      "name": "ORACLE_COIN_PAIR_LOOP_TASK_INTERVAL",
      "outputs": [
        {
          "internalType": "bytes32",
          "name": "",
          "type": "bytes32"
        }
      ],
      "stateMutability": "view",
      "type": "function"
    },
    {
      "inputs": [],
      "name": "ORACLE_CONFIGURATION_TASK_INTERVAL",
      "outputs": [
        {
          "internalType": "bytes32",
          "name": "",
          "type": "bytes32"
        }
      ],
      "stateMutability": "view",
      "type": "function"
    },
    {
      "inputs": [],
      "name": "ORACLE_ENTERING_FALLBACKS_AMOUNTS",
      "outputs": [
        {
          "internalType": "bytes32",
          "name": "",
          "type": "bytes32"
        }
      ],
      "stateMutability": "view",
      "type": "function"
    },
    {
      "inputs": [],
      "name": "ORACLE_GATHER_SIGNATURE_TIMEOUT",
      "outputs": [
        {
          "internalType": "bytes32",
          "name": "",
          "type": "bytes32"
        }
      ],
      "stateMutability": "view",
      "type": "function"
    },
    {
      "inputs": [],
      "name": "ORACLE_MAIN_EXECUTOR_TASK_INTERVAL",
      "outputs": [
        {
          "internalType": "bytes32",
          "name": "",
          "type": "bytes32"
        }
      ],
      "stateMutability": "view",
      "type": "function"
    },
    {
      "inputs": [],
      "name": "ORACLE_MAIN_LOOP_TASK_INTERVAL",
      "outputs": [
        {
          "internalType": "bytes32",
          "name": "",
          "type": "bytes32"
        }
      ],
      "stateMutability": "view",
      "type": "function"
    },
    {
      "inputs": [],
      "name": "ORACLE_MANAGER_ADDR",
      "outputs": [
        {
          "internalType": "bytes32",
          "name": "",
          "type": "bytes32"
        }
      ],
      "stateMutability": "view",
      "type": "function"
    },
    {
      "inputs": [],
      "name": "ORACLE_MIN_ORACLES_PER_ROUND",
      "outputs": [
        {
          "internalType": "bytes32",
          "name": "",
          "type": "bytes32"
        }
      ],
      "stateMutability": "view",
      "type": "function"
    },
    {
      "inputs": [],
      "name": "ORACLE_PRICE_DELTA_PCT",
      "outputs": [
        {
          "internalType": "bytes32",
          "name": "",
          "type": "bytes32"
        }
      ],
      "stateMutability": "view",
      "type": "function"
    },
    {
      "inputs": [],
      "name": "ORACLE_PRICE_DIGITS",
      "outputs": [
        {
          "internalType": "bytes32",
          "name": "",
          "type": "bytes32"
        }
      ],
      "stateMutability": "view",
      "type": "function"
    },
    {
      "inputs": [],
      "name": "ORACLE_PRICE_FETCH_RATE",
      "outputs": [
        {
          "internalType": "bytes32",
          "name": "",
          "type": "bytes32"
        }
      ],
      "stateMutability": "view",
      "type": "function"
    },
    {
      "inputs": [],
      "name": "ORACLE_PRICE_PUBLISH_BLOCKS",
      "outputs": [
        {
          "internalType": "bytes32",
          "name": "",
          "type": "bytes32"
        }
      ],
      "stateMutability": "view",
      "type": "function"
    },
    {
      "inputs": [],
      "name": "ORACLE_PRICE_REJECT_DELTA_PCT",
      "outputs": [
        {
          "internalType": "bytes32",
          "name": "",
          "type": "bytes32"
        }
      ],
      "stateMutability": "view",
      "type": "function"
    },
    {
      "inputs": [],
      "name": "ORACLE_QUEUE_LEN",
      "outputs": [
        {
          "internalType": "bytes32",
          "name": "",
          "type": "bytes32"
        }
      ],
      "stateMutability": "view",
      "type": "function"
    },
    {
      "inputs": [],
      "name": "ORACLE_TRIGGER_VALID_PUBLICATION_BLOCKS",
      "outputs": [
        {
          "internalType": "bytes32",
          "name": "",
          "type": "bytes32"
        }
      ],
      "stateMutability": "view",
      "type": "function"
    },
    {
      "inputs": [],
      "name": "SCHEDULER_POOL_DELAY",
      "outputs": [
        {
          "internalType": "bytes32",
          "name": "",
          "type": "bytes32"
        }
      ],
      "stateMutability": "view",
      "type": "function"
    },
    {
      "inputs": [],
      "name": "SCHEDULER_ROUND_DELAY",
      "outputs": [
        {
          "internalType": "bytes32",
          "name": "",
          "type": "bytes32"
        }
      ],
      "stateMutability": "view",
      "type": "function"
    },
    {
      "inputs": [],
      "name": "SUPPORTERS_ADDR",
      "outputs": [
        {
          "internalType": "bytes32",
          "name": "",
          "type": "bytes32"
        }
      ],
      "stateMutability": "view",
      "type": "function"
    },
    {
      "inputs": [],
      "name": "delayMachine",
      "outputs": [
        {
          "internalType": "address",
          "name": "",
          "type": "address"
        }
      ],
      "stateMutability": "view",
      "type": "function"
    },
    {
      "inputs": [],
      "name": "infoGetter",
      "outputs": [
        {
          "internalType": "address",
          "name": "",
          "type": "address"
        }
      ],
      "stateMutability": "view",
      "type": "function"
    },
    {
      "inputs": [],
      "name": "oracleManager",
      "outputs": [
        {
          "internalType": "address",
          "name": "",
          "type": "address"
        }
      ],
      "stateMutability": "view",
      "type": "function"
    },
    {
      "inputs": [],
      "name": "registry",
      "outputs": [
        {
          "internalType": "contract IRegistry",
          "name": "",
          "type": "address"
        }
      ],
      "stateMutability": "view",
      "type": "function"
    },
    {
      "inputs": [],
      "name": "stakingMachine",
      "outputs": [
        {
          "internalType": "address",
          "name": "",
          "type": "address"
        }
      ],
      "stateMutability": "view",
      "type": "function"
    },
    {
      "inputs": [],
      "name": "supporters",
      "outputs": [
        {
          "internalType": "address",
          "name": "",
          "type": "address"
        }
      ],
      "stateMutability": "view",
      "type": "function"
    },
    {
      "inputs": [],
      "name": "upgradeDelagator",
      "outputs": [
        {
          "internalType": "address",
          "name": "",
          "type": "address"
        }
      ],
      "stateMutability": "view",
      "type": "function"
    },
    {
      "inputs": [],
      "name": "vestingMachine",
      "outputs": [
        {
          "internalType": "address",
          "name": "",
          "type": "address"
        }
      ],
      "stateMutability": "view",
      "type": "function"
    },
    {
      "inputs": [],
      "name": "votingMachine",
      "outputs": [
        {
          "internalType": "address",
          "name": "",
          "type": "address"
        }
      ],
      "stateMutability": "view",
      "type": "function"
    },
    {
      "inputs": [],
      "name": "execute",
      "outputs": [],
      "stateMutability": "nonpayable",
      "type": "function"
    }
  ],
  "bytecode": "0x608060405234801561001057600080fd5b50604051612059380380612059833981810160405261012081101561003457600080fd5b508051602082015160408301516060840151608085015160a086015160c087015160e088015161010090980151600080546001600160a01b03199081166001600160a01b039a8b16178255600180548216998b1699909917909855600280548916978a16979097179096556003805488169589169590951790945560048054871693881693909317909255600580548616918716919091179055600680548516918616919091179055600780548416958516959095179094556008805490921692909316919091179055611f4b90819061010e90396000f3fe608060405234801561001057600080fd5b506004361061030b5760003560e01c80638da1b81d1161019d578063d0360cdb116100e9578063ea0e0661116100a2578063fa8ab4c11161007c578063fa8ab4c1146104c0578063faf620bc146104c8578063fdc31f6f146104d0578063fe75027f146104d85761030b565b8063ea0e0661146104a8578063f13eb2d5146104b0578063f147fd83146104b85761030b565b8063d0360cdb14610478578063d274eaff14610480578063d3f055d714610488578063d51673fb14610490578063e62c6a6914610498578063e873e208146104a05761030b565b8063a68d751e11610156578063b3699ded11610130578063b3699ded14610458578063b74ab6fc14610460578063b90163d114610468578063ba6fc287146104705761030b565b8063a68d751e14610440578063a6c456f114610448578063b01f02bf146104505761030b565b80638da1b81d14610410578063915e4e101461041857806394ff8ee61461042057806397492d75146104285780639b09d9c9146104305780639d81ac84146104385761030b565b80634ce4eb581161025c578063614619541161021557806373e0d02e116101ef57806373e0d02e146103f05780637b103999146103f85780637c197e21146104005780638bc7b6f2146104085761030b565b806361461954146103d65780636b65fbd3146103e05780636eec5a4a146103e85761030b565b80634ce4eb58146103a65780634eb836f5146103ae578063541f51fd146103b6578063565d878c146103be578063586dec23146103c65780635fe22793146103ce5761030b565b8063296e9cc4116102c95780633edf7ca1116102a35780633edf7ca11461036a5780633f827a5a1461038e578063484cae4e146103965780634b9036541461039e5761030b565b8063296e9cc41461035257806339e94f131461035a5780633bdc3950146103625761030b565b80623db248146103105780630358faeb1461032a5780630fc67cec14610332578063213fe5c01461033a578063264006931461034257806328f134a41461034a575b600080fd5b6103186104e0565b60408051918252519081900360200190f35b610318610504565b610318610528565b61031861054c565b610318610570565b610318610594565b6103186105b8565b6103186105dc565b610318610600565b610372610624565b604080516001600160a01b039092168252519081900360200190f35b610318610633565b610318610657565b61031861067b565b61037261069f565b6103186106ae565b6103186106d2565b6103726106f6565b610318610705565b610318610729565b6103de61074d565b005b610372611b13565b610318611b22565b610372611b46565b610372611b55565b610318611b64565b610318611b88565b610318611bac565b610318611bd0565b610318611bf4565b610318611c18565b610318611c3c565b610318611c60565b610318611c84565b610318611ca8565b610318611ccc565b610318611cf0565b610318611d14565b610318611d38565b610318611d5c565b610318611d80565b610318611da4565b610318611dc8565b610318611dec565b610318611e10565b610318611e34565b610318611e58565b610318611e7c565b610372611ea0565b610318611eaf565b610318611ed3565b610372611ef7565b610372611f06565b7fc1c87e0508bb8270ee6a6dbe630baa072e6e3d5968981666724b9333430e1c3181565b7fda9f12e01fc92de345bb741448d36ecb967052dd7aa1670439af833c9a3d78f181565b7f275d8a46b817572476d2d55b41c7709dee307740bad676a9693805003a48d23181565b7fb43ee0a5ee6dcc7115ce824e4e353526ad6e479afa4daeb78451070de942de3681565b7fc32b9cbc59039d297e670e7c196424308c90ba4a437fa7ccd008498c934e7dbf81565b7f4cd7e3f12ee4a2db0a6ba16e03fbc31bba1048c149bbf4fc9f3c02021ec550b881565b7f2f271dc1fa81985bda14a2d6d0d60b45191d2a2d97e636b192696a8796d654a781565b7f7dfea4fb968e2599cdb7b3028c07d0188d0f92d1d00bd95c2805523c224649dd81565b7f7a3ee46ca1bd3e19089870d8d6530b083a86da93aab52efccb32d5950e2709cf81565b6003546001600160a01b031681565b7feafac1a2b4d4fdcc942cbdce334a88ec83387087978d039f1320d3639a0b59df81565b7fb324a91be1ac0d0c4888c835aee124ca1a7caf4b73ce10aa3504e2683865d7e581565b7ff646c455329c7af0436f9e95c59c90ce0e11bb4e3a1deff805807798696adf8881565b6001546001600160a01b031681565b7f16986f74674f2ed21d50b6e74e6b12bb323ff4f72364542fd5de5104f3cc3ca981565b7ff5afc54dd2c3e35bfa15485ed117b621cf51f31f803d11be832ccde6c77a6b5681565b6005546001600160a01b031681565b7fc0ded27704f62d8726fdbd83648113d9fd8cf32c09f80523d2ba523e0bbd5ba481565b7f0428ec087e0cce276a71d1caf1afe4da32a2d48b3ebe579040612b5bd262ff7381565b6000546001600160a01b0316610795576040805162461bcd60e51b8152602060048201526008602482015267557365206f6e636560c01b604482015290519081900360640190fd5b600080546001546040805163ca446dd960e01b81527f3c557531fea67120f21bc7711270a96f1b8cff3dfe3dd798a8a9f09ce9b7797260048201526001600160a01b0392831660248201529051919092169263ca446dd9926044808201939182900301818387803b15801561080957600080fd5b505af115801561081d573d6000803e3d6000fd5b5050600080546002546040805163ca446dd960e01b81527f7dfea4fb968e2599cdb7b3028c07d0188d0f92d1d00bd95c2805523c224649dd60048201526001600160a01b039283166024820152905191909216945063ca446dd993506044808301939282900301818387803b15801561089557600080fd5b505af11580156108a9573d6000803e3d6000fd5b5050600080546003546040805163ca446dd960e01b81527fc0ded27704f62d8726fdbd83648113d9fd8cf32c09f80523d2ba523e0bbd5ba460048201526001600160a01b039283166024820152905191909216945063ca446dd993506044808301939282900301818387803b15801561092157600080fd5b505af1158015610935573d6000803e3d6000fd5b505060008054600480546040805163ca446dd960e01b81527f66b60892ff6e7f0da16db27046f5960fdfd6bce5c3c8c21d56ccca3236a6281b938101939093526001600160a01b039182166024840152519216945063ca446dd99350604480820193929182900301818387803b1580156109ae57600080fd5b505af11580156109c2573d6000803e3d6000fd5b5050600080546005546040805163ca446dd960e01b81527f16986f74674f2ed21d50b6e74e6b12bb323ff4f72364542fd5de5104f3cc3ca960048201526001600160a01b039283166024820152905191909216945063ca446dd993506044808301939282900301818387803b158015610a3a57600080fd5b505af1158015610a4e573d6000803e3d6000fd5b5050600080546006546040805163ca446dd960e01b81527fe4f979504d2a7a24557a15195eb83131e7c4a66d33900454705435aa5a6ee08660048201526001600160a01b039283166024820152905191909216945063ca446dd993506044808301939282900301818387803b158015610ac657600080fd5b505af1158015610ada573d6000803e3d6000fd5b5050600080546007546040805163ca446dd960e01b81527fda9f12e01fc92de345bb741448d36ecb967052dd7aa1670439af833c9a3d78f160048201526001600160a01b039283166024820152905191909216945063ca446dd993506044808301939282900301818387803b158015610b5257600080fd5b505af1158015610b66573d6000803e3d6000fd5b5050600080546008546040805163ca446dd960e01b81527f631bcbb9b033f9c8d13c32cf6e60827348d77b91b58c295e87745219242cca2260048201526001600160a01b039283166024820152905191909216945063ca446dd993506044808301939282900301818387803b158015610bde57600080fd5b505af1158015610bf2573d6000803e3d6000fd5b505060008054600154604080516389ea1b5160e01b815290516001600160a01b03938416965063ca446dd995507f4bd5e7ff929fdd1ba62a33f76e0f40e97bb35e8bf126c0d9d91ce5c69a4bc5219493909216926389ea1b51926004808401936020939083900390910190829087803b158015610c6e57600080fd5b505af1158015610c82573d6000803e3d6000fd5b505050506040513d6020811015610c9857600080fd5b5051604080516001600160e01b031960e086901b16815260048101939093526001600160a01b03909116602483015251604480830192600092919082900301818387803b158015610ce857600080fd5b505af1158015610cfc573d6000803e3d6000fd5b50506000805460408051634f6a201160e11b81527f580be8e098dd1016787d59c2a534bf9df9ec679a29de4c8f92dc3807f7d7d54d6004820152670de0b6b3a7640000602482015290516001600160a01b039092169450639ed440229350604480820193929182900301818387803b158015610d7757600080fd5b505af1158015610d8b573d6000803e3d6000fd5b50506000805460408051634f6a201160e11b81527f62f5dbf0c17b0df83487409f747ad2eeca5fd54c140ca59b32cf39d6f6eaf916600482015262093a80602482015290516001600160a01b039092169450639ed440229350604480820193929182900301818387803b158015610e0157600080fd5b505af1158015610e15573d6000803e3d6000fd5b50506000805460408051634f6a201160e11b81527fc32b9cbc59039d297e670e7c196424308c90ba4a437fa7ccd008498c934e7dbf6004820152600a602482015290516001600160a01b039092169450639ed440229350604480820193929182900301818387803b158015610e8957600080fd5b505af1158015610e9d573d6000803e3d6000fd5b50506000805460408051634f6a201160e11b81527f0a1b21dfd7e4f3741529cf579e2731e847d81bbf13a82d0eba6910d7ac4c1c0a60048201526005602482015290516001600160a01b039092169450639ed440229350604480820193929182900301818387803b158015610f1157600080fd5b505af1158015610f25573d6000803e3d6000fd5b50506000805460408051634f6a201160e11b81527ffb2d33acd65c36f68a15f8fe41cb8c0dd1eda164ffa87c6882e685ccb1c1adfb6004820152601e602482015290516001600160a01b039092169450639ed440229350604480820193929182900301818387803b158015610f9957600080fd5b505af1158015610fad573d6000803e3d6000fd5b50506000805460408051634f6a201160e11b81527fde1ede48948567c43c504b761af8cd6af5363fafeceb1239b3083955d809714f60048201526014602482015290516001600160a01b039092169450639ed440229350604480820193929182900301818387803b15801561102157600080fd5b505af1158015611035573d6000803e3d6000fd5b50506000805460408051634f6a201160e11b81527f99f83ee0c57b325f3deafb536d55596743ff112c6ac0d853d5f4f89b75dec04560048201526032602482015290516001600160a01b039092169450639ed440229350604480820193929182900301818387803b1580156110a957600080fd5b505af11580156110bd573d6000803e3d6000fd5b50506000805460408051634f6a201160e11b81527f73ee596441ef88c207a7a9147d62f59186b4991555e37b7ce9c801f9539d105060048201526064602482015290516001600160a01b039092169450639ed440229350604480820193929182900301818387803b15801561113157600080fd5b505af1158015611145573d6000803e3d6000fd5b50506000805460408051634f6a201160e11b81527fb43ee0a5ee6dcc7115ce824e4e353526ad6e479afa4daeb78451070de942de36600482015262278d00602482015290516001600160a01b039092169450639ed440229350604480820193929182900301818387803b1580156111bb57600080fd5b505af11580156111cf573d6000803e3d6000fd5b50506000805460408051634f6a201160e11b81527f945f72e5d44fb0ce3b1de393d19415723b79f97ad801089d8470d1c20e15ffef60048201526005602482015290516001600160a01b039092169450639ed440229350604480820193929182900301818387803b15801561124357600080fd5b505af1158015611257573d6000803e3d6000fd5b50506000805460408051634f6a201160e11b81527f11cfbdf601b80a575e4366f0234cc06de0c9f401fe250dd9dccfccefeedb6fc260048201526003602482015290516001600160a01b039092169450639ed440229350604480820193929182900301818387803b1580156112cb57600080fd5b505af11580156112df573d6000803e3d6000fd5b50506000805460408051634f6a201160e11b81527f2f271dc1fa81985bda14a2d6d0d60b45191d2a2d97e636b192696a8796d654a760048201526005602482015290516001600160a01b039092169450639ed440229350604480820193929182900301818387803b15801561135357600080fd5b505af1158015611367573d6000803e3d6000fd5b50506000805460408051634f6a201160e11b81527f275d8a46b817572476d2d55b41c7709dee307740bad676a9693805003a48d23160048201526078602482015290516001600160a01b039092169450639ed440229350604480820193929182900301818387803b1580156113db57600080fd5b505af11580156113ef573d6000803e3d6000fd5b50506000805460408051634259bac360e01b81527f7a3ee46ca1bd3e19089870d8d6530b083a86da93aab52efccb32d5950e2709cf600482015260016024820152600019604482015290516001600160a01b039092169450634259bac39350606480820193929182900301818387803b15801561146b57600080fd5b505af115801561147f573d6000803e3d6000fd5b50506000805460408051634f6a201160e11b81527fb027f2006a45346de89db4c5efc53f4e05e96532d27366aff00367a394d0abc4600482015260f0602482015290516001600160a01b039092169450639ed440229350604480820193929182900301818387803b1580156114f357600080fd5b505af1158015611507573d6000803e3d6000fd5b50506000805460408051634f6a201160e11b81527ff75b08b2b912abdbb87cc459ca0b4fdc019329386ec84ab68399b0c86fed5a956004820152603c602482015290516001600160a01b039092169450639ed440229350604480820193929182900301818387803b15801561157b57600080fd5b505af115801561158f573d6000803e3d6000fd5b50506000805460408051634f6a201160e11b81527fb324a91be1ac0d0c4888c835aee124ca1a7caf4b73ce10aa3504e2683865d7e560048201526014602482015290516001600160a01b039092169450639ed440229350604480820193929182900301818387803b15801561160357600080fd5b505af1158015611617573d6000803e3d6000fd5b50506000805460408051634f6a201160e11b81527f6c2abc911c0fa4c73b90c7143a9f4429749be45ebfe7b81e69b86e7ca440d8116004820152603c602482015290516001600160a01b039092169450639ed440229350604480820193929182900301818387803b15801561168b57600080fd5b505af115801561169f573d6000803e3d6000fd5b50506000805460408051634f6a201160e11b81527fa82bea7140872d1398fa0ab5075330ab0228f4c7e381b4b6502379ffc7cdcd9f6004820152610708602482015290516001600160a01b039092169450639ed440229350604480820193929182900301818387803b15801561171457600080fd5b505af1158015611728573d6000803e3d6000fd5b50506000805460408051634f6a201160e11b81527f4cd7e3f12ee4a2db0a6ba16e03fbc31bba1048c149bbf4fc9f3c02021ec550b860048201526012602482015290516001600160a01b039092169450639ed440229350604480820193929182900301818387803b15801561179c57600080fd5b505af11580156117b0573d6000803e3d6000fd5b50506000805460408051634f6a201160e11b81527f7d32d87d65898c3cbc7e72c59d223bf61c7811e99dafafd24fb08e0a38f109146004820152601e602482015290516001600160a01b039092169450639ed440229350604480820193929182900301818387803b15801561182457600080fd5b505af1158015611838573d6000803e3d6000fd5b50506000805460408051634f6a201160e11b81527feafac1a2b4d4fdcc942cbdce334a88ec83387087978d039f1320d3639a0b59df60048201526003602482015290516001600160a01b039092169450639ed440229350604480820193929182900301818387803b1580156118ac57600080fd5b505af11580156118c0573d6000803e3d6000fd5b50506000805460408051634259bac360e01b81527f41a2ac05b365409628009a8091d8dda06fe52fe2f1c792e651e5df7599a7a7de600482015260016024820152600019604482015290516001600160a01b039092169450634259bac39350606480820193929182900301818387803b15801561193c57600080fd5b505af1158015611950573d6000803e3d6000fd5b50506000805460408051634f6a201160e11b81527f51a2be29a473202678b6cf57b717ba5d7ff671f01fdbdbfcad4e1882601b889660048201526024810184905290516001600160a01b039092169450639ed440229350604480820193929182900301818387803b1580156119c457600080fd5b505af11580156119d8573d6000803e3d6000fd5b50506000805460408051630b8a342160e21b81527ff646c455329c7af0436f9e95c59c90ce0e11bb4e3a1deff805807798696adf886004820152602481018290526005604482015264010203040560d91b606482015290516001600160a01b039092169450632e28d0849350608480820193929182900301818387803b158015611a6157600080fd5b505af1158015611a75573d6000803e3d6000fd5b50506000805460408051634f6a201160e11b81527fef9006fe6663199909dfaa4ab45e3f86d6454adb7773682f356824b6b3bc6b0e60048201526003602482015290516001600160a01b039092169450639ed440229350604480820193929182900301818387803b158015611ae957600080fd5b505af1158015611afd573d6000803e3d6000fd5b5050600080546001600160a01b03191690555050565b6004546001600160a01b031681565b7fdd6eacd9b2305faa48e6e500ef302cf28b8cd660dc843b355a6f5f26655eee7381565b6007546001600160a01b031681565b6000546001600160a01b031681565b7f51a2be29a473202678b6cf57b717ba5d7ff671f01fdbdbfcad4e1882601b889681565b7fb027f2006a45346de89db4c5efc53f4e05e96532d27366aff00367a394d0abc481565b7f7d32d87d65898c3cbc7e72c59d223bf61c7811e99dafafd24fb08e0a38f1091481565b7f41a2ac05b365409628009a8091d8dda06fe52fe2f1c792e651e5df7599a7a7de81565b7ff75b08b2b912abdbb87cc459ca0b4fdc019329386ec84ab68399b0c86fed5a9581565b7fd4ed72d0bf9bae5e1e7ae31a372a37c8069168889284ec94be25b3f6707f5b4a81565b7f66b60892ff6e7f0da16db27046f5960fdfd6bce5c3c8c21d56ccca3236a6281b81565b7fa82bea7140872d1398fa0ab5075330ab0228f4c7e381b4b6502379ffc7cdcd9f81565b7f4bd5e7ff929fdd1ba62a33f76e0f40e97bb35e8bf126c0d9d91ce5c69a4bc52181565b7f11cfbdf601b80a575e4366f0234cc06de0c9f401fe250dd9dccfccefeedb6fc281565b7f3c557531fea67120f21bc7711270a96f1b8cff3dfe3dd798a8a9f09ce9b7797281565b7f631bcbb9b033f9c8d13c32cf6e60827348d77b91b58c295e87745219242cca2281565b7fde1ede48948567c43c504b761af8cd6af5363fafeceb1239b3083955d809714f81565b7f73ee596441ef88c207a7a9147d62f59186b4991555e37b7ce9c801f9539d105081565b7f0a1b21dfd7e4f3741529cf579e2731e847d81bbf13a82d0eba6910d7ac4c1c0a81565b7f8970fe7a53b9c3dfce4f2afec48b5a6550afcb16ea2da8a10ec4b47a83a34a9d81565b7f945f72e5d44fb0ce3b1de393d19415723b79f97ad801089d8470d1c20e15ffef81565b7ffb2d33acd65c36f68a15f8fe41cb8c0dd1eda164ffa87c6882e685ccb1c1adfb81565b7f62f5dbf0c17b0df83487409f747ad2eeca5fd54c140ca59b32cf39d6f6eaf91681565b7f4cb845794d5472a713e41e8e4ddc566dab8d695f1dc6c8edd43dad9d55112a2281565b7fef9006fe6663199909dfaa4ab45e3f86d6454adb7773682f356824b6b3bc6b0e81565b7fe4f979504d2a7a24557a15195eb83131e7c4a66d33900454705435aa5a6ee08681565b7f99f83ee0c57b325f3deafb536d55596743ff112c6ac0d853d5f4f89b75dec04581565b6008546001600160a01b031681565b7f6c2abc911c0fa4c73b90c7143a9f4429749be45ebfe7b81e69b86e7ca440d81181565b7f580be8e098dd1016787d59c2a534bf9df9ec679a29de4c8f92dc3807f7d7d54d81565b6006546001600160a01b031681565b6002546001600160a01b03168156fea2646970667358221220657f56bdd7eab2fdfaa873d12ace10b39e157830d0f9e1eacd8659c3cf80897664736f6c634300060c0033",
  "immutableReferences": {},
  "source": "// SPDX-License-Identifier: UNLICENSED\npragma solidity 0.6.12;\n\nimport {ChangeContract} from \"../moc-governance/Governance/ChangeContract.sol\";\nimport {IRegistry} from \"../IRegistry.sol\";\nimport {RegistryConstants} from \"../RegistryConstants.sol\";\n\ninterface ITokenReference {\n    function getMocToken() external returns (address);\n}\n\n/**\n  @title MocRegistryInitChange\n  @notice This contract is a ChangeContract intended to initialize all the MOC registry values\n */\ncontract MocRegistryInitChange is ChangeContract, RegistryConstants {\n    IRegistry public registry;\n    address public stakingMachine;\n    address public vestingMachine;\n    address public votingMachine;\n    address public delayMachine;\n    address public oracleManager;\n    address public supporters;\n    address public infoGetter;\n    address public upgradeDelagator;\n\n    /**\n      @notice Constructor\n    */\n    constructor(\n        IRegistry _registry,\n        address _stakingMachine,\n        address _vestingMachine,\n        address _votingMachine,\n        address _delayMachine,\n        address _oracleManager,\n        address _supporters,\n        address _infoGetter,\n        address _upgradeDelagator\n    ) public {\n        registry = _registry;\n        stakingMachine = _stakingMachine;\n        vestingMachine = _vestingMachine;\n        votingMachine = _votingMachine;\n        delayMachine = _delayMachine;\n        oracleManager = _oracleManager;\n        supporters = _supporters;\n        infoGetter = _infoGetter;\n        upgradeDelagator = _upgradeDelagator;\n    }\n\n    /**\n      @notice Execute the changes.\n      @dev Should be called by the governor, but this contract does not check that explicitly because it is\n      not its responsability in the current architecture\n     */\n    function execute() external override {\n        require(address(registry) != address(0), \"Use once\");\n\n        // Contracts\n        registry.setAddress(MOC_STAKING_MACHINE, stakingMachine);\n        registry.setAddress(MOC_VESTING_MACHINE, vestingMachine);\n        registry.setAddress(MOC_VOTING_MACHINE, votingMachine);\n        registry.setAddress(MOC_DELAY_MACHINE, delayMachine);\n        registry.setAddress(ORACLE_MANAGER_ADDR, oracleManager);\n        registry.setAddress(SUPPORTERS_ADDR, supporters);\n        registry.setAddress(INFO_ADDR, infoGetter);\n        registry.setAddress(MOC_UPGRADE_DELEGATOR, upgradeDelagator);\n        registry.setAddress(MOC_TOKEN, ITokenReference(stakingMachine).getMocToken());\n\n        // Voting machine parameter keys.\n        registry.setUint(MOC_VOTING_MACHINE_MIN_STAKE, 1000000000000000000);\n        registry.setUint(MOC_VOTING_MACHINE_PRE_VOTE_EXPIRATION_TIME_DELTA, 60 * 60 * 24 * 7);\n        registry.setUint(MOC_VOTING_MACHINE_MAX_PRE_PROPOSALS, 10);\n        registry.setUint(MOC_VOTING_MACHINE_PRE_VOTE_MIN_PCT_TO_WIN, 5);\n        registry.setUint(MOC_VOTING_MACHINE_VOTE_MIN_PCT_TO_VETO, 30);\n        registry.setUint(MOC_VOTING_MACHINE_VOTE_MIN_PCT_FOR_QUORUM, 20);\n        registry.setUint(MOC_VOTING_MACHINE_VOTE_MIN_PCT_TO_ACCEPT, 50);\n        registry.setUint(MOC_VOTING_MACHINE_PCT_PRECISION, 100);\n        registry.setUint(MOC_VOTING_MACHINE_VOTING_TIME_DELTA, 60 * 60 * 24 * 30);\n\n        // Oracles legacy\n        registry.setUint(ORACLE_PRICE_FETCH_RATE, 5);\n        registry.setUint(ORACLE_BLOCKCHAIN_INFO_INTERVAL, 3);\n        registry.setUint(ORACLE_COIN_PAIR_LOOP_TASK_INTERVAL, 5);\n        registry.setUint(ORACLE_MAIN_LOOP_TASK_INTERVAL, 60 * 2);\n        registry.setDecimal(ORACLE_PRICE_REJECT_DELTA_PCT, 1, -1);\n        registry.setUint(ORACLE_CONFIGURATION_TASK_INTERVAL, 60 * 4);\n        registry.setUint(ORACLE_GATHER_SIGNATURE_TIMEOUT, 60);\n        registry.setUint(ORACLE_MAIN_EXECUTOR_TASK_INTERVAL, 20);\n        registry.setUint(SCHEDULER_POOL_DELAY, 60);\n        registry.setUint(SCHEDULER_ROUND_DELAY, 60 * 30);\n        registry.setUint(ORACLE_PRICE_DIGITS, 18);\n        registry.setUint(ORACLE_QUEUE_LEN, 30);\n        registry.setUint(MESSAGE_VERSION, 3);\n        registry.setDecimal(ORACLE_PRICE_DELTA_PCT, 1, -1);\n        registry.setUint(ORACLE_PRICE_PUBLISH_BLOCKS, 0);\n        registry.setBytes(ORACLE_ENTERING_FALLBACKS_AMOUNTS, hex\"020406080a\");\n        registry.setUint(ORACLE_TRIGGER_VALID_PUBLICATION_BLOCKS, 3);\n\n        // usable just once!!!\n        registry = IRegistry(0);\n    }\n}\n",
  "sourcePath": "/home/jbokser/work2/OMoC-SC-Shared/contracts/change/MocRegistryInitChange.sol",
  "compiler": {
    "name": "solc",
    "version": "0.6.12+commit.27d51765.Emscripten.clang"
  },
  "schemaVersion": "3.3.3",
  "updatedAt": "2021-02-04T20:51:03.389Z",
  "devdoc": {
    "kind": "dev",
    "methods": {
      "execute()": {
        "details": "Should be called by the governor, but this contract does not check that explicitly because it is not its responsability in the current architecture"
      }
    },
    "title": "MocRegistryInitChange",
    "version": 1
  },
  "userdoc": {
    "kind": "user",
    "methods": {
      "constructor": "Constructor",
      "execute()": {
        "notice": "Execute the changes."
      }
    },
    "notice": "This contract is a ChangeContract intended to initialize all the MOC registry values",
    "version": 1
  }
}