{
  "contractName": "MocRegisterAddrChange",
  "abi": [
    {
      "inputs": [
        {
          "internalType": "contract IRegistry",
          "name": "_registry",
          "type": "address"
        },
        {
          "internalType": "bytes32",
          "name": "_key",
          "type": "bytes32"
        },
        {
          "internalType": "address",
          "name": "_addr",
          "type": "address"
        }
      ],
      "stateMutability": "nonpayable",
      "type": "constructor"
    },
    {
      "inputs": [],
      "name": "addr",
      "outputs": [
        {
          "internalType": "address",
          "name": "",
          "type": "address"
        }
      ],
      "stateMutability": "view",
      "type": "function"
    },
    {
      "inputs": [],
      "name": "key",
      "outputs": [
        {
          "internalType": "bytes32",
          "name": "",
          "type": "bytes32"
        }
      ],
      "stateMutability": "view",
      "type": "function"
    },
    {
      "inputs": [],
      "name": "registry",
      "outputs": [
        {
          "internalType": "contract IRegistry",
          "name": "",
          "type": "address"
        }
      ],
      "stateMutability": "view",
      "type": "function"
    },
    {
      "inputs": [],
      "name": "execute",
      "outputs": [],
      "stateMutability": "nonpayable",
      "type": "function"
    }
  ],
  "bytecode": "0x608060405234801561001057600080fd5b506040516102463803806102468339818101604052606081101561003357600080fd5b5080516020820151604090920151600080546001600160a01b039384166001600160a01b0319918216179091556001939093556002805492909116919092161790556101c2806100846000396000f3fe608060405234801561001057600080fd5b506004361061004c5760003560e01c80633943380c14610051578063614619541461006b578063767800de146100755780637b10399914610099575b600080fd5b6100596100a1565b60408051918252519081900360200190f35b6100736100a7565b005b61007d61016e565b604080516001600160a01b039092168252519081900360200190f35b61007d61017d565b60015481565b6000546001600160a01b03166100ef576040805162461bcd60e51b8152602060048201526008602482015267557365206f6e636560c01b604482015290519081900360640190fd5b600080546001546002546040805163ca446dd960e01b815260048101939093526001600160a01b0391821660248401525192169263ca446dd99260448084019382900301818387803b15801561014457600080fd5b505af1158015610158573d6000803e3d6000fd5b5050600080546001600160a01b03191690555050565b6002546001600160a01b031681565b6000546001600160a01b03168156fea2646970667358221220e46c40dc45e38040b836d83ff786e34a29c4c84f03bdb9be84d0846190b28c7b64736f6c634300060c0033",
  "immutableReferences": {},
  "source": "// SPDX-License-Identifier: UNLICENSED\npragma solidity 0.6.12;\n\nimport {ChangeContract} from \"../moc-governance/Governance/ChangeContract.sol\";\nimport {IRegistry} from \"../IRegistry.sol\";\n\n/**\n  @title MocRegistryInitChange\n  @notice This contract is a ChangeContract intended to initialize all the MOC registry values\n */\ncontract MocRegisterAddrChange is ChangeContract {\n    IRegistry public registry;\n    bytes32 public key;\n    address public addr;\n\n    /**\n      @notice Constructor\n    */\n    constructor(\n        IRegistry _registry,\n        bytes32 _key,\n        address _addr\n    ) public {\n        registry = _registry;\n        key = _key;\n        addr = _addr;\n    }\n\n    /**\n      @notice Execute the changes.\n      @dev Should be called by the governor, but this contract does not check that explicitly because it is\n      not its responsability in the current architecture\n     */\n    function execute() external override {\n        require(address(registry) != address(0), \"Use once\");\n        registry.setAddress(key, addr);\n        // usable just once!!!\n        registry = IRegistry(0);\n    }\n}\n",
  "sourcePath": "/home/jbokser/work2/OMoC-SC-Shared/contracts/change/MocRegisterAddrChange.sol",
  "compiler": {
    "name": "solc",
    "version": "0.6.12+commit.27d51765.Emscripten.clang"
  },
  "schemaVersion": "3.3.3",
  "updatedAt": "2021-02-04T20:51:03.380Z",
  "devdoc": {
    "kind": "dev",
    "methods": {
      "execute()": {
        "details": "Should be called by the governor, but this contract does not check that explicitly because it is not its responsability in the current architecture"
      }
    },
    "title": "MocRegistryInitChange",
    "version": 1
  },
  "userdoc": {
    "kind": "user",
    "methods": {
      "constructor": "Constructor",
      "execute()": {
        "notice": "Execute the changes."
      }
    },
    "notice": "This contract is a ChangeContract intended to initialize all the MOC registry values",
    "version": 1
  }
}