{
  "contractName": "MocToken",
  "abi": [
    {
      "inputs": [
        {
          "internalType": "uint256",
          "name": "_totalCirculation",
          "type": "uint256"
        }
      ],
      "stateMutability": "nonpayable",
      "type": "constructor"
    },
    {
      "anonymous": false,
      "inputs": [
        {
          "indexed": true,
          "internalType": "address",
          "name": "owner",
          "type": "address"
        },
        {
          "indexed": true,
          "internalType": "address",
          "name": "spender",
          "type": "address"
        },
        {
          "indexed": false,
          "internalType": "uint256",
          "name": "value",
          "type": "uint256"
        }
      ],
      "name": "Approval",
      "type": "event"
    },
    {
      "anonymous": false,
      "inputs": [
        {
          "indexed": true,
          "internalType": "address",
          "name": "previousOwner",
          "type": "address"
        },
        {
          "indexed": true,
          "internalType": "address",
          "name": "newOwner",
          "type": "address"
        }
      ],
      "name": "OwnershipTransferred",
      "type": "event"
    },
    {
      "anonymous": false,
      "inputs": [
        {
          "indexed": true,
          "internalType": "address",
          "name": "from",
          "type": "address"
        },
        {
          "indexed": true,
          "internalType": "address",
          "name": "to",
          "type": "address"
        },
        {
          "indexed": false,
          "internalType": "uint256",
          "name": "value",
          "type": "uint256"
        }
      ],
      "name": "Transfer",
      "type": "event"
    },
    {
      "inputs": [
        {
          "internalType": "address",
          "name": "owner",
          "type": "address"
        },
        {
          "internalType": "address",
          "name": "spender",
          "type": "address"
        }
      ],
      "name": "allowance",
      "outputs": [
        {
          "internalType": "uint256",
          "name": "",
          "type": "uint256"
        }
      ],
      "stateMutability": "view",
      "type": "function"
    },
    {
      "inputs": [
        {
          "internalType": "address",
          "name": "spender",
          "type": "address"
        },
        {
          "internalType": "uint256",
          "name": "amount",
          "type": "uint256"
        }
      ],
      "name": "approve",
      "outputs": [
        {
          "internalType": "bool",
          "name": "",
          "type": "bool"
        }
      ],
      "stateMutability": "nonpayable",
      "type": "function"
    },
    {
      "inputs": [
        {
          "internalType": "address",
          "name": "account",
          "type": "address"
        }
      ],
      "name": "balanceOf",
      "outputs": [
        {
          "internalType": "uint256",
          "name": "",
          "type": "uint256"
        }
      ],
      "stateMutability": "view",
      "type": "function"
    },
    {
      "inputs": [],
      "name": "decimals",
      "outputs": [
        {
          "internalType": "uint8",
          "name": "",
          "type": "uint8"
        }
      ],
      "stateMutability": "view",
      "type": "function"
    },
    {
      "inputs": [
        {
          "internalType": "address",
          "name": "spender",
          "type": "address"
        },
        {
          "internalType": "uint256",
          "name": "subtractedValue",
          "type": "uint256"
        }
      ],
      "name": "decreaseAllowance",
      "outputs": [
        {
          "internalType": "bool",
          "name": "",
          "type": "bool"
        }
      ],
      "stateMutability": "nonpayable",
      "type": "function"
    },
    {
      "inputs": [
        {
          "internalType": "address",
          "name": "spender",
          "type": "address"
        },
        {
          "internalType": "uint256",
          "name": "addedValue",
          "type": "uint256"
        }
      ],
      "name": "increaseAllowance",
      "outputs": [
        {
          "internalType": "bool",
          "name": "",
          "type": "bool"
        }
      ],
      "stateMutability": "nonpayable",
      "type": "function"
    },
    {
      "inputs": [],
      "name": "name",
      "outputs": [
        {
          "internalType": "string",
          "name": "",
          "type": "string"
        }
      ],
      "stateMutability": "view",
      "type": "function"
    },
    {
      "inputs": [],
      "name": "owner",
      "outputs": [
        {
          "internalType": "address",
          "name": "",
          "type": "address"
        }
      ],
      "stateMutability": "view",
      "type": "function"
    },
    {
      "inputs": [],
      "name": "renounceOwnership",
      "outputs": [],
      "stateMutability": "nonpayable",
      "type": "function"
    },
    {
      "inputs": [],
      "name": "symbol",
      "outputs": [
        {
          "internalType": "string",
          "name": "",
          "type": "string"
        }
      ],
      "stateMutability": "view",
      "type": "function"
    },
    {
      "inputs": [],
      "name": "totalCirculation",
      "outputs": [
        {
          "internalType": "uint256",
          "name": "",
          "type": "uint256"
        }
      ],
      "stateMutability": "view",
      "type": "function"
    },
    {
      "inputs": [],
      "name": "totalSupply",
      "outputs": [
        {
          "internalType": "uint256",
          "name": "",
          "type": "uint256"
        }
      ],
      "stateMutability": "view",
      "type": "function"
    },
    {
      "inputs": [
        {
          "internalType": "address",
          "name": "recipient",
          "type": "address"
        },
        {
          "internalType": "uint256",
          "name": "amount",
          "type": "uint256"
        }
      ],
      "name": "transfer",
      "outputs": [
        {
          "internalType": "bool",
          "name": "",
          "type": "bool"
        }
      ],
      "stateMutability": "nonpayable",
      "type": "function"
    },
    {
      "inputs": [
        {
          "internalType": "address",
          "name": "sender",
          "type": "address"
        },
        {
          "internalType": "address",
          "name": "recipient",
          "type": "address"
        },
        {
          "internalType": "uint256",
          "name": "amount",
          "type": "uint256"
        }
      ],
      "name": "transferFrom",
      "outputs": [
        {
          "internalType": "bool",
          "name": "",
          "type": "bool"
        }
      ],
      "stateMutability": "nonpayable",
      "type": "function"
    },
    {
      "inputs": [
        {
          "internalType": "address",
          "name": "newOwner",
          "type": "address"
        }
      ],
      "name": "transferOwnership",
      "outputs": [],
      "stateMutability": "nonpayable",
      "type": "function"
    },
    {
      "inputs": [
        {
          "internalType": "address",
          "name": "account",
          "type": "address"
        },
        {
          "internalType": "uint256",
          "name": "amount",
          "type": "uint256"
        }
      ],
      "name": "mint",
      "outputs": [],
      "stateMutability": "nonpayable",
      "type": "function"
    }
  ],
  "bytecode": "0x60806040523480156200001157600080fd5b506040516200196638038062001966833981810160405260208110156200003757600080fd5b505160c98190556040805180820182526003808252624d4f4360e81b60208381018290528451808601909552918452838201526200007f929062000961620000b2821b17901c565b6200009660126200017460201b62000a171760201c565b620000ab6200018a60201b62000a2d1760201c565b506200057d565b600054610100900460ff1680620000ce5750620000ce62000248565b80620000dd575060005460ff16155b6200011a5760405162461bcd60e51b815260040180806020018281038252602e81526020018062001938602e913960400191505060405180910390fd5b600054610100900460ff1615801562000146576000805460ff1961ff0019909116610100171660011790555b620001506200024e565b6200015c8383620002f6565b80156200016f576000805461ff00191690555b505050565b606a805460ff191660ff92909216919091179055565b600054610100900460ff1680620001a65750620001a662000248565b80620001b5575060005460ff16155b620001f25760405162461bcd60e51b815260040180806020018281038252602e81526020018062001938602e913960400191505060405180910390fd5b600054610100900460ff161580156200021e576000805460ff1961ff0019909116610100171660011790555b620002286200024e565b62000232620003da565b801562000245576000805461ff00191690555b50565b303b1590565b600054610100900460ff16806200026a57506200026a62000248565b8062000279575060005460ff16155b620002b65760405162461bcd60e51b815260040180806020018281038252602e81526020018062001938602e913960400191505060405180910390fd5b600054610100900460ff1615801562000232576000805460ff1961ff001990911661010017166001179055801562000245576000805461ff001916905550565b600054610100900460ff16806200031257506200031262000248565b8062000321575060005460ff16155b6200035e5760405162461bcd60e51b815260040180806020018281038252602e81526020018062001938602e913960400191505060405180910390fd5b600054610100900460ff161580156200038a576000805460ff1961ff0019909116610100171660011790555b82516200039f906068906020860190620004e1565b508151620003b5906069906020850190620004e1565b50606a805460ff1916601217905580156200016f576000805461ff0019169055505050565b600054610100900460ff1680620003f65750620003f662000248565b8062000405575060005460ff16155b620004425760405162461bcd60e51b815260040180806020018281038252602e81526020018062001938602e913960400191505060405180910390fd5b600054610100900460ff161580156200046e576000805460ff1961ff0019909116610100171660011790555b60006200047a620004dd565b609780546001600160a01b0319166001600160a01b038316908117909155604051919250906000907f8be0079c531659141344cd1fd0a4f28419497f9722a3daafe3b4186f6b6457e0908290a350801562000245576000805461ff001916905550565b3390565b828054600181600116156101000203166002900490600052602060002090601f016020900481019282601f106200052457805160ff191683800117855562000554565b8280016001018555821562000554579182015b828111156200055457825182559160200191906001019062000537565b506200056292915062000566565b5090565b5b8082111562000562576000815560010162000567565b6113ab806200058d6000396000f3fe608060405234801561001057600080fd5b50600436106101005760003560e01c806370a0823111610097578063a457c2d711610066578063a457c2d7146102ec578063a9059cbb14610318578063dd62ed3e14610344578063f2fde38b1461037257610100565b806370a0823114610292578063715018a6146102b85780638da5cb5b146102c057806395d89b41146102e457610100565b8063313ce567116100d3578063313ce56714610212578063395093511461023057806340c10f191461025c5780635dcf8d2b1461028a57610100565b806306fdde0314610105578063095ea7b31461018257806318160ddd146101c257806323b872dd146101dc575b600080fd5b61010d610398565b6040805160208082528351818301528351919283929083019185019080838360005b8381101561014757818101518382015260200161012f565b50505050905090810190601f1680156101745780820380516001836020036101000a031916815260200191505b509250505060405180910390f35b6101ae6004803603604081101561019857600080fd5b506001600160a01b03813516906020013561042e565b604080519115158252519081900360200190f35b6101ca61044b565b60408051918252519081900360200190f35b6101ae600480360360608110156101f257600080fd5b506001600160a01b03813581169160208101359091169060400135610451565b61021a6104d8565b6040805160ff9092168252519081900360200190f35b6101ae6004803603604081101561024657600080fd5b506001600160a01b0381351690602001356104e1565b6102886004803603604081101561027257600080fd5b506001600160a01b03813516906020013561052f565b005b6101ca61066a565b6101ca600480360360208110156102a857600080fd5b50356001600160a01b0316610670565b61028861068b565b6102c861073f565b604080516001600160a01b039092168252519081900360200190f35b61010d61074e565b6101ae6004803603604081101561030257600080fd5b506001600160a01b0381351690602001356107af565b6101ae6004803603604081101561032e57600080fd5b506001600160a01b038135169060200135610817565b6101ca6004803603604081101561035a57600080fd5b506001600160a01b038135811691602001351661082b565b6102886004803603602081101561038857600080fd5b50356001600160a01b0316610856565b60688054604080516020601f60026000196101006001881615020190951694909404938401819004810282018101909252828152606093909290918301828280156104245780601f106103f957610100808354040283529160200191610424565b820191906000526020600020905b81548152906001019060200180831161040757829003601f168201915b5050505050905090565b600061044261043b610adf565b8484610ae3565b50600192915050565b60675490565b600061045e848484610bcf565b6104ce8461046a610adf565b6104c9856040518060600160405280602881526020016112b2602891396001600160a01b038a166000908152606660205260408120906104a8610adf565b6001600160a01b031681526020810191909152604001600020549190610d2c565b610ae3565b5060019392505050565b606a5460ff1690565b60006104426104ee610adf565b846104c985606660006104ff610adf565b6001600160a01b03908116825260208083019390935260409182016000908120918c168152925290205490610dc3565b610537610adf565b6097546001600160a01b03908116911614610599576040805162461bcd60e51b815260206004820181905260248201527f4f776e61626c653a2063616c6c6572206973206e6f7420746865206f776e6572604482015290519081900360640190fd5b6105a161073f565b6001600160a01b0316826001600160a01b0316146105fe576040805162461bcd60e51b815260206004820152601560248201527413db9b1e481d1bc81bdddb995c881858d8dbdd5b9d605a1b604482015290519081900360640190fd5b60c95461061361060c61044b565b8390610dc3565b111561065c576040805162461bcd60e51b8152602060048201526013602482015272135a5b9d081b1a5b5a5d08195e18d959591959606a1b604482015290519081900360640190fd5b6106668282610e24565b5050565b60c95481565b6001600160a01b031660009081526065602052604090205490565b610693610adf565b6097546001600160a01b039081169116146106f5576040805162461bcd60e51b815260206004820181905260248201527f4f776e61626c653a2063616c6c6572206973206e6f7420746865206f776e6572604482015290519081900360640190fd5b6097546040516000916001600160a01b0316907f8be0079c531659141344cd1fd0a4f28419497f9722a3daafe3b4186f6b6457e0908390a3609780546001600160a01b0319169055565b6097546001600160a01b031690565b60698054604080516020601f60026000196101006001881615020190951694909404938401819004810282018101909252828152606093909290918301828280156104245780601f106103f957610100808354040283529160200191610424565b60006104426107bc610adf565b846104c98560405180606001604052806025815260200161135160259139606660006107e6610adf565b6001600160a01b03908116825260208083019390935260409182016000908120918d16815292529020549190610d2c565b6000610442610824610adf565b8484610bcf565b6001600160a01b03918216600090815260666020908152604080832093909416825291909152205490565b61085e610adf565b6097546001600160a01b039081169116146108c0576040805162461bcd60e51b815260206004820181905260248201527f4f776e61626c653a2063616c6c6572206973206e6f7420746865206f776e6572604482015290519081900360640190fd5b6001600160a01b0381166109055760405162461bcd60e51b81526004018080602001828103825260268152602001806112446026913960400191505060405180910390fd5b6097546040516001600160a01b038084169216907f8be0079c531659141344cd1fd0a4f28419497f9722a3daafe3b4186f6b6457e090600090a3609780546001600160a01b0319166001600160a01b0392909216919091179055565b600054610100900460ff168061097a575061097a610f16565b80610988575060005460ff16155b6109c35760405162461bcd60e51b815260040180806020018281038252602e8152602001806112da602e913960400191505060405180910390fd5b600054610100900460ff161580156109ee576000805460ff1961ff0019909116610100171660011790555b6109f6610f1c565b610a008383610fbc565b8015610a12576000805461ff00191690555b505050565b606a805460ff191660ff92909216919091179055565b600054610100900460ff1680610a465750610a46610f16565b80610a54575060005460ff16155b610a8f5760405162461bcd60e51b815260040180806020018281038252602e8152602001806112da602e913960400191505060405180910390fd5b600054610100900460ff16158015610aba576000805460ff1961ff0019909116610100171660011790555b610ac2610f1c565b610aca611094565b8015610adc576000805461ff00191690555b50565b3390565b6001600160a01b038316610b285760405162461bcd60e51b815260040180806020018281038252602481526020018061132d6024913960400191505060405180910390fd5b6001600160a01b038216610b6d5760405162461bcd60e51b815260040180806020018281038252602281526020018061126a6022913960400191505060405180910390fd5b6001600160a01b03808416600081815260666020908152604080832094871680845294825291829020859055815185815291517f8c5be1e5ebec7d5bd14f71427d1e84f3dd0314c0f7b2291e5b200ac8c7c3b9259281900390910190a3505050565b6001600160a01b038316610c145760405162461bcd60e51b81526004018080602001828103825260258152602001806113086025913960400191505060405180910390fd5b6001600160a01b038216610c595760405162461bcd60e51b81526004018080602001828103825260238152602001806112216023913960400191505060405180910390fd5b610c64838383610a12565b610ca18160405180606001604052806026815260200161128c602691396001600160a01b0386166000908152606560205260409020549190610d2c565b6001600160a01b038085166000908152606560205260408082209390935590841681522054610cd09082610dc3565b6001600160a01b0380841660008181526065602090815260409182902094909455805185815290519193928716927fddf252ad1be2c89b69c2b068fc378daa952ba7f163c4a11628f55a4df523b3ef92918290030190a3505050565b60008184841115610dbb5760405162461bcd60e51b81526004018080602001828103825283818151815260200191508051906020019080838360005b83811015610d80578181015183820152602001610d68565b50505050905090810190601f168015610dad5780820380516001836020036101000a031916815260200191505b509250505060405180910390fd5b505050900390565b600082820183811015610e1d576040805162461bcd60e51b815260206004820152601b60248201527f536166654d6174683a206164646974696f6e206f766572666c6f770000000000604482015290519081900360640190fd5b9392505050565b6001600160a01b038216610e7f576040805162461bcd60e51b815260206004820152601f60248201527f45524332303a206d696e7420746f20746865207a65726f206164647265737300604482015290519081900360640190fd5b610e8b60008383610a12565b606754610e989082610dc3565b6067556001600160a01b038216600090815260656020526040902054610ebe9082610dc3565b6001600160a01b03831660008181526065602090815260408083209490945583518581529351929391927fddf252ad1be2c89b69c2b068fc378daa952ba7f163c4a11628f55a4df523b3ef9281900390910190a35050565b303b1590565b600054610100900460ff1680610f355750610f35610f16565b80610f43575060005460ff16155b610f7e5760405162461bcd60e51b815260040180806020018281038252602e8152602001806112da602e913960400191505060405180910390fd5b600054610100900460ff16158015610aca576000805460ff1961ff0019909116610100171660011790558015610adc576000805461ff001916905550565b600054610100900460ff1680610fd55750610fd5610f16565b80610fe3575060005460ff16155b61101e5760405162461bcd60e51b815260040180806020018281038252602e8152602001806112da602e913960400191505060405180910390fd5b600054610100900460ff16158015611049576000805460ff1961ff0019909116610100171660011790555b825161105c90606890602086019061118d565b50815161107090606990602085019061118d565b50606a805460ff191660121790558015610a12576000805461ff0019169055505050565b600054610100900460ff16806110ad57506110ad610f16565b806110bb575060005460ff16155b6110f65760405162461bcd60e51b815260040180806020018281038252602e8152602001806112da602e913960400191505060405180910390fd5b600054610100900460ff16158015611121576000805460ff1961ff0019909116610100171660011790555b600061112b610adf565b609780546001600160a01b0319166001600160a01b038316908117909155604051919250906000907f8be0079c531659141344cd1fd0a4f28419497f9722a3daafe3b4186f6b6457e0908290a3508015610adc576000805461ff001916905550565b828054600181600116156101000203166002900490600052602060002090601f016020900481019282601f106111ce57805160ff19168380011785556111fb565b828001600101855582156111fb579182015b828111156111fb5782518255916020019190600101906111e0565b5061120792915061120b565b5090565b5b80821115611207576000815560010161120c56fe45524332303a207472616e7366657220746f20746865207a65726f20616464726573734f776e61626c653a206e6577206f776e657220697320746865207a65726f206164647265737345524332303a20617070726f766520746f20746865207a65726f206164647265737345524332303a207472616e7366657220616d6f756e7420657863656564732062616c616e636545524332303a207472616e7366657220616d6f756e74206578636565647320616c6c6f77616e6365436f6e747261637420696e7374616e63652068617320616c7265616479206265656e20696e697469616c697a656445524332303a207472616e736665722066726f6d20746865207a65726f206164647265737345524332303a20617070726f76652066726f6d20746865207a65726f206164647265737345524332303a2064656372656173656420616c6c6f77616e63652062656c6f77207a65726fa264697066735822122038c41a665aea4346810ebb15f42e5556ea7fa0b65182ecfb658b16f99296f9b164736f6c634300060c0033436f6e747261637420696e7374616e63652068617320616c7265616479206265656e20696e697469616c697a6564",
  "immutableReferences": {},
  "source": "// SPDX-License-Identifier: UNLICENSED\npragma solidity ^0.6.2;\n/*\n    A Ownable standard ERC20 that has a circulation (minting) limit.\n    The owner can mint an get the tokens at any moment until the circulation limit.\n*/\n\n// prettier-ignore\nimport {ERC20UpgradeSafe} from \"@openzeppelin/contracts-ethereum-package/contracts/token/ERC20/ERC20.sol\";\n// prettier-ignore\nimport {OwnableUpgradeSafe} from \"@openzeppelin/contracts-ethereum-package/contracts/access/Ownable.sol\";\n// prettier-ignore\nimport {SafeMath} from \"@openzeppelin/contracts-ethereum-package/contracts/math/SafeMath.sol\";\n\ncontract MocToken is ERC20UpgradeSafe, OwnableUpgradeSafe {\n    using SafeMath for uint256;\n    uint256 public totalCirculation;\n\n    /**\n     * @dev Initializes the contract.\n     *\n     * @param _totalCirculation, limit to the amount of tokens that can be minted.\n     */\n    constructor(uint256 _totalCirculation) public {\n        totalCirculation = _totalCirculation;\n        ERC20UpgradeSafe.__ERC20_init(\"MOC\", \"MOC\");\n        ERC20UpgradeSafe._setupDecimals(18);\n        OwnableUpgradeSafe.__Ownable_init();\n    }\n\n    /** @dev Creates `amount` tokens and assigns them to `account`, increasing\n     * the total supply.\n     *\n     * Emits a {Transfer} event with `from` set to the zero address.\n     *\n     * Requirements\n     *\n     * - `to` cannot be the zero address.\n     */\n    function mint(address account, uint256 amount) external onlyOwner {\n        // This token can mint only into owner account\n        require(account == owner(), \"Only to owner account\");\n        require(amount.add(totalSupply()) <= totalCirculation, \"Mint limit exceeded\");\n        _mint(account, amount);\n    }\n}\n",
  "sourcePath": "/home/jbokser/work2/OMoC-SC-Shared/contracts/MocToken.sol",
  "compiler": {
    "name": "solc",
    "version": "0.6.12+commit.27d51765.Emscripten.clang"
  },
  "schemaVersion": "3.1.0",
  "updatedAt": "2021-02-04T21:00:13.827Z",
  "networkType": "ethereum",
  "devdoc": {
    "kind": "dev",
    "methods": {
      "allowance(address,address)": {
        "details": "See {IERC20-allowance}."
      },
      "approve(address,uint256)": {
        "details": "See {IERC20-approve}. Requirements: - `spender` cannot be the zero address."
      },
      "balanceOf(address)": {
        "details": "See {IERC20-balanceOf}."
      },
      "constructor": {
        "details": "Initializes the contract.",
        "params": {
          "_totalCirculation": ", limit to the amount of tokens that can be minted."
        }
      },
      "decimals()": {
        "details": "Returns the number of decimals used to get its user representation. For example, if `decimals` equals `2`, a balance of `505` tokens should be displayed to a user as `5,05` (`505 / 10 ** 2`). Tokens usually opt for a value of 18, imitating the relationship between Ether and Wei. This is the value {ERC20} uses, unless {_setupDecimals} is called. NOTE: This information is only used for _display_ purposes: it in no way affects any of the arithmetic of the contract, including {IERC20-balanceOf} and {IERC20-transfer}."
      },
      "decreaseAllowance(address,uint256)": {
        "details": "Atomically decreases the allowance granted to `spender` by the caller. This is an alternative to {approve} that can be used as a mitigation for problems described in {IERC20-approve}. Emits an {Approval} event indicating the updated allowance. Requirements: - `spender` cannot be the zero address. - `spender` must have allowance for the caller of at least `subtractedValue`."
      },
      "increaseAllowance(address,uint256)": {
        "details": "Atomically increases the allowance granted to `spender` by the caller. This is an alternative to {approve} that can be used as a mitigation for problems described in {IERC20-approve}. Emits an {Approval} event indicating the updated allowance. Requirements: - `spender` cannot be the zero address."
      },
      "mint(address,uint256)": {
        "details": "Creates `amount` tokens and assigns them to `account`, increasing the total supply. Emits a {Transfer} event with `from` set to the zero address. Requirements - `to` cannot be the zero address."
      },
      "name()": {
        "details": "Returns the name of the token."
      },
      "owner()": {
        "details": "Returns the address of the current owner."
      },
      "renounceOwnership()": {
        "details": "Leaves the contract without owner. It will not be possible to call `onlyOwner` functions anymore. Can only be called by the current owner. NOTE: Renouncing ownership will leave the contract without an owner, thereby removing any functionality that is only available to the owner."
      },
      "symbol()": {
        "details": "Returns the symbol of the token, usually a shorter version of the name."
      },
      "totalSupply()": {
        "details": "See {IERC20-totalSupply}."
      },
      "transfer(address,uint256)": {
        "details": "See {IERC20-transfer}. Requirements: - `recipient` cannot be the zero address. - the caller must have a balance of at least `amount`."
      },
      "transferFrom(address,address,uint256)": {
        "details": "See {IERC20-transferFrom}. Emits an {Approval} event indicating the updated allowance. This is not required by the EIP. See the note at the beginning of {ERC20}; Requirements: - `sender` and `recipient` cannot be the zero address. - `sender` must have a balance of at least `amount`. - the caller must have allowance for ``sender``'s tokens of at least `amount`."
      },
      "transferOwnership(address)": {
        "details": "Transfers ownership of the contract to a new account (`newOwner`). Can only be called by the current owner."
      }
    },
    "version": 1
  },
  "userdoc": {
    "kind": "user",
    "methods": {},
    "version": 1
  }
}