{
  "contractName": "UpgradeDelegator",
  "abi": [
    {
      "inputs": [
        {
          "internalType": "contract IGovernor",
          "name": "newIGovernor",
          "type": "address"
        }
      ],
      "name": "changeIGovernor",
      "outputs": [],
      "stateMutability": "nonpayable",
      "type": "function"
    },
    {
      "inputs": [
        {
          "internalType": "bytes",
          "name": "data",
          "type": "bytes"
        }
      ],
      "name": "delegateCallToChanger",
      "outputs": [
        {
          "internalType": "bytes",
          "name": "",
          "type": "bytes"
        }
      ],
      "stateMutability": "nonpayable",
      "type": "function"
    },
    {
      "inputs": [],
      "name": "governor",
      "outputs": [
        {
          "internalType": "contract IGovernor",
          "name": "",
          "type": "address"
        }
      ],
      "stateMutability": "view",
      "type": "function"
    },
    {
      "inputs": [],
      "name": "proxyAdmin",
      "outputs": [
        {
          "internalType": "contract IOZProxyAdmin",
          "name": "",
          "type": "address"
        }
      ],
      "stateMutability": "view",
      "type": "function"
    },
    {
      "inputs": [
        {
          "internalType": "contract IGovernor",
          "name": "_governor",
          "type": "address"
        },
        {
          "internalType": "contract IOZProxyAdmin",
          "name": "_proxyAdmin",
          "type": "address"
        }
      ],
      "name": "initialize",
      "outputs": [],
      "stateMutability": "nonpayable",
      "type": "function"
    },
    {
      "inputs": [
        {
          "internalType": "contract IOZAdminUpgradeabilityProxy",
          "name": "proxy",
          "type": "address"
        }
      ],
      "name": "getProxyImplementation",
      "outputs": [
        {
          "internalType": "address",
          "name": "",
          "type": "address"
        }
      ],
      "stateMutability": "view",
      "type": "function"
    },
    {
      "inputs": [
        {
          "internalType": "contract IOZAdminUpgradeabilityProxy",
          "name": "proxy",
          "type": "address"
        }
      ],
      "name": "getProxyAdmin",
      "outputs": [
        {
          "internalType": "address",
          "name": "",
          "type": "address"
        }
      ],
      "stateMutability": "view",
      "type": "function"
    },
    {
      "inputs": [
        {
          "internalType": "contract IOZAdminUpgradeabilityProxy",
          "name": "proxy",
          "type": "address"
        },
        {
          "internalType": "address",
          "name": "newAdmin",
          "type": "address"
        }
      ],
      "name": "changeProxyAdmin",
      "outputs": [],
      "stateMutability": "nonpayable",
      "type": "function"
    },
    {
      "inputs": [
        {
          "internalType": "contract IOZAdminUpgradeabilityProxy",
          "name": "proxy",
          "type": "address"
        },
        {
          "internalType": "address",
          "name": "implementation",
          "type": "address"
        }
      ],
      "name": "upgrade",
      "outputs": [],
      "stateMutability": "nonpayable",
      "type": "function"
    },
    {
      "inputs": [
        {
          "internalType": "contract IOZAdminUpgradeabilityProxy",
          "name": "proxy",
          "type": "address"
        },
        {
          "internalType": "address",
          "name": "implementation",
          "type": "address"
        },
        {
          "internalType": "bytes",
          "name": "data",
          "type": "bytes"
        }
      ],
      "name": "upgradeAndCall",
      "outputs": [],
      "stateMutability": "payable",
      "type": "function"
    }
  ],
  "bytecode": "0x608060405234801561001057600080fd5b50610e43806100206000396000f3fe6080604052600436106100915760003560e01c80639623609d116100595780639623609d1461018757806399a88ec414610246578063b6e0833014610281578063dc8990e1146102b4578063f3b7dead146103a657610091565b80630c340a2414610096578063204e1c7a146100c75780633e47158c146100fa578063485cc9551461010f5780637eff275e1461014c575b600080fd5b3480156100a257600080fd5b506100ab6103d9565b604080516001600160a01b039092168252519081900360200190f35b3480156100d357600080fd5b506100ab600480360360208110156100ea57600080fd5b50356001600160a01b03166103e8565b34801561010657600080fd5b506100ab61046b565b34801561011b57600080fd5b5061014a6004803603604081101561013257600080fd5b506001600160a01b038135811691602001351661047a565b005b34801561015857600080fd5b5061014a6004803603604081101561016f57600080fd5b506001600160a01b0381358116916020013516610542565b61014a6004803603606081101561019d57600080fd5b6001600160a01b0382358116926020810135909116918101906060810160408201356401000000008111156101d157600080fd5b8201836020820111156101e357600080fd5b8035906020019184600183028401116401000000008311171561020557600080fd5b91908080601f0160208091040260200160405190810160405280939291908181526020018383808284376000920191909152509295506106e2945050505050565b34801561025257600080fd5b5061014a6004803603604081101561026957600080fd5b506001600160a01b03813581169160200135166108b8565b34801561028d57600080fd5b5061014a600480360360208110156102a457600080fd5b50356001600160a01b03166109ff565b3480156102c057600080fd5b50610331600480360360208110156102d757600080fd5b8101906020810181356401000000008111156102f257600080fd5b82018360208201111561030457600080fd5b8035906020019184600183028401116401000000008311171561032657600080fd5b509092509050610b12565b6040805160208082528351818301528351919283929083019185019080838360005b8381101561036b578181015183820152602001610353565b50505050905090810190601f1680156103985780820380516001836020036101000a031916815260200191505b509250505060405180910390f35b3480156103b257600080fd5b506100ab600480360360208110156103c957600080fd5b50356001600160a01b0316610d66565b6033546001600160a01b031681565b606654604080516310270e3d60e11b81526001600160a01b0384811660048301529151600093929092169163204e1c7a91602480820192602092909190829003018186803b15801561043957600080fd5b505afa15801561044d573d6000803e3d6000fd5b505050506040513d602081101561046357600080fd5b505192915050565b6066546001600160a01b031681565b600054610100900460ff16806104935750610493610db7565b806104a1575060005460ff16155b6104dc5760405162461bcd60e51b815260040180806020018281038252602e815260200180610de0602e913960400191505060405180910390fd5b600054610100900460ff16158015610507576000805460ff1961ff0019909116610100171660011790555b61051083610dbd565b606680546001600160a01b0319166001600160a01b038416179055801561053d576000805461ff00191690555b505050565b6033546040805163d994d6d560e01b815233600482015290516001600160a01b039092169163d994d6d591602480820192602092909190829003018186803b15801561058d57600080fd5b505afa1580156105a1573d6000803e3d6000fd5b505050506040513d60208110156105b757600080fd5b50516040805180820190915260168152753737ba2fb0baba3437b934bd32b22fb1b430b733b2b960511b60208201529061066f5760405162461bcd60e51b81526004018080602001828103825283818151815260200191508051906020019080838360005b8381101561063457818101518382015260200161061c565b50505050905090810190601f1680156106615780820380516001836020036101000a031916815260200191505b509250505060405180910390fd5b5060665460408051633f7f93af60e11b81526001600160a01b038581166004830152848116602483015291519190921691637eff275e91604480830192600092919082900301818387803b1580156106c657600080fd5b505af11580156106da573d6000803e3d6000fd5b505050505050565b6033546040805163d994d6d560e01b815233600482015290516001600160a01b039092169163d994d6d591602480820192602092909190829003018186803b15801561072d57600080fd5b505afa158015610741573d6000803e3d6000fd5b505050506040513d602081101561075757600080fd5b50516040805180820190915260168152753737ba2fb0baba3437b934bd32b22fb1b430b733b2b960511b6020820152906107d25760405162461bcd60e51b815260206004820181815283516024840152835190928392604490910191908501908083836000831561063457818101518382015260200161061c565b50606654604051639623609d60e01b81526001600160a01b038581166004830190815285821660248401526060604484019081528551606485015285519290941693639623609d9334938993899389939192909160840190602085019080838360005b8381101561084d578181015183820152602001610835565b50505050905090810190601f16801561087a5780820380516001836020036101000a031916815260200191505b509450505050506000604051808303818588803b15801561089a57600080fd5b505af11580156108ae573d6000803e3d6000fd5b5050505050505050565b6033546040805163d994d6d560e01b815233600482015290516001600160a01b039092169163d994d6d591602480820192602092909190829003018186803b15801561090357600080fd5b505afa158015610917573d6000803e3d6000fd5b505050506040513d602081101561092d57600080fd5b50516040805180820190915260168152753737ba2fb0baba3437b934bd32b22fb1b430b733b2b960511b6020820152906109a85760405162461bcd60e51b815260206004820181815283516024840152835190928392604490910191908501908083836000831561063457818101518382015260200161061c565b506066546040805163266a23b160e21b81526001600160a01b0385811660048301528481166024830152915191909216916399a88ec491604480830192600092919082900301818387803b1580156106c657600080fd5b6033546040805163d994d6d560e01b815233600482015290516001600160a01b039092169163d994d6d591602480820192602092909190829003018186803b158015610a4a57600080fd5b505afa158015610a5e573d6000803e3d6000fd5b505050506040513d6020811015610a7457600080fd5b50516040805180820190915260168152753737ba2fb0baba3437b934bd32b22fb1b430b733b2b960511b602082015290610aef5760405162461bcd60e51b815260206004820181815283516024840152835190928392604490910191908501908083836000831561063457818101518382015260200161061c565b50603380546001600160a01b0319166001600160a01b0392909216919091179055565b6033546040805163d994d6d560e01b815233600482015290516060926001600160a01b03169163d994d6d5916024808301926020929190829003018186803b158015610b5d57600080fd5b505afa158015610b71573d6000803e3d6000fd5b505050506040513d6020811015610b8757600080fd5b50516040805180820190915260168152753737ba2fb0baba3437b934bd32b22fb1b430b733b2b960511b602082015290610c025760405162461bcd60e51b815260206004820181815283516024840152835190928392604490910191908501908083836000831561063457818101518382015260200161061c565b50600033905060006060826001600160a01b031686866040516024018080602001828103825284848281815260200192508082843760008382015260408051601f909201601f1990811690940182810390940182529283526020810180516001600160e01b03166350b113e560e11b17815292518151919750955085945091925081905083835b60208310610ca85780518252601f199092019160209182019101610c89565b6001836020036101000a038019825116818451168082178552505050505050905001915050600060405180830381855af49150503d8060008114610d08576040519150601f19603f3d011682016040523d82523d6000602084013e610d0d565b606091505b509150915081610d5d576040805162461bcd60e51b8152602060048201526016602482015275115c9c9bdc881a5b8819195b1959d85d194818d85b1b60521b604482015290519081900360640190fd5b95945050505050565b6066546040805163f3b7dead60e01b81526001600160a01b0384811660048301529151600093929092169163f3b7dead91602480820192602092909190829003018186803b15801561043957600080fd5b303b1590565b603380546001600160a01b0319166001600160a01b039290921691909117905556fe436f6e747261637420696e7374616e63652068617320616c7265616479206265656e20696e697469616c697a6564a2646970667358221220fb4cde56140290969768c849537edfa91a636c3bd943f21915527ddbd50436b364736f6c634300060c0033",
  "immutableReferences": {},
  "source": "// SPDX-License-Identifier: UNLICENSED\npragma solidity ^0.6.0;\n\nimport {IOZAdminUpgradeabilityProxy} from \"../IOZAdminUpgradeabilityProxy.sol\";\nimport {IOZProxyAdmin} from \"../IOZProxyAdmin.sol\";\nimport {Governed} from \"../Governance/Governed.sol\";\nimport {IGovernor} from \"../Governance/IGovernor.sol\";\nimport {Initializable} from \"@openzeppelin/contracts-ethereum-package/contracts/Initializable.sol\";\n\n/**\n  @title UpgradeDelegator\n  @notice Dispatches to the proxyAdmin any call made through the governance system\n  @dev Adapter between our governance system and the zeppelinOS proxyAdmin. This is\n  needed to be able to upgrade governance through the same system\n\n */\ncontract UpgradeDelegator is Initializable, Governed {\n    IOZProxyAdmin public proxyAdmin;\n\n    function initialize(IGovernor _governor, IOZProxyAdmin _proxyAdmin) public initializer {\n        Governed._initialize(_governor);\n        proxyAdmin = _proxyAdmin;\n    }\n\n    /**\n     * @dev Returns the current implementation of a proxy.\n     * This is needed because only the proxy admin can query it.\n     * @return The address of the current implementation of the proxy.\n     */\n    function getProxyImplementation(IOZAdminUpgradeabilityProxy proxy)\n        public\n        view\n        returns (address)\n    {\n        return proxyAdmin.getProxyImplementation(proxy);\n    }\n\n    /**\n     * @dev Returns the admin of a proxy. Only the admin can query it.\n     * @return The address of the current admin of the proxy.\n     */\n    function getProxyAdmin(IOZAdminUpgradeabilityProxy proxy) public view returns (address) {\n        return proxyAdmin.getProxyAdmin(proxy);\n    }\n\n    /**\n     * @dev Changes the admin of a proxy.\n     * @param proxy Proxy to change admin.\n     * @param newAdmin Address to transfer proxy administration to.\n     */\n    function changeProxyAdmin(IOZAdminUpgradeabilityProxy proxy, address newAdmin)\n        public\n        onlyAuthorizedChanger\n    {\n        proxyAdmin.changeProxyAdmin(proxy, newAdmin);\n    }\n\n    /**\n     * @dev Upgrades a proxy to the newest implementation of a contract.\n     * @param proxy Proxy to be upgraded.\n     * @param implementation the address of the Implementation.\n     */\n    function upgrade(IOZAdminUpgradeabilityProxy proxy, address implementation)\n        public\n        onlyAuthorizedChanger\n    {\n        proxyAdmin.upgrade(proxy, implementation);\n    }\n\n    /**\n     * @dev Upgrades a proxy to the newest implementation of a contract and forwards a function call to it.\n     * This is useful to initialize the proxied contract.\n     * @param proxy Proxy to be upgraded.\n     * @param implementation Address of the Implementation.\n     * @param data Data to send as msg.data in the low level call.\n     * It should include the signature and the parameters of the function to be called, as described in\n     * https://solidity.readthedocs.io/en/v0.4.24/abi-spec.html#function-selector-and-argument-encoding.\n     */\n    function upgradeAndCall(\n        IOZAdminUpgradeabilityProxy proxy,\n        address implementation,\n        bytes memory data\n    ) public payable onlyAuthorizedChanger {\n        proxyAdmin.upgradeAndCall{value: msg.value}(proxy, implementation, data);\n    }\n}\n",
  "sourcePath": "/home/jbokser/work2/OMoC-SC-Shared/contracts/moc-governance/Upgradeability/UpgradeDelegator.sol",
  "compiler": {
    "name": "solc",
    "version": "0.6.12+commit.27d51765.Emscripten.clang"
  },
  "schemaVersion": "3.3.3",
  "updatedAt": "2021-02-04T20:51:03.404Z",
  "devdoc": {
    "details": "Adapter between our governance system and the zeppelinOS proxyAdmin. This is needed to be able to upgrade governance through the same system",
    "kind": "dev",
    "methods": {
      "changeIGovernor(address)": {
        "params": {
          "newIGovernor": "New governor address"
        }
      },
      "changeProxyAdmin(address,address)": {
        "details": "Changes the admin of a proxy.",
        "params": {
          "newAdmin": "Address to transfer proxy administration to.",
          "proxy": "Proxy to change admin."
        }
      },
      "delegateCallToChanger(bytes)": {
        "params": {
          "data": "the serialized function arguments"
        }
      },
      "getProxyAdmin(address)": {
        "details": "Returns the admin of a proxy. Only the admin can query it.",
        "returns": {
          "_0": "The address of the current admin of the proxy."
        }
      },
      "getProxyImplementation(address)": {
        "details": "Returns the current implementation of a proxy. This is needed because only the proxy admin can query it.",
        "returns": {
          "_0": "The address of the current implementation of the proxy."
        }
      },
      "upgrade(address,address)": {
        "details": "Upgrades a proxy to the newest implementation of a contract.",
        "params": {
          "implementation": "the address of the Implementation.",
          "proxy": "Proxy to be upgraded."
        }
      },
      "upgradeAndCall(address,address,bytes)": {
        "details": "Upgrades a proxy to the newest implementation of a contract and forwards a function call to it. This is useful to initialize the proxied contract.",
        "params": {
          "data": "Data to send as msg.data in the low level call. It should include the signature and the parameters of the function to be called, as described in https://solidity.readthedocs.io/en/v0.4.24/abi-spec.html#function-selector-and-argument-encoding.",
          "implementation": "Address of the Implementation.",
          "proxy": "Proxy to be upgraded."
        }
      }
    },
    "title": "UpgradeDelegator",
    "version": 1
  },
  "userdoc": {
    "kind": "user",
    "methods": {
      "changeIGovernor(address)": {
        "notice": "Change the contract's governor. Should be called through the old governance system"
      },
      "delegateCallToChanger(bytes)": {
        "notice": "This method is used by a change contract to access the storage freely even without a setter."
      },
      "governor()": {
        "notice": "The address of the contract which governs this one"
      }
    },
    "notice": "Dispatches to the proxyAdmin any call made through the governance system",
    "version": 1
  }
}